:020000040800F2
:10000000084100200D22000871220008712200081A
:10001000712200087122000871220008000000000F
:100020000000000000000000000000000161000866
:100030007122000800000000D96100081562000864
:1000400071220008C1850008712200087122000891
:100050007122000871220008712200087122000834
:100060007122000871220008712200087122000824
:100070007122000871220008712200087122000814
:100080007122000871220008712200087122000804
:1000900071220008712200087122000871220008F4
:1000A00071220008712200087122000871220008E4
:1000B00071220008712200083145000871220008F1
:1000C00071220008712200087122000871220008C4
:1000D00071220008712200087122000871220008B4
:1000E0007122000871220008655200087122000880
:1000F0007122000871220008712200087122000894
:100100007122000871220008712200087122000883
:100110007122000871220008712200087122000873
:100120007122000871220008712200087122000863
:100130007122000871220008712200087122000853
:1001400071220008712200087122000899520008EB
:100150007122000871220008712200087122000833
:100160007122000871220008712200087122000823
:100170007122000871220008712200087122000813
:10018000712200087122000880B485B000AF786049
:100190004FF00003FB607B68DB684FF0FF325A6072
:1001A0007B68DB684FF0FF325A61FB6843F0004325
:1001B000FB60FB6843F40063FB607B68DB68FA6804
:1001C0009A6107F11407BD4680BC704780B586B0C0
:1001D00000AF78604FF00003FB744FF000037B61C9
:1001E0004FF00003FB604FF0030004F0FFFF7B685B
:1001F000DB681B69FB607B6903F101037B617A6942
:100200001A4B9A4202D94FF0000329E0FB68C3F36E
:10021000C073DBB2002BE6D04FF000037B61FB68BC
:1002200043F00103FB607B68DB68FA681A617B6856
:10023000DB681B69FB607B6903F101037B617A6901
:100240000A4B9A4206D8FB68C3F30003DBB2012BCA
:10025000EDD000E000BF4FF0030004F0C7FFFB7CCF
:10026000184607F11807BD4680BD00BF400D0300CA
:1002700080B489B000AFF860B960FA71BB804FF00C
:100280000003FB76FB68DB78002B2CD14FF00003DA
:100290007B614FF00003FB61BB8803F10303002B7C
:1002A00001DA03F103034FEAA3037B61FB79FA68E8
:1002B00003F132034FEA8303D3189B683B614FF08D
:1002C0000003FB610BE0BB681A683B691A60FB69BD
:1002D00003F10103FB61BB6803F10403BB60FA692E
:1002E0007B699A42EFD3FB7E184607F12407BD468F
:1002F00080BC704780B489B000AFF860B960134625
:10030000FB804FF00003FB61FB8803F10303002B2C
:1003100001DA03F103034FEAA303BB61FB68D3F8DF
:10032000D0307B614FF00003FB610BE07B691A6802
:10033000BB681A60FB6903F10103FB61BB6803F151
:100340000403BB60FA69BB699A42EFD3BB681846E5
:1003500007F12407BD4680BC704700BF80B487B05A
:1003600000AF78600B46FB704FF000033B614FF02D
:100370000003FB737B684FF00002DA707B684FF07C
:1003800001029A707B684FF040029A80FB78012B43
:1003900017D14FF0A0433B617B684FF00102DA7246
:1003A0007B684FF008021A707B684FF004025A70A5
:1003B0007B684FF4A072DA807B684FF002021A72F9
:1003C00014E0FB78002B11D14F4B3B617B684FF061
:1003D0000002DA727B684FF00C021A707B684FF0F3
:1003E00006025A707B684FF4A062DA803A697B6833
:1003F000DA603B6903F500631A467B681A614FF0C7
:1004000000037B6123E07B694FEA43123B69D31809
:1004100003F510631A4679687B6903F104034FEA18
:100420008303CB189A607B694FEA43123B69D31868
:1004300003F530631A4679687B6903F114034FEAC8
:100440008303CB185A607B6903F101037B617B68EE
:100450005B781A467B699A42D5D83B6903F580637D
:100460001A467B685A613B6903F588631A467B68C4
:10047000C3F8CC204FF000037B6113E07B694FEAA7
:1004800043123B69D31803F5A0631A4679687B6968
:1004900003F122034FEA8303CB189A607B6903F1CF
:1004A00001037B617B681B781A467B699A42E5D819
:1004B0004FF000037B6113E07B694FEA03323B6935
:1004C000D31803F580531A4679687B6903F1320328
:1004D0004FEA8303CB189A607B6903F101037B61C8
:1004E0007B681B781A467B699A42E5D83B6903F51D
:1004F00060631A467B68C3F80C21FB7B184607F142
:100500001C07BD4680BC70470000044080B588B021
:1005100000AF78604FF00003FB774FF00003BB6142
:100520004FF000037B614FF00003FB607B681B7A98
:10053000012B51D17B68DB689B6B7B617B696FF31F
:1005400010437B617B685B7A002B03D07B6943F4AB
:1005500080137B617B68DB687A699A634FF00003E4
:10056000BB617B68DB68DB68BB61BB696FF38613CB
:10057000BB61BB696FF39653BB61BB6943F010036A
:10058000BB61BB696FF3C303BB61BB696FF3C71387
:10059000BB61BB696FF35143BB61BB696FF3D3436D
:1005A000BB617B68DB68BA69DA607868FFF70EFECA
:1005B0007B68DB78012B40F08980FB684FF00502F7
:1005C00062F34403FB60FB6843F02003FB607B683D
:1005D000DB68FA689A6079E07B68DB68DB68BB619E
:1005E000BB6943F04003BB617B68DB68BA69DA60D2
:1005F0007868FFF7EBFD4FF000037B617B6943F404
:1006000080337B617B681B7A032B03D17B6943F4C6
:1006100000337B617B6943F480237B617B6943F416
:1006200000237B617B6943F400137B617B685B7A09
:10063000002B03D07B6943F480137B617B68DB680C
:100640007A699A634FF0140004F0FCFD7B68DB6864
:10065000DB68BB617B681B7A032B03D1BB6943F466
:100660008033BB617B68DB68BA69DA607B681B7AC0
:10067000032B2BD17B68DB681B6B3B613B694FF025
:10068000010262F39B633B613B696FF3D7533B61AC
:100690003B6943F080533B613B694FF02D0262F3AD
:1006A00016433B617B68DB683A691A634FF0C80008
:1006B00004F0C8FD3B6943F400033B617B68DB68E1
:1006C0003A691A634FF0C80004F0BCFD7B68DB7820
:1006D000012B11D17B68DB689B68FB60FB684FF0E6
:1006E000050262F34403FB60FB6843F02003FB60F8
:1006F0007B68DB68FA689A60FB7F184607F1200781
:10070000BD4680BD80B485B000AF78604FF0000377
:10071000FB734FF00003BB60BB6843F00103BB6099
:100720007B68DB687A68D2689168BA680A439A6025
:10073000FB7B184607F11407BD4680BC704700BF1D
:1007400080B485B000AF78604FF00003FB734FF0CA
:100750000003BB60BB6843F00103BB607B68DB68E0
:100760007A68D2689168BA686FEA02020A409A60B1
:10077000FB7B184607F11407BD4680BC704700BFDD
:1007800080B586B000AF786039604FF00003FB742D
:100790004FF000037B614FF00003FB60FB6843F008
:1007A0002003FB603B68DBB203F01F03DAB2FB6897
:1007B00062F38A13FB607B68DB68FA681A617B6806
:1007C000DB681B69FB607B6903F101037B617A696C
:1007D0000A4B9A4206D8FB68C3F34013DBB2012BE5
:1007E000EDD000E000BF4FF0030004F0FFFCFB7C05
:1007F000184607F11807BD4680BD00BF400D030035
:1008000080B586B000AF78604FF00003FB744FF006
:1008100000037B614FF00003FB60FB6843F01003B3
:10082000FB607B68DB68FA681A617B68DB681B69C0
:10083000FB607B6903F101037B617A690A4B9A4291
:1008400006D8FB68C3F30013DBB2012BEDD000E048
:1008500000BF4FF0030004F0C9FCFB7C184607F111
:100860001807BD4680BD00BF400D030080B584B0B1
:1008700000AF78600B46FB704FF00003FB737B68A2
:10088000DB68DB68BB60BB686FF35D73BB60BB6834
:100890006FF39E73BB60FB78012B04D1BB6843F000
:1008A0000053BB6006E0FB78002B03D1BB6843F02C
:1008B0008043BB607B68DB68BA68DA604FF0320067
:1008C00004F0C0FCFB7B184607F11007BD4680BD55
:1008D00080B483B000AF78607B68DB685B6903F04D
:1008E0000103184607F10C07BD4680BC704700BFE6
:1008F00080B582B000AF78607868FFF7E9FF034603
:10090000012B0CBF00230123DBB2184607F10807B7
:10091000BD4680BD80B485B000AF78604FF0000365
:10092000FB607B68DB685B69FB607B68DB689B69FD
:10093000FA681340FB60FB68184607F11407BD46D0
:1009400080BC704780B485B000AF78600B46FB7008
:100950007B681B691B68FB60FB7803F00303DAB25A
:10096000FB6862F30103FB607B681B69FA681A602D
:1009700007F11407BD4680BC704700BF80B58CB03E
:1009800000AF78604FF0000387F82B304FF0000382
:100990007B624FF000033B624FF00003FB614FF0BE
:1009A0000003BB614FF000037B617B68D3F80C311F
:1009B0004FF000021A607B681B691B683B623B6A50
:1009C0006FF3CC233B627B681B693A6A1A607B68D1
:1009D000DB7A012B47D178684FF00301FFF7B2FFB4
:1009E0007B68DB684FF080025A62FB694FF020029F
:1009F00062F31F43FB61FB694FF0800262F30F0358
:100A0000FB617B68DB68FA699A62BA8BFB8BD3184F
:100A10009BB23B83BB694FF0800262F31F43BB6113
:100A20007B68DB68BA69C3F804213A8B7B8BD318E7
:100A30009BB23B83BB694FF0200262F31F43BB6153
:100A40007B68DB68BA69C3F808213A8B7B8BD318C3
:100A50009BB23B83BB696FF31F43BB617B68DB6861
:100A6000BA69C3F80C2178684FF01001FFF788FECF
:100A70007868FFF7C5FE7B681B694FF000021A61BA
:100A80007B681B694FF000025A617B681B694FF05D
:100A9000FF329A617B681B694FF00002DA614FF008
:100AA0000003FB6242E07A68FB6A03F104034FEA49
:100AB0008303D3189B681B687B627B6AC3F3C07394
:100AC000DBB2002B0BD04FF000037B627B6A43F05C
:100AD00080437B627B6A43F000637B6202E04FF0FD
:100AE00000037B627A68FB6A03F104034FEA830325
:100AF000D3189B687A6A1A607A68FB6A03F1040368
:100B00004FEA8303D3189B684FF000021A617A689A
:100B1000FB6A03F104034FEA8303D3189B684FF089
:100B2000FF029A60FB6A03F10103FB627B685B785A
:100B30001A46FB6A9A42B6D84FF00003FB6242E0C5
:100B40007A68FB6A03F114034FEA8303D3185B68E6
:100B50001B68FB60FB68C3F3C073DBB2002B0BD0D8
:100B60004FF00003FB60FB6843F08043FB60FB68D1
:100B700043F00063FB6002E04FF00003FB607A6823
:100B8000FB6A03F114034FEA8303D3185B68FA6826
:100B90001A607A68FB6A03F114034FEA8303D318DF
:100BA0005B684FF000021A617A68FB6A03F1140374
:100BB0004FEA8303D3185B684FF0FF029A60FB6A29
:100BC00003F10103FB627B685B781A46FB6A9A4279
:100BD000B6D84FF000037B617B6943F480737B617F
:100BE0007B681B697A68126911697A696FEA020287
:100BF00011407A690A431A617B68DB78012B1ED1A8
:100C00004FF000033B613B6943F001033B613B69EB
:100C100043F002033B613B694FF0400262F38A03F9
:100C20003B613B6943F480333B613B694FF04002D9
:100C300062F359433B617B681B693A691A637868C0
:100C400000F008F897F82B30184607F13007BD463A
:100C500080BD00BF80B584B000AF78604FF0000366
:100C6000FB734FF00003BB607B68DB684FF0000252
:100C70009A617B68DB684FF0FF325A617868FFF752
:100C800083FA7B68DB78002B03D1BB6843F0100349
:100C9000BB60BB6843F40063BB60BB6843F4805334
:100CA000BB60BB6843F40053BB60BB6843F4802364
:100CB000BB60BB6843F40023BB60BB6843F0080320
:100CC000BB60BB6843F48013BB60BB6843F4001394
:100CD000BB607B68DB687A68D2689169BA686FEA42
:100CE00002021140BA680A439A61FB7B184607F179
:100CF0001007BD4680BD00BF80B485B000AF7860EE
:100D00004FF00003FB737B681B699B68BB60BB688B
:100D1000C3F34103DBB2022B0BD0032B05D0012B15
:100D200003D04FF00303FB7307E04FF00203FB73A4
:100D300003E04FF00103FB7300BFFB7B184607F194
:100D40001407BD4680BC704780B487B000AF7860A0
:100D50004FF00003FB754FF00003BB607B681B691D
:100D60009B683B617B689B691B68FB603B69C3F3C5
:100D70004103DBB2022B04D0FB686FF30A03FB6074
:100D800006E0FB684FF0030262F30A03FB6000BF5A
:100D90007B689B69FA681A60BB6843F48073BB6028
:100DA0007B681B697A6812695168BA686FEA020247
:100DB0001140BA680A435A60FB7D184607F11C07C8
:100DC000BD4680BC704700BF80B487B000AF78607C
:100DD00039604FF00003FB744FF00003FB604FF0ED
:100DE0000003BB603B685B78012B12D13B681B782A
:100DF0007A6803F104034FEA8303D3189B687B618D
:100E00003B681B784FF0010202FA03F39BB23B816F
:100E100014E03B681B787A6803F114034FEA8303FC
:100E2000D3185B687B613B681B784FF0010202FAC4
:100E300003F39AB2BB6862F31F43BB607B691B6814
:100E4000FB60FB68C3F3C033DBB2002B29D13B68E6
:100E50009B689BB24FEA43534FEA53539AB2FB68E5
:100E600062F30A03FB603B68DB7803F00303DAB24A
:100E7000FB6862F39343FB603B68DB88DBB203F003
:100E80000F03DAB2FB6862F39953FB60FB6843F02F
:100E90008053FB60FB6843F40043FB60FA687B69A6
:100EA0001A607B681B697A681269D169BA680A435B
:100EB000DA61FB7C184607F11C07BD4680BC704711
:100EC00080B487B000AF786039604FF00003FB74E6
:100ED0004FF00003FB604FF00003BB603B685B78A2
:100EE000012B12D13B681B787A6803F104034FEAA7
:100EF0008303D3189B687B613B681B784FF001022A
:100F000002FA03F39BB23B8114E03B681B787A68DA
:100F100003F114034FEA8303D3185B687B613B68DA
:100F20001B784FF0010202FA03F39AB2BB6862F336
:100F30001F43BB60FB686FF3CF33FB60FA687B69CC
:100F40001A607B681B697A681269D169BA686FEAAE
:100F500002020A40DA61FB7C184607F11C07BD4615
:100F600080BC704780B588B000AF786039604FF0C2
:100F70000003FB774FF00003BB614FF000037B6180
:100F80004FF000033B613B685B78012B40F0BD8074
:100F90003B681B787A6803F104034FEA8303D31894
:100FA0009B681B687B613B681B787A6803F10403CC
:100FB0004FEA8303D3189B681B693B613B685B69FD
:100FC000002B0AD13B696FF312033B613B694FF081
:100FD000010262F3DC433B6128E03B685B6923F07C
:100FE0007F4222F478023B6962F312033B613B6863
:100FF0005A693B689B68D31803F1FF323B689B68D2
:10100000B2FBF3F39BB24FEA83534FEA93539AB286
:101010003B6962F3DC433B613B68DB78012B05D124
:101020003B694FF0010262F35E733B613B681B78E2
:101030007A6803F104034FEA8303D3189B683A6983
:101040001A617B68DB78012B0CD13B681B787A68CE
:1010500003F104034FEA8303D3189B683A681269CB
:101060005A6116E03B68DB78012B12D03B685B6964
:10107000002B0ED03B681B784FF0010202FA03F3FD
:10108000BB617B681B697A681269516BBA690A4354
:101090005A633B68DB78012B14D17B681B699B6822
:1010A000FB60FB68C3F30D239BB203F00103002B2D
:1010B00004D17B6943F000537B6103E07B6943F01B
:1010C00080537B617B6943F080637B617B6943F084
:1010D00000437B613B681B787A6803F104034FEAA5
:1010E0008303D3189B687A691A603B68DB78012B0D
:1010F00040F09A803B68D9683B681A783B685B6926
:101100009BB27868FFF7B4F88EE03B681B787A688A
:1011100003F114034FEA8303D3185B681B687B61F8
:101120003B681B787A6803F114034FEA8303D318F2
:101130005B681B693B613B685B69002B10D13B68B6
:101140009B6823F07F4222F478023B6962F312032A
:101150003B613B694FF0010262F3DC433B6124E0F9
:101160003B685A693B689B68D31803F1FF323B68C0
:101170009B68B2FBF3F39BB24FEA83534FEA93535E
:101180009AB23B6962F3DC433B613B69C3F3C943F9
:101190009BB23A68926802FB03F323F07F4222F489
:1011A00078023B6962F312033B613B681B787A6803
:1011B00003F114034FEA8303D3185B683A691A6199
:1011C0007B68DB78012B0BD13B681B787A6803F1D5
:1011D00014034FEA8303D3185B683A6812695A61B3
:1011E0003B68DB78012B0CD13B685B79002B04D08A
:1011F0007B6943F000537B6103E07B6943F08053DC
:101200007B617B6943F080637B617B6943F00043D2
:101210007B613B681B787A6803F114034FEA830310
:10122000D3185B687A691A60FB7F184607F12007BC
:10123000BD4680BD80B489B000AF786039604FF0A2
:101240000003FB774FF00003BB614FF000033B61ED
:101250004FF00003BB603B685B78012B75D17B6866
:101260009B697B617B691B683B617B691B69BB6018
:101270003B685B69002B0AD13B7A6FF306033B7234
:10128000BB7A4FF0010262F3C403BB7224E03B68F7
:101290005A693B689B689A420ED93B689A683B68DA
:1012A0005A613B689B68DBB203F07F03DAB23B7A9A
:1012B00062F306033B7209E03B685B69DBB203F053
:1012C0007F03DAB23B7A62F306033B72BB7A4FF0DC
:1012D000010262F3C403BB72BA687B691A617B685E
:1012E000DB78012B0BD13B681B787A6803F1040390
:1012F0004FEA8303D3189B683A6812695A613B69C5
:1013000043F080633B613B6943F000433B613A69D2
:101310007B691A607B68DB78002B40F083803B6838
:101320005B69002B7ED03B681B784FF0010202FA0C
:1013300003F3BA691343BB617B681B697A6812695E
:10134000516BBA690A435A636CE03B681B787A6850
:1013500003F114034FEA8303D3185B681B683B61F6
:101360003B681B787A6803F114034FEA8303D318B0
:101370005B681B69BB603B685B69002B10D13B68F5
:101380009B68DBB203F07F03DAB23B7A62F30603B9
:101390003B72BB7A4FF0010262F3C403BB7213E0ED
:1013A0003B689A683B685A613B689B68DBB203F014
:1013B0007F03DAB23B7A62F306033B72BB7A4FF0EB
:1013C000010262F3C403BB723B681B787A6803F1C5
:1013D00014034FEA8303D3185B68BA681A617B6809
:1013E000DB78012B0BD13B681B787A6803F114037F
:1013F0004FEA8303D3185B683A6812695A613B6904
:1014000043F080633B613B6943F000433B613B68D1
:101410001B787A6803F114034FEA8303D3185B68DF
:101420003A691A60FB7F184607F12407BD4680BC65
:10143000704700BF80B487B000AF786039604FF06C
:101440000003FB754FF00003FB603B685B78012BEA
:101450001ED13B681B787A6803F104034FEA8303CB
:10146000D3189B683B613B691B68FB60FB68C3F357
:10147000C073DBB2002B03D0FB6843F08043FB60FA
:10148000FB6843F40013FB60FA683B691A6013E0E1
:101490003B681B787A6803F114034FEA8303D3187F
:1014A0005B683B613B691B68FB60FB6843F40013AE
:1014B000FB60FA683B691A60FB7D184607F11C0760
:1014C000BD4680BC704700BF80B487B000AF786075
:1014D00039604FF00003FB744FF00003FB603B6882
:1014E0005B78012B0AD13B681B787A6803F104030F
:1014F0004FEA8303D3189B687B6109E03B681B7844
:101500007A6803F114034FEA8303D3185B687B61A5
:101510007B691B68FB60FB686FF35553FB603B689E
:10152000DB78032B03D03B68DB78022B03D1FB680D
:1015300043F08053FB60FA687B691A60FB7C1846B5
:1015400007F11C07BD4680BC704700BF80B485B062
:1015500000AF78607B681B699B69FB607B681B69D7
:10156000DB69FA681340FB60FB684FEA13431846D7
:1015700007F11407BD4680BC704700BF80B485B03A
:1015800000AF78600B46FB70FB787A6803F11403B8
:101590004FEA8303D3185B689B68FB607B681B6919
:1015A0005B69FA681340FB60FB68184607F1140793
:1015B000BD4680BC704700BF80B485B000AF786086
:1015C0007B681B699B69FB607B681B69DB69FA6848
:1015D0001340FB60FB684FEA03434FEA134318468E
:1015E00007F11407BD4680BC704700BF80B487B0C8
:1015F00000AF78604FF000033B61FB7C43F0C00319
:10160000FB74BB7C4FF0010262F3C403BB743B7CF0
:101610004FF0180262F306033B747B685B6D3A6916
:101620001A617B68DB78012B17D14FF00003FB6058
:101630007B685B6D7A6802F5B9625A617B685B6DA5
:101640001B68FB60FB6843F00043FB604FF08023A6
:10165000FB607B685B6DFA681A6007F11C07BD468A
:1016600080BC704780B485B000AF78607B689B7A9F
:10167000002B1BD07B681B699B68FB60FB68C3F376
:101680000003DBB2012B11D17B6803F586731B6865
:10169000BB60BB686FF34103BB60BB686FF30003C3
:1016A000BB607B68D3F80C31BA681A6007F1140785
:1016B000BD4680BC704700BF80B400AFBD4680BC53
:1016C000704700BF80B400AFBD4680BC704700BF0C
:1016D00080B487B000AF786013460A467A803B80BA
:1016E0004FF00003FB754FF00003FB81234B1B7889
:1016F0007A889A4237D37A883B88D2181F4B1B7856
:1017000019461F4B1B78CB189A422CDC7A881D4B4C
:101710001B78D31A3B6122E01B4B3A6933F8123035
:101720009BB24FEA13239BB2DAB27B681A707B68D4
:1017300003F101037B60144B3A6933F812309BB21A
:10174000DAB27B681A707B6803F101037B603B6946
:1017500003F101033B613B8803F1FF333B803B888E
:10176000002BD9D102E04FF00103FB75FB7D184639
:1017700007F11C07BD4680BC704700BF0400002075
:101780000600002008000020C001002080B485B0C1
:1017900000AFF86079813A81FB714FF00103184680
:1017A00007F11407BD4680BC704700BF80B485B008
:1017B00000AFF86079813A81FB714FF00103184660
:1017C00007F11407BD4680BC704700BF80B483B0EA
:1017D00000AF786013460A467A803B804FF00103E1
:1017E000184607F10C07BD4680BC704780B584B031
:1017F00000AF3B600346FB710B46BB7113467B7128
:101800004FF00003FB73BB79002B05D0BB79002B95
:1018100002D0BB79F72B03D94FF00203FB7340E0F2
:10182000234BBA791A70FB79002B24D1214B224A21
:101830001A60224B224A1A60224B234A1A60234B19
:10184000234A1A60234B4FF000021A60224B234AAE
:101850001A60234B234A1A60234B244A1A60144B04
:1018600019787A793B7E084611463A6803F03AF8CF
:101870000346FB7302E04FF00203FB73FB7B002B7C
:101880000FD100F025FA0346002B03D14FF00303DC
:10189000FB7306E0164BFA791A70164B4FF00102F3
:1018A0001A70FB7B184607F11007BD4680BD00BFCC
:1018B000C0020020C802002069490008CC020020B4
:1018C00095490008C4020020394A0008D0020020CF
:1018D000B5490008D402002060280020194B0008F8
:1018E00058280020D54B00085C280020614C0008D7
:1018F000C10200200C00002080B582B000AF4FF084
:101900000003FB710A4B1B78012B07D1094B1B68A5
:101910009847074B4FF000021A7002E04FF00603A1
:10192000FB71FB79184607F10807BD4680BD00BF73
:101930000C000020C802002080B582B000AF4FF03C
:101940000003FB70574B1B78002B02D04FF00603AF
:10195000A2E007F10203184600F0E0F90346012B6C
:1019600040F09880BB78032B00F2948001A252F8DB
:1019700023F000BF951A000885190008B91900085E
:10198000951A0008484B1B6848484949494A9847F6
:101990000346FB70FB78002B79D1444B1A78464BF9
:1019A0001B789A4203D0414B1B78002B6FD14FF02C
:1019B000020000F09BF96AE03D4B1B681A783F4B30
:1019C0001A703F4B4FF001021A704FF000037B601A
:1019D00021E03C4B7A6813F83230002B1FD0394B92
:1019E0007A6813F83220354B1B789A420FD1354A6A
:1019F0007B684FEAC303D3185B682D4A1268104610
:101A00002C49984703461A462D4B1A7008E07B680C
:101A100003F101037B607B680F2BDADD00E000BF80
:101A2000224B1B78002B34D0254B1B78002B22D067
:101A3000204B4FF000021A801D4B19681D4B1B886C
:101A40001A468A181D49097861F07F01C9B21170E0
:101A500003F101039AB2174B1A80154B1968154B05
:101A60001B881A468A1816490978117003F1010378
:101A70009AB2104B1A80144B1B680F4A10780C4A0C
:101A800011680C4A128898470346FB7001E000BFBA
:101A900000E000BF4FF00003184607F10807BD46FD
:101AA00080BD00BF0C000020D0020020D802002022
:101AB000DC020020E0020020C0020020E202002040
:101AC000E302002010000020C402002080B586B090
:101AD00004AF4FF0000300934FF000004FF00A01F5
:101AE0004FF000024FF46143FFF780FE0346FB71A5
:101AF0004FF0010300934FF0000301934FF00003F8
:101B000002934FF000030393054806494FF4807297
:101B10004FF0000301F044FC07F10807BD4680BD0B
:101B2000291B0008E888000880B582B000AF786003
:101B3000FFF7E2FE084B4FF000021A71FFF7FCFEC0
:101B40004FF00A0001F000FD034B1B6803F1010296
:101B5000014B1A60F2E700BF642E002080B586B00A
:101B600000AF786039604FF00003BB753B681B889D
:101B7000052B40F081807B6803F101031B784FEA5D
:101B80000323BB827B6803F102031B781A46BB8ADE
:101B90001343BB82BB8A03F10103BB827B6803F161
:101BA00003031B784FEA03237B827B6803F1040362
:101BB0001B781A467B8A13437B827B8A002B57D083
:101BC0007A8A40F2CF739A4252D87B68FB603B68B6
:101BD0004FF000021A80FB684FF002021A70FB6897
:101BE00003F10103FB603B681B8803F101039AB218
:101BF0003B681A807B8A03F00703002B08D07B8A9E
:101C00004FEAD3039BB2DBB203F10103FB7504E09F
:101C10007B8A4FEAD3039BB2FB75FB68FA7D1A708F
:101C2000FB6803F10103FB603B681B8803F10103C0
:101C30009AB23B681A80BA8A7B8AF86811461A46BB
:101C4000FFF7C4FD0346FB72FB7A002B06D0FB7A3C
:101C5000184600F0B7FA0346BB7510E03B681A88D7
:101C6000FB7D9BB2D3189AB23B681A8000BF06E096
:101C70004FF00303BB7502E04FF00303BB75BB7D60
:101C8000184607F11807BD4680BD00BF80B400AFFD
:101C9000BD4680BC704700BF80B483B000AF034630
:101CA000FB7107F10C07BD4680BC704780B400AFE4
:101CB000BD4680BC704700BF80B400AFBD4680BC4D
:101CC000704700BF80B400AFBD4680BC704700BF06
:101CD00080B400AF044B4FF000021A704FF00103C4
:101CE0001846BD4680BC7047E502002080B483B032
:101CF00000AF0346FB71074B4FF001021A70064B11
:101D0000FA791A704FF00103184607F10C07BD4627
:101D100080BC7047E5020020E402002080B485B05A
:101D200000AF78604FF00003FB730B4B1B78002B68
:101D30000AD00A4B1A787B681A70074B4FF00002E2
:101D40001A704FF00103FB73FB7B184607F1140771
:101D5000BD4680BC704700BFE5020020E4020020C1
:101D600080B586B004AF4FF004004FF0010100F0E1
:101D70007DFF4FF080033B604FF000037B714FF01D
:101D800001033B714FF00003BB714FF00003FB7187
:101D90003B461148194602F0E7F90F484FF0800121
:101DA0004FF0000202F0BEFA4FF0010300930B4B1C
:101DB00001934FF0000302934FF000030393084890
:101DC00008494FF040024FF0000301F0E9FA07F133
:101DD0000807BD4680BD00BF000802406C280020F7
:101DE000E91D0008F088000880B582B000AF786077
:101DF000704B1B78012B40F0D5806E4B5B78072B26
:101E000000F2CC8001A252F823F000BF2D1E000882
:101E10005B1E0008891E0008B71E0008E51E0008AA
:101E2000131F0008411F00086F1F000862484FF091
:101E300080014FF0010202F075FA4FF4FA7001F0E0
:101E400083FB5D484FF080014FF0000202F06AFA18
:101E50004FF4FA7001F078FBA4E057484FF080018E
:101E60004FF0010202F05EFA4FF0640001F06CFBEB
:101E700051484FF080014FF0000202F053FA4FF04A
:101E8000C80001F061FB8DE04B484FF080014FF03E
:101E9000010202F047FA4FF0640001F055FB46489A
:101EA0004FF080014FF0000202F03CFA4FF0C80002
:101EB00001F04AFB76E040484FF080014FF001020C
:101EC00002F030FA4FF0640001F03EFB3A484FF068
:101ED00080014FF0000202F025FA4FF0C80001F037
:101EE00033FB5FE034484FF080014FF0010202F015
:101EF00019FA4FF0640001F027FB2F484FF08001E2
:101F00004FF0000202F00EFA4FF0C80001F01CFB87
:101F100048E029484FF080014FF0010202F002FA38
:101F20004FF0640001F010FB23484FF080014FF0A8
:101F3000000202F0F7F94FF0C80001F005FB31E0B4
:101F40001D484FF080014FF0010202F0EBF94FF015
:101F5000640001F0F9FA18484FF080014FF00002D8
:101F600002F0E0F94FF0C80001F0EEFA1AE0124872
:101F70004FF080014FF0010202F0D4F94FF06400FD
:101F800001F0E2FA0C484FF080014FF0000202F03D
:101F9000C9F94FF0C80001F0D7FA03E04FF4FA7026
:101FA00001F0D2FA054B9B6803F10102034B9A60E2
:101FB0001EE700BF7028002000080240642E0020A9
:101FC00080B582B000AF786039607B6803F10102B0
:101FD0000A4B1B8810460A491A4606F033FB074B8A
:101FE0001B8803F101039AB23B681A804FF000038B
:101FF000184607F10807BD4680BD00BF0803002052
:10200000E802002080B485B000AF78604FF0000394
:10201000FB60094B1B68FB60FB6823F0E003FB607F
:10202000FA687B681343FB60034BFA681A6007F198
:102030001407BD4680BC70470070004080B483B078
:1020400000AF0346FB71044BFA791A6007F10C07E5
:10205000BD4680BC704700BF10000E4280B58AB0FC
:1020600000AF4FF002004FF0010100F0FFFD4FF014
:10207000F0033B624FF0020387F824304FF0000377
:1020800087F825304FF0000387F8263007F120034A
:102090004948194602F068F847484FF004014FF0EC
:1020A000020202F057F944484FF005014FF00202D6
:1020B00002F050F940484FF006014FF0020202F0E2
:1020C00049F93D484FF007014FF0020202F042F992
:1020D0004FF002004FF0010100F008FE4FF0040045
:1020E0004FF0010100F002FE07F11403184605F05D
:1020F000FDFF4FF40073BB834FF48073BB614FF05F
:102100003C03BB8207F114032C48194605F082FFFB
:1021100007F114032A48194605F07CFF3B46184690
:1021200006F05EF94FF001037B804FF060033B80C7
:102130004FF00003BB603B462048194606F042F8CA
:102140003B461E48194606F0B9F83B461C4819465E
:1021500006F038F83B461A48194606F0AFF818481A
:102160004FF0080106F066F915484FF0080106F037
:102170007DF913484FF0010105F0E4FF0F484FF0DF
:10218000010105F0FFFF0E484FF0010105F0FAFFD5
:102190000A4B4FF000025A63084B4FF000029A635B
:1021A000074B4FF000025A63054B4FF000029A6351
:1021B00007F12807BD4680BD00040240000400402E
:1021C0000008004080B485B000AF0346FB71FB7986
:1021D000012B07D0072B09D0002B0BD14FF00003A8
:1021E000FB730BE04FF00203FB7307E04FF00603B5
:1021F000FB7303E04FF00403FB7300BFFB7B184647
:1022000007F11407BD4680BC704700BF80B582B09F
:1022100000AF124B7B60124B3B600BE07B681A688F
:102220003B681A603B6803F104033B607B6803F181
:1022300004037B603A680B4B9A42EFD30A480B4980
:102240004FF000028842B8BF40F8042BFFF6FAAF07
:1022500000F08AFC07F10807BD4680BDCC8B000862
:1022600000000020C0010020C0010020083900202B
:1022700080B400AFFEE700BF80B500AF4FF4802010
:102280004FF0010100F0F2FC4FF080504FF00101DF
:1022900000F02CFD80BD00BF80B483B000AF0346CA
:1022A000FB80044BFA881A6007F10C07BD4680BC1E
:1022B000704700BF0030004080B483B000AF0346D9
:1022C000FB71044BFA795A6007F10C07BD4680BCDC
:1022D000704700BF0030004080B483B000AF0346B9
:1022E000FB80044BFA889A6007F10C07BD4680BC5E
:1022F000704700BF0030004080B400AF034B4AF687
:10230000AA221A60BD4680BC704700BF0030004062
:1023100080B400AF034B4CF6CC421A60BD4680BC83
:10232000704700BF0030004080B584B000AF7860D7
:1023300039604FF00003FB733B681B88052B2AD1E3
:102340007B6803F101031B784FEA0323BB817B68A1
:1023500003F102031B781A46BB891343BB81BB8977
:1023600003F10103BB817B6803F10302BB891046C3
:1023700019464FF001024FF00103FFF707FA034639
:10238000FB72FB7A002B09D0FB7A1846FFF71AFF85
:102390000346FB7302E04FF00303FB73FB7B18461D
:1023A00007F11007BD4680BD80B584B000AF7860EE
:1023B00039604FF00003FB733B681B88052B54D931
:1023C0007B6803F101031B784FEA0323BB817B6821
:1023D00003F102031B781A46BB891343BB81BB89F7
:1023E00003F10103BB817B6803F103031B784FEA10
:1023F00003237B817B6803F104031B781A467B89E6
:1024000013437B817B685B797B727B89002B28D0AF
:102410007B89782B25D87B89DBB24FEA4303DBB27B
:102420007A7A9A421DD17B6803F10601BA897B89C9
:10243000084611461A464FF00103FFF7A7F9034675
:102440003B723B7A002B06D03B7A1846FFF7BAFE68
:102450000346FB730CE03B684FF005021A8000BF97
:1024600006E04FF00303FB7302E04FF00303FB733E
:10247000FB7B184607F11007BD4680BD80B586B0CE
:1024800000AF786039604FF00003FB753B681B8834
:10249000052B70D17B6803F101031B784FEA0323FE
:1024A000BB827B6803F102031B781A46BB8A134385
:1024B000BB82BB8A03F10103BB827B6803F1030388
:1024C0001B784FEA03237B827B6803F104031B78AC
:1024D0007B827B8A002B4AD07B8A7D2B47D87B6806
:1024E000FB603B684FF000021A80FB684FF003026C
:1024F0001A70FB6803F10103FB603B681B8803F162
:1025000001039AB23B681A807B8ADBB24FEA43032D
:10251000DAB2FB681A70FB6803F10103FB603B68E9
:102520001B8803F101039AB23B681A80BA8A7B8A3E
:10253000F86811461A464FF00003FFF727F90346E3
:10254000FB72FB7A002B06D0FB7A1846FFF73AFEA7
:102550000346FB7512E03B681A887B8A4FEA430307
:102560009BB2D3189AB23B681A8000BF06E04FF0C6
:102570000303FB7502E04FF00303FB75FB7D184678
:1025800007F11807BD4680BD80B586B000AF786002
:1025900039604FF00003FB753B681B88092B40F244
:1025A000B6807B6803F101031B784FEA0323BB82EB
:1025B0007B6803F102031B781A46BB8A1343BB8274
:1025C000BB8A03F10103BB827B6803F103031B7821
:1025D0004FEA03237B827B6803F104031B781A46CE
:1025E0007B8A13437B827B6803F105031B784FEAE8
:1025F00003233B827B6803F106031B781A463B8A60
:1026000013433B823B8A03F101033B827B6803F166
:1026100007031B784FEA0323FB817B6803F1080360
:102620001B781A46FB891343FB817B685B7A7B73BB
:102630007B8A002B68D07B8A7D2B65D8FB89002B99
:1026400062D0FB89792B5FD8FB894FEA43027B7B01
:102650009A4259D17B6803F10A013A8AFB890846FC
:1026600011461A464FF00103FFF790F80346BB7579
:10267000BB7D002B3ED17B68BB603B684FF0000206
:102680001A80BB684FF017021A70BB6803F1010390
:10269000BB603B681B8803F101039AB23B681A8058
:1026A0007B8ADBB24FEA4303DAB2BB681A70BB68BD
:1026B00003F10103BB603B681B8803F101039AB27D
:1026C0003B681A80BA8A7B8AB86811461A464FF06E
:1026D0000003FFF75BF80346BB75BB7D002B09D1F8
:1026E0003B681A887B8A4FEA43039BB2D3189AB29D
:1026F0003B681A80BB7D002B09D0BB7D1846FFF7D5
:1027000061FD0346FB7502E04FF00303FB75FB7DA3
:10271000184607F11807BD4680BD00BF80B584B0DC
:1027200000AFF8607A603B600B46FB72F86802F01D
:10273000D9FCF86800F01EF8FB683A68C3F8E02599
:10274000FB68BA69C3F8E425FB687A68C3F8E82532
:10275000FB7AF868194605F0FDF8FB68D3F8E43514
:102760001B689847F86802F023FD07F11007BD4683
:1027700080BD00BF80B483B000AF78604FF000032D
:10278000184607F10C07BD4680BC704780B584B081
:1027900000AF786007F108037868194603F08AF9FA
:1027A0003B7A03F01F03012B0AD0022B0FD0002B22
:1027B00014D107F108037868194602F075FD16E098
:1027C00007F108037868194602F0C0FD0FE007F131
:1027D00008037868194602F0EFFD08E03B7A23F021
:1027E0007F03DBB27868194605F068FA00BF4FF046
:1027F0000003184607F11007BD4680BD80B584B0C0
:1028000000AF78600B46FB70FB78002B45D17B68EE
:1028100003F55C73FB607B6893F81131032B4FD198
:10282000FB68DA69FB689B689A4221D9FB68DA6920
:10283000FB689B68D21AFB68DA617B68DB78012B46
:1028400006D1FB68DA68FB689B68D218FB68DA601F
:10285000FB68DA68FB689968FB68DB69994238BFF6
:102860000B469BB2786811461A4605F07FFB27E0BD
:102870007B68D3F8E0351B69002B0AD07B6893F89E
:102880001231032B05D17B68D3F8E0351B697868DA
:102890009847786805F082FB12E07B68D3F8E03552
:1028A0009B69002B0CD07B6893F81231032B07D166
:1028B0007B68D3F8E0359B69FA78786811469847C9
:1028C0004FF00003184607F11007BD4680BD00BF5A
:1028D00080B584B000AF78600B46FB70FB78002BAE
:1028E00063D17B6803F58C73FB607B6893F81131CF
:1028F000022B6ED1FB68DA69FB689B689A421CD98F
:10290000FB68DA69FB689B68D21AFB68DA617B684E
:10291000DB78012B06D1FB68DA68FB689B68D2186C
:10292000FB68DA60FB68DA68FB68DB699BB2786891
:1029300011461A4605F0DEFA4BE0FB681B6AFA689E
:102940009268B3FBF2F102FB01F29B1A002B17D144
:10295000FB681A6AFB689B689A4211D3FB681A6A83
:10296000FB685B6A9A420BD278684FF000014FF027
:10297000000205F0BFFAFB684FF000025A6229E03E
:102980007B68D3F8E035DB68002B0AD07B6893F8CE
:102990001231032B05D17B68D3F8E035DB6878680A
:1029A0009847786805F018FB13E07B68D3F8E035AA
:1029B0005B69002B0ED07B6893F81231032B09D191
:1029C0007B68D3F8E0355B69FA78786811469847F8
:1029D00000E000BF4FF00003184607F11007BD46A6
:1029E00080BD00BF80B582B000AF786078684FF0DE
:1029F00000014FF040024FF0000305F041F8786805
:102A00004FF080014FF040024FF0000305F038F81E
:102A10007B684FF0010283F812217B68D3F8E4351C
:102A20005B687A689278104698474FF00003184622
:102A300007F10807BD4680BD80B582B000AF786061
:102A40007B68D3F8E4351B6998477B684FF0030235
:102A500083F812214FF00003184607F10807BD461E
:102A600080BD00BF80B582B000AF78607B684FF05A
:102A7000040283F812217B68D3F8E435DB689847B9
:102A80004FF00003184607F10807BD4680BD00BFA0
:102A900080B582B000AF78607B68D3F8E035DB6941
:102AA000002B05D07B68D3F8E035DB697868984760
:102AB0004FF00003184607F10807BD4680BD00BF70
:102AC00080B582B000AF78600B46FB707B68D3F8AE
:102AD000E0351B68FA787868114698477B68D3F828
:102AE000E4359B6898474FF00003184607F1080744
:102AF000BD4680BD80B582B000AF78600B46FB70EC
:102B00007B68D3F8E0355B68FA78786811469847B7
:102B10004FF00003184607F10807BD4680BD00BF0F
:102B200080B582B000AF78607B68D3F8E0351B6A6F
:102B3000786898474FF00003184607F10807BD462C
:102B400080BD00BF80B582B000AF78607B68D3F8ED
:102B5000E0355B6A786898474FF00003184607F144
:102B60000807BD4680BD00BF80B582B002AF02F04D
:102B7000A3F8FFF773FA05F0E3FCFFF77DFB02F023
:102B800049F9FFF7EDF801F081FA084B0093084886
:102B90004FF00101074A084BFFF7C0FDFEF796FF13
:102BA00000F076FB00F0FCFCFEE700BF9000002088
:102BB00074280020E00000209401002080B400AFC1
:102BC000FEE700BF80B483B000AF78603960FEE7F5
:102BD00080B582B000AF05F05DF903467B607B688D
:102BE00007F10807BD4680BD80B485B000AF7860AE
:102BF0000B467B804FF0FF03FB734FF0FF03BB736B
:102C000015E07B681A78BB7B5340DBB2BB607B6806
:102C100003F101037B60134ABB68D3181A78FB7B6E
:102C20005340BB73104ABB68D3181B78FB737B8877
:102C3000002B0CBF00230123DBB27A8802F1FF32A4
:102C40007A80002BDDD1FB7B4FEA03239AB2BB7B5A
:102C50009BB213439BB29BB2184607F11407BD46C3
:102C600080BC7047F8880008F889000880B483B0F9
:102C700000AF78600B46FB70FB78002B06D00A4B48
:102C8000094A116B7A680A431A6307E0064B064A41
:102C9000116B7A686FEA02020A401A6307F10C07A7
:102CA000BD4680BC704700BF0038024080B483B08E
:102CB00000AF78600B46FB70FB78002B06D00A4B08
:102CC000094A516B7A680A435A6307E0064B064A81
:102CD000516B7A686FEA02020A405A6307F10C07E7
:102CE000BD4680BC704700BF0038024080B483B04E
:102CF00000AF78600B46FB70FB78002B06D00A4BC8
:102D0000094A116C7A680A431A6407E0064B064ABE
:102D1000116C7A686FEA02020A401A6407F10C0724
:102D2000BD4680BC704700BF0038024080B483B00D
:102D300000AF78600B46FB70FB78002B06D00A4B87
:102D4000094A516C7A680A435A6407E0064B064AFE
:102D5000516C7A686FEA02020A405A6407F10C0764
:102D6000BD4680BC704700BF0038024080B483B0CD
:102D700000AF78600B46FB70FB78002B06D00A4B47
:102D8000094A516A7A680A435A6207E0064B064AC2
:102D9000516A7A686FEA02020A405A6207F10C0728
:102DA000BD4680BC704700BF0038024080B500AF10
:102DB0004FF480704FF00101FFF7D8FF4FF480709F
:102DC0004FF00001FFF7D2FF80BD00BF80B485B097
:102DD00000AF786039604FF00003FB604FF00003F4
:102DE000FB727B685B68FB60FB6823F0407323F435
:102DF0008073FB603B681B794FEA03223B681B68CA
:102E00001343FA681343FB607B68FA685A607B6877
:102E10009B68FB60FA68194B1340FB603B681A69BA
:102E20003B68DB681A433B689B681A433B685B79E5
:102E30004FEA43031343FA681343FB607B68FA6865
:102E40009A607B68DB6AFB60FB6823F47003FB60BD
:102E50003B681B7D03F1FF33DAB2FB7A1343FB724D
:102E6000FB7A4FEA0353FA681343FB607B68FA6806
:102E7000DA6207F11407BD4680BC7047FDF7FFC05A
:102E800080B483B000AF78607B684FF000021A60B6
:102E90007B684FF000021A717B684FF000025A7194
:102EA0007B684FF000029A607B684FF00002DA60A6
:102EB0007B684FF000021A617B684FF001021A75BF
:102EC00007F10C07BD4680BC704700BF80B485B0D9
:102ED00000AF78604FF00003FB600E4B5B68FB6057
:102EE000FA680D4B1340FB607B681A687B685B686F
:102EF0001A437B689B681A437B68DB681343FA6854
:102F00001343FB60034BFA685A6007F11407BD4690
:102F100080BC704700230140E030FCFF80B483B0E8
:102F200000AF78607B684FF000021A607B684FF05A
:102F300000025A607B684FF000029A607B684FF095
:102F40000002DA6007F10C07BD4680BC704700BF85
:102F500080B483B000AF78600B46FB70FB78002B29
:102F600006D07B689B6843F001027B689A6005E0AD
:102F70007B689B6823F001027B689A6007F10C076D
:102F8000BD4680BC704700BF80B485B000AF78609C
:102F9000F970BA707B704FF00003FB604FF00003D4
:102FA000BB60FB78092B27D97B68DB68FB60FA786C
:102FB00013464FEA43039B18A3F11E034FF0070289
:102FC00002FA03F3BB60BB686FEA0303FA681340BD
:102FD000FB607978FA7813464FEA43039B18A3F114
:102FE0001E0301FA03F3BB60FA68BB681343FB607E
:102FF0007B68FA68DA6022E07B681B69FB60FA781C
:1030000013464FEA43039B184FF0070202FA03F3FB
:10301000BB60BB686FEA0303FA681340FB60797812
:10302000FA7813464FEA43039B1801FA03F3BB6097
:10303000FA68BB681343FB607B68FA681A61BB7867
:10304000062B27D87B685B6BFB60BB7803F1FF32F4
:1030500013464FEA83039B184FF01F0202FA03F353
:10306000BB60BB686FEA0303FA681340FB60F97842
:10307000BB7803F1FF3213464FEA83039B1801FA32
:1030800003F3BB60FA68BB681343FB607B68FA68B4
:103090005A6351E0BB780C2B27D87B681B6BFB6015
:1030A000BA7813464FEA83039B18A3F123034FF02A
:1030B0001F0202FA03F3BB60BB686FEA0303FA68FE
:1030C0001340FB60F978BA7813464FEA83039B18E4
:1030D000A3F1230301FA03F3BB60FA68BB6813434F
:1030E000FB607B68FA681A6326E07B68DB6AFB603A
:1030F000BA7813464FEA83039B18A3F141034FF0BC
:103100001F0202FA03F3BB60BB686FEA0303FA68AD
:103110001340FB60F978BA7813464FEA83039B1893
:10312000A3F1410301FA03F3BB60FA68BB681343E0
:10313000FB607B68FA68DA6207F11407BD4680BC61
:10314000704700BF80B485B000AF78600B46FB705D
:103150004FF00003FB737B681A68FB781340002B69
:1031600003D04FF00103FB7302E04FF00003FB7349
:10317000FB7B184607F11407BD4680BC704700BFB3
:1031800080B586B000AF786039604FF00003FB7502
:103190003B681B88052B71D17B6803F101031B7809
:1031A0004FEA0323BB827B6803F102031B781A46B4
:1031B000BB8A1343BB82BB8A03F10103BB827B68DA
:1031C00003F103031B784FEA03237B827B6803F13F
:1031D00004031B781A467B8A13437B827B8A002B6D
:1031E00048D07B8A7C2B45D87B68FB603B684FF0DE
:1031F00000021A80FB684FF004021A70FB6803F1AA
:103200000103FB603B681B8803F101039AB23B6832
:103210001A807B8ADBB24FEA4303DAB2FB681A708A
:10322000FB6803F10103FB603B681B8803F10103AA
:103230009AB23B681A80BA8A7B8AF86811461A46A5
:10324000FEF746FA0346FB72FB7A002B06D0FB7AA8
:103250001846FEF7B7FF0346FB7512E03B681A8875
:103260007B8A4FEA43039BB2D3189AB23B681A8019
:1032700000BF06E04FF00303FB7502E04FF00303CD
:10328000FB75FB7D184607F11807BD4680BD00BFE2
:1032900080B586B004AF4FF00003FB710BE0FB7903
:1032A0001A4A4FEAC303D3184FF001021A71FB798F
:1032B00003F10103FB71FB79092BF0D945F255505D
:1032C000FEF7EAFF4FF00600FEF7F6FF40F271202E
:1032D000FFF702F8FFF710F8FFF71AF84FF00103B5
:1032E00000934FF0000301934FF0000302934FF05F
:1032F00000030393064807494FF080024FF0000394
:1033000000F04EF807F10807BD4680BD642E00208E
:1033100019330008F88A000880B584B000AF7860DF
:103320004FF00003FB734FF00003BB734FF000033B
:10333000FB7314E0FA7B194B53F83230002B0AD19F
:10334000FB7B164A4FEAC303D3181B79002B02D12B
:103350004FF00103BB73FB7B03F10103FB73FB7BAA
:10336000092BE7D9BB7B012B12D0FEF7C5FF4FF02D
:103370000003FB7309E0FA7B084B4FF0000143F8B0
:103380003210FB7B03F10103FB73FB7B092BF2D9AA
:103390004FF4FA6000F0D8F8C2E700BF642E0020B6
:1033A00080B58AB002AFF860B9603B601346FB801D
:1033B000FB68002B04D14FF0500080F31188FEE72A
:1033C000BB6A042B04D94FF0500080F31188FEE74C
:1033D000FB881846396B00F015FDB861BB69002BFE
:1033E00000F08C80BB691A6BFB8803F1FF334FEA56
:1033F0008303D3187B617B6923F007037B617B69BF
:1034000003F00703002B04D04FF0500080F3118825
:10341000FEE7FB880093B869B968BA6A7B6B00F075
:10342000FBFB7869F9683A6802F03AFE0246BB692C
:103430001A60BB691B6803F00703002B04D04FF030
:10344000500080F31188FEE7FB6A002B02D0FB6A74
:10345000BA691A6002F098FE344B1B6803F101024E
:10346000324B1A60324B1B68002B09D1304BBA69C2
:103470001A602E4B1B68012B0FD100F009FC0CE0E9
:103480002C4B1B68002B08D1294B1B68DA6ABB6ADE
:103490009A4202D8264BBA691A60BB69DA6A264B8F
:1034A0001B689A4203D9BB69DA6A234B1A60234B23
:1034B0001B6803F10102214B1A60BB69DA6A204BD9
:1034C0001B689A4203D9BB69DA6A1D4B1A60BB6953
:1034D000DA6A13464FEA83039B184FEA8303194ABB
:1034E0009A18BB6903F104031046194601F06EF9FE
:1034F0004FF00103FB6102F059FE02E04FF0FF3391
:10350000FB61FB69012B0BD10A4B1B68002B07D019
:10351000074B1B68DA6ABB6A9A4201D202F028FEA6
:10352000FB69184607F12007BD4680BDE403002073
:103530000C030020F4030020EC030020080400200A
:10354000F00300201003002080B584B000AF786045
:103550004FF00003FB607B68002B13D000F05EF897
:103560000D4B1A687B68D318BB600C4B1B6803F1CA
:103570000403184601F08CF9B86800F00BFC00F069
:103580005BF8F860FB68002B01D102F0F1FD07F158
:103590001007BD4680BD00BFE80300200C030020DB
:1035A00080B586B004AF4FF0000300934FF00003E6
:1035B00001934FF0000302934FF00003039313486D
:1035C00013494FF046024FF00003FFF7E9FE786021
:1035D0007B68012B0DD14FF0500080F311880D4B0B
:1035E0004FF001021A600C4B4FF000021A6002F01B
:1035F000A1FD7B68002B04D14FF0500080F31188AF
:10360000FEE707F10807BD4680BD00BFF53B000897
:10361000008B0008F4030020E803002080B400AF12
:10362000044B1B6803F10102024B1A60BD4680BCCB
:10363000704700BFF803002090B583B000AF4FF093
:1036400000037B603C4B1B68002B04D14FF0500003
:1036500080F31188FEE702F097FD374B1B6803F1FA
:10366000FF32354B1A60344B1B68002B5CD1334B57
:103670001B68002B58D04FF000033B602CE0304B10
:10368000DB68DC6804F11803184601F001F904F165
:103690000403184601F0FCF8E26A2A4B1B689A42C0
:1036A00002D9E26A274B1A60E26A13464FEA8303A3
:1036B0009B184FEA8303244A9A1804F10403104626
:1036C000194601F083F8E26A204B1B68DB6A9A42D4
:1036D00002D34FF001033B60194B1B68002BCED186
:1036E0001B4B1B68002B0FD007E000F035F8184B80
:1036F0001B6803F1FF32164B1A60154B1B68002B39
:10370000F3D14FF001033B603B68012B03D0114B19
:103710001B68012B08D14FF001037B600D4B4FF06C
:1037200000021A6002F024FD02F040FD7B6818469A
:1037300007F10C07BD4690BDF8030020E40300200C
:10374000A4030020F0030020100300200C0300203D
:10375000FC0300200004002080B584B000AF494B7A
:103760001B68002B40F08480474B1B6803F101026B
:10377000454B1A60444B1B68002B2CD1434B1B68F4
:103780001B68002B04D04FF0500080F31188FEE737
:103790003E4B1B68FB603E4B1A683C4B1A603C4B2F
:1037A000FA681A603B4B1B6803F10102394B1A603F
:1037B000364B1B681B68002B04D1374B4FF0FF3290
:1037C0001A6008E0314B1B68DB68DB68BB60BB68D4
:1037D0005A68314B1A602C4B1A682F4B1B689A425F
:1037E0004CD32A4B1B681B68002B04D12A4B4FF08B
:1037F000FF321A6042E0254B1B68DB68DB68BB6068
:10380000BB685B687B60204B1A687B689A4203D276
:10381000214B7A681A6031E0BB6803F10403184653
:1038200001F036F8BB689B6A002B05D0BB6803F13A
:103830001803184601F02CF8BB68DA6A174B1B68AE
:103840009A4203D9BB68DA6A144B1A60BB68DA6A19
:1038500013464FEA83039B184FEA8303104A9A18D2
:10386000BB6803F104031046194600F0AFFFB8E748
:103870000C4B1B6803F101020A4B1A6007F1100799
:10388000BD4680BDF8030020E80300209C03002013
:10389000A003002004040020DC000020F00300202E
:1038A00010030020FC03002080B582B000AF3A4B2B
:1038B0001B68002B04D0394B4FF001021A6067E0FF
:1038C000374B1B681A68364B1B681B6B9A4209D82A
:1038D000334B1A68324B1B6803F134031046194608
:1038E000FFF770F92E4B1B681B6B18462D494FF0E4
:1038F000140204F075FE0346002B1AD0284B1A68F8
:10390000274B1B6803F1340310461946FFF75AF999
:103910000FE0254B1B68002B04D14FF0500080F3C3
:103920001188FEE7204B1B6803F1FF321E4B1A6023
:1039300000E000BF1C4B1A681C4913464FEA830382
:103940009B184FEA8303CB181B68002BE1D0164B62
:103950001A6813464FEA83039B184FEA8303134AFE
:103960009B187B607B685B685A687B685A607B68E1
:103970005A687B6803F108039A4204D17B685B684C
:103980005A687B685A607B685B68DA68044B1A6027
:1039900007F10807BD4680BDF803002000040020A1
:1039A0000C030020088B0008F00300201003002007
:1039B00080B584B000AF786039607B68002B04D19B
:1039C0004FF0500080F31188FEE7144B1B6803F1A1
:1039D00018037868194600F021FF104B1B6803F1AB
:1039E0000403184600F054FF3B68B3F1FF3F08D1D1
:1039F0000A4B1B6803F104030948194600F0E6FE70
:103A000007E0084B1A683B68D318FB60F86800F0C1
:103A1000C1F907F11007BD4680BD00BF0C030020AF
:103A2000D0030020E803002080B584B000AF7860A8
:103A30007B68DB68DB68BB60BB68002B04D14FF0A0
:103A4000500080F31188FEE7BB6803F118031846A5
:103A500000F01EFF204B1B68002B21D1BB6803F137
:103A60000403184600F014FFBB68DA6A1B4B1B689E
:103A70009A4203D9BB68DA6A184B1A60BB68DA6AE3
:103A800013464FEA83039B184FEA8303144A9A189C
:103A9000BB6803F104031046194600F097FE06E0E8
:103AA000BB6803F118030F48194600F08FFEBB688E
:103AB000DA6A0D4B1B68DB6A9A4203D34FF00103AD
:103AC000FB6002E04FF00003FB60FB68184607F163
:103AD0001007BD4680BD00BFF8030020F0030020A2
:103AE00010030020A40300200C03002080B483B046
:103AF00000AF78607B68002B04D14FF0500080F35A
:103B00001188FEE7064B1A687B681A60054B1A6835
:103B10007B685A6007F10C07BD4680BC704700BF48
:103B200004040020E803002080B584B000AF786072
:103B300039607B68002B04D14FF0500080F311886E
:103B4000FEE73B68002B04D14FF0500080F3118852
:103B5000FEE702F019FB3B681B68B3F1FF3F03D19E
:103B60004FF00003FB602CE07B681A68194B1B6860
:103B70009A4209D07B685A68174B1B689A4203D84F
:103B80004FF00103FB601CE0134B1A687B685B6815
:103B9000D21A3B681B689A4210D23B681A687B684D
:103BA00059680D4B1B68CB1AD2183B681A607868AD
:103BB000FFF79CFF4FF00003FB6002E04FF00103B2
:103BC000FB6002F0F3FAFB68184607F11007BD46E8
:103BD00080BD00BF04040020E803002080B400AFD3
:103BE000034B4FF001021A60BD4680BC704700BF16
:103BF0000004002080B582B000AF786000F08CF83F
:103C0000044B1B68012B01D902F0B2FAFEF7E0FF6A
:103C1000F4E700BF1003002080B584B000AFF86067
:103C2000B9607A603B60FB6803F134031846B968F9
:103C30004FF00A0204F026FEFB684FF0000283F802
:103C40003D207B68042B02D94FF004037B60FB68A6
:103C50007A68DA62FB687A681A64FB6803F1040325
:103C6000184600F0A5FDFB6803F11803184600F0A4
:103C70009FFDFB68FA681A617B68C3F10502FB6867
:103C80009A61FB68FA685A6207F11007BD4680BD69
:103C900080B582B000AF4FF000037B600FE07A6820
:103CA00013464FEA83039B184FEA8303124A9B187B
:103CB000184600F05DFD7B6803F101037B607B68C3
:103CC000042BECD90D4800F053FD0D4800F050FDD9
:103CD0000C4800F04DFD0C4800F04AFD0B4800F088
:103CE00047FD0B4B054A1A600A4B054A1A6007F15B
:103CF0000807BD4680BD00BF1003002074030020EC
:103D000088030020A4030020B8030020D003002073
:103D10009C030020A003002080B582B000AF1A4BA6
:103D20001B68002B2BD0FFF779FC184B1B68002B6E
:103D300014BF00230123DBB27B60FFF77DFC7B68AF
:103D4000002B1CD102F020FA104BDB68DB683B60D3
:103D50003B6803F10403184600F09AFD0C4B1B6806
:103D600003F1FF320A4B1A60074B1B6803F1FF3265
:103D7000054B1A6002F01AFA386800F07BF807F178
:103D80000807BD4680BD00BFCC030020B80300205B
:103D9000E403002080B582B000AF7860144B1B684C
:103DA0007A685A60134B1B687A689A420AD2124B9F
:103DB0001A680F4B1B6803F104031046194600F004
:103DC0002DFD11E00D4B1A68094B1B6803F104032C
:103DD0001046194600F022FD094B1B687A689A428A
:103DE00002D2074B7A681A6007F10807BD4680BD0A
:103DF0000C030020E8030020A00300209C03002007
:103E0000DC00002080B584B000AF03463960FB8041
:103E10004FF0440003F0F4FFF860FB68002B23D060
:103E20003B68002B07D1FB884FEA8303184603F059
:103E3000E7FF034600E03B68FA681363FB681B6B0F
:103E4000002B06D1F86804F01BF84FF00003FB606C
:103E50000AE0FB681A6BFB884FEA830310464FF0B9
:103E6000A5011A4604F0A8FCFB68184607F11007E4
:103E7000BD4680BD80B582B000AF78607B681B6BAB
:103E8000184603F0FDFF786803F0FAFF07F1080712
:103E9000BD4680BD80B584B000AF78607B68FB60B4
:103EA0007B68002B30D0FB68DA6AFB681B6C9A4297
:103EB0002AD0FB6803F10403184600F0E9FCFB6814
:103EC0001A6CFB68DA62FB68DB6AC3F10502FB6807
:103ED0009A61FB68DA6A0E4B1B689A4203D9FB6849
:103EE000DA6A0B4B1A60FB68DA6A13464FEA8303FF
:103EF0009B184FEA8303074A9A18FB6803F10403EF
:103F00001046194600F062FC07F11007BD4680BD5F
:103F1000F00300201003002080B483B000AF0346FC
:103F20003960FB713B684FF012021A80034B184650
:103F300007F10C07BD4680BC704700BFFC000020A5
:103F400080B483B000AF03463960FB713B684FF02B
:103F500004021A80034B184607F10C07BD4680BCCB
:103F6000704700BF1C01002080B582B000AF03463F
:103F70003960FB71FB79002B05D1084808493A6884
:103F800001F00AFE04E0074805493A6801F004FE22
:103F9000034B184607F10807BD4680BD1C8B00087F
:103FA00048300020408B000880B582B000AF034647
:103FB0003960FB71054806493A6801F0EDFD044B94
:103FC000184607F10807BD4680BD00BF648B000896
:103FD0004830002080B582B000AF03463960FB71E5
:103FE000FB79002B05D1084808493A6801F0D4FD57
:103FF00004E0074805493A6801F0CEFD034B184636
:1040000007F10807BD4680BD788B000848300020C6
:10401000888B000880B582B000AF03463960FB7121
:10402000FB79002B05D1084808493A6801F0B4FD36
:1040300004E0054805493A6801F0AEFD034B184617
:1040400007F10807BD4680BD988B00084830002066
:1040500080B582B000AF03463960FB71FB79002B5D
:1040600005D1084808493A6801F096FD04E0054882
:1040700005493A6801F090FD034B184607F108071F
:10408000BD4680BDA48B00084830002080B586B0B6
:1040900004AF4FF002004FF00101FEF7E7FD4FF4CF
:1040A00060433B604FF000037B714FF000033B71B6
:1040B0004FF00103FB713B460D48194600F054F8E0
:1040C0004FF0010300934FF0000301934FF0000302
:1040D00002934FF000030393064807494FF0400254
:1040E0004FF00003FFF75CF907F10807BD4680BDFC
:1040F00000040240FD400008B48B000880B582B087
:1041000000AF7860164B4FF0000283F83C20154852
:104110004FF4005100F0E8F80346002B08D14FF0AF
:104120000A00FFF711FA0F484FF4005100F0DCF8D5
:104130000C484FF4804100F0D7F80346002B08D11B
:104140004FF00A00FFF700FA06484FF4804100F0F4
:10415000CBF8034B9B6B03F10102014B9A63D6E74B
:10416000642E00200004024080B487B000AF786065
:1041700039604FF000037B614FF000033B614FF06B
:104180000003FB604FF000037B6186E07B694FF02A
:10419000010202FA03F33B613B681A683B69134072
:1041A000FB60FA683B699A4273D17B681A687B6945
:1041B0004FEA43034FF0030101FA03F36FEA0303ED
:1041C0001A407B681A607B681A683B681B7919463D
:1041D0007B694FEA430301FA03F31A437B681A60D1
:1041E0003B681B79012B03D03B681B79022B34D130
:1041F0007B689A687B694FEA43034FF0030101FA39
:1042000003F36FEA03031A407B689A607B689A683D
:104210003B685B7919467B694FEA430301FA03F374
:104220001A437B689A607B685A687B699BB24FF03F
:10423000010101FA03F36FEA03031A407B685A6035
:104240007B685A683B689B7919467B699BB201FA87
:1042500003F39BB21A437B685A607B68DA687B6918
:104260009BB24FEA43034FF0030101FA03F36FEAF5
:1042700003031A407B68DA607B68DA683B68DB79A5
:1042800019467B694FEA430301FA03F31A437B683B
:10429000DA607B6903F101037B617B690F2B7FF699
:1042A00075AF07F11C07BD4680BC704780B483B072
:1042B00000AF78607B684FF6FF721A607B684FF042
:1042C00000021A717B684FF000025A717B684FF050
:1042D00000029A717B684FF00002DA7107F10C0757
:1042E000BD4680BC704700BF80B485B000AF786029
:1042F0000B467B804FF00003FB737B681A697B8859
:104300001340002B03D04FF00103FB7302E04FF08A
:104310000003FB73FB7B184607F11407BD4680BC06
:10432000704700BF80B483B000AF786013460A4680
:104330007A807B707B78002B03D07B687A881A8325
:1043400002E07B687A885A8307F10C07BD4680BC7F
:10435000704700BF80B485B000AF786013460A464E
:104360007A807B704FF00003FB604FF00003BB606E
:104370007A787B8803F007034FEA830302FA03F39A
:10438000FB607B884FEAD3039BB21A467B884FEAD7
:10439000D3039BB219467B6801F1080153F8211041
:1043A0007B8803F007034FEA83034FF00F0000FA06
:1043B00003F36FEA030319407B6802F1080243F834
:1043C00022107B884FEAD3039BB21A467B6802F126
:1043D000080253F82220FB681343BB607B884FEA36
:1043E000D3039BB21A467B6802F10802B96843F80E
:1043F000221007F11407BD4680BC704780B588B015
:1044000000AF0346FB804FF00003FB834FF0040036
:104410004FF00101FEF76AFC264B1A68264BA3FBFE
:1044200002134FEA93339BB203F1FF33FB83FB8804
:104430007B61FB8B3B824FF000033B834FF000031B
:104440007B8207F110031D48194603F0E3FD1B486A
:104450004FF0010103F076FE4FF4407003F0FEF9D7
:104460004FF01E033B734FF00E037B734FF00103BD
:10447000BB734FF00103FB7307F10C03184603F005
:10448000FFF90E484FF0010104F034F80B484FF0EB
:1044900001014FF0000204F009F808484FF0000154
:1044A00003F070FE4FF00103184607F12007BD46E8
:1044B00080BD00BF340100205917B7D1000800406B
:1044C00080B500AF0B484FF0010104F013F8094824
:1044D0004FF001014FF0010203F0E8FF05484FF0F3
:1044E000000103F021FE03484FF0010103F04AFEF2
:1044F00080BD00BF0008004080B500AF0B484FF002
:10450000000103F03FFE09484FF0000103F00CFEEC
:1045100006484FF001014FF0000203F0C7FF0348C7
:104520004FF0010103F0E6FF80BD00BF000800402E
:1045300080B500AF04484FF0010103F0DBFF034BEF
:104540001B68984780BD00BF000800405C28002021
:1045500080B400AF4FF000031846BD4680BC7047E2
:1045600080B400AF4FF000031846BD4680BC7047D2
:1045700080B485B000AFF860B9607A60FB68232B27
:104580004AD801A252F823F019460008194600083B
:10459000194600081946000819460008194600087F
:1045A000194600081946000819460008194600086F
:1045B000194600081946000819460008194600085F
:1045C000194600081946000819460008194600084F
:1045D000194600081946000819460008194600083F
:1045E000194600081946000819460008194600082F
:1045F000194600081946000819460008194600081F
:10460000194600081946000819460008194600080E
:10461000194600081946000800BF4FF0000318466D
:1046200007F11407BD4680BC704700BF80B485B059
:1046300000AF786039604FF00003FB601AE0134B65
:104640001B687968FA688A181178114AD1540F4B9F
:104650001B6803F101020D4B1A60FB6803F10103B3
:10466000FB600A4B1B68B3F5006F03D1074B4FF09B
:1046700000021A60FA683B689A42E0D34FF00003E8
:10468000184607F11407BD4680BC7047300400206F
:104690000831002080B485B000AF786039604FF0F9
:1046A0000003FB6022E0174B1B687968FA688A18E0
:1046B0001178154AD154134B1B6803F10102114BB9
:1046C0001A60104B1B68802B03D10E4B4FF0000279
:1046D0001A600C4B1A680D4B1B689A4202D14FF0BE
:1046E000020309E0FB6803F10103FB60FA683B6821
:1046F0009A42D8D34FF00003184607F11407BD467D
:1047000080BC7047382F0020B42E0020342F0020AA
:1047100080B483B000AF7860124B1A68124B1B68EC
:104720009A4202D14FF0000315E00F4B1B680F4A6D
:10473000D25C7B681A700C4B1B6803F101020A4BB8
:104740001A60094B1B68802B03D1074B4FF0000206
:104750001A604FF00103184607F10C07BD4680BCF4
:10476000704700BF382F0020342F0020B42E0020C7
:1047700080B483B000AF78607B6803F108027B6887
:104780005A607B684FF0FF329A607B6803F1080241
:104790007B68DA607B6803F108027B681A617B68DA
:1047A0004FF000021A6007F10C07BD4680BC70474D
:1047B00080B483B000AF78607B684FF000021A616C
:1047C00007F10C07BD4680BC704700BF80B485B0C0
:1047D00000AF786039607B685B68FB60FB685A6893
:1047E0003B685A607B685A683B689A60FB685B6804
:1047F0003A689A60FB683A685A607B683A685A601F
:104800003B687A681A617B681B6803F101027B6868
:104810001A6007F11407BD4680BC704780B485B0AC
:1048200000AF786039603B681B68BB60BB68B3F160
:10483000FF3F03D17B681B69FB600DE07B6803F1E0
:104840000803FB6002E0FB685B68FB60FB685B6879
:104850001A68BB689A42F6D9FB685A683B685A6086
:104860003B685B683A689A603B68FA689A60FB68E4
:104870003A685A603B687A681A617B681B6803F182
:1048800001027B681A6007F11407BD4680BC7047BF
:1048900080B485B000AF78607B685B687A689268A6
:1048A0009A607B689B687A6852685A607B681B696B
:1048B000FB60FB685A687B689A4203D17B689A6800
:1048C000FB685A607B684FF000021A61FB681B6846
:1048D00003F1FF32FB681A6007F11407BD4680BC84
:1048E000704700BF80B584B000AF3A600246FA71ED
:1048F0000A46BA717B714FF00003FB73FCF7DCFED4
:10490000BA797B79104639684FF0080202F096FABE
:104910000346012B03D04FF00303FB7319E03B6800
:10492000B3F5964F03D94FF06403BB6006E03B68D4
:104930004FEA43030B4AB2FBF3F3BB60BB689BB285
:104940001846FFF75BFD0346012B02D04FF003032F
:10495000FB73FCF7B7FEFB7B184607F11007BD465B
:1049600080BD00BFA07F170080B500AFFCF7A4FE9C
:10497000074B4FF000021A704FF001004FF000019A
:1049800002F048FAFFF79CFDFCF79CFE80BD00BFDB
:104990000D04002080B500AFFCF78EFE4FF0000044
:1049A0004FF0000102F036FAFFF7A6FDFCF78AFE91
:1049B00080BD00BF80B586B000AFF860B9607A6096
:1049C0004FF00003BB754FF00003FB75FCF774FE5E
:1049D000164B1B889BB2032B1DD9144B1B889BB213
:1049E00013481946FEF700F90346002B13D1104B6C
:1049F0001B78DAB2FB681A700C4B1B889BB2A3F1D0
:104A000003039AB27B681A80BB680A4A1A604FF0A7
:104A10000103BB7502E04FF00503FB75FCF752FE86
:104A2000FB7D184607F11807BD4680BD160400201F
:104A30003C2F00203D2F002080B584B000AF3960AE
:104A400013460246FA71BB804FF00003FB73FCF77C
:104A500033FE2C4B1B78DBB2012B47D13B6803F1B3
:104A6000FF32294B1A60294B4FF001021A80264B66
:104A70001B68FA791A70254B1B889AB2BB88D31829
:104A80009AB2224B1A80204B1A68204B1B889BB28B
:104A900010461946FEF7A8F80346BB811B4B1B883E
:104AA0009BB21A46B989C8B21949885403F1010367
:104AB0009AB2164B1A80154B1B889BB21A46B989BD
:104AC0004FEA112189B2C8B21149885403F1010398
:104AD0009AB20E4B1A800F4B4FF001021A704FF032
:104AE00000004FF0010102F095F902E04FF00503DC
:104AF000FB73FCF7E7FDFB7B184607F11007BD468B
:104B000080BD00BF0D04002010040020140400200C
:104B10003C2F00200C04002080B582B000AF4FF085
:104B20000003FB7107F10603184602F0AFF9264BAC
:104B30001B78DBB2032B41D801A252F823F000BF4F
:104B4000514B00085D4B00088B4B0008574B000889
:104B5000FFF7B6FC32E0FFF7B3FC2FE01B4B4FF042
:104B600000021A80194B1B889BB21A46B879184963
:104B7000885403F101039AB2144B1A80124B4FF080
:104B800002021A70FFF79CFC18E0104B1B889BB2C6
:104B9000FF2B0CD80D4B1B889BB21A46B8790C49D9
:104BA000885403F101039AB2084B1A8003E0064BC4
:104BB0004FF003021A70FFF783FC00BFFB79184621
:104BC00007F10807BD4680BD0D0400201604002033
:104BD0003C2F002080B582B000AF4FF00003FB7186
:104BE0001C4B1B78DBB2002B02D0012B07D02AE034
:104BF0004FF001004FF0000102F00CF923E0164BDA
:104C00001B889BB2002B0DD0144B1A68124B1B88CB
:104C10009BB210461946FFF709FD0F4B4FF00002FB
:104C20001A800FE04FF00300FDF760F80346FB71B8
:104C30004FF001004FF0000102F0ECF8054B4FF08F
:104C400000021A7000BFFB79184607F10807BD463D
:104C500080BD00BF0C0400201404002010040020BC
:104C600080B582B000AF4FF00003FB71114B1B7891
:104C7000DBB2022B0AD0032B0FD0002B0ED14FF04A
:104C80000000FDF733F80346FB7107E04FF0010029
:104C9000FDF72CF80346FB7100E000BFFFF72CFC8A
:104CA000044B4FF001021A70FB79184607F1080710
:104CB000BD4680BD0D04002080B500AF124B124AE6
:104CC000126842F001021A600F4B4FF000029A6026
:104CD0000D4A0D4B1B6823F0847323F4803313605B
:104CE000094B0A4A5A60084B074A126822F480228C
:104CF0001A60054B4FF00002DA6000F00BF8044B2D
:104D00004FF000629A6080BD0038024010300024ED
:104D100000ED00E080B483B000AF4FF000037B6093
:104D20004FF000033B60374B364A126842F4803242
:104D30001A60344B1B6803F400333B607B6803F15B
:104D400001037B603B68002B03D17B68B3F5A06F48
:104D5000EFD12C4B1B6803F40033002B03D04FF032
:104D600001033B6002E04FF000033B603B68012B16
:104D700042D1244B234A126C42F080521A64224BD7
:104D8000214A126842F480421A601E4B1D4A926802
:104D90009A601C4B1B4A926842F400429A60194B7D
:104DA000184A926842F4A0529A60164B174A5A6009
:104DB000144B144A126842F080721A6000BF114B03
:104DC0001B6803F00073002BF9D0114B40F2056211
:104DD0001A600C4B0B4A926822F003029A60094B4E
:104DE000084A926842F002029A6000BF054B9B6835
:104DF00003F00C03082BF9D107F10C07BD4680BC6A
:104E0000704700BF0038024000700040195440074E
:104E1000003C024080B590B004AF07F1180318467B
:104E2000FEF72EF807F108031846FEF777F84FF063
:104E300001004FF00101FDF719FF4FF004004FF0A2
:104E40000101FDF713FF3B461846FFF72FFA4FF01D
:104E500003033B714FF001033B603B46404819465A
:104E6000FFF782F93B461846FFF720FA4FF003039D
:104E70003B714FF00A033B603B463A481946FFF747
:104E800073F94FF480704FF00101FDF74FFFFDF70C
:104E90008DFF4FF00003BB604FF44033FB604FF0D9
:104EA00000033B614FF000037B6107F108031846E4
:104EB000FEF70CF84FF000033B774FF000037B77D1
:104EC0004FF000037B624FF00003BB624FF0010321
:104ED00087F82C3007F1180323481946FDF776FFB1
:104EE00021484FF000014FF001024FF00703FEF799
:104EF0004BF81D484FF00101FEF72AF84FF0010072
:104F00004FF000014FF0030200F010FF0246174B74
:104F10001A60164B1B68002B0AD0144B1B681846EE
:104F20004FF000014FF000024FF0000300F044FF8B
:104F30004FF0010300934FF0000301934FF0000383
:104F400002934FF00003039309480A494FF080028F
:104F50004FF00003FEF724FA07F13007BD4680BD8D
:104F600000000240000802400020014044300020C0
:104F7000794F0008C08B000880B584B000AF78601E
:104F80004FF00003FB73544B4FF0000283F83420C2
:104F90004FF00003BB604FF00003FB7322E04F486B
:104FA0004FF000014FF001024FF00703FDF7ECFF57
:104FB0004A4B4A4A926842F080429A6001E001F00E
:104FC000D7F846484FF00201FEF7BCF80346002B25
:104FD000F5D0424BDB6CBA68D318BB60FB7B03F1A6
:104FE0000103FB73FB7B0F2BD9D9BB684FEA13136B
:104FF0009AB23B4B9A804FF00003BB604FF0000326
:10500000FB7322E035484FF00B014FF001024FF0E7
:105010000703FDF7B9FF314B304A926842F08042F6
:105020009A6001E001F0A4F82C484FF00201FEF76D
:1050300089F80346002BF5D0284BDB6CBA68D318EF
:10504000BB60FB7B03F10103FB73FB7B0F2BD9D907
:10505000BB684FEA13139AB2214B1A804FF000033A
:10506000BB604FF00003FB7322E01C484FF00D01C2
:105070004FF001024FF00703FDF786FF174B174A69
:10508000926842F080429A6001E001F071F81348A2
:105090004FF00201FEF756F80346002BF5D00F4BF8
:1050A000DB6CBA68D318BB60FB7B03F10103FB73B5
:1050B000FB7B0F2BD9D9BB684FEA13139AB2084B6D
:1050C0005A804FF06400FEF73FFA034B1B6B03F16D
:1050D0000102014B1A635BE7642E002000200140AF
:1050E0003C30002080B584B000AF78604FF0010004
:1050F0004FF00101FDF7BAFD4FF4D853BB604FF0FC
:1051000003037B734FF002033B734FF00003BB7349
:105110004FF00003FB7307F1080324481946FFF71B
:1051200023F822484FF008014FF00A02FFF712F966
:105130001E484FF009014FF00A02FFF70BF91B4818
:105140004FF00B014FF00A02FFF704F917484FF038
:105150000C014FF00A02FFF7FDF84FF48063BB60CB
:105160004FF00103BB734FF00103FB734FF00303D8
:105170007B7307F108030D481946FEF7F5FF0B484E
:105180004FF00A014FF00A02FFF7E4F84FF48040B5
:105190004FF00101FDF7CAFD4FF080004FF0010113
:1051A000FDF784FD07F11007BD4680BD00000240F9
:1051B00080B584B000AF78604FF4407002F04EFBD1
:1051C0004FF043033B734FF001037B734FF0030336
:1051D000BB734FF00103FB7307F10C03184602F099
:1051E0004FFB07F11007BD4680BD00BF80B485B0FE
:1051F00000AF78604FF00003FB607A6813464FEA17
:1052000003139B1A4FEAC3031A460D4BA3FB021369
:10521000D21A4FEA52029B184FEA9303BB6000E098
:1052200000BFFB6803F10103FB60FA68BB689A42A8
:10523000F6D900BF07F11407BD4680BC704700BF18
:105240002549922480B582B000AF78607B684FF426
:105250007A7202FB03F31846FFF7C8FF07F108074D
:10526000BD4680BD80B500AF094B9B7A002B0AD0AC
:10527000084B084A126822F006021A60FFF71CFD6C
:105280000348FCF7EFF94FF4802002F0D9FA80BD13
:105290007428002010ED00E080B500AF014800F058
:1052A000E5FF80BD7428002080B584B000AF786031
:1052B00039604FF00003FB733B685B78092B3AD8E9
:1052C00001A252F823F000BF195300082D53000823
:1052D000375300082353000837530008FB520008D7
:1052E000F1520008375300080F5300080553000817
:1052F0007868396800F044F922E07868396800F08D
:1053000023FA1DE07868396800F05EFA18E07868E2
:10531000396800F0D5FA13E07868396800F002FBCC
:105320000EE07868396800F029FB09E07868396890
:1053300000F094FB04E07868396800F005FC00BFD9
:10534000FB7B184607F11007BD4680BD80B584B0D1
:1053500000AF786039604FF00003FB737B6893F80F
:105360001231032B1BD13B689B88DBB2012B11D878
:105370007B68D3F8E0359B687868396898473B6864
:10538000DB88002B10D1FB7B002B0DD1786802F05D
:1053900005FE09E07868396800F0D6FB04E078681B
:1053A000396800F0D1FB00E000BFFB7B184607F135
:1053B0001007BD4680BD00BF80B584B000AF7860E7
:1053C00039604FF00003FB733B689B88BB733B68FD
:1053D0005B78012B39D0032B02D0002B6CD0C6E0B8
:1053E0007B6893F81231022B02D0032B0CD025E0FE
:1053F000BB7B002B27D0BB7B802B24D0BB7B78686A
:10540000194602F05BFC1EE03B685B88002B0AD16A
:10541000BB7B002B07D0BB7B802B04D0BB7B786889
:10542000194602F04BFC7B68D3F8E0359B6878683E
:1054300039689847786802F0B1FD05E07868396806
:1054400000F082FB00E000BF92E07B6893F812312D
:10545000022B02D0032B0CD025E0BB7B002B27D0E6
:10546000BB7B802B24D0BB7B7868194602F026FCDE
:105470001EE03B685B88002B1CD1BB7B002B0ED051
:10548000BB7B802B0BD0BB7B7868194602F058FCA5
:105490007B68D3F8E0359B68786839689847786806
:1054A00002F07CFD06E07868396800F04DFB02E010
:1054B00000BF00E000BF5BE07B6893F81231022B75
:1054C00002D0032B0CD04BE0BB7B002B4DD0BB7B21
:1054D000802B4AD0BB7B7868194602F0EFFB44E092
:1054E000BB7B5BB2002B19DABB7B03F07F027968D0
:1054F00013464FEA83039B184FEAC303CB1803F507
:105500008C739B78002B04D01C4B4FF001021A6067
:105510001FE01A4B4FF000021A601AE0BB7B5BB22F
:10552000002B16DBBA7B796813464FEA83039B187E
:105530004FEAC303CB1803F55C739B78002B04D0B0
:105540000E4B4FF001021A6003E00C4B4FF00002CB
:105550001A60786809494FF0020202F0A7FC05E0E2
:105560007868396800F0F0FA00E000BF00E000BFA2
:10557000FB7B184607F11007BD4680BD18040020CC
:1055800080B584B000AF786039603B685B884FEAD3
:1055900013239BB203F1FF33062B00F2B58001A267
:1055A00052F823F0C1550008F555000823560008AD
:1055B0000957000809570008F5560008FF5600086B
:1055C0007B68D3F8E8351B687A68917807F10A029E
:1055D000084611469847F8603B68DB88402B05D0A9
:1055E0007B6893F81231012B40F093804FF0080351
:1055F0007B818EE07B68D3F8E0359B6A7A6891788E
:1056000007F10A02084611469847F860FB6803F163
:1056100001034FF002021A707B68FA68C3F8EC25A8
:1056200078E03B685B88DBB2052B5DD801A252F8BD
:1056300023F000BF4D560008675600088156000849
:105640009B560008B5560008CF5600087B68D3F873
:10565000E8355B687A68917807F10A0208461146D6
:105660009847F86045E07B68D3F8E8359B687A682E
:10567000917807F10A02084611469847F86038E029
:105680007B68D3F8E835DB687A68917807F10A021D
:10569000084611469847F8602BE07B68D3F8E83558
:1056A0001B697A68917807F10A0208461146984703
:1056B000F8601EE07B68D3F8E8355B697A6891781A
:1056C00007F10A02084611469847F86011E07B6826
:1056D000D3F8E8359B697A68917807F10A020846A1
:1056E00011469847F86004E07868396800F02CFAB1
:1056F00025E00FE07868396800F026FA1FE0786846
:10570000396800F021FA1AE07868396800F01CFA6C
:1057100015E000BF7B89002B11D03B68DB88002B94
:105720000DD03B68DA887B899A4238BF13469BB21A
:105730007B817B897868F9681A4602F0B7FB07F12C
:105740001007BD4680BD00BF80B584B000AF786053
:1057500039603B689B88002B2ED13B68DB88002B8F
:105760002AD13B685B88DBB203F07F03FB737B6865
:1057700093F81231032B04D17868396800F0E4F90A
:105780001EE07B68FA7B83F81321FB7B786819465F
:1057900002F018FB786802F001FCFB7B002B05D0BF
:1057A0007B684FF0020283F8122109E07B684FF01A
:1057B000010283F8122103E07868396800F0C4F927
:1057C00007F11007BD4680BD80B582B000AF78609C
:1057D00039603B685B88DAB2384B1A70374B1B78FC
:1057E000012B04D97868396800F0AEF961E07B6874
:1057F00093F81231022B02D0032B1CD054E02F4B14
:105800001B78002B13D02D4B1A787B6883F810215E
:105810007B684FF0030283F81221284B1B787868CD
:105820001946FDF74DF9786802F0B8FB41E0786859
:1058300002F0B4FB3DE0214B1B78002B13D17B68B9
:105840004FF0020283F812211C4B1A787B6883F810
:1058500010211A4B1B7878681946FDF74BF97868C8
:1058600002F09CFB25E07B6893F81021134B1B781A
:105870009A4215D07B6893F8103178681946FDF785
:1058800039F90E4B1A787B6883F810210B4B1B7883
:1058900078681946FDF714F9786802F07FFB08E094
:1058A000786802F07BFB04E07868396800F04CF916
:1058B00000BF07F10807BD4680BD00BF24040020DB
:1058C00080B582B000AF786039603B68DB88012B1F
:1058D00004D07868396800F037F91DE07B6893F8E8
:1058E0001231022B02D0032B07D010E078680C494C
:1058F0004FF0010202F0DAFA0EE07B6803F58873DC
:10590000786819464FF0010202F0D0FA04E0786896
:10591000396800F019F900BF07F10807BD4680BDDE
:105920001C04002080B582B000AF786039607B68CD
:1059300093F81231A3F10203012B14D87B68D3F83A
:105940001431002B04D00C4B4FF003021A6003E01B
:10595000094B4FF001021A60786807494FF00102C5
:1059600002F0A4FA04E07868396800F0EDF800BFAE
:1059700007F10807BD4680BD2004002080B584B033
:1059800000AF786039604FF00003FB733B685B88C1
:10599000012B0FD17B684FF00102C3F814217B6803
:1059A000D3F8E0359B68786839689847786802F0E2
:1059B000F5FA4FE03B685B88022B4BD13B689B8834
:1059C000DBB2002B46D17B681B695B68BB603B6820
:1059D0009B884FEA13239BB2FB73FB7B03F1FF33DE
:1059E000042B30D801A252F823F000BF015A00085E
:1059F0000F5A00081D5A00082B5A0008395A00088F
:105A0000BB684FF0010262F30613BB601BE0BB688A
:105A10004FF0020262F30613BB6014E0BB684FF064
:105A2000030262F30613BB600DE0BB684FF0040293
:105A300062F30613BB6006E0BB684FF0050262F339
:105A40000613BB6000BF7B681B69BA685A60786840
:105A500002F0A4FA07F11007BD4680BD80B582B000
:105A600000AF786039607B6893F81231A3F10203CC
:105A7000012B13D83B685B88012B15D17B684FF055
:105A80000002C3F814217B68D3F8E0359B6878687E
:105A900039689847786802F081FA05E078683968D3
:105AA00000F052F800BF00E000BF07F10807BD4654
:105AB00080BD00BF80B483B000AF786039607B6880
:105AC00093F8C8253B681A707B6893F8C9253B6832
:105AD0005A707B6893F8CA351A467B6893F8CB35C1
