:020000040800F2
:100000005840002091270008F5270008F527000830
:10001000F5270008F5270008F52700080000000074
:10002000000000000000000000000000C571000892
:10003000F5270008000000009D720008D972000832
:10004000F52700081D950008F5270008F52700088A
:10005000F5270008F5270008F5270008F527000810
:10006000F5270008F5270008F5270008F527000800
:10007000F5270008F5270008F5270008F5270008F0
:10008000F5270008F5270008F5270008F5270008E0
:10009000F5270008F5270008F5270008F5270008D0
:1000A000F5270008F5270008F5270008F5270008C0
:1000B000F5270008F5270008F5270008F5270008B0
:1000C000F5270008F5270008F5270008F5270008A0
:1000D000F5270008F5270008F5270008F527000890
:1000E000F5270008F527000815600008F527000827
:1000F000F5270008F5270008F5270008F527000870
:10010000F5270008F5270008F5270008F52700085F
:10011000F5270008F5270008F527000849520008D0
:10012000F5270008F5270008F5270008F52700083F
:10013000F5270008F5270008F5270008F52700082F
:10014000F5270008F5270008F52700084960000892
:10015000F5270008F5270008F5270008F52700080F
:10016000F5270008F5270008F5270008F5270008FF
:10017000F5270008F5270008F5270008F5270008EF
:10018000F5270008F527000880B485B000AF786037
:100190004FF00003FB607B68DB684FF0FF325A6072
:1001A0007B68DB684FF0FF325A61FB6843F0004325
:1001B000FB60FB6843F40063FB607B68DB68FA6804
:1001C0009A6107F11407BD4680BC704780B586B0C0
:1001D00000AF78604FF00003FB744FF000037B61C9
:1001E0004FF00003FB604FF0030005F0D7FE7B6883
:1001F000DB681B69FB607B6903F101037B617A6942
:100200001A4B9A4202D94FF0000329E0FB68C3F36E
:10021000C073DBB2002BE6D04FF000037B61FB68BC
:1002200043F00103FB607B68DB68FA681A617B6856
:10023000DB681B69FB607B6903F101037B617A6901
:100240000A4B9A4206D8FB68C3F30003DBB2012BCA
:10025000EDD000E000BF4FF0030005F09FFEFB7CF7
:10026000184607F11807BD4680BD00BF400D0300CA
:1002700080B489B000AFF860B960FA71BB804FF00C
:100280000003FB76FB68DB78002B2CD14FF00003DA
:100290007B614FF00003FB61BB8803F10303002B7C
:1002A00001DA03F103034FEAA3037B61FB79FA68E8
:1002B00003F132034FEA8303D3189B683B614FF08D
:1002C0000003FB610BE0BB681A683B691A60FB69BD
:1002D00003F10103FB61BB6803F10403BB60FA692E
:1002E0007B699A42EFD3FB7E184607F12407BD468F
:1002F00080BC704780B489B000AFF860B960134625
:10030000FB804FF00003FB61FB8803F10303002B2C
:1003100001DA03F103034FEAA303BB61FB68D3F8DF
:10032000D0307B614FF00003FB610BE07B691A6802
:10033000BB681A60FB6903F10103FB61BB6803F151
:100340000403BB60FA69BB699A42EFD3BB681846E5
:1003500007F12407BD4680BC704700BF80B487B05A
:1003600000AF78600B46FB704FF000033B614FF02D
:100370000003FB737B684FF00002DA707B684FF07C
:1003800001029A707B684FF040029A80FB78012B43
:1003900017D14FF0A0433B617B684FF00102DA7246
:1003A0007B684FF008021A707B684FF004025A70A5
:1003B0007B684FF4A072DA807B684FF002021A72F9
:1003C00014E0FB78002B11D14F4B3B617B684FF061
:1003D0000002DA727B684FF00C021A707B684FF0F3
:1003E00006025A707B684FF4A062DA803A697B6833
:1003F000DA603B6903F500631A467B681A614FF0C7
:1004000000037B6123E07B694FEA43123B69D31809
:1004100003F510631A4679687B6903F104034FEA18
:100420008303CB189A607B694FEA43123B69D31868
:1004300003F530631A4679687B6903F114034FEAC8
:100440008303CB185A607B6903F101037B617B68EE
:100450005B781A467B699A42D5D83B6903F580637D
:100460001A467B685A613B6903F588631A467B68C4
:10047000C3F8CC204FF000037B6113E07B694FEAA7
:1004800043123B69D31803F5A0631A4679687B6968
:1004900003F122034FEA8303CB189A607B6903F1CF
:1004A00001037B617B681B781A467B699A42E5D819
:1004B0004FF000037B6113E07B694FEA03323B6935
:1004C000D31803F580531A4679687B6903F1320328
:1004D0004FEA8303CB189A607B6903F101037B61C8
:1004E0007B681B781A467B699A42E5D83B6903F51D
:1004F00060631A467B68C3F80C21FB7B184607F142
:100500001C07BD4680BC70470000044080B588B021
:1005100000AF78604FF00003FB774FF00003BB6142
:100520004FF000037B614FF00003FB607B681B7A98
:10053000012B51D17B68DB689B6B7B617B696FF31F
:1005400010437B617B685B7A002B03D07B6943F4AB
:1005500080137B617B68DB687A699A634FF00003E4
:10056000BB617B68DB68DB68BB61BB696FF38613CB
:10057000BB61BB696FF39653BB61BB6943F010036A
:10058000BB61BB696FF3C303BB61BB696FF3C71387
:10059000BB61BB696FF35143BB61BB696FF3D3436D
:1005A000BB617B68DB68BA69DA607868FFF70EFECA
:1005B0007B68DB78012B40F08980FB684FF00502F7
:1005C00062F34403FB60FB6843F02003FB607B683D
:1005D000DB68FA689A6079E07B68DB68DB68BB619E
:1005E000BB6943F04003BB617B68DB68BA69DA60D2
:1005F0007868FFF7EBFD4FF000037B617B6943F404
:1006000080337B617B681B7A032B03D17B6943F4C6
:1006100000337B617B6943F480237B617B6943F416
:1006200000237B617B6943F400137B617B685B7A09
:10063000002B03D07B6943F480137B617B68DB680C
:100640007A699A634FF0140005F0D4FC7B68DB688C
:10065000DB68BB617B681B7A032B03D1BB6943F466
:100660008033BB617B68DB68BA69DA607B681B7AC0
:10067000032B2BD17B68DB681B6B3B613B694FF025
:10068000010262F39B633B613B696FF3D7533B61AC
:100690003B6943F080533B613B694FF02D0262F3AD
:1006A00016433B617B68DB683A691A634FF0C80008
:1006B00005F0A0FC3B6943F400033B617B68DB6809
:1006C0003A691A634FF0C80005F094FC7B68DB7848
:1006D000012B11D17B68DB689B68FB60FB684FF0E6
:1006E000050262F34403FB60FB6843F02003FB60F8
:1006F0007B68DB68FA689A60FB7F184607F1200781
:10070000BD4680BD80B485B000AF78604FF0000377
:10071000FB734FF00003BB60BB6843F00103BB6099
:100720007B68DB687A68D2689168BA680A439A6025
:10073000FB7B184607F11407BD4680BC704700BF1D
:1007400080B485B000AF78604FF00003FB734FF0CA
:100750000003BB60BB6843F00103BB607B68DB68E0
:100760007A68D2689168BA686FEA02020A409A60B1
:10077000FB7B184607F11407BD4680BC704700BFDD
:1007800080B586B000AF786039604FF00003FB742D
:100790004FF000037B614FF00003FB60FB6843F008
:1007A0002003FB603B68DBB203F01F03DAB2FB6897
:1007B00062F38A13FB607B68DB68FA681A617B6806
:1007C000DB681B69FB607B6903F101037B617A696C
:1007D0000A4B9A4206D8FB68C3F34013DBB2012BE5
:1007E000EDD000E000BF4FF0030005F0D7FBFB7C2D
:1007F000184607F11807BD4680BD00BF400D030035
:1008000080B586B000AF78604FF00003FB744FF006
:1008100000037B614FF00003FB60FB6843F01003B3
:10082000FB607B68DB68FA681A617B68DB681B69C0
:10083000FB607B6903F101037B617A690A4B9A4291
:1008400006D8FB68C3F30013DBB2012BEDD000E048
:1008500000BF4FF0030005F0A1FBFB7C184607F139
:100860001807BD4680BD00BF400D030080B584B0B1
:1008700000AF78600B46FB704FF00003FB737B68A2
:10088000DB68DB68BB60BB686FF35D73BB60BB6834
:100890006FF39E73BB60FB78012B04D1BB6843F000
:1008A0000053BB6006E0FB78002B03D1BB6843F02C
:1008B0008043BB607B68DB68BA68DA604FF0320067
:1008C00005F098FBFB7B184607F11007BD4680BD7D
:1008D00080B483B000AF78607B68DB685B6903F04D
:1008E0000103184607F10C07BD4680BC704700BFE6
:1008F00080B582B000AF78607868FFF7E9FF034603
:10090000012B0CBF00230123DBB2184607F10807B7
:10091000BD4680BD80B485B000AF78604FF0000365
:10092000FB607B68DB685B69FB607B68DB689B69FD
:10093000FA681340FB60FB68184607F11407BD46D0
:1009400080BC704780B485B000AF78600B46FB7008
:100950007B681B691B68FB60FB7803F00303DAB25A
:10096000FB6862F30103FB607B681B69FA681A602D
:1009700007F11407BD4680BC704700BF80B58CB03E
:1009800000AF78604FF0000387F82B304FF0000382
:100990007B624FF000033B624FF00003FB614FF0BE
:1009A0000003BB614FF000037B617B68D3F80C311F
:1009B0004FF000021A607B681B691B683B623B6A50
:1009C0006FF3CC233B627B681B693A6A1A607B68D1
:1009D000DB7A012B47D178684FF00301FFF7B2FFB4
:1009E0007B68DB684FF080025A62FB694FF020029F
:1009F00062F31F43FB61FB694FF0800262F30F0358
:100A0000FB617B68DB68FA699A62BA8BFB8BD3184F
:100A10009BB23B83BB694FF0800262F31F43BB6113
:100A20007B68DB68BA69C3F804213A8B7B8BD318E7
:100A30009BB23B83BB694FF0200262F31F43BB6153
:100A40007B68DB68BA69C3F808213A8B7B8BD318C3
:100A50009BB23B83BB696FF31F43BB617B68DB6861
:100A6000BA69C3F80C2178684FF01001FFF788FECF
:100A70007868FFF7C5FE7B681B694FF000021A61BA
:100A80007B681B694FF000025A617B681B694FF05D
:100A9000FF329A617B681B694FF00002DA614FF008
:100AA0000003FB6242E07A68FB6A03F104034FEA49
:100AB0008303D3189B681B687B627B6AC3F3C07394
:100AC000DBB2002B0BD04FF000037B627B6A43F05C
:100AD00080437B627B6A43F000637B6202E04FF0FD
:100AE00000037B627A68FB6A03F104034FEA830325
:100AF000D3189B687A6A1A607A68FB6A03F1040368
:100B00004FEA8303D3189B684FF000021A617A689A
:100B1000FB6A03F104034FEA8303D3189B684FF089
:100B2000FF029A60FB6A03F10103FB627B685B785A
:100B30001A46FB6A9A42B6D84FF00003FB6242E0C5
:100B40007A68FB6A03F114034FEA8303D3185B68E6
:100B50001B68FB60FB68C3F3C073DBB2002B0BD0D8
:100B60004FF00003FB60FB6843F08043FB60FB68D1
:100B700043F00063FB6002E04FF00003FB607A6823
:100B8000FB6A03F114034FEA8303D3185B68FA6826
:100B90001A607A68FB6A03F114034FEA8303D318DF
:100BA0005B684FF000021A617A68FB6A03F1140374
:100BB0004FEA8303D3185B684FF0FF029A60FB6A29
:100BC00003F10103FB627B685B781A46FB6A9A4279
:100BD000B6D84FF000037B617B6943F480737B617F
:100BE0007B681B697A68126911697A696FEA020287
:100BF00011407A690A431A617B68DB78012B1ED1A8
:100C00004FF000033B613B6943F001033B613B69EB
:100C100043F002033B613B694FF0400262F38A03F9
:100C20003B613B6943F480333B613B694FF04002D9
:100C300062F359433B617B681B693A691A637868C0
:100C400000F008F897F82B30184607F13007BD463A
:100C500080BD00BF80B584B000AF78604FF0000366
:100C6000FB734FF00003BB607B68DB684FF0000252
:100C70009A617B68DB684FF0FF325A617868FFF752
:100C800083FA7B68DB78002B03D1BB6843F0100349
:100C9000BB60BB6843F40063BB60BB6843F4805334
:100CA000BB60BB6843F40053BB60BB6843F4802364
:100CB000BB60BB6843F40023BB60BB6843F0080320
:100CC000BB60BB6843F48013BB60BB6843F4001394
:100CD000BB607B68DB687A68D2689169BA686FEA42
:100CE00002021140BA680A439A61FB7B184607F179
:100CF0001007BD4680BD00BF80B485B000AF7860EE
:100D00004FF00003FB737B681B699B68BB60BB688B
:100D1000C3F34103DBB2022B0BD0032B05D0012B15
:100D200003D04FF00303FB7307E04FF00203FB73A4
:100D300003E04FF00103FB7300BFFB7B184607F194
:100D40001407BD4680BC704780B487B000AF7860A0
:100D50004FF00003FB754FF00003BB607B681B691D
:100D60009B683B617B689B691B68FB603B69C3F3C5
:100D70004103DBB2022B04D0FB686FF30A03FB6074
:100D800006E0FB684FF0030262F30A03FB6000BF5A
:100D90007B689B69FA681A60BB6843F48073BB6028
:100DA0007B681B697A6812695168BA686FEA020247
:100DB0001140BA680A435A60FB7D184607F11C07C8
:100DC000BD4680BC704700BF80B487B000AF78607C
:100DD00039604FF00003FB744FF00003FB604FF0ED
:100DE0000003BB603B685B78012B12D13B681B782A
:100DF0007A6803F104034FEA8303D3189B687B618D
:100E00003B681B784FF0010202FA03F39BB23B816F
:100E100014E03B681B787A6803F114034FEA8303FC
:100E2000D3185B687B613B681B784FF0010202FAC4
:100E300003F39AB2BB6862F31F43BB607B691B6814
:100E4000FB60FB68C3F3C033DBB2002B29D13B68E6
:100E50009B689BB24FEA43534FEA53539AB2FB68E5
:100E600062F30A03FB603B68DB7803F00303DAB24A
:100E7000FB6862F39343FB603B68DB88DBB203F003
:100E80000F03DAB2FB6862F39953FB60FB6843F02F
:100E90008053FB60FB6843F40043FB60FA687B69A6
:100EA0001A607B681B697A681269D169BA680A435B
:100EB000DA61FB7C184607F11C07BD4680BC704711
:100EC00080B487B000AF786039604FF00003FB74E6
:100ED0004FF00003FB604FF00003BB603B685B78A2
:100EE000012B12D13B681B787A6803F104034FEAA7
:100EF0008303D3189B687B613B681B784FF001022A
:100F000002FA03F39BB23B8114E03B681B787A68DA
:100F100003F114034FEA8303D3185B687B613B68DA
:100F20001B784FF0010202FA03F39AB2BB6862F336
:100F30001F43BB60FB686FF3CF33FB60FA687B69CC
:100F40001A607B681B697A681269D169BA686FEAAE
:100F500002020A40DA61FB7C184607F11C07BD4615
:100F600080BC704780B588B000AF786039604FF0C2
:100F70000003FB774FF00003BB614FF000037B6180
:100F80004FF000033B613B685B78012B40F0BD8074
:100F90003B681B787A6803F104034FEA8303D31894
:100FA0009B681B687B613B681B787A6803F10403CC
:100FB0004FEA8303D3189B681B693B613B685B69FD
:100FC000002B0AD13B696FF312033B613B694FF081
:100FD000010262F3DC433B6128E03B685B6923F07C
:100FE0007F4222F478023B6962F312033B613B6863
:100FF0005A693B689B68D31803F1FF323B689B68D2
:10100000B2FBF3F39BB24FEA83534FEA93539AB286
:101010003B6962F3DC433B613B68DB78012B05D124
:101020003B694FF0010262F35E733B613B681B78E2
:101030007A6803F104034FEA8303D3189B683A6983
:101040001A617B68DB78012B0CD13B681B787A68CE
:1010500003F104034FEA8303D3189B683A681269CB
:101060005A6116E03B68DB78012B12D03B685B6964
:10107000002B0ED03B681B784FF0010202FA03F3FD
:10108000BB617B681B697A681269516BBA690A4354
:101090005A633B68DB78012B14D17B681B699B6822
:1010A000FB60FB68C3F30D239BB203F00103002B2D
:1010B00004D17B6943F000537B6103E07B6943F01B
:1010C00080537B617B6943F080637B617B6943F084
:1010D00000437B613B681B787A6803F104034FEAA5
:1010E0008303D3189B687A691A603B68DB78012B0D
:1010F00040F09A803B68D9683B681A783B685B6926
:101100009BB27868FFF7B4F88EE03B681B787A688A
:1011100003F114034FEA8303D3185B681B687B61F8
:101120003B681B787A6803F114034FEA8303D318F2
:101130005B681B693B613B685B69002B10D13B68B6
:101140009B6823F07F4222F478023B6962F312032A
:101150003B613B694FF0010262F3DC433B6124E0F9
:101160003B685A693B689B68D31803F1FF323B68C0
:101170009B68B2FBF3F39BB24FEA83534FEA93535E
:101180009AB23B6962F3DC433B613B69C3F3C943F9
:101190009BB23A68926802FB03F323F07F4222F489
:1011A00078023B6962F312033B613B681B787A6803
:1011B00003F114034FEA8303D3185B683A691A6199
:1011C0007B68DB78012B0BD13B681B787A6803F1D5
:1011D00014034FEA8303D3185B683A6812695A61B3
:1011E0003B68DB78012B0CD13B685B79002B04D08A
:1011F0007B6943F000537B6103E07B6943F08053DC
:101200007B617B6943F080637B617B6943F00043D2
:101210007B613B681B787A6803F114034FEA830310
:10122000D3185B687A691A60FB7F184607F12007BC
:10123000BD4680BD80B489B000AF786039604FF0A2
:101240000003FB774FF00003BB614FF000033B61ED
:101250004FF00003BB603B685B78012B75D17B6866
:101260009B697B617B691B683B617B691B69BB6018
:101270003B685B69002B0AD13B7A6FF306033B7234
:10128000BB7A4FF0010262F3C403BB7224E03B68F7
:101290005A693B689B689A420ED93B689A683B68DA
:1012A0005A613B689B68DBB203F07F03DAB23B7A9A
:1012B00062F306033B7209E03B685B69DBB203F053
:1012C0007F03DAB23B7A62F306033B72BB7A4FF0DC
:1012D000010262F3C403BB72BA687B691A617B685E
:1012E000DB78012B0BD13B681B787A6803F1040390
:1012F0004FEA8303D3189B683A6812695A613B69C5
:1013000043F080633B613B6943F000433B613A69D2
:101310007B691A607B68DB78002B40F083803B6838
:101320005B69002B7ED03B681B784FF0010202FA0C
:1013300003F3BA691343BB617B681B697A6812695E
:10134000516BBA690A435A636CE03B681B787A6850
:1013500003F114034FEA8303D3185B681B683B61F6
:101360003B681B787A6803F114034FEA8303D318B0
:101370005B681B69BB603B685B69002B10D13B68F5
:101380009B68DBB203F07F03DAB23B7A62F30603B9
:101390003B72BB7A4FF0010262F3C403BB7213E0ED
:1013A0003B689A683B685A613B689B68DBB203F014
:1013B0007F03DAB23B7A62F306033B72BB7A4FF0EB
:1013C000010262F3C403BB723B681B787A6803F1C5
:1013D00014034FEA8303D3185B68BA681A617B6809
:1013E000DB78012B0BD13B681B787A6803F114037F
:1013F0004FEA8303D3185B683A6812695A613B6904
:1014000043F080633B613B6943F000433B613B68D1
:101410001B787A6803F114034FEA8303D3185B68DF
:101420003A691A60FB7F184607F12407BD4680BC65
:10143000704700BF80B487B000AF786039604FF06C
:101440000003FB754FF00003FB603B685B78012BEA
:101450001ED13B681B787A6803F104034FEA8303CB
:10146000D3189B683B613B691B68FB60FB68C3F357
:10147000C073DBB2002B03D0FB6843F08043FB60FA
:10148000FB6843F40013FB60FA683B691A6013E0E1
:101490003B681B787A6803F114034FEA8303D3187F
:1014A0005B683B613B691B68FB60FB6843F40013AE
:1014B000FB60FA683B691A60FB7D184607F11C0760
:1014C000BD4680BC704700BF80B487B000AF786075
:1014D00039604FF00003FB744FF00003FB603B6882
:1014E0005B78012B0AD13B681B787A6803F104030F
:1014F0004FEA8303D3189B687B6109E03B681B7844
:101500007A6803F114034FEA8303D3185B687B61A5
:101510007B691B68FB60FB686FF35553FB603B689E
:10152000DB78032B03D03B68DB78022B03D1FB680D
:1015300043F08053FB60FA687B691A60FB7C1846B5
:1015400007F11C07BD4680BC704700BF80B485B062
:1015500000AF78607B681B699B69FB607B681B69D7
:10156000DB69FA681340FB60FB684FEA13431846D7
:1015700007F11407BD4680BC704700BF80B485B03A
:1015800000AF78600B46FB70FB787A6803F11403B8
:101590004FEA8303D3185B689B68FB607B681B6919
:1015A0005B69FA681340FB60FB68184607F1140793
:1015B000BD4680BC704700BF80B485B000AF786086
:1015C0007B681B699B69FB607B681B69DB69FA6848
:1015D0001340FB60FB684FEA03434FEA134318468E
:1015E00007F11407BD4680BC704700BF80B487B0C8
:1015F00000AF78604FF000033B61FB7C43F0C00319
:10160000FB74BB7C4FF0010262F3C403BB743B7CF0
:101610004FF0180262F306033B747B685B6D3A6916
:101620001A617B68DB78012B17D14FF00003FB6058
:101630007B685B6D7A6802F5B9625A617B685B6DA5
:101640001B68FB60FB6843F00043FB604FF08023A6
:10165000FB607B685B6DFA681A6007F11C07BD468A
:1016600080BC704780B485B000AF78607B689B7A9F
:10167000002B1BD07B681B699B68FB60FB68C3F376
:101680000003DBB2012B11D17B6803F586731B6865
:10169000BB60BB686FF34103BB60BB686FF30003C3
:1016A000BB607B68D3F80C31BA681A6007F1140785
:1016B000BD4680BC704700BF80B400AFBD4680BC53
:1016C000704700BF80B400AFBD4680BC704700BF0C
:1016D00080B586B000AF786013460A467A803B80BA
:1016E0004FF00003FB754FF00003FB81384B1B6884
:1016F00018464FF000014FF0FF324FF0000305F0A5
:1017000031FB344B1A89344B1A80324B9A88324B56
:101710005A80304B1A88304B9A80304B1B781A46CF
:101720002D4BDA802D4B5B781A462B4B1A81284BB8
:101730001B6818464FF000014FF000024FF0000305
:1017400005F066FA264B1B787A889A4237D37A8856
:101750003B88D218224B1B781946224B1B78CB189A
:101760009A422CDC7A88204B1B78D31A3B6122E00A
:10177000194B3A6933F812309BB24FEA13239BB2EC
:10178000DAB27B681A707B6803F101037B60124B4D
:101790003A6933F812309BB2DAB27B681A707B6810
:1017A00003F101037B603B6903F101033B613B886B
:1017B00003F1FF333B803B88002BD9D102E04FF08F
:1017C0000103FB75FB7D184607F11807BD4680BD78
:1017D000942F0020882F0020C8010020842D002095
:1017E00004000020060000200700002080B485B01F
:1017F00000AFF86079813A81FB714FF00103184620
:1018000007F11407BD4680BC704700BF80B485B0A7
:1018100000AFF86079813A81FB714FF001031846FF
:1018200007F11407BD4680BC704700BF80B483B089
:1018300000AF786013460A467A803B804FF0010380
:10184000184607F10C07BD4680BC704780B584B0D0
:1018500000AF3B600346FB710B46BB7113467B71C7
:101860004FF00003FB73BB79002B05D0BB79002B35
:1018700002D0BB79F72B03D94FF00203FB7340E092
:10188000234BBA791A70FB79002B24D1214B224AC1
:101890001A60224B224A1A60224B234A1A60234BB9
:1018A000234A1A60234B4FF000021A60224B234A4E
:1018B0001A60234B234A1A60234B244A1A60144BA4
:1018C00019787A793B7E084611463A6803F096FE0D
:1018D0000346FB7302E04FF00203FB73FB7B002B1C
:1018E0000FD100F025FA0346002B03D14FF003037C
:1018F000FB7306E0164BFA791A70164B4FF0010293
:101900001A70FB7B184607F11007BD4680BD00BF6B
:10191000DC010020E401002081560008E8010020DD
:10192000AD560008E001002051570008EC010020EE
:10193000CD560008F001002078270020315800081B
:1019400070270020ED5800087427002079590008FE
:10195000DD0100200C00002080B582B000AF4FF008
:101960000003FB710A4B1B78012B07D1094B1B6845
:101970009847074B4FF000021A7002E04FF0060341
:10198000FB71FB79184607F10807BD4680BD00BF13
:101990000C000020E401002080B582B000AF4FF0C1
:1019A0000003FB70574B1B78002B02D04FF006034F
:1019B000A2E007F10203184600F0E0F90346012B0C
:1019C00040F09880BB78032B00F2948001A252F87B
:1019D00023F000BFF51A0008E5190008191A0008DD
:1019E000F51A0008484B1B6848484949494A984736
:1019F0000346FB70FB78002B79D1444B1A78464B99
:101A00001B789A4203D0414B1B78002B6FD14FF0CB
:101A1000020000F09BF96AE03D4B1B681A783F4BCF
:101A20001A703F4B4FF001021A704FF000037B60B9
:101A300021E03C4B7A6813F83230002B1FD0394B31
:101A40007A6813F83220354B1B789A420FD1354A09
:101A50007B684FEAC303D3185B682D4A12681046AF
:101A60002C49984703461A462D4B1A7008E07B68AC
:101A700003F101037B607B680F2BDADD00E000BF20
:101A8000224B1B78002B34D0254B1B78002B22D007
:101A9000204B4FF000021A801D4B19681D4B1B880C
:101AA0001A468A181D49097861F07F01C9B2117080
:101AB00003F101039AB2174B1A80154B1968154BA5
:101AC0001B881A468A1816490978117003F1010318
:101AD0009AB2104B1A80144B1B680F4A10780C4AAC
:101AE00011680C4A128898470346FB7001E000BF5A
:101AF00000E000BF4FF00003184607F10807BD469D
:101B000080BD00BF0C000020EC010020F40100208B
:101B1000F8010020FC010020DC010020FE01002073
:101B2000FF01002010000020E001002080B586B0F9
:101B300004AF4FF0000300934FF000004FF00A0194
:101B40004FF000024FF46143FFF780FE0346FB7144
:101B50004FF0010300934FF0000301934FF0000397
:101B600002934FF000030393054806494FF4807237
:101B70004FF0000302F0BEF807F10807BD4680BD34
:101B8000891B00084498000880B582B000AF7860D7
:101B9000FFF7E2FE084B4FF000021A71FFF7FCFE60
:101BA0004FF0640002F07AF9034B1B6803F1010265
:101BB000014B1A60F2E700BFA82D002080B586B067
:101BC00000AF786039604FF00003BB753B681B883D
:101BD000052B40F081807B6803F101031B784FEAFD
:101BE0000323BB827B6803F102031B781A46BB8A7E
:101BF0001343BB82BB8A03F10103BB827B6803F101
:101C000003031B784FEA03237B827B6803F1040301
:101C10001B781A467B8A13437B827B8A002B57D022
:101C20007A8A40F2CF739A4252D87B68FB603B6855
:101C30004FF000021A80FB684FF002021A70FB6836
:101C400003F10103FB603B681B8803F101039AB2B7
:101C50003B681A807B8A03F00703002B08D07B8A3D
:101C60004FEAD3039BB2DBB203F10103FB7504E03F
:101C70007B8A4FEAD3039BB2FB75FB68FA7D1A702F
:101C8000FB6803F10103FB603B681B8803F1010360
:101C90009AB23B681A80BA8A7B8AF86811461A465B
:101CA000FFF7C4FD0346FB72FB7A002B06D0FB7ADC
:101CB000184600F049FD0346BB7510E03B681A88E2
:101CC000FB7D9BB2D3189AB23B681A8000BF06E036
:101CD0004FF00303BB7502E04FF00303BB75BB7D00
:101CE000184607F11807BD4680BD00BF80B400AF9D
:101CF000BD4680BC704700BF80B483B000AF0346D0
:101D0000FB7107F10C07BD4680BC704780B400AF83
:101D1000BD4680BC704700BF80B400AFBD4680BCEC
:101D2000704700BF80B400AFBD4680BC704700BFA5
:101D300080B400AF044B4FF000021A704FF0010363
:101D40001846BD4680BC70470102002080B483B0B5
:101D500000AF0346FB71074B4FF001021A70064BB0
:101D6000FA791A704FF00103184607F10C07BD46C7
:101D700080BC7047010200200002002080B485B0C2
:101D800000AF78604FF00003FB730B4B1B78002B08
:101D90000AD00A4B1A787B681A70074B4FF0000282
:101DA0001A704FF00103FB73FB7B184607F1140711
:101DB000BD4680BC704700BF010200200002002029
:101DC00080B586B004AF4FF004004FF0010101F080
:101DD000B3F94FF080033B604FF000037B714FF08D
:101DE00001033B714FF00003BB714FF00003FB7127
:101DF0003B461148194603F043F80F484FF0800165
:101E00004FF0000203F01AF94FF0010300930B4B5F
:101E100001934FF0000302934FF00003039308482F
:101E200008494FF040024FF0000301F063FF07F153
:101E30000807BD4680BD00BF00080240842700207F
:101E4000491E00084C98000880B582B000AF786049
:101E50004B4B1B78012B16D0022B3DD0002B7AD197
:101E600048484FF080014FF0010203F0E7F840F2DC
:101E7000DC5002F013F843484FF080014FF00002AD
:101E800003F0DCF867E03F484FF080014FF00102BB
:101E900003F0D4F84FF47A7002F000F839484FF0AC
:101EA00080014FF0000203F0C9F84FF47A7001F09E
:101EB000F5FF34484FF080014FF0010203F0BEF807
:101EC0004FF47A7001F0EAFF2E484FF080014FF096
:101ED000000203F0B3F83EE02A484FF080014FF0D3
:101EE000010203F0ABF84FF47A7001F0D7FF2548F8
:101EF0004FF080014FF0000203F0A0F84FF47A7029
:101F000001F0CCFF1F484FF080014FF0010203F0B9
:101F100095F84FF47A7001F0C1FF1A484FF0800134
:101F20004FF0000203F08AF84FF47A7001F0B6FF28
:101F300014484FF080014FF0010203F07FF84FF496
:101F40007A7001F0ABFF0F484FF080014FF00002B4
:101F500003F074F800BF0C4B9B6803F101020A4BBD
:101F60009A60094B4FF001021A73054B4FF00302C0
:101F70001A70064B1B68184601F0BCFF68E700BFEB
:101F8000AC00002000080240A82D0020842700207B
:101F900080B582B000AF0346FB71094B1B68184641
:101FA00002F028F8074B4FF000021A73FB7903F098
:101FB0000703DAB2044B1A7007F10807BD4680BD6B
:101FC00084270020A82D0020AC00002080B582B01E
:101FD00000AF786039607B6803F101020A4B1B880F
:101FE00010460A491A4607F0DBFA074B1B8803F133
:101FF00001039AB23B681A804FF00003184607F1BC
:102000000807BD4680BD00BF240200200402002056
:1020100080B58EB004AF4FF002004FF0010101F027
:102020008BF84FF001004FF0010101F085F84FF0FF
:10203000F0033B624FF0020387F824304FF00003B7
:1020400087F825304FF0000387F8263007F120038A
:102050007748194602F014FF75484FF004014FF01D
:10206000020203F003F872484FF005014FF002023C
:1020700002F0FCFF6E484FF006014FF0020202F042
:10208000F5FF6B484FF007014FF0020202F0EEFF40
:102090004FF002004FF0010101F08EF84FF0040004
:1020A0004FF0010101F088F807F11403184607F01A
:1020B0000BF84FF40073BB834FF48073BB614FF098
:1020C0003C03BB8207F114035A48194606F090FFFF
:1020D00007F114035848194606F08AFF3B46184694
:1020E00007F06CF94FF001037B804FF060033B80F9
:1020F0004FF00003BB603B464E48194607F050F8CE
:102100003B464C48194607F0C7F83B464A48194633
:1021100007F046F83B464848194607F0BDF84648E0
:102120004FF0080107F074F943484FF0080107F039
:102130008BF941484FF0010106F0F2FF3D484FF0A6
:10214000010107F00DF83C484FF0010107F008F8D5
:10215000384B4FF000025A63364B4FF000029A633F
:10216000354B4FF000025A63334B4FF000029A6335
:10217000324B4FF000021A71304B4FF064021A805C
:102180002E4B4FF00002DA712C4B4FF0C8025A80F0
:102190002A4B4FF000025A71284B4FF000029A71FF
:1021A0004FF0C0033B624FF0000387F824304FF03C
:1021B000010387F827304FF0000387F8253007F137
:1021C00020031F48194602F05BFE4FF001004FF05C
:1021D00000014FF0030204F081FC0246194B1A6023
:1021E000184B1B68002B0AD0164B1B6818464FF083
:1021F00000014FF000024FF0000304F009FD4FF022
:10220000010300934FF0000301934FF0000302938A
:102210004FF0000303930C480C494FF040024FF07D
:10222000000301F067FD07F12807BD4680BD00BF30
:102230000004024000040040000800408C270020F9
:10224000000002408827002051220008549800080E
:1022500080B582B000AF78605E4B9B79002B04D1D3
:102260005D4B1A885B4B1A8007E05A4B9B79012B18
:1022700003D1594B9A88574B1A80564B1A88574BA3
:10228000A3FB02134FEAD3039AB2524B1A80514B6D
:102290001B88092B03D84F4B4FF00A021A804D4B75
:1022A0001B88B3F57A7F03D94A4B4FF47A721A80B0
:1022B000484B5A88474B1B889A4210D9454B1B798B
:1022C000002B0CD0434B5B88A3F132039AB2414BF5
:1022D0005A80404B5B88184601F0E0FD04E03D4B1E
:1022E0001B88184601F0DAFD3D484FF0400102F02E
:1022F00087FE0346002B1BD1364B5B79022B3FD068
:10230000344B4FF002025A714FF0000000F06CF8AD
:10231000344B1B6818464FF000014FF000024FF09D
:10232000000304F075FC4FF00100FFF731FE27E0D9
:102330002B484FF0800102F063FE0346002B1BD1B7
:10234000244B5B79012B1BD0224B4FF001025A71B9
:102350004FF0000000F048F8224B1B6818464FF081
:1023600000014FF000024FF0000304F051FC4FF069
:102370000100FFF70DFE03E0164B4FF000025A710B
:10238000144B1B79012B04D0022B0ED0002B18D03C
:102390001EE0104B5B79012B04D10E4B4FF0000275
:1023A0001A7116E000F0FCF813E00A4B5B79022B7F
:1023B00004D1084B4FF000021A710AE000F0FEF859
:1023C00007E000F009F9034B4FF0C8025A8000E023
:1023D00000BF41E78C270020882F0020CDCCCCCC3B
:1023E000000002408827002080B483B000AF03467D
:1023F000FB71064BFA791A71044B4FF0C8025A80F0
:1024000007F10C07BD4680BC704700BF8C27002039
:1024100080B483B000AF0346FB71044BFA799A7124
:1024200007F10C07BD4680BC704700BF8C27002019
:1024300080B400AF574BDB7903F00703DAB2554B9A
:10244000DA71544BDB79072B00F29C8001A252F821
:1024500023F000BF7524000897240008B924000861
:10246000DB240008FD2400081F2500084125000882
:1024700063250008484B4FF09F025A63464B4FF0CC
:1024800000029A63454B4FF000025A63434B4FF0F2
:1024900000029A637BE0404B4FF09F025A633E4B31
:1024A0004FF09F029A633D4B4FF000025A633B4B43
:1024B0004FF000029A636AE0374B4FF000025A6314
:1024C000354B4FF09F029A63344B4FF000025A6332
:1024D000324B4FF000029A6359E02F4B4FF000024D
:1024E0005A632D4B4FF09F029A632C4B4FF09F0283
:1024F0005A632A4B4FF000029A6348E0264B4FF094
:1025000000025A63244B4FF000029A63234B4FF0B2
:102510009F025A63214B4FF000029A6337E01E4B33
:102520004FF000025A631C4B4FF000029A631B4BA2
:102530004FF09F025A63194B4FF09F029A6326E0B7
:10254000154B4FF000025A63134B4FF000029A6391
:10255000124B4FF000025A63104B4FF09F029A63E8
:1025600015E00D4B4FF09F025A630B4B4FF00002EA
:102570009A630A4B4FF000025A63084B4FF09F02D8
:102580009A6304E0034B4FF00002DA7100BFBD46CE
:1025900080BC70478C2700200004004000080040E9
:1025A00080B500AF044BDB7903F10103DAB2024BD3
:1025B000DA71FFF73DFF80BD8C27002080B500AFAA
:1025C000044BDB7903F1FF33DAB2024BDA71FFF728
:1025D0002FFF80BD8C27002080B400AF574BDB79E4
:1025E00003F00703DAB2554BDA71544BDB79072B52
:1025F00000F29C8001A252F823F000BF1D260008C3
:102600003F2600086126000883260008A52600084A
:10261000C7260008E92600080B270008484B4FF0A2
:102620005F025A63464B4FF000029A63454B4FF0EE
:1026300000025A63434B4FF000029A637BE0404B29
:102640004FF05F025A633E4B4FF05F029A633D4B7F
:102650004FF000025A633B4B4FF000029A636AE06E
:10266000374B4FF000025A63354B4FF05F029A63CD
:10267000344B4FF000025A63324B4FF000029A6322
:1026800059E02F4B4FF000025A632D4B4FF05F0281
:102690009A632C4B4FF05F025A632A4B4FF00002B3
:1026A0009A6348E0264B4FF000025A63244B4FF0E8
:1026B00000029A63234B4FF05F025A63214B4FF0A5
:1026C00000029A6337E01E4B4FF000025A631C4B26
:1026D0004FF000029A631B4B4FF05F025A63194B95
:1026E0004FF05F029A6326E0154B4FF000025A63E9
:1026F000134B4FF000029A63124B4FF000025A63E3
:10270000104B4FF05F029A6315E00D4B4FF05F02E4
:102710005A630B4B4FF000029A630A4B4FF00002D2
:102720005A63084B4FF05F029A6304E0034B4FF08B
:102730000002DA7100BFBD4680BC70478C270020C4
:10274000000400400008004080B485B000AF03469C
:10275000FB71FB79012B07D0072B09D0002B0BD184
:102760004FF00003FB730BE04FF00203FB7307E035
:102770004FF00603FB7303E04FF00403FB7300BF4D
:10278000FB7B184607F11407BD4680BC704700BFAD
:1027900080B582B000AF124B7B60124B3B600BE008
:1027A0007B681A683B681A603B6803F104033B606E
:1027B0007B6803F104037B603A680B4B9A42EFD3CA
:1027C0000A480B494FF000028842B8BF40F8042B7A
:1027D000FFF6FAAF00F032FC07F10807BD4680BDF6
:1027E000489B000800000020C4010020C801002010
:1027F0005838002080B400AFFEE700BF80B584B039
:1028000000AF786039604FF00003FB733B681B88B2
:10281000052B2AD17B6803F101031B784FEA0323C0
:10282000BB817B6803F102031B781A46BB89134303
:10283000BB81BB8903F10103BB817B6803F1030208
:10284000BB89104619464FF001024FF00103FEF715
:10285000CDFF0346FB72FB7A002B09D0FB7A1846AA
:10286000FFF772FF0346FB7302E04FF00303FB73B5
:10287000FB7B184607F11007BD4680BD80B584B0CC
:1028800000AF786039604FF00003FB733B681B8832
:10289000052B54D97B6803F101031B784FEA03230E
:1028A000BB817B6803F102031B781A46BB89134383
:1028B000BB81BB8903F10103BB817B6803F1030387
:1028C0001B784FEA03237B817B6803F104031B78A9
:1028D0001A467B8913437B817B685B797B727B899A
:1028E000002B28D07B89782B25D87B89DBB24FEA57
:1028F0004303DBB27A7A9A421DD17B6803F1060169
:10290000BA897B89084611461A464FF00103FEF743
:102910006DFF03463B723B7A002B06D03B7A18468C
:10292000FFF712FF0346FB730CE03B684FF0050214
:102930001A8000BF06E04FF00303FB7302E04FF084
:102940000303FB73FB7B184607F11007BD4680BDF0
:1029500080B586B000AF786039604FF00003FB753A
:102960003B681B88052B70D17B6803F101031B7842
:102970004FEA0323BB827B6803F102031B781A46EC
:10298000BB8A1343BB82BB8A03F10103BB827B6812
:1029900003F103031B784FEA03237B827B6803F177
:1029A00004031B787B827B8A002B4AD07B8A7D2B99
:1029B00047D87B68FB603B684FF000021A80FB68D9
:1029C0004FF003021A70FB6803F10103FB603B68E0
:1029D0001B8803F101039AB23B681A807B8ADBB241
:1029E0004FEA4303DAB2FB681A70FB6803F1010394
:1029F000FB603B681B8803F101039AB23B681A80B5
:102A0000BA8A7B8AF86811461A464FF00003FEF72F
:102A1000EDFE0346FB72FB7A002B06D0FB7A1846CC
:102A2000FFF792FE0346FB7512E03B681A887B8A2B
:102A30004FEA43039BB2D3189AB23B681A8000BF97
:102A400006E04FF00303FB7502E04FF00303FB7554
:102A5000FB7D184607F11807BD4680BD80B586B0DE
:102A600000AF786039604FF00003FB753B681B884E
:102A7000092B40F2B6807B6803F101031B784FEA13
:102A80000323BB827B6803F102031B781A46BB8ACF
:102A90001343BB82BB8A03F10103BB827B6803F152
:102AA00003031B784FEA03237B827B6803F1040353
:102AB0001B781A467B8A13437B827B6803F10503EC
:102AC0001B784FEA03233B827B6803F106031B78E4
:102AD0001A463B8A13433B823B8A03F101033B8244
:102AE0007B6803F107031B784FEA0323FB817B68B4
:102AF00003F108031B781A46FB891343FB817B68AB
:102B00005B7A7B737B8A002B68D07B8A7D2B65D8B0
:102B1000FB89002B62D0FB89792B5FD8FB894FEAB8
:102B200043027B7B9A4259D17B6803F10A013A8ABE
:102B3000FB89084611461A464FF00103FEF756FE80
:102B40000346BB75BB7D002B3ED17B68BB603B68F9
:102B50004FF000021A80BB684FF017021A70BB6872
:102B600003F10103BB603B681B8803F101039AB2C8
:102B70003B681A807B8ADBB24FEA4303DAB2BB6858
:102B80001A70BB6803F10103BB603B681B8803F14B
:102B900001039AB23B681A80BA8A7B8AB8681146E8
:102BA0001A464FF00003FEF721FE0346BB75BB7DBE
:102BB000002B09D13B681A887B8A4FEA43039BB2FA
:102BC000D3189AB23B681A80BB7D002B09D0BB7D1D
:102BD0001846FFF7B9FD0346FB7502E04FF003030B
:102BE000FB75FB7D184607F11807BD4680BD00BF89
:102BF00080B584B000AFF8607A603B600B46FB7232
:102C0000F86803F047F9F86800F01EF8FB683A68C6
:102C1000C3F8E025FB68BA69C3F8E425FB687A6865
:102C2000C3F8E825FB7AF868194605F081FEFB68D1
:102C3000D3F8E4351B689847F86803F091F907F179
:102C40001007BD4680BD00BF80B483B000AF786080
:102C50004FF00003184607F10C07BD4680BC7047D3
:102C600080B584B000AF786007F108037868194632
:102C700003F0F8FD3B7A03F01F03012B0AD0022B6F
:102C80000FD0002B14D107F108037868194603F020
:102C9000E3F916E007F108037868194603F02EFA05
:102CA0000FE007F108037868194603F05DFA08E0C1
:102CB0003B7A23F07F03DBB27868194605F0ECFF1E
:102CC00000BF4FF00003184607F11007BD4680BD56
:102CD00080B584B000AF78600B46FB70FB78002BAA
:102CE00045D17B6803F55C73FB607B6893F8113119
:102CF000032B4FD1FB68DA69FB689B689A4221D9A4
:102D0000FB68DA69FB689B68D21AFB68DA617B684A
:102D1000DB78012B06D1FB68DA68FB689B68D21868
:102D2000FB68DA60FB68DA68FB689968FB68DB6956
:102D3000994238BF0B469BB2786811461A4606F096
:102D400003F927E07B68D3F8E0351B69002B0AD034
:102D50007B6893F81231032B05D17B68D3F8E035FB
:102D60001B6978689847786806F006F912E07B6876
:102D7000D3F8E0359B69002B0CD07B6893F81231B7
:102D8000032B07D17B68D3F8E0359B69FA78786824
:102D9000114698474FF00003184607F11007BD464B
:102DA00080BD00BF80B584B000AF78600B46FB707B
:102DB000FB78002B63D17B6803F58C73FB607B6829
:102DC00093F81131022B6ED1FB68DA69FB689B68BE
:102DD0009A421CD9FB68DA69FB689B68D21AFB68C7
:102DE000DA617B68DB78012B06D1FB68DA68FB6867
:102DF0009B68D218FB68DA60FB68DA68FB68DB69FD
:102E00009BB2786811461A4606F062F84BE0FB6800
:102E10001B6AFA689268B3FBF2F102FB01F29B1A9B
:102E2000002B17D1FB681A6AFB689B689A4211D382
:102E3000FB681A6AFB685B6A9A420BD278684FF0AB
:102E400000014FF0000206F043F8FB684FF000026B
:102E50005A6229E07B68D3F8E035DB68002B0AD0A2
:102E60007B6893F81231032B05D17B68D3F8E035EA
:102E7000DB6878689847786806F09CF813E07B6810
:102E8000D3F8E0355B69002B0ED07B6893F81231E4
:102E9000032B09D17B68D3F8E0355B69FA78786851
:102EA0001146984700E000BF4FF00003184607F1B5
:102EB0001007BD4680BD00BF80B582B000AF78600E
:102EC00078684FF000014FF040024FF0000305F02A
:102ED000C5FD78684FF080014FF040024FF00003CD
:102EE00005F0BCFD7B684FF0010283F812217B687E
:102EF000D3F8E4355B687A689278104698474FF0CB
:102F00000003184607F10807BD4680BD80B582B0B2
:102F100000AF78607B68D3F8E4351B6998477B681D
:102F20004FF0030283F812214FF00003184607F117
:102F30000807BD4680BD00BF80B582B000AF786095
:102F40007B684FF0040283F812217B68D3F8E435E4
:102F5000DB6898474FF00003184607F10807BD46A5
:102F600080BD00BF80B582B000AF78607B68D3F8C9
:102F7000E035DB69002B05D07B68D3F8E035DB69F1
:102F8000786898474FF00003184607F10807BD46D8
:102F900080BD00BF80B582B000AF78600B46FB708B
:102FA0007B68D3F8E0351B68FA7878681146984753
:102FB0007B68D3F8E4359B6898474FF000031846C8
:102FC00007F10807BD4680BD80B582B000AF7860CC
:102FD0000B46FB707B68D3F8E0355B68FA7878685D
:102FE000114698474FF00003184607F10807BD4601
:102FF00080BD00BF80B582B000AF78607B68D3F839
:10300000E0351B6A786898474FF00003184607F1CF
:103010000807BD4680BD00BF80B582B000AF7860B4
:103020007B68D3F8E0355B6A786898474FF0000317
:10303000184607F10807BD4680BD00BF80B582B0C5
:1030400002AF02F0C5FCFEF7E3FF02F05FFDFEF702
:10305000B7FE01F009FE084B009308484FF001014C
:10306000074A084BFFF7C4FDFEF760FD00F004F9C6
:1030700001F014F8FEE700BF900000209427002024
:10308000E40000209801002080B400AFFEE700BFFC
:1030900080B483B000AF78603960FEE780B582B05D
:1030A00000AF05F0E5FE03467B607B6807F108078B
:1030B000BD4680BD80B485B000AF78600B467B8094
:1030C0004FF0FF03FB734FF0FF03BB7315E07B680A
:1030D0001A78BB7B5340DBB2BB607B6803F1010312
:1030E0007B60134ABB68D3181A78FB7B5340BB73D1
:1030F000104ABB68D3181B78FB737B88002B0CBF6E
:1031000000230123DBB27A8802F1FF327A80002BA0
:10311000DDD1FB7B4FEA03239AB2BB7B9BB2134307
:103120009BB29BB2184607F11407BD4680BC70479E
:10313000649800086499000880B483B000AF786098
:103140000B46FB70FB78002B06D00A4B094A116B2B
:103150007A680A431A6307E0064B064A116B7A68DD
:103160006FEA02020A401A6307F10C07BD4680BCF1
:10317000704700BF0038024080B483B000AF786071
:103180000B46FB70FB78002B06D00A4B094A516BAB
:103190007A680A435A6307E0064B064A516B7A681D
:1031A0006FEA02020A405A6307F10C07BD4680BC71
:1031B000704700BF0038024080B483B000AF786031
:1031C0000B46FB70FB78002B06D00A4B094A116CAA
:1031D0007A680A431A6407E0064B064A116C7A685B
:1031E0006FEA02020A401A6407F10C07BD4680BC70
:1031F000704700BF0038024080B483B000AF7860F1
:103200000B46FB70FB78002B06D00A4B094A516C29
:103210007A680A435A6407E0064B064A516C7A689A
:103220006FEA02020A405A6407F10C07BD4680BCEF
:10323000704700BF0038024080B483B000AF7860B0
:103240000B46FB70FB78002B06D00A4B094A516AEB
:103250007A680A435A6207E0064B064A516A7A685E
:103260006FEA02020A405A6207F10C07BD4680BCB1
:10327000704700BF0038024080B586B004AF4FF001
:1032800004004FF00101FFF757FF4FF040033B6090
:103290004FF000037B714FF001033B714FF00003CF
:1032A000BB714FF00003FB713B461548194601F016
:1032B000E7FD13484FF040014FF0000201F0BEFE61
:1032C000104B4FF000021A700E4B4FF003025A7071
:1032D0004FF0010300934FF0000301934FF0000300
:1032E00002934FF000030393074808494FF0800210
:1032F0004FF0000300F0FEFC07F10807BD4680BD5B
:1033000000080240842D002011330008649A000850
:1033100080B584B000AF7860B04B4FF000021A77F0
:10332000AF4B1B68184603F0FBFD0346002B00F073
:103330006081AB4B1A6807F10F03104619464FF036
:1033400000024FF0000303F00DFDFB7B012B00F0AA
:103350008D80022B00F0E580002B40F03C81A14BDA
:103360001B78042B00F2448101A252F823F000BF25
:1033700085330008D7330008C533000859340008E6
:10338000E9330008974B4FF000025A70954B4FF00D
:1033900003021A70944B4FF000025A714FF47A7086
:1033A00000F07CFD4FF00100FFF732F84FF0020013
:1033B000FFF71AF88D484FF040014FF0010201F07D
:1033C0003DFE52E04FF00000FFF70EF8854B4FF046
:1033D00000021A7049E04FF00000FFF705F8814B3A
:1033E0004FF000021A7040E07E4B4FF003021A705B
:1033F0007C4B5B78032B2AD801A252F823F000BF44
:10340000113400081B340008253400082F3400084C
:103410004FF00200FEF7E8FF19E04FF00100FEF761
:10342000E3FF14E04FF00200FEF7DEFF0FE06D4B0C
:103430004FF000025A704FF00200FEF7D5FF6B48C4
:103440004FF040014FF0010201F0F8FD00BF4FF0D6
:103450000100FEF7DDFF08E04FF00000FEF7C4FFBB
:10346000604B4FF004021A7000BFC1E05D4B1B7847
:10347000042B54D801A252F823F000BF9134000865
:10348000D3340008C13400080D350008E5340008C5
:10349000544B4FF001021A704FF00000FEF7B8FFD6
:1034A0004FF00100FEF7A0FF4E4B4FF003025A70A1
:1034B0004E484FF040014FF0000201F0BFFD2FE0F9
:1034C0004FF00000FEF790FF464B4FF000021A70DD
:1034D00026E04FF00000FEF787FF424B4FF000025E
:1034E0001A701DE04FF00000FEF77EFF3D4B4FF0DD
:1034F00000021A703B4B4FF003025A703B484FF0EA
:1035000040014FF0000201F099FD09E04FF000008A
:10351000FEF76AFF334B4FF004021A7000E000BF61
:1035200067E0304B1B78042B53D801A252F823F0EC
:10353000453500088735000875350008C135000895
:1035400099350008274B4FF002021A704FF0000027
:10355000FEF75EFF4FF00200FEF746FF214B4FF0F3
:1035600003025A7021484FF040014FF0000201F071
:1035700065FD2FE04FF00000FEF736FF194B4FF0CE
:1035800000021A7026E04FF00000FEF72DFF154BE9
:103590004FF000021A701DE04FF00000FEF724FF0C
:1035A000104B4FF000021A700E4B4FF003025A708E
:1035B0000E484FF040014FF0000201F03FFD09E0DE
:1035C0004FF00000FEF710FF064B4FF004021A7098
:1035D00000E000BF0DE000BF0BE000BFA82D002001
:1035E000FC2D0020842D00208C27002000080240A4
:1035F00000BF804B1B6818464FF000014FF00102DE
:103600004FF0000303F0AEFB0346012B40F0EA80CD
:10361000794B1B78042B00F2DE8001A252F823F0D4
:10362000D737000851360008353600086D360008D7
:10363000D7370008714B5B79022B40F0CE804FF0FA
:103640000000FEF7D1FE6C4B4FF000021A70C4E090
:103650006A4B5B79012B40F0C2804FF00000FEF70F
:10366000C3FE654B4FF000021A70B8E0624B5B7806
:10367000032B00F2B68001A252F823F08D36000829
:10368000B136000849370008C73700085B4B5B7943
:10369000022B40F09A804FF47A7000F0FFFB564BFB
:1036A0004FF001025A704FF00100FEF79DFE8CE0D2
:1036B000534B1B6818464FF000014FF0FF324FF09C
:1036C000000303F04FFB4F4B5B899BB21AB24D4B8B
:1036D0001B899BB21BB2D21A40F2FF739A4217DDCC
:1036E0004FF00200FEF754FC434B5B8C0F2B0FD8BE
:1036F000414B5B8C434A52893F494FEA4303CB1805
:103700005A803D4B5B8C03F101039AB23A4B5A84C9
:103710003B4B1B6818464FF000014FF000024FF082
:10372000000303F075FA354B5B79012B4FD14FF451
:103730007A7000F0B3FB304B4FF002025A704FF03A
:103740000200FEF751FE42E02D4B1B6818464FF079
:1037500000014FF0FF324FF0000303F003FB294B51
:103760001B899BB21AB2274B5B899BB21BB2D21A40
:1037700040F2FF739A4203DD4FF00200FEF708FCAF
:103780001F4B1B6818464FF000014FF000024FF02E
:10379000000303F03DFA194B5B79022B19D14FF06E
:1037A0000000FEF721FE144B4FF003025A70124B3B
:1037B0004FF000021A7014484FF040014FF0000221
:1037C00001F03CFC05E000BF04E000BF02E000BFE8
:1037D00000E000BF05E000BF04E000BF02E000BF62
:1037E00000E000BF094B9B6903F10102074B9A619E
:1037F00096E500BF88270020842D00208C2700201C
:10380000942F0020882F002000080240A82D0020BF
:1038100080B500AF4FF480704FF00101FFF70CFD51
:103820004FF480704FF00001FFF706FD80BD00BF30
:1038300080B485B000AF786039604FF00003FB6062
:103840004FF00003FB727B685B68FB60FB6823F052
:10385000407323F48073FB603B681B794FEA0322BB
:103860003B681B681343FA681343FB607B68FA6884
:103870005A607B689B68FB60FA68194B1340FB60D9
:103880003B681A693B68DB681A433B689B681A43CC
:103890003B685B794FEA43031343FA681343FB60C9
:1038A0007B68FA689A607B68DB6AFB60FB6823F4DC
:1038B0007003FB603B681B7D03F1FF33DAB2FB7AD8
:1038C0001343FB72FB7A4FEA0353FA681343FB601E
:1038D0007B68FA68DA6207F11407BD4680BC70475E
:1038E000FDF7FFC080B483B000AF78607B684FF015
:1038F00000021A607B684FF000021A717B684FF07B
:1039000000025A717B684FF000029A607B684FF0AA
:103910000002DA607B684FF000021A617B684FF0AA
:1039200001021A7507F10C07BD4680BC704700BF45
:1039300080B485B000AF78604FF00003FB600E4BA1
:103940005B68FB60FA680D4B1340FB607B681A688C
:103950007B685B681A437B689B681A437B68DB68FB
:103960001343FA681343FB60034BFA685A6007F18C
:103970001407BD4680BC704700230140E030FCFFC7
:1039800080B483B000AF78607B684FF000021A60AB
:103990007B684FF000025A607B684FF000029A602B
:1039A0007B684FF00002DA6007F10C07BD4680BC6F
:1039B000704700BF80B483B000AF78600B46FB70E7
:1039C000FB78002B06D07B689B6843F001027B6884
:1039D0009A6005E07B689B6823F001027B689A602F
:1039E00007F10C07BD4680BC704700BF80B485B0AE
:1039F00000AF7860F970BA707B704FF00003FB6025
:103A00004FF00003BB60FB78092B27D97B68DB688C
:103A1000FB60FA7813464FEA43039B18A3F11E0399
:103A20004FF0070202FA03F3BB60BB686FEA0303BF
:103A3000FA681340FB607978FA7813464FEA43033B
:103A40009B18A3F11E0301FA03F3BB60FA68BB687D
:103A50001343FB607B68FA68DA6022E07B681B69CD
:103A6000FB60FA7813464FEA43039B184FF00702B6
:103A700002FA03F3BB60BB686FEA0303FA68134002
:103A8000FB607978FA7813464FEA43039B1801FAF2
:103A900003F3BB60FA68BB681343FB607B68FA689A
:103AA0001A61BB78062B27D87B685B6BFB60BB7801
:103AB00003F1FF3213464FEA83039B184FF01F02B6
:103AC00002FA03F3BB60BB686FEA0303FA681340B2
:103AD000FB60F978BB7803F1FF3213464FEA8303AA
:103AE0009B1801FA03F3BB60FA68BB681343FB60E1
:103AF0007B68FA685A6351E0BB780C2B27D87B6847
:103B00001B6BFB60BA7813464FEA83039B18A3F143
:103B100023034FF01F0202FA03F3BB60BB686FEA96
:103B20000303FA681340FB60F978BA7813464FEA4A
:103B300083039B18A3F1230301FA03F3BB60FA6824
:103B4000BB681343FB607B68FA681A6326E07B68F6
:103B5000DB6AFB60BA7813464FEA83039B18A3F134
:103B600041034FF01F0202FA03F3BB60BB686FEA28
:103B70000303FA681340FB60F978BA7813464FEAFA
:103B800083039B18A3F1410301FA03F3BB60FA68B6
:103B9000BB681343FB607B68FA68DA6207F11407BD
:103BA000BD4680BC704700BF80B485B000AF786070
:103BB0000B46FB704FF00003FB737B681A68FB78C1
:103BC0001340002B03D04FF00103FB7302E04FF0D2
:103BD0000003FB73FB7B184607F11407BD4680BC4E
:103BE000704700BF80B586B000AF786039604FF095
:103BF0000003FB753B681B88052B71D17B6803F1C3
:103C000001031B784FEA0323BB827B6803F10203A5
:103C10001B781A46BB8A1343BB82BB8A03F101039C
:103C2000BB827B6803F103031B784FEA03237B828B
:103C30007B6803F104031B781A467B8A13437B825B
:103C40007B8A002B48D07B8A7C2B45D87B68FB6025
:103C50003B684FF000021A80FB684FF004021A70B4
:103C6000FB6803F10103FB603B681B8803F1010360
:103C70009AB23B681A807B8ADBB24FEA4303DAB21E
:103C8000FB681A70FB6803F10103FB603B681B884B
:103C900003F101039AB23B681A80BA8A7B8AF868FA
:103CA00011461A46FDF714FD0346FB72FB7A002B02
:103CB00006D0FB7A1846FEF747FD0346FB7512E077
:103CC0003B681A887B8A4FEA43039BB2D3189AB2A7
:103CD0003B681A8000BF06E04FF00303FB7502E06B
:103CE0004FF00303FB75FB7D184607F11807BD462F
:103CF00080BD00BF80B58AB002AFF860B9603B609C
:103D00001346FB80FB68002B04D14FF0500080F37A
:103D10001188FEE7BB6A042B04D94FF0500080F3F2
:103D20001188FEE7FB881846396B00F0E9FDB861A1
:103D3000BB69002B00F08C80BB691A6BFB8803F118
:103D4000FF334FEA8303D3187B617B6923F00703BA
:103D50007B617B6903F00703002B04D04FF0500018
:103D600080F31188FEE7FB880093B869B968BA6AE6
:103D70007B6B00F0CFFC7869F9683A6803F0F2F9E0
:103D80000246BB691A60BB691B6803F00703002B7E
:103D900004D04FF0500080F31188FEE7FB6A002B3F
:103DA00002D0FB6ABA691A6003F050FA344B1B6800
:103DB00003F10102324B1A60324B1B68002B09D110
:103DC000304BBA691A602E4B1B68012B0FD100F0E3
:103DD000DDFC0CE02C4B1B68002B08D1294B1B6829
:103DE000DA6ABB6A9A4202D8264BBA691A60BB6982
:103DF000DA6A264B1B689A4203D9BB69DA6A234BFD
:103E00001A60234B1B6803F10102214B1A60BB6946
:103E1000DA6A204B1B689A4203D9BB69DA6A1D4BE8
:103E20001A60BB69DA6A13464FEA83039B184FEAAC
:103E30008303194A9A18BB6903F104031046194613
:103E400001F050FB4FF00103FB6103F011FA02E0B7
:103E50004FF0FF33FB61FB69012B0BD10A4B1B6851
:103E6000002B07D0074B1B68DA6ABB6A9A4201D263
:103E700003F0E0F9FB69184607F12007BD4680BD55
:103E80000003002028020020100300200803002067
:103E9000240300200C0300202C02002080B584B0F5
:103EA00000AF78604FF00003FB607B68002B13D0FD
:103EB00000F032F90D4B1A687B68D318BB600C4BCD
:103EC0001B6803F10403184601F06EFBB86800F0AC
:103ED000DFFC00F02FF9F860FB68002B01D103F044
:103EE000A9F907F11007BD4680BD00BF04030020FB
:103EF0002802002080B584B000AF786003F0A6F9F6
:103F0000214B1B687A689A4202D14FF000037B6014
:103F10007B68002B02D11C4B1B6800E07B68FB60B8
:103F2000FB6803F10403184601F03EFBFB689B6A43
:103F3000002B05D0FB6803F11803184601F034FB91
:103F4000FB6803F104031148194601F0CBFA03F0B2
:103F50008FF97B68002B13D10D4B1B68002B02D00F
:103F600003F068F90CE0094B1A680A4B1B689A4287
:103F700004D1054B4FF000021A6001E000F012FA84
:103F800007F11007BD4680BD28020020EC0200208A
:103F9000100300200003002080B485B000AF7860DB
:103FA0004FF00003FB607B68BB607B68002B04D193
:103FB0004FF0500080F31188FEE7BB685A690B4B45
:103FC0009A420BD1BB689A6A094B9A4206D0BB68E9
:103FD0009B6A002B02D14FF00103FB60FB6818467F
:103FE00007F11407BD4680BC704700BFEC020020FB
:103FF000C002002080B584B000AF78607B68002BE1
:1040000004D14FF0500080F31188FEE77B68FB601D
:10401000FB68002B38D01E4B1B68FA689A4233D0DD
:1040200003F014F9F868FFF7B7FF0346012B29D115
:10403000FB6803F10403184601F0B6FAFB68DA6A7C
:10404000144B1B689A4203D9FB68DA6A114B1A6059
:10405000FB68DA6A13464FEA83039B184FEA83032F
:104060000D4A9A18FB6803F104031046194601F043
:1040700039FAFB68DA6A064B1B68DB6A9A4201D39D
:1040800003F0D8F803F0F4F807F11007BD4680BD3F
:10409000280200200C0300202C02002080B586B0EE
:1040A00004AF4FF0000300934FF0000301934FF073
:1040B000000302934FF000030393134813494FF09A
:1040C00046024FF00003FFF715FE78607B68012B76
:1040D0000DD14FF0500080F311880D4B4FF00102CD
:1040E0001A600C4B4FF000021A6003F085F87B68F1
:1040F000002B04D14FF0500080F31188FEE707F148
:104100000807BD4680BD00BFF14600087C9A000844
:10411000100300200403002080B400AF044B1B6890
:1041200003F10102024B1A60BD4680BC704700BF1C
:104130001403002090B583B000AF4FF000037B6004
:104140003C4B1B68002B04D14FF0500080F31188CA
:10415000FEE703F07BF8374B1B6803F1FF32354B6A
:104160001A60344B1B68002B5CD1334B1B68002B4F
:1041700058D04FF000033B602CE0304BDB68DC682C
:1041800004F11803184601F00FFA04F1040318466D
:1041900001F00AFAE26A2A4B1B689A4202D9E26AE3
:1041A000274B1A60E26A13464FEA83039B184FEAD3
:1041B0008303244A9A1804F104031046194601F0B7
:1041C00091F9E26A204B1B68DB6A9A4202D34FF0F6
:1041D00001033B60194B1B68002BCED11B4B1B68A6
:1041E000002B0FD007E000F035F8184B1B6803F1E7
:1041F000FF32164B1A60154B1B68002BF3D14FF0A2
:1042000001033B603B68012B03D0114B1B68012B62
:1042100008D14FF001037B600D4B4FF000021A6094
:1042200003F008F803F024F87B68184607F10C0740
:10423000BD4690BD1403002000030020C0020020F2
:104240000C0300202C02002028020020180300206C
:104250001C03002080B584B000AF494B1B68002BC5
:1042600040F08480474B1B6803F10102454B1A6004
:10427000444B1B68002B2CD1434B1B681B68002B45
:1042800004D04FF0500080F31188FEE73E4B1B68CE
:10429000FB603E4B1A683C4B1A603C4BFA681A6054
:1042A0003B4B1B6803F10102394B1A60364B1B680C
:1042B0001B68002B04D1374B4FF0FF321A6008E027
:1042C000314B1B68DB68DB68BB60BB685A68314BED
:1042D0001A602C4B1A682F4B1B689A424CD32A4BFE
:1042E0001B681B68002B04D12A4B4FF0FF321A6069
:1042F00042E0254B1B68DB68DB68BB60BB685B6822
:104300007B60204B1A687B689A4203D2214B7A6803
:104310001A6031E0BB6803F10403184601F044F968
:10432000BB689B6A002B05D0BB6803F118031846D5
:1043300001F03AF9BB68DA6A174B1B689A4203D955
:10434000BB68DA6A144B1A60BB68DA6A13464FEA34
:1043500083039B184FEA8303104A9A18BB6803F142
:1043600004031046194601F0BDF8B8E70C4B1B6872
:1043700003F101020A4B1A6007F11007BD4680BD28
:104380001403002004030020B8020020BC02002017
:1043900020030020E00000200C0300202C0200205D
:1043A0001803002080B582B000AF3A4B1B68002B89
:1043B00004D0394B4FF001021A6067E0374B1B689D
:1043C0001A68364B1B681B6B9A4209D8334B1A6824
:1043D000324B1B6803F1340310461946FEF758FEB2
:1043E0002E4B1B681B6B18462D494FF0140205F02D
:1043F000A5F80346002B1AD0284B1A68274B1B68D8
:1044000003F1340310461946FEF742FE0FE0254B38
:104410001B68002B04D14FF0500080F31188FEE799
:10442000204B1B6803F1FF321E4B1A6000E000BFF7
:104430001C4B1A681C4913464FEA83039B184FEA2A
:104440008303CB181B68002BE1D0164B1A68134668
:104450004FEA83039B184FEA8303134A9B187B6040
:104460007B685B685A687B685A607B685A687B68BF
:1044700003F108039A4204D17B685B685A687B6841
:104480005A607B685B68DA68044B1A6007F10807BA
:10449000BD4680BD140300201C030020280200201C
:1044A000849A00080C0300202C02002080B584B000
:1044B00000AF786039607B68002B04D14FF050006A
:1044C00080F31188FEE7144B1B6803F1180378682A
:1044D000194601F02FF8104B1B6803F1040318462E
:1044E00001F062F83B68B3F1FF3F08D10A4B1B684B
:1044F00003F104030948194600F0F4FF07E0084BF4
:104500001A683B68D318FB60F86800F0C1F907F13E
:104510001007BD4680BD00BF28020020EC0200202D
:104520000403002080B584B000AF78607B68DB684E
:10453000DB68BB60BB68002B04D14FF0500080F3F8
:104540001188FEE7BB6803F11803184601F02CF848
:10455000204B1B68002B21D1BB6803F104031846D4
:1045600001F022F8BB68DA6A1B4B1B689A4203D938
:10457000BB68DA6A184B1A60BB68DA6A13464FEAFE
:1045800083039B184FEA8303144A9A18BB6803F10C
:1045900004031046194600F0A5FF06E0BB6803F1CE
:1045A00018030F48194600F09DFFBB68DA6A0D4BEF
:1045B0001B68DB6A9A4203D34FF00103FB6002E001
:1045C0004FF00003FB60FB68184607F11007BD467B
:1045D00080BD00BF140300200C0300202C0200202B
:1045E000C00200202802002080B483B000AF7860B1
:1045F0007B68002B04D14FF0500080F31188FEE758
:10460000064B1A687B681A60054B1A687B685A600B
:1046100007F10C07BD4680BC704700BF2003002097
:104620000403002080B584B000AF786039607B68F7
:10463000002B04D14FF0500080F31188FEE73B6857
:10464000002B04D14FF0500080F31188FEE702F0F8
:10465000FDFD3B681B68B3F1FF3F03D14FF0000342
:10466000FB602CE07B681A68194B1B689A4209D0E2
:104670007B685A68174B1B689A4203D84FF00103B6
:10468000FB601CE0134B1A687B685B68D21A3B68BE
:104690001B689A4210D23B681A687B6859680D4BB8
:1046A0001B68CB1AD2183B681A607868FFF79CFF2A
:1046B0004FF00003FB6002E04FF00103FB6002F0EB
:1046C000D7FDFB68184607F11007BD4680BD00BF47
:1046D000200300200403002080B400AF034B4FF000
:1046E00001021A60BD4680BC704700BF1C03002059
:1046F00080B582B000AF786000F08CF8044B1B6886
:10470000012B01D902F096FDFEF7C8FCF4E700BFCB
:104710002C02002080B584B000AFF860B9607A60E8
:104720003B60FB6803F134031846B9684FF00A0296
:1047300005F056F8FB684FF0000283F83D207B68D7
:10474000042B02D94FF004037B60FB687A68DA62BD
:10475000FB687A681A64FB6803F10403184600F0EA
:10476000B3FEFB6803F11803184600F0ADFEFB68CA
:10477000FA681A617B68C3F10502FB689A61FB68FD
:10478000FA685A6207F11007BD4680BD80B582B055
:1047900000AF4FF000037B600FE07A6813464FEAEA
:1047A00083039B184FEA8303124A9B18184600F0B4
:1047B0006BFE7B6803F101037B607B68042BECD903
:1047C0000D4800F061FE0D4800F05EFE0C4800F060
:1047D0005BFE0C4800F058FE0B4800F055FE0B4BFA
:1047E000054A1A600A4B054A1A6007F10807BD46D8
:1047F00080BD00BF2C02002090020020A4020020F7
:10480000C0020020D4020020EC020020B8020020E8
:10481000BC02002080B582B000AF1A4B1B68002B91
:104820002BD0FFF779FC184B1B68002B14BF00231B
:104830000123DBB27B60FFF77DFC7B68002B1CD182
:1048400002F004FD104BDB68DB683B603B6803F162
:104850000403184600F0A8FE0C4B1B6803F1FF325E
:104860000A4B1A60074B1B6803F1FF32054B1A60B5
:1048700002F0FEFC386800F07BF807F10807BD463F
:1048800080BD00BFE8020020D40200200003002009
:1048900080B582B000AF7860144B1B687A685A60AC
:1048A000134B1B687A689A420AD2124B1A680F4B54
:1048B0001B6803F104031046194600F03BFE11E0AB
:1048C0000D4B1A68094B1B6803F104031046194687
:1048D00000F030FE094B1B687A689A4202D2074BFF
:1048E0007A681A6007F10807BD4680BD28020020DB
:1048F00004030020BC020020B8020020E0000020D9
:1049000080B584B000AF03463960FB804FF04400AF
:1049100004F064FAF860FB68002B23D03B68002B9E
:1049200007D1FB884FEA8303184604F057FA034681
:1049300000E03B68FA681363FB681B6B002B06D131
:10494000F86804F08BFA4FF00003FB600AE0FB68A4
:104950001A6BFB884FEA830310464FF0A5011A46F5
:1049600004F0D8FEFB68184607F11007BD4680BD6D
:1049700080B582B000AF78607B681B6B184604F08E
:104980006DFA786804F06AFA07F10807BD4680BD41
:1049900080B483B000AF054B1B687B607B68184612
:1049A00007F10C07BD4680BC704700BF28020020FD
:1049B00080B584B000AF78607B68FB607B68002BBB
:1049C00004D14FF0500080F31188FEE7FB68DA6AEB
:1049D000244B1B68DB6A9A4240D2224B1B68DB6A7D
:1049E000C3F10502FB689A61FB685969FB68DA6AE2
:1049F00013464FEA83039B184FEA83031A4A9B1816
:104A0000994226D1FB6803F10403184600F0CCFD5F
:104A1000144B1B68DA6AFB68DA62FB68DA6A134BCC
:104A20001B689A4203D9FB68DA6A104B1A60FB686C
:104A3000DA6A13464FEA83039B184FEA83030A4A54
:104A40009A18FB6803F104031046194600F04AFD6A
:104A500004E0044B1B68DA6AFB68DA6207F11007AE
:104A6000BD4680BD280200202C0200200C0300203F
:104A700080B584B000AF78607B68FB607B68002BFA
:104A800030D0FB68DA6AFB681B6C9A422AD0FB685C
:104A900003F10403184600F087FDFB681A6CFB68FD
:104AA000DA62FB68DB6AC3F10502FB689A61FB68A6
:104AB000DA6A0E4B1B689A4203D9FB68DA6A0B4B21
:104AC0001A60FB68DA6A13464FEA83039B184FEAC1
:104AD0008303074A9A18FB6803F10403104619463A
:104AE00000F000FD07F11007BD4680BD0C0300205B
:104AF0002C02002080B483B000AF03463960FB7104
:104B00003B684FF012021A80034B184607F10C075E
:104B1000BD4680BC704700BF0001002080B483B058
:104B200000AF03463960FB713B684FF004021A8006
:104B3000034B184607F10C07BD4680BC704700BF09
:104B40002001002080B582B000AF03463960FB71C0
:104B5000FB79002B05D1084808493A6801F0F4FEBA
:104B600004E0074805493A6801F0EEFE034B184699
:104B700007F10807BD4680BD989A0008982F0020CD
:104B8000BC9A000880B582B000AF03463960FB7163
:104B9000054806493A6801F0D7FE044B184607F16C
:104BA0000807BD4680BD00BFE09A0008982F00208E
:104BB00080B582B000AF03463960FB71FB79002BF2
:104BC00005D1084808493A6801F0BEFE04E00748EC
:104BD00005493A6801F0B8FE034B184607F108078B
:104BE000BD4680BDF49A0008982F0020049B000861
:104BF00080B582B000AF03463960FB71FB79002BB2
:104C000005D1084808493A6801F09EFE04E00548CD
:104C100005493A6801F098FE034B184607F108076A
:104C2000BD4680BD149B0008982F002080B582B03F
:104C300000AF03463960FB71FB79002B05D10848B2
:104C400008493A6801F080FE04E0054805493A68E1
:104C500001F07AFE034B184607F10807BD4680BDF8
:104C6000209B0008982F002080B586B004AF4FF03D
:104C700002004FF00101FEF75FFA4FF460433B6022
:104C80004FF000037B714FF000033B714FF00103C5
:104C9000FB713B461948194600F0F2F8184B4FF0EB
:104CA00001021A70164B4FF001025A70144B4FF06C
:104CB00001029A704FF004004FF001014FF0000222
:104CC00001F00CFF02460F4B1A604FF001030093F6
:104CD0004FF0000301934FF0000302934FF00003E5
:104CE0000393094809494FF040024FF00003FFF7D2
:104CF00001F807F10807BD4680BD00BF000402406F
:104D0000F82D0020FC2D0020114D0008309B0008DC
:104D100080B584B000AF7860554B4FF0000283F847
:104D20003C2054484FF4005100F06AF90346002B30
:104D300027D1514B1B78012B27D14FF06400FFF78F
:104D4000ADF84C484FF4005100F05AF90346002BDF
:104D50001BD14FF00003FB73474B4FF000021A705A
:104D6000464B1A6807F10F03104619464FF0FF3201
:104D70004FF0000301F04CFF4FF00000FDF708F981
:104D800003E03D4B4FF001021A703A484FF4804166
:104D900000F036F90346002B27D1374B5B78012B07
:104DA00027D14FF06400FFF779F832484FF4804183
:104DB00000F026F90346002B1BD14FF00203FB73D2
:104DC0002D4B4FF000025A702C4B1A6807F10F035D
:104DD000104619464FF0FF324FF0000301F018FF64
:104DE0004FF00000FDF7D4F803E0234B4FF0010231
:104DF0005A7020484FF4004100F002F90346002B9E
:104E000027D11D4B9B78012B27D14FF06400FFF772
:104E100045F818484FF4004100F0F2F80346002B23
:104E20001BD14FF00103FB73134B4FF000029A703C
:104E3000124B1A6807F10F03104619464FF0FF3264
:104E40004FF0000301F0E4FE4FF00000FDF7A0F882
:104E500003E0094B4FF001029A704FF4FA70FFF72C
:104E60001DF8034B9B6B03F10102014B9A6358E75A
:104E7000A82D002000040240F82D0020FC2D002069
:104E800080B487B000AF786039604FF000037B6179
:104E90004FF000033B614FF00003FB604FF0000355
:104EA0007B6186E07B694FF0010202FA03F33B610C
:104EB0003B681A683B691340FB60FA683B699A4299
:104EC00073D17B681A687B694FEA43034FF0030193
:104ED00001FA03F36FEA03031A407B681A607B68E8
:104EE0001A683B681B7919467B694FEA430301FA4C
:104EF00003F31A437B681A603B681B79012B03D0CC
:104F00003B681B79022B34D17B689A687B694FEA36
:104F100043034FF0030101FA03F36FEA03031A405E
:104F20007B689A607B689A683B685B7919467B6905
:104F30004FEA430301FA03F31A437B689A607B68E4
:104F40005A687B699BB24FF0010101FA03F36FEAE3
:104F500003031A407B685A607B685A683B689B79F8
:104F600019467B699BB201FA03F39BB21A437B6833
:104F70005A607B68DA687B699BB24FEA43034FF063
:104F8000030101FA03F36FEA03031A407B68DA6056
:104F90007B68DA683B68DB7919467B694FEA430333
:104FA00001FA03F31A437B68DA607B6903F10103BA
:104FB0007B617B690F2B7FF675AF07F11C07BD4640
:104FC00080BC704780B483B000AF78607B684FF6D8
:104FD000FF721A607B684FF000021A717B684FF015
:104FE00000025A717B684FF000029A717B684FF0A3
:104FF0000002DA7107F10C07BD4680BC704700BFA4
:1050000080B485B000AF78600B467B804FF0000322
:10501000FB737B681A697B881340002B03D04FF029
:105020000103FB7302E04FF00003FB73FB7B1846A8
:1050300007F11407BD4680BC704700BF80B483B041
:1050400000AF786013460A467A807B707B78002B2D
:1050500003D07B687A881A8302E07B687A885A8357
:1050600007F10C07BD4680BC704700BF80B485B017
:1050700000AF786013460A467A807B704FF00003D9
:10508000FB604FF00003BB607A787B8803F0070376
:105090004FEA830302FA03F3FB607B884FEAD303F2
:1050A0009BB21A467B884FEAD3039BB219467B68B2
:1050B00001F1080153F821107B8803F007034FEA40
:1050C00083034FF00F0000FA03F36FEA0303194064
:1050D0007B6802F1080243F822107B884FEAD30371
:1050E0009BB21A467B6802F1080253F82220FB6843
:1050F0001343BB607B884FEAD3039BB21A467B689D
:1051000002F10802B96843F8221007F11407BD46FE
:1051100080BC704780B588B000AF0346FB804FF07D
:105120000003FB834FF020004FF00101FEF744F82D
:10513000264B1A68264BA3FB02134FEA93339BB20C
:1051400003F1FF33FB83FB887B61FB8B3B824FF0DA
:1051500000033B834FF000037B8207F110031D48DF
:10516000194603F045FF1B484FF0010103F0D8FF3B
:105170004FF4407003F060FB4FF037033B734FF088
:105180000E037B734FF00103BB734FF00103FB73FE
:1051900007F10C03184603F061FB0E484FF00101C4
:1051A00004F096F90B484FF001014FF0000204F0B3
:1051B0006BF908484FF0000103F0D2FF4FF00103F4
:1051C000184607F12007BD4680BD00BF380100200A
:1051D0005917B7D10014004080B500AF0B484FF00D
:1051E000010104F075F909484FF001014FF0010287
:1051F00004F04AF905484FF0000103F083FF03482B
:105200004FF0010103F0ACFF80BD00BF001400406F
:1052100080B500AF0B484FF0000103F0A1FF094833
:105220004FF0000103F06EFF06484FF001014FF010
:10523000000204F029F903484FF0010104F048F995
:1052400080BD00BF0014004080B500AF04484FF09F
:10525000010104F03DF9034B1B68984780BD00BF76
:10526000001400407427002080B400AF4FF000030A
:105270001846BD4680BC704780B400AF4FF00003B5
:105280001846BD4680BC704780B485B000AFF8605A
:10529000B9607A60FB68232B4AD801A252F823F048
:1052A00031530008315300083153000831530008CE
:1052B00031530008315300083153000831530008BE
:1052C00031530008315300083153000831530008AE
:1052D000315300083153000831530008315300089E
:1052E000315300083153000831530008315300088E
:1052F000315300083153000831530008315300087E
:10530000315300083153000831530008315300086D
:10531000315300083153000831530008315300085D
:10532000315300083153000831530008315300084D
:1053300000BF4FF00003184607F11407BD4680BCBC
:10534000704700BF80B485B000AF786039604FF01F
:105350000003FB601AE0134B1B687968FA688A182F
:105360001178114AD1540F4B1B6803F101020D4B08
:105370001A60FB6803F10103FB600A4B1B68B3F57D
:10538000006F03D1074B4FF000021A60FA683B68C8
:105390009A42E0D34FF00003184607F11407BD46C8
:1053A00080BC70474C0300205830002080B485B08A
:1053B00000AF786039604FF00003FB6022E0174BCC
:1053C0001B687968FA688A181178154AD154134B0A
:1053D0001B6803F10102114B1A60104B1B68802BF4
:1053E00003D10E4B4FF000021A600C4B1A680D4BA4
:1053F0001B689A4202D14FF0020309E0FB6803F1F7
:105400000103FB60FA683B689A42D8D34FF000036F
:10541000184607F11407BD4680BC7047842E002053
:10542000002E0020802E002080B483B000AF786072
:10543000124B1A68124B1B689A4202D14FF00003BC
:1054400015E00F4B1B680F4AD25C7B681A700C4B3F
:105450001B6803F101020A4B1A60094B1B68802B81
:1054600003D1074B4FF000021A604FF001031846BA
:1054700007F10C07BD4680BC704700BF842E00209A
:10548000802E0020002E002080B483B000AF786012
:105490007B6803F108027B685A607B684FF0FF323B
:1054A0009A607B6803F108027B68DA607B6803F12D
:1054B00008027B681A617B684FF000021A6007F1EE
:1054C0000C07BD4680BC704780B483B000AF7860E5
:1054D0007B684FF000021A6107F10C07BD4680BCE3
:1054E000704700BF80B485B000AF786039607B68DA
:1054F0005B68FB60FB685A683B685A607B685A6867
:105500003B689A60FB685B683A689A60FB683A6837
:105510005A607B683A685A603B687A681A617B68AF
:105520001B6803F101027B681A6007F11407BD468E
:1055300080BC704780B485B000AF786039603B684C
:105540001B68BB60BB68B3F1FF3F03D17B681B697D
:10555000FB600DE07B6803F10803FB6002E0FB6881
:105560005B68FB60FB685B681A68BB689A42F6D9A7
:10557000FB685A683B685A603B685B683A689A60A7
:105580003B68FA689A60FB683A685A603B687A68D8
:105590001A617B681B6803F101027B681A6007F1DE
:1055A0001407BD4680BC704780B485B000AF7860FA
:1055B0007B685B687A6892689A607B689B687A68A7
:1055C00052685A607B681B69FB60FB685A687B689D
:1055D0009A4203D17B689A68FB685A607B684FF0F7
:1055E00000021A61FB681B6803F1FF32FB681A6056
:1055F00007F11407BD4680BC704700BF80B584B07A
:1056000000AF3A600246FA710A46BA717B714FF0F8
:105610000003FB73FCF750F8BA797B7910463968C0
:105620004FF0080202F06CFC0346012B03D04FF050
:105630000303FB7319E03B68B3F5964F03D94FF0B2
:105640006403BB6006E03B684FEA43030B4AB2FBCE
:10565000F3F3BB60BB689BB21846FFF75BFD0346E4
:10566000012B02D04FF00303FB73FCF72BF8FB7BFD
:10567000184607F11007BD4680BD00BFA07F170088
:1056800080B500AFFCF718F8074B4FF000021A7016
:105690004FF001004FF0000102F01EFCFFF79CFDEF
:1056A000FCF710F880BD00BF2903002080B500AFD3
:1056B000FCF702F84FF000004FF0000102F00CFC84
:1056C000FFF7A6FDFBF7FEFF80BD00BF80B586B0EB
:1056D00000AFF860B9607A604FF00003BB754FF01F
:1056E0000003FB75FBF7E8FF164B1B889BB2032BEF
:1056F0001DD9144B1B889BB213481946FDF7DAFCE1
:105700000346002B13D1104B1B78DAB2FB681A70DA
:105710000C4B1B889BB2A3F103039AB27B681A80DF
:10572000BB680A4A1A604FF00103BB7502E04FF0F4
:105730000503FB75FBF7C6FFFB7D184607F118074D
:10574000BD4680BD32030020882E0020892E002017
:1057500080B584B000AF396013460246FA71BB8051
:105760004FF00003FB73FBF7A7FF2C4B1B78DBB25A
:10577000012B47D13B6803F1FF32294B1A60294BBB
:105780004FF001021A80264B1B68FA791A70254BDC
:105790001B889AB2BB88D3189AB2224B1A80204B2E
:1057A0001A68204B1B889BB210461946FDF782FCF5
:1057B0000346BB811B4B1B889BB21A46B989C8B2F2
:1057C0001949885403F101039AB2164B1A80154BFC
:1057D0001B889BB21A46B9894FEA112189B2C8B217
:1057E0001149885403F101039AB20E4B1A800F4BF2
:1057F0004FF001021A704FF000004FF0010102F06B
:105800006BFB02E04FF00503FB73FBF75BFFFB7BD9
:10581000184607F11007BD4680BD00BF29030020D0
:105820002C03002030030020882E002028030020B5
:1058300080B582B000AF4FF00003FB7107F10603A3
:10584000184602F085FB264B1B78DBB2032B41D8B0
:1058500001A252F823F000BF6958000875580008EB
:10586000A35800086F580008FFF7B6FC32E0FFF7B6
:10587000B3FC2FE01B4B4FF000021A80194B1B8822
:105880009BB21A46B8791849885403F101039AB2B9
:10589000144B1A80124B4FF002021A70FFF79CFC57
:1058A00018E0104B1B889BB2FF2B0CD80D4B1B88AC
:1058B0009BB21A46B8790C49885403F101039AB295
:1058C000084B1A8003E0064B4FF003021A70FFF7F3
:1058D00083FC00BFFB79184607F10807BD4680BD71
:1058E0002903002032030020882E002080B582B0DA
:1058F00000AF4FF00003FB711C4B1B78DBB2002B99
:1059000002D0012B07D02AE04FF001004FF0000138
:1059100002F0E2FA23E0164B1B889BB2002B0DD05D
:10592000144B1A68124B1B889BB210461946FFF79E
:1059300009FD0F4B4FF000021A800FE04FF00300FB
:10594000FCF704FA0346FB714FF001004FF0000131
:1059500002F0C2FA054B4FF000021A7000BFFB794B
:10596000184607F10807BD4680BD00BF2803002088
:10597000300300202C03002080B582B000AF4FF030
:105980000003FB71114B1B78DBB2022B0AD0032BF7
:105990000FD0002B0ED14FF00000FCF7D7F90346D3
:1059A000FB7107E04FF00100FCF7D0F90346FB71F3
:1059B00000E000BFFFF72CFC044B4FF001021A700F
:1059C000FB79184607F10807BD4680BD2903002072
:1059D00080B500AF124B124A126842F001021A6001
:1059E0000F4B4FF000029A600D4A0D4B1B6823F0DD
:1059F000847323F480331360094B0A4A5A60084BBE
:105A0000074A126822F480221A60054B4FF0000208
:105A1000DA6000F00BF8044B4FF000629A6080BD32
:105A2000003802401030002400ED00E080B483B064
:105A300000AF4FF000037B604FF000033B60304B42
:105A40002F4A126842F480321A602D4B1B6803F40F
:105A500000333B607B6803F101037B603B68002BF4
:105A600003D17B68B3F5A06FEFD1254B1B6803F41E
:105A70000033002B03D04FF001033B6002E04FF0F6
:105A800000033B603B68012B34D11D4B1C4A9268DC
:105A90009A601B4B1A4A92689A60194B184A92688E
:105AA00042F480529A60164B164A5A60144B144ABC
:105AB000126842F080721A6000BF114B1B6803F03D
:105AC0000073002BF9D0104B40F201721A600C4B9E
:105AD0000B4A926822F003029A60094B084A9268C6
