:020000040800F2
:100000005833002011100008751000087510000802
:100010007510000875100008751000080000000039
:10002000000000000000000000000000692B000834
:100030007510000800000000412C00087D2C00080D
:10004000751000087D420008751000087510000842
:10005000751000087510000875100008751000086C
:10006000751000087510000875100008751000085C
:10007000751000087510000875100008751000084C
:10008000751000087510000875100008751000083C
:10009000751000087510000875100008751000082C
:1000A000751000087510000875100008751000081C
:1000B0007510000875100008211F00087510000851
:1000C00075100008751000087510000875100008FC
:1000D00075100008751000087510000875100008EC
:1000E0007510000875100008D5210008751000086B
:1000F00075100008751000087510000875100008CC
:1001000075100008751000087510000875100008BB
:1001100075100008751000087510000875100008AB
:10012000751000087510000875100008751000089B
:10013000751000087510000875100008751000088B
:1001400075100008751000087510000809220008D5
:10015000751000087510000875100008751000086B
:10016000751000087510000875100008751000085B
:10017000751000087510000875100008751000084B
:10018000751000087510000880B489B000AFF860E1
:10019000B960FA71BB804FF00003FB76FB68DB7837
:1001A000002B2CD14FF000037B614FF00003FB616B
:1001B000BB8803F10303002B01DA03F103034FEAC9
:1001C000A3037B61FB79FA6803F132034FEA8303EF
:1001D000D3189B683B614FF00003FB610BE0BB68E9
:1001E0001A683B691A60FB6903F10103FB61BB6894
:1001F00003F10403BB60FA697B699A42EFD3FB7E8B
:10020000184607F12407BD4680BC704780B489B00A
:1002100000AFF860B9601346FB804FF00003FB614C
:10022000FB8803F10303002B01DA03F103034FEA18
:10023000A303BB61FB68D3F8D0307B614FF00003B0
:10024000FB610BE07B691A68BB681A60FB6903F10C
:100250000103FB61BB6803F10403BB60FA69BB697E
:100260009A42EFD3BB68184607F12407BD4680BC0D
:10027000704700BF80B586B000AF786039604FF03E
:100280000003FB744FF000037B614FF00003FB6041
:10029000FB6843F02003FB603B68DBB203F01F0305
:1002A000DAB2FB6862F38A13FB607B68DB68FA688A
:1002B0001A617B68DB681B69FB607B6903F10103E2
:1002C0007B617A690A4B9A4206D8FB68C3F34013F4
:1002D000DBB2012BEDD000E000BF4FF0030001F0D6
:1002E0004DFFFB7C184607F11807BD4680BD00BFD7
:1002F000400D030080B483B000AF78607B68DB689A
:100300005B6903F00103184607F10C07BD4680BC8A
:10031000704700BF80B582B000AF78607868FFF7A3
:10032000E9FF0346012B0CBF00230123DBB2184673
:1003300007F10807BD4680BD80B485B000AF786086
:100340004FF00003FB607B68DB685B69FB607B68E8
:10035000DB689B69FA681340FB60FB68184607F18D
:100360001407BD4680BC704780B485B000AF78608C
:100370004FF00003FB737B681B699B68BB60BB6825
:10038000C3F34103DBB2022B0BD0032B05D0012BAF
:1003900003D04FF00303FB7307E04FF00203FB733E
:1003A00003E04FF00103FB7300BFFB7B184607F12E
:1003B0001407BD4680BC704780B487B000AF78603A
:1003C0004FF00003FB754FF00003BB607B681B69B7
:1003D0009B683B617B689B691B68FB603B69C3F35F
:1003E0004103DBB2022B04D0FB686FF30A03FB600E
:1003F00006E0FB684FF0030262F30A03FB6000BFF4
:100400007B689B69FA681A60BB6843F48073BB60C1
:100410007B681B697A6812695168BA686FEA0202E0
:100420001140BA680A435A60FB7D184607F11C0761
:10043000BD4680BC704700BF80B487B000AF786015
:1004400039604FF00003FB744FF00003FB604FF086
:100450000003BB603B685B78012B12D13B681B78C3
:100460007A6803F104034FEA8303D3189B687B6126
:100470003B681B784FF0010202FA03F39BB23B8109
:1004800014E03B681B787A6803F114034FEA830396
:10049000D3185B687B613B681B784FF0010202FA5E
:1004A00003F39AB2BB6862F31F43BB607B691B68AE
:1004B000FB60FB68C3F3C033DBB2002B29D13B6880
:1004C0009B689BB24FEA43534FEA53539AB2FB687F
:1004D00062F30A03FB603B68DB7803F00303DAB2E4
:1004E000FB6862F39343FB603B68DB88DBB203F09D
:1004F0000F03DAB2FB6862F39953FB60FB6843F0C9
:100500008053FB60FB6843F40043FB60FA687B693F
:100510001A607B681B697A681269D169BA680A43F4
:10052000DA61FB7C184607F11C07BD4680BC7047AA
:1005300080B588B000AF786039604FF00003FB777A
:100540004FF00003BB614FF000037B614FF00003ED
:100550003B613B685B78012B40F0BD803B681B78BA
:100560007A6803F104034FEA8303D3189B681B687E
:100570007B613B681B787A6803F104034FEA8303CD
:10058000D3189B681B693B613B685B69002B0AD1F0
:100590003B696FF312033B613B694FF0010262F369
:1005A000DC433B6128E03B685B6923F07F4222F437
:1005B00078023B6962F312033B613B685A693B680E
:1005C0009B68D31803F1FF323B689B68B2FBF3F3DF
:1005D0009BB24FEA83534FEA93539AB23B6962F35B
:1005E000DC433B613B68DB78012B05D13B694FF075
:1005F000010262F35E733B613B681B787A6803F12A
:1006000004034FEA8303D3189B683A691A617B6835
:10061000DB78012B0CD13B681B787A6803F104036B
:100620004FEA8303D3189B683A6812695A6116E04F
:100630003B68DB78012B12D03B685B69002B0ED046
:100640003B681B784FF0010202FA03F3BB617B6841
:100650001B697A681269516BBA690A435A633B682D
:10066000DB78012B14D17B681B699B68FB60FB68FE
:10067000C3F30D239BB203F00103002B04D17B696C
:1006800043F000537B6103E07B6943F080537B615F
:100690007B6943F080637B617B6943F000437B614E
:1006A0003B681B787A6803F104034FEA8303D3188D
:1006B0009B687A691A603B68DB78012B40F09A806E
:1006C0003B68D9683B681A783B685B699BB278687D
:1006D000FFF75AFD8EE03B681B787A6803F114033C
:1006E0004FEA8303D3185B681B687B613B681B7808
:1006F0007A6803F114034FEA8303D3185B681B691C
:100700003B613B685B69002B10D13B689B6823F021
:100710007F4222F478023B6962F312033B613B693A
:100720004FF0010262F3DC433B6124E03B685A690D
:100730003B689B68D31803F1FF323B689B68B2FBB0
:10074000F3F39BB24FEA83534FEA93539AB23B6958
:1007500062F3DC433B613B69C3F3C9439BB23A6834
:10076000926802FB03F323F07F4222F478023B6994
:1007700062F312033B613B681B787A6803F1140350
:100780004FEA8303D3185B683A691A617B68DB78A8
:10079000012B0BD13B681B787A6803F114034FEAF5
:1007A0008303D3185B683A6812695A613B68DB7847
:1007B000012B0CD13B685B79002B04D07B6943F0A3
:1007C00000537B6103E07B6943F080537B617B696D
:1007D00043F080637B617B6943F000437B613B684E
:1007E0001B787A6803F114034FEA8303D3185B681C
:1007F0007A691A60FB7F184607F12007BD4680BD65
:1008000080B489B000AF786039604FF00003FB77A7
:100810004FF00003BB614FF000033B614FF000035A
:10082000BB603B685B78012B75D17B689B697B6102
:100830007B691B683B617B691B69BB603B685B69CB
:10084000002B0AD13B7A6FF306033B72BB7A4FF061
:10085000010262F3C403BB7224E03B685A693B683F
:100860009B689A420ED93B689A683B685A613B681C
:100870009B68DBB203F07F03DAB23B7A62F30603D4
:100880003B7209E03B685B69DBB203F07F03DAB2DD
:100890003B7A62F306033B72BB7A4FF0010262F3CC
:1008A000C403BB72BA687B691A617B68DB78012B71
:1008B0000BD13B681B787A6803F104034FEA83038A
:1008C000D3189B683A6812695A613B6943F08063A8
:1008D0003B613B6943F000433B613A697B691A60C5
:1008E0007B68DB78002B40F083803B685B69002BE2
:1008F0007ED03B681B784FF0010202FA03F3BA691D
:100900001343BB617B681B697A681269516BBA69D2
:100910000A435A636CE03B681B787A6803F114035E
:100920004FEA8303D3185B681B683B613B681B7805
:100930007A6803F114034FEA8303D3185B681B69D9
:10094000BB603B685B69002B10D13B689B68DBB2E6
:1009500003F07F03DAB23B7A62F306033B72BB7AA1
:100960004FF0010262F3C403BB7213E03B689A6864
:100970003B685A613B689B68DBB203F07F03DAB2E5
:100980003B7A62F306033B72BB7A4FF0010262F3DB
:10099000C403BB723B681B787A6803F114034FEA07
:1009A0008303D3185B68BA681A617B68DB78012B14
:1009B0000BD13B681B787A6803F114034FEA830379
:1009C000D3185B683A6812695A613B6943F08063E7
:1009D0003B613B6943F000433B613B681B787A68AD
:1009E00003F114034FEA8303D3185B683A691A6072
:1009F000FB7F184607F12407BD4680BC704700BF47
:100A000080B487B000AF786039604FF00003FB75A9
:100A10004FF00003FB603B685B78012B1ED13B6805
:100A20001B787A6803F104034FEA8303D3189B68A9
:100A30003B613B691B68FB60FB68C3F3C073DBB2BF
:100A4000002B03D0FB6843F08043FB60FB6843F45A
:100A50000013FB60FA683B691A6013E03B681B787F
:100A60007A6803F114034FEA8303D3185B683B6190
:100A70003B691B68FB60FB6843F40013FB60FA688A
:100A80003B691A60FB7D184607F11C07BD4680BC18
:100A9000704700BF80B487B000AF786039604FF016
:100AA0000003FB744FF00003FB603B685B78012B95
:100AB0000AD13B681B787A6803F104034FEA830389
:100AC000D3189B687B6109E03B681B787A6803F167
:100AD00014034FEA8303D3185B687B617B691B684F
:100AE000FB60FB686FF35553FB603B68DB78032BBF
:100AF00003D03B68DB78022B03D1FB6843F08053C3
:100B0000FB60FA687B691A60FB7C184607F11C07DA
:100B1000BD4680BC704700BF80B485B000AF786030
:100B20007B681B699B69FB607B681B69DB69FA68F2
:100B30001340FB60FB684FEA1343184607F11407A4
:100B4000BD4680BC704700BF80B485B000AF786000
:100B50000B46FB70FB787A6803F114034FEA8303BA
:100B6000D3185B689B68FB607B681B695B69FA68EC
:100B70001340FB60FB68184607F11407BD4680BCB4
:100B8000704700BF80B485B000AF78607B681B6998
:100B90009B69FB607B681B69DB69FA681340FB603B
:100BA000FB684FEA03434FEA1343184607F1140763
:100BB000BD4680BC704700BF80B487B000AF78608E
:100BC0004FF000033B61FB7C43F0C003FB74BB7C34
:100BD0004FF0010262F3C403BB743B7C4FF0180278
:100BE00062F306033B747B685B6D3A691A617B684C
:100BF000DB78012B17D14FF00003FB607B685B6D46
:100C00007A6802F5B9625A617B685B6D1B68FB60AC
:100C1000FB6843F00043FB604FF08023FB607B6880
:100C20005B6DFA681A6007F11C07BD4680BC70470F
:100C300080B485B000AF78607B689B7A002B1BD0B6
:100C40007B681B699B68FB60FB68C3F30003DBB236
:100C5000012B11D17B6803F586731B68BB60BB68F1
:100C60006FF34103BB60BB686FF30003BB607B683D
:100C7000D3F80C31BA681A6007F11407BD4680BC7E
:100C8000704700BF80B582B000AF4FF004004FF056
:100C9000010100F003FC4FF080033B604FF00003C4
:100CA0007B714FF001033B714FF00003BB714FF0BC
:100CB0000003FB713B460748194601F023F805483D
:100CC0004FF080014FF0000201F0BEF807F1080775
:100CD000BD4680BD0008024080B58AB000AF4FF02D
:100CE00002004FF0010100F0D9FB4FF0F0033B622E
:100CF0004FF0020387F824304FF0000387F82530C7
:100D00004FF0000387F8263007F1200350481946BA
:100D100000F0F8FF4E484FF004014FF0020201F0DE
:100D2000ABF84B484FF005014FF0020201F0A4F878
:100D300047484FF006014FF0020201F09DF8444889
:100D40004FF007014FF0020201F096F84FF0020059
:100D50004FF0010100F0C2FB4FF004004FF0010121
:100D600000F0BCFB07F11403184603F08FF84FF4B2
:100D70000073BB834FF48073BB614FF03C03BB82B5
:100D800007F114033348194603F014F807F114036C
:100D90003148194603F00EF83B46184603F0E2F9D5
:100DA0004FF001037B804FF060033B804FF0000366
:100DB000BB603B462748194603F0C6F83B4625482A
:100DC000194603F03DF93B462348194603F0BCF8A9
:100DD0003B462148194603F033F91F484FF00801FC
:100DE00003F0EAF91C484FF0080103F001FA1A4831
:100DF0004FF0010103F068F816484FF0010103F0CD
:100E000083F815484FF0010103F07EF8114B4FF0C5
:100E100000025A630F4B4FF000029A630E4B4FF0E3
:100E200000025A630C4B4FF000029A634FF001002E
:100E300000F016F84FF0050000F022F8074B4FF0D5
:100E40000002DA7000F02CF807F12807BD4680BDDB
:100E50000004024000040040000800406425002017
:100E600080B483B000AF0346FB71044BFA799A70EB
:100E700007F10C07BD4680BC704700BF6425002009
:100E800080B483B000AF0346FB80044BFA881A801D
:100E900007F10C07BD4680BC704700BF64250020E9
:100EA00080B400AF574BDB7803F00703DAB2554B41
:100EB000DA70544BDB78072B00F29C8001A252F8C9
:100EC00023F000BFE50E0008070F0008290F0008F7
:100ED0004B0F00086D0F00088F0F0008B10F0008BE
:100EE000D30F0008484B4FF05F025A63464B4FF058
:100EF00000029A63454B4FF000025A63434B4FF098
:100F000000029A637BE0404B4FF05F025A633E4B16
:100F10004FF05F029A633D4B4FF000025A633B4B28
:100F20004FF000029A636AE0374B4FF000025A63B9
:100F3000354B4FF05F029A63344B4FF000025A6317
:100F4000324B4FF000029A6359E02F4B4FF00002F2
:100F50005A632D4B4FF05F029A632C4B4FF05F02A8
:100F60005A632A4B4FF000029A6348E0264B4FF039
:100F700000025A63244B4FF000029A63234B4FF058
:100F80005F025A63214B4FF000029A6337E01E4B19
:100F90004FF000025A631C4B4FF000029A631B4B48
:100FA0004FF05F025A63194B4FF05F029A6326E0DD
:100FB000154B4FF000025A63134B4FF000029A6337
:100FC000124B4FF000025A63104B4FF05F029A63CE
:100FD00015E00D4B4FF05F025A630B4B4FF00002D0
:100FE0009A630A4B4FF000025A63084B4FF05F02BE
:100FF0009A6304E0034B4FF00002DA7000BFBD4675
:1010000080BC7047642500200004004000080040B8
:1010100080B582B000AF124B7B60124B3B600BE09F
:101020007B681A683B681A603B6803F104033B6005
:101030007B6803F104037B603A680B4B9A42EFD361
:101040000A480B494FF000028842B8BF40F8042B11
:10105000FFF6FAAF00F000FA07F10807BD4680BDC1
:101060004C44000800000020380000203800002018
:10107000582B002080B400AFFEE700BF80B584B0DD
:1010800000AF786007F108037868194601F0CAFCE0
:101090003B7A03F01F03012B0AD0022B0FD0002B49
:1010A00014D107F108037868194601F0B5F816E085
:1010B00007F108037868194601F000F90FE007F11D
:1010C00008037868194601F02FF908E03B7A23F00D
:1010D0007F03DBB27868194602F0E4FC00BF4FF0F2
:1010E0000003184607F11007BD4680BD80B584B0E7
:1010F00000AF78600B46FB70FB78002B45D17B6816
:1011000003F55C73FB607B6893F81131032B4FD1BF
:10111000FB68DA69FB689B689A4221D9FB68DA6947
:10112000FB689B68D21AFB68DA617B68DB78012B6D
:1011300006D1FB68DA68FB689B68D218FB68DA6046
:10114000FB68DA68FB689968FB68DB69994238BF1D
:101150000B469BB2786811461A4602F0D7FD27E08D
:101160007B68D3F8E0351B69002B0AD07B6893F8C5
:101170001231032B05D17B68D3F8E0351B69786801
:101180009847786802F0DAFD12E07B68D3F8E03522
:101190009B69002B0CD07B6893F81231032B07D18D
:1011A0007B68D3F8E0359B69FA78786811469847F0
:1011B0004FF00003184607F11007BD4680BD00BF81
:1011C00080B584B000AF78600B46FB70FB78002BD5
:1011D00063D17B6803F58C73FB607B6893F81131F6
:1011E000022B6ED1FB68DA69FB689B689A421CD9B6
:1011F000FB68DA69FB689B68D21AFB68DA617B6876
:10120000DB78012B06D1FB68DA68FB689B68D21893
:10121000FB68DA60FB68DA68FB68DB699BB27868B8
:1012200011461A4602F05AFD4BE0FB681B6AFA6849
:101230009268B3FBF2F102FB01F29B1A002B17D16B
:10124000FB681A6AFB689B689A4211D3FB681A6AAA
:10125000FB685B6A9A420BD278684FF000014FF04E
:10126000000202F03BFDFB684FF000025A6229E0E9
:101270007B68D3F8E035DB68002B0AD07B6893F8F5
:101280001231032B05D17B68D3F8E035DB68786831
:101290009847786802F070FD13E07B68D3F8E0357A
:1012A0005B69002B0ED07B6893F81231032B09D1B8
:1012B0007B68D3F8E0355B69FA787868114698471F
:1012C00000E000BF4FF00003184607F11007BD46CD
:1012D00080BD00BF80B582B000AF786078684FF005
:1012E00000014FF040024FF0000302F0FDFA786871
:1012F0004FF080014FF040024FF0000302F0F4FA8B
:101300007B684FF0010283F812217B68D3F8E43543
:101310005B687A689278104698474FF00003184649
:1013200007F10807BD4680BD80B582B000AF786088
:101330007B68D3F8E4351B6998477B684FF003025C
:1013400083F812214FF00003184607F10807BD4645
:1013500080BD00BF80B582B000AF78607B684FF081
:10136000040283F812217B68D3F8E435DB689847E0
:101370004FF00003184607F10807BD4680BD00BFC7
:1013800080B582B000AF78607B68D3F8E035DB6968
:10139000002B05D07B68D3F8E035DB697868984787
:1013A0004FF00003184607F10807BD4680BD00BF97
:1013B00080B582B000AF78600B46FB707B68D3F8D5
:1013C000E0351B68FA787868114698477B68D3F84F
:1013D000E4359B6898474FF00003184607F108076B
:1013E000BD4680BD80B582B000AF78600B46FB7013
:1013F0007B68D3F8E0355B68FA78786811469847DF
:101400004FF00003184607F10807BD4680BD00BF36
:1014100080B582B000AF78607B68D3F8E0351B6A96
:10142000786898474FF00003184607F10807BD4653
:1014300080BD00BF80B582B000AF78607B68D3F814
:10144000E0355B6A786898474FF00003184607F16B
:101450000807BD4680BD00BF80B500AF00F0F0FDBD
:10146000FFF73AFCFFF70EFC00F02CF9FEE700BF97
:1014700080B400AFFEE700BF80B483B000AF7860F7
:101480003960FEE780B582B000AF02F0F7FB03469B
:101490007B607B6807F10807BD4680BD80B483B0E0
:1014A00000AF78600B46FB70FB78002B06D00A4B30
:1014B000094A116B7A680A431A6307E0064B064A29
:1014C000116B7A686FEA02020A401A6307F10C078F
:1014D000BD4680BC704700BF0038024080B483B076
:1014E00000AF78600B46FB70FB78002B06D00A4BF0
:1014F000094A116C7A680A431A6407E0064B064AE7
:10150000116C7A686FEA02020A401A6407F10C074C
:10151000BD4680BC704700BF0038024080B58AB02D
:1015200002AFF860B9603B601346FB80FB68002B9C
:1015300004D14FF0500080F31188FEE7BB6A042B02
:1015400004D94FF0500080F31188FEE7FB8818465D
:10155000396B00F08FFBB861BB69002B00F08C8009
:10156000BB691A6BFB8803F1FF334FEA8303D3187F
:101570007B617B6923F007037B617B6903F00703D1
:10158000002B04D04FF0500080F31188FEE7FB8859
:101590000093B869B968BA6A7B6B00F0ADFA7869F4
:1015A000F9683A6801F0B0FA0246BB691A60BB6993
:1015B0001B6803F00703002B04D04FF0500080F3AA
:1015C0001188FEE7FB6A002B02D0FB6ABA691A6039
:1015D00001F00EFB344B1B6803F10102324B1A6021
:1015E000324B1B68002B09D1304BBA691A602E4B65
:1015F0001B68012B0FD100F0BBFA0CE02C4B1B68D1
:10160000002B08D1294B1B68DA6ABB6A9A4202D8C0
:10161000264BBA691A60BB69DA6A264B1B689A4284
:1016200003D9BB69DA6A234B1A60234B1B6803F1A9
:101630000102214B1A60BB69DA6A204B1B689A428F
:1016400003D9BB69DA6A1D4B1A60BB69DA6A1346B3
:101650004FEA83039B184FEA8303194A9A18BB6920
:1016600003F104031046194600F098FC4FF0010303
:10167000FB6101F0CFFA02E04FF0FF33FB61FB6941
:10168000012B0BD10A4B1B68002B07D0074B1B68A3
:10169000DA6ABB6A9A4201D201F09EFAFB691846E7
:1016A00007F12007BD4680BD100100203800002052
:1016B0002001002018010020340100201C0100201E
:1016C0003C00002080B586B004AF4FF000030093CB
:1016D0004FF0000301934FF0000302934FF000031B
:1016E0000393134813494FF046024FF00003FFF7EE
:1016F00015FF78607B68012B0DD14FF0500080F30F
:1017000011880D4B4FF001021A600C4B4FF0000294
:101710001A6001F043FA7B68002B04D14FF05000AF
:1017200080F31188FEE707F10807BD4680BD00BFC2
:10173000D51A0008304400082001002014010020C0
:1017400080B400AF044B1B6803F10102024B1A6026
:10175000BD4680BC704700BF2401002090B583B017
:1017600000AF4FF000037B603C4B1B68002B04D1A3
:101770004FF0500080F31188FEE701F039FA374B43
:101780001B6803F1FF32354B1A60344B1B68002B8A
:101790005CD1334B1B68002B58D04FF000033B60EB
:1017A0002CE0304BDB68DC6804F11803184600F0CD
:1017B0001DFC04F10403184600F018FCE26A2A4BF1
:1017C0001B689A4202D9E26A274B1A60E26A134602
:1017D0004FEA83039B184FEA8303244A9A1804F1C3
:1017E00004031046194600F0D9FBE26A204B1B683F
:1017F000DB6A9A4202D34FF001033B60194B1B682E
:10180000002BCED11B4B1B68002B0FD007E000F044
:1018100035F8184B1B6803F1FF32164B1A60154B55
:101820001B68002BF3D14FF001033B603B68012B99
:1018300003D0114B1B68012B08D14FF001037B60D3
:101840000D4B4FF000021A6001F0C6F901F0E2F909
:101850007B68184607F10C07BD4690BD24010020A7
:1018600010010020D00000201C0100203C000020BE
:1018700038000020280100202C01002080B584B011
:1018800000AF494B1B68002B40F08480474B1B681E
:1018900003F10102454B1A60444B1B68002B2CD10D
:1018A000434B1B681B68002B04D04FF0500080F3A3
:1018B0001188FEE73E4B1B68FB603E4B1A683C4BB1
:1018C0001A603C4BFA681A603B4B1B6803F101023B
:1018D000394B1A60364B1B681B68002B04D1374B01
:1018E0004FF0FF321A6008E0314B1B68DB68DB68A1
:1018F000BB60BB685A68314B1A602C4B1A682F4B7F
:101900001B689A424CD32A4B1B681B68002B04D1DE
:101910002A4B4FF0FF321A6042E0254B1B68DB6810
:10192000DB68BB60BB685B687B60204B1A687B68C8
:101930009A4203D2214B7A681A6031E0BB6803F106
:101940000403184600F052FBBB689B6A002B05D0CD
:10195000BB6803F11803184600F048FBBB68DA6A5D
:10196000174B1B689A4203D9BB68DA6A144B1A609A
:10197000BB68DA6A13464FEA83039B184FEA830376
:10198000104A9A18BB6803F104031046194600F088
:1019900005FBB8E70C4B1B6803F101020A4B1A6008
:1019A00007F11007BD4680BD24010020140100206E
:1019B000C8000020CC0000203001002030000020B2
:1019C0001C0100203C0000202801002080B582B0CE
:1019D00000AF3A4B1B68002B04D0394B4FF001028B
:1019E0001A6067E0374B1B681A68364B1B681B6B25
:1019F0009A4209D8334B1A68324B1B6803F13403FF
:101A000010461946FFF738FD2E4B1B681B6B184616
:101A10002D494FF0140202F041FC0346002B1AD06E
:101A2000284B1A68274B1B6803F1340310461946EC
:101A3000FFF722FD0FE0254B1B68002B04D14FF070
:101A4000500080F31188FEE7204B1B6803F1FF3242
:101A50001E4B1A6000E000BF1C4B1A681C4913465D
:101A60004FEA83039B184FEA8303CB181B68002BB4
:101A7000E1D0164B1A6813464FEA83039B184FEACE
:101A80008303134A9B187B607B685B685A687B689A
:101A90005A607B685A687B6803F108039A4204D154
:101AA0007B685B685A687B685A607B685B68DA6849
:101AB000044B1A6007F10807BD4680BD24010020D1
:101AC0002C01002038000020384400081C010020B0
:101AD0003C00002080B582B000AF786000F08CF848
:101AE000044B1B68012B01D901F076F8FFF7CAFC03
:101AF000F4E700BF3C00002080B584B000AFF86080
:101B0000B9607A603B60FB6803F134031846B9683A
:101B10004FF00A0202F05AFCFB684FF0000283F813
:101B20003D207B68042B02D94FF004037B60FB68E7
:101B30007A68DA62FB687A681A64FB6803F1040366
:101B4000184600F01DFAFB6803F11803184600F070
:101B500017FAFB68FA681A617B68C3F10502FB6833
:101B60009A61FB68FA685A6207F11007BD4680BDAA
:101B700080B582B000AF4FF000037B600FE07A6861
:101B800013464FEA83039B184FEA8303124A9B18BC
:101B9000184600F0D5F97B6803F101037B607B6890
:101BA000042BECD90D4800F0CBF90D4800F0C8F932
:101BB0000C4800F0C5F90C4800F0C2F90B4800F0E1
:101BC000BFF90B4B054A1A600A4B054A1A6007F128
:101BD0000807BD4680BD00BF3C000020A0000020DB
:101BE000B4000020D0000020E4000020FC00002011
:101BF000C8000020CC00002080B582B000AF1A4B96
:101C00001B68002B2BD0FFF79BFD184B1B68002B8C
:101C100014BF00230123DBB27B60FFF79FFD7B68CD
:101C2000002B1CD100F0E4FF104BDB68DB683B604D
:101C30003B6803F10403184600F0D8F90C4B1B680D
:101C400003F1FF320A4B1A60074B1B6803F1FF32A6
:101C5000054B1A6000F0DEFF386800F043F807F12A
:101C60000807BD4680BD00BFF8000020E40000204A
:101C70001001002080B584B000AF03463960FB80BE
:101C80004FF0440001F0B0FFF860FB68002B23D058
:101C90003B68002B07D1FB884FEA8303184601F00D
:101CA000A3FF034600E03B68FA681363FB681B6B05
:101CB000002B06D1F86801F0D7FF4FF00003FB605E
:101CC0000AE0FB681A6BFB884FEA830310464FF06B
:101CD000A5011A4602F014FBFB68184607F110072D
:101CE000BD4680BD80B582B000AF78607B681B6B5D
:101CF000184601F0B9FF786801F0B6FF07F1080750
:101D0000BD4680BD80B487B000AF786039604FF0C9
:101D100000037B614FF000033B614FF00003FB6069
:101D20004FF000037B6186E07B694FF0010202FA0D
:101D300003F33B613B681A683B691340FB60FA6838
:101D40003B699A4273D17B681A687B694FEA430307
:101D50004FF0030101FA03F36FEA03031A407B68B3
:101D60001A607B681A683B681B7919467B694FEAE1
:101D7000430301FA03F31A437B681A603B681B793B
:101D8000012B03D03B681B79022B34D17B689A6806
:101D90007B694FEA43034FF0030101FA03F36FEA53
:101DA00003031A407B689A607B689A683B685B799A
:101DB00019467B694FEA430301FA03F31A437B6830
:101DC0009A607B685A687B699BB24FF0010101FA07
:101DD00003F36FEA03031A407B685A607B685A6812
:101DE0003B689B7919467B699BB201FA03F39BB26E
:101DF0001A437B685A607B68DA687B699BB24FEA5A
:101E000043034FF0030101FA03F36FEA03031A409F
:101E10007B68DA607B68DA683B68DB7919467B6946
:101E20004FEA430301FA03F31A437B68DA607B69E4
:101E300003F101037B617B690F2B7FF675AF07F11F
:101E40001C07BD4680BC704780B483B000AF78608B
:101E500013460A467A807B707B78002B03D07B6820
:101E60007A881A8302E07B687A885A8307F10C0724
:101E7000BD4680BC704700BF80B485B000AF7860BD
:101E800013460A467A807B704FF00003FB604FF0E8
:101E90000003BB607A787B8803F007034FEA830373
:101EA00002FA03F3FB607B884FEAD3039BB21A4626
:101EB0007B884FEAD3039BB219467B6801F1080186
:101EC00053F821107B8803F007034FEA83034FF098
:101ED0000F0000FA03F36FEA030319407B6802F175
:101EE000080243F822107B884FEAD3039BB21A46BC
:101EF0007B6802F1080253F82220FB681343BB60A1
:101F00007B884FEAD3039BB21A467B6802F1080232
:101F1000B96843F8221007F11407BD4680BC70472A
:101F200080B500AF04484FF0010102F081F9034B86
:101F30001B68984780BD00BF000800405425002062
:101F400080B483B000AF78607B6803F108027B68DF
:101F50005A607B684FF0FF329A607B6803F1080299
:101F60007B68DA607B6803F108027B681A617B6832
:101F70004FF000021A6007F10C07BD4680BC7047A5
:101F800080B483B000AF78607B684FF000021A61C4
:101F900007F10C07BD4680BC704700BF80B485B018
:101FA00000AF786039607B685B68FB60FB685A68EB
:101FB0003B685A607B685A683B689A60FB685B685C
:101FC0003A689A60FB683A685A607B683A685A6077
:101FD0003B687A681A617B681B6803F101027B68C1
:101FE0001A6007F11407BD4680BC704780B485B005
:101FF00000AF78607B685B687A6892689A607B68FB
:102000009B687A6852685A607B681B69FB60FB6852
:102010005A687B689A4203D17B689A68FB685A6069
:102020007B684FF000021A61FB681B6803F1FF3206
:10203000FB681A6007F11407BD4680BC704700BFFB
:1020400080B500AF124B124A126842F001021A60CA
:102050000F4B4FF000029A600D4A0D4B1B6823F0A6
:10206000847323F480331360094B0A4A5A60084B87
:10207000074A126822F480221A60054B4FF00002D2
:10208000DA6000F00BF8044B4FF000629A6080BDFC
:10209000003802401030002400ED00E080B483B02E
:1020A00000AF4FF000037B604FF000033B60304B0C
:1020B0002F4A126842F480321A602D4B1B6803F4D9
:1020C00000333B607B6803F101037B603B68002BBE
:1020D00003D17B68B3F5A06FEFD1254B1B6803F4E8
:1020E0000033002B03D04FF001033B6002E04FF0C0
:1020F00000033B603B68012B34D11D4B1C4A9268A6
:102100009A601B4B1A4A92689A60194B184A926857
:1021100042F480529A60164B164A5A60144B144A85
:10212000126842F080721A6000BF114B1B6803F006
:102130000073002BF9D0104B40F201721A600C4B67
:102140000B4A926822F003029A60094B084A92688F
:1021500042F002029A6000BF054B9B6803F00C033B
:10216000082BF9D107F10C07BD4680BC704700BFB2
:102170000038024004304308003C024080B485B07F
:1021800000AF78604FF00003FB607A6813464FEAB7
:1021900003139B1A4FEAC3031A460D4BA3FB02130A
:1021A000D21A4FEA52029B184FEA9303BB6000E039
:1021B00000BFFB6803F10103FB60FA68BB689A4249
:1021C000F6D900BF07F11407BD4680BC704700BFB9
:1021D0002549922480B500AF094B9B7A002B0AD089
:1021E000084B084A126822F006021A60FFF728FF1F
:1021F0000348FEF71DFD4FF4802001F067FB80BD12
:102200006825002010ED00E080B500AF014800F027
:1022100061FD80BD6825002080B584B000AF786086
:1022200039604FF00003FB733B685B78092B3AD8A9
:1022300001A252F823F000BF892200089D22000865
:10224000A722000893220008A72200086B2200089A
:1022500061220008A72200087F22000875220008DA
:102260007868396800F044F922E07868396800F04D
:1022700023FA1DE07868396800F05EFA18E07868A3
:10228000396800F0D5FA13E07868396800F002FB8D
:102290000EE07868396800F029FB09E07868396851
:1022A00000F094FB04E07868396800F005FC00BF9A
:1022B000FB7B184607F11007BD4680BD80B584B092
:1022C00000AF786039604FF00003FB737B6893F8D0
:1022D0001231032B1BD13B689B88DBB2012B11D839
:1022E0007B68D3F8E0359B687868396898473B6825
:1022F000DB88002B10D1FB7B002B0DD1786801F01F
:102300001DFD09E07868396800F0D6FB04E07868C4
:10231000396800F0D1FB00E000BFFB7B184607F1F5
:102320001007BD4680BD00BF80B584B000AF7860A7
:1023300039604FF00003FB733B689B88BB733B68BD
:102340005B78012B39D0032B02D0002B6CD0C6E078
:102350007B6893F81231022B02D0032B0CD025E0BE
:10236000BB7B002B27D0BB7B802B24D0BB7B78682A
:10237000194601F097FB1EE03B685B88002B0AD1F1
:10238000BB7B002B07D0BB7B802B04D0BB7B78684A
:10239000194601F087FB7B68D3F8E0359B687868C5
:1023A00039689847786801F0C9FC05E078683968B1
:1023B00000F082FB00E000BF92E07B6893F81231EE
:1023C000022B02D0032B0CD025E0BB7B002B27D0A7
:1023D000BB7B802B24D0BB7B7868194601F062FB65
:1023E0001EE03B685B88002B1CD1BB7B002B0ED012
:1023F000BB7B802B0BD0BB7B7868194601F094FB2C
:102400007B68D3F8E0359B687868396898477868C6
:1024100001F094FC06E07868396800F04DFB02E0BA
:1024200000BF00E000BF5BE07B6893F81231022B35
:1024300002D0032B0CD04BE0BB7B002B4DD0BB7BE1
:10244000802B4AD0BB7B7868194601F02BFB44E017
:10245000BB7B5BB2002B19DABB7B03F07F02796890
:1024600013464FEA83039B184FEAC303CB1803F5C7
:102470008C739B78002B04D01C4B4FF001021A6028
:102480001FE01A4B4FF000021A601AE0BB7B5BB2F0
:10249000002B16DBBA7B796813464FEA83039B183F
:1024A0004FEAC303CB1803F55C739B78002B04D071
:1024B0000E4B4FF001021A6003E00C4B4FF000028C
:1024C0001A60786809494FF0020201F0E3FB05E069
:1024D0007868396800F0F0FA00E000BF00E000BF63
:1024E000FB7B184607F11007BD4680BD3801002070
:1024F00080B584B000AF786039603B685B884FEA94
:1025000013239BB203F1FF33062B00F2B58001A227
:1025100052F823F0312500086525000893250008AE
:102520007926000879260008652600086F2600082D
:102530007B68D3F8E8351B687A68917807F10A025E
:10254000084611469847F8603B68DB88402B05D069
:102550007B6893F81231012B40F093804FF0080311
:102560007B818EE07B68D3F8E0359B6A7A6891784E
:1025700007F10A02084611469847F860FB6803F124
:1025800001034FF002021A707B68FA68C3F8EC2569
:1025900078E03B685B88DBB2052B5DD801A252F87E
:1025A00023F000BFBD250008D7250008F12500084D
:1025B0000B260008252600083F2600087B68D3F874
:1025C000E8355B687A68917807F10A020846114697
:1025D0009847F86045E07B68D3F8E8359B687A68EF
:1025E000917807F10A02084611469847F86038E0EA
:1025F0007B68D3F8E835DB687A68917807F10A02DE
:10260000084611469847F8602BE07B68D3F8E83518
:102610001B697A68917807F10A02084611469847C3
:10262000F8601EE07B68D3F8E8355B697A689178DA
:1026300007F10A02084611469847F86011E07B68E6
:10264000D3F8E8359B697A68917807F10A02084661
:1026500011469847F86004E07868396800F02CFA71
:1026600025E00FE07868396800F026FA1FE0786806
:10267000396800F021FA1AE07868396800F01CFA2D
:1026800015E000BF7B89002B11D03B68DB88002B55
:102690000DD03B68DA887B899A4238BF13469BB2DB
:1026A0007B817B897868F9681A4601F0F3FA07F1B3
:1026B0001007BD4680BD00BF80B584B000AF786014
:1026C00039603B689B88002B2ED13B68DB88002B50
:1026D0002AD13B685B88DBB203F07F03FB737B6826
:1026E00093F81231032B04D17868396800F0E4F9CB
:1026F0001EE07B68FA7B83F81321FB7B7868194620
:1027000001F054FA786801F019FBFB7B002B05D02F
:102710007B684FF0020283F8122109E07B684FF0DA
:10272000010283F8122103E07868396800F0C4F9E7
:1027300007F11007BD4680BD80B582B000AF78605C
:1027400039603B685B88DAB2384B1A70374B1B78BC
:10275000012B04D97868396800F0AEF961E07B6834
:1027600093F81231022B02D0032B1CD054E02F4BD4
:102770001B78002B13D02D4B1A787B6883F810211F
:102780007B684FF0030283F81221284B1B7878688E
:102790001946FEF70DFE786801F0D0FA41E078683E
:1027A00001F0CCFA3DE0214B1B78002B13D17B6864
:1027B0004FF0020283F812211C4B1A787B6883F8D1
:1027C00010211A4B1B7878681946FEF70BFE7868C3
:1027D00001F0B4FA25E07B6893F81021134B1B78C5
:1027E0009A4215D07B6893F8103178681946FEF745
:1027F000F9FD0E4B1A787B6883F810210B4B1B7880
:1028000078681946FEF7D4FD786801F097FA08E079
:10281000786801F093FA04E07868396800F04CF9C0
:1028200000BF07F10807BD4680BD00BF440100207E
:1028300080B582B000AF786039603B68DB88012BDF
:1028400004D07868396800F037F91DE07B6893F8A8
:102850001231022B02D0032B07D010E078680C490C
:102860004FF0010201F016FA0EE07B6803F5887361
:10287000786819464FF0010201F00CFA04E078681C
:10288000396800F019F900BF07F10807BD4680BD9F
:102890003C01002080B582B000AF786039607B6871
:1028A00093F81231A3F10203012B14D87B68D3F8FB
:1028B0001431002B04D00C4B4FF003021A6003E0DC
:1028C000094B4FF001021A60786807494FF0010286
:1028D00001F0E0F904E07868396800F0EDF800BF35
:1028E00007F10807BD4680BD4001002080B584B0D7
:1028F00000AF786039604FF00003FB733B685B8882
:10290000012B0FD17B684FF00102C3F814217B68C3
:10291000D3F8E0359B68786839689847786801F0A3
:102920000DFA4FE03B685B88022B4BD13B689B88DC
:10293000DBB2002B46D17B681B695B68BB603B68E0
:102940009B884FEA13239BB2FB73FB7B03F1FF339E
:10295000042B30D801A252F823F000BF71290008DF
:102960007F2900088D2900089B290008A929000853
:10297000BB684FF0010262F30613BB601BE0BB684B
:102980004FF0020262F30613BB6014E0BB684FF025
:10299000030262F30613BB600DE0BB684FF0040254
:1029A00062F30613BB6006E0BB684FF0050262F3FA
:1029B0000613BB6000BF7B681B69BA685A60786801
:1029C00001F0BCF907F11007BD4680BD80B582B0AB
:1029D00000AF786039607B6893F81231A3F102038D
:1029E000012B13D83B685B88012B15D17B684FF016
:1029F0000002C3F814217B68D3F8E0359B6878683F
:102A000039689847786801F099F905E0786839687D
:102A100000F052F800BF00E000BF07F10807BD4614
:102A200080BD00BF80B483B000AF786039607B6840
:102A300093F8C8253B681A707B6893F8C9253B68F2
:102A40005A707B6893F8CA351A467B6893F8CB3581
:102A50004FEA03239BB2D3189AB23B685A807B6833
:102A600093F8CC351A467B6893F8CD354FEA0323AB
:102A70009BB2D3189AB23B689A807B6893F8CE35A4
:102A80001A467B6893F8CF354FEA03239BB2D318DD
:102A90009AB23B68DA803B68DB881A467B68C3F8E9
:102AA0003C217B684FF0010283F8112107F10C07EC
:102AB000BD4680BC704700BF80B582B000AF786073
:102AC00039603B681B78DBB25BB2002B05DA7868B3
:102AD0004FF0800100F0E6FF0EE03B68DB88002B42
:102AE00005D178684FF0800100F0DCFF04E07868E1
:102AF0004FF0000100F0D6FF7868FEF75DF807F1AF
:102B00000807BD4680BD00BF80B485B000AFF86047
:102B1000B9607A60FB68A3F10403FB60FB684FF0C7
:102B200080721A60FB68A3F10403FB60BA68FB685B
:102B30001A60FB68A3F10403FB60FB684FF000021E
:102B40001A60FB68A3F11403FB607A68FB681A60E3
:102B5000FB68A3F12003FB60FB68184607F114072C
:102B6000BD4680BC704700BF064B19680868B0E8D6
:102B7000F00F80F309884FF0000080F311884EF0C9
:102B80000D0E70473800002003480068006880F38D
:102B9000088862B600DF00BF08ED00E080B500AF36
:102BA0000B4B0B4A126842F470021A60084B084A39
:102BB000126842F070421A6000F07AF8054B4FF04C
:102BC00000021A60FFF7E0FF4FF00003184680BDD7
:102BD00020ED00E03400002080B400AF034B4FF044
:102BE00080521A60BD4680BC704700BF04ED00E013
:102BF00080B400AF4FF0500080F31188044B1B6885
:102C000003F10102024B1A60BD4680BC704700BF51
:102C10003400002080B400AF084B1B6803F1FF3282
:102C2000064B1A60054B1B68002B03D14FF00000C8
:102C300080F31188BD4680BC704700BF340000207F
:102C4000EFF309800C4B1A6820E9F00F10602DE9B2
:102C500008404FF0500080F31188FEF7B7FE4FF0A8
:102C6000000080F31188BDE8084019680868B0E8E2
:102C7000F00F80F3098870473800002080B582B0DB
:102C800000AF0A4B4FF080521A604FF000037B6098
:102C90004FF0500080F31188FEF7F0FD4FF0000078
:102CA00080F3118807F10807BD4680BD04ED00E000
:102CB00080B400AF054B41F2BF221A60044B4FF0C5
:102CC00007021A60BD4680BC704700BF14E000E0F8
:102CD00010E000E080B586B000AF78604FF00003F0
:102CE0007B617868FDF716FB0346002B00F09E80A1
:102CF0007868FDF721FB03463B613B69002B02D15D
:102D00004FF0000393E03B69C3F3C043DBB2002BF9
:102D100006D0786800F03CFA03467A6913437B6179
:102D20003B69C3F38043DBB2002B06D0786800F028
:102D300019F903467A6913437B613B69C3F3400386
:102D4000DBB2002B0AD04FF00003FB60FB6843F0BE
:102D50000203FB607B68DB68FA685A613B69C3F376
:102D6000C073DBB2002B06D0786800F065F803462C
:102D70007A6913437B613B69C3F3C023DBB2002B49
:102D800006D0786800F09CF803467A6913437B61AB
:102D90003B69C3F3C003DBB2002B06D0786800F0B8
:102DA000CBFA03467A6913437B613B69C3F3001393
:102DB000DBB2002B06D0786800F0DCFA03467A69B3
:102DC00013437B613B69C3F30033DBB2002B06D0B6
:102DD000786800F0F1FB03467A6913437B613B6935
:102DE000C3F34033DBB2002B06D0786800F09AFCC6
:102DF00003467A6913437B613B69C3F30053DBB23B
:102E0000002B06D0786800F0D1FC03467A691343A2
:102E10007B613B69C3F34053DBB2002B06D078687B
:102E200000F0E2FC03467A6913437B617B69184634
:102E300007F11807BD4680BD80B586B000AF786049
:102E40007B689B7A002B11D07B6803F586731B6827
:102E5000FB60FB686FF34103FB60FB686FF30003EB
:102E6000FB607B68D3F80C31FA681A604FF00003FE
:102E70003B613B6943F001033B617B681B697A68F6
:102E8000126951683A696FEA02020A405A600B4BB4
:102E90001B689B69786898474FF000037B617B69EA
:102EA00043F000437B617B68DB687A695A614FF0CD
:102EB0000103184607F11807BD4680BD2C0000200D
:102EC00080B586B000AF7860244B1B685B6978687A
:102ED00098477B681B699B68FB604FF000037B6130
:102EE0007B6943F400637B617B68DB687A695A61C4
:102EF0007B689B7A002B2AD0FB68C3F30003DBB20C
:102F0000012B24D14FF000033B613B6943F00103E7
:102F10003B617B68D3F80C317A68D2F80C211168D8
:102F20003A690A431A603B6943F002033B617B68DC
:102F3000D3F80C317A68D2F80C2111683A690A4347
:102F40001A60074B064A126942F006021A614FF0F6
:102F50000103184607F11807BD4680BD2C0000206C
:102F600000ED00E080B586B000AF78604FF0000360
:102F70003B614FF00003BB607868FDF703FE7861AA
:102F8000F8E07B6903F00103002B00F0EB803B6964
:102F9000DBB27868194600F045FC0346BB60BB68AD
:102FA000C3F30003DBB2002B37D03B694FF00102C3
:102FB00002FA03F3FB607B681B697A681269516B44
:102FC000FA686FEA02020A405A634FF00003BB60DE
:102FD000BB6843F00103BB607A683B6903F10403FB
:102FE0004FEA8303D3189B68BA689A60674B1B68E3
:102FF0005B683A69D2B27868114698477B68DB789B
:10300000012B0AD13B69002B07D17B6893F8113162
:10301000042B02D17868FDF7CFFDBB68C3F38003B2
:10302000DBB2002B10D04FF00003BB60BB6843F055
:103030000403BB607A683B6903F104034FEA83032E
:10304000D3189B68BA689A60BB68C3F3C003DBB24D
:10305000002B10D04FF00003BB60BB6843F00803A7
:10306000BB607A683B6903F104034FEA8303D3181A
:103070009B68BA689A60BB68C3F30013DBB2002B8D
:1030800010D04FF00003BB60BB6843F01003BB607F
:103090007A683B6903F104034FEA8303D3189B6802
:1030A000BA689A60BB68C3F34013DBB2002B10D040
:1030B0004FF00003BB60BB6843F02003BB607A683D
:1030C0003B6903F104034FEA8303D3189B68BA6892
:1030D0009A60BB68C3F38013DBB2002B10D04FF0B3
:1030E0000003BB60BB6843F04003BB607A683B6988
:1030F00003F104034FEA8303D3189B68BA689A600C
:10310000BB68C3F34003DBB2002B10D04FF00003C9
:10311000BB60BB6843F00203BB607A683B6903F1A4
:1031200004034FEA8303D3189B68BA689A60BB68AC
:10313000C3F3C013DBB2002B14D07868396900F0F8
:10314000A3F94FF00003BB60BB6843F08003BB6092
:103150007A683B6903F104034FEA8303D3189B6841
:10316000BA689A603B6903F101033B617B694FEAEE
:1031700053037B617B69002B7FF403AF4FF00103A6
:10318000184607F11807BD4680BD00BF2C0000207F
:1031900080B586B000AF78604FF000033B614FF020
:1031A0000003FB607868FDF7B7FC7861B7E07B69E6
:1031B00003F00103002B00F0AA803B69DBB27868C2
:1031C0001946FDF7C1FC0346FB60FB68C3F300032F
:1031D000DBB2002B51D04FF00003FB60FB6843F0E3
:1031E0000103FB607A683B6903F114034FEA830330
:1031F000D3185B68FA689A607B68DB78012B25D16D
:103200007A683B6903F114034FEA8303D3185B68C0
:103210001B69BB6079683A6913464FEA83039B18C0
:103220004FEAC303CB1803F55E731A68BB68C3F398
:103230001203D11A78683A6913464FEA83039B1840
:103240004FEAC303C31803F562731960394B1B6857
:103250001B683A69D2B27868114698477B68DB7878
:10326000012B0AD13B69002B07D17B6893F8113100
:10327000052B02D17868FDF79FFCFB68C3F3400380
:10328000DBB2002B10D04FF00003FB60FB6843F073
:103290000203FB607A683B6903F114034FEA83037E
:1032A000D3185B68FA689A60FB68C3F38003DBB2EB
:1032B000002B10D04FF00003FB60FB6843F00403C9
:1032C000FB607A683B6903F114034FEA8303D31868
:1032D0005B68FA689A60FB68C3F3C003DBB2002B3B
:1032E00015D0144B1B689B68786898474FF0000313
:1032F000FB60FB6843F00803FB607A683B6903F1FD
:1033000014034FEA8303D3185B68FA689A603B6939
:1033100003F101033B617B694FEA53037B617B69E6
:10332000002B7FF444AF4FF00103184607F1180754
:10333000BD4680BD2C00002080B584B000AF786011
:103340000B4B1B68DB68786898474FF00003FB6005
:10335000FB6843F00803FB607B68DB68FA685A612E
:103360004FF00103184607F11007BD4680BD00BFAE
:103370002C00002080B586B000AF78604FF00003CD
:103380003B613B6943F010033B617B68DB687A6813
:10339000D26891693A696FEA02020A409A617B68D1
:1033A000DB681B6AFB60FB68C3F30303DBB21A46EE
:1033B00013464FEA83039B184FEAC30303F55C737C
:1033C0007A68D3187B61FB68C3F34343DBB203F134
:1033D000FF33052B45D801A252F823F063340008CF
:1033E000F5330008633400086334000863340008D0
:1033F0003D340008FB68C3F30A139BB2002B32D0A4
:103400007B69DA68FB68C3F30A139BB278681146DC
:103410001A46FCF7FBFE7B69DA68FB68C3F30A1304
:103420009BB2D2187B69DA607B699A69FB68C3F347
:103430000A139BB2D2187B699A6114E07B6803F58A
:10344000B963786819464FF00802FCF7DFFE7B6924
:103450009A69FB68C3F30A139BB2D2187B699A611D
:1034600002E000BF00E000BF7B68DB687A68D268DA
:1034700091693A690A439A614FF00103184607F1CE
:103480001807BD4680BD00BF80B588B000AF78602A
:1034900039604FF00003FB614FF00003FB603A68B6
:1034A00013464FEA83039B184FEAC30303F58C735B
:1034B0007A68D3187B617B695A697B699B69D31AE7
:1034C000FB617B699A68FB699A4202D27B699B68BF
:1034D000FB61FB6903F103034FEA9303BB617A6865
:1034E0003B6803F104034FEA8303D3189B689B698D
:1034F000FB604AE07B695A697B699B69D31AFB616F
:103500007B699A68FB699A4202D27B699B68FB617E
:10351000FB6903F103034FEA9303BB617B69D9683D
:103520003B68DAB2FB699BB27868FCF72DFE7B69D9
:10353000DA68FB69D2187B69DA607B699A69FB6992
:10354000D2187B699A617B699A697B695B699A4247
:1035500011D37B691B784FF0010202FA03F33B6140
:103560007B681B697A681269516B3A696FEA0202DB
:103570000A405A6318E07A683B6803F104034FEA93
:103580008303D3189B689B69FB60BB891A46BB69A0
:103590009A4209D97B699A697B695B699A4203D22D
:1035A0007B695B69002BA5D14FF00103184607F139
:1035B0002007BD4680BD00BF80B58AB000AF7860EF
:1035C0004FF000033B614FF000033B624FF00003FC
:1035D000FB614FF00003BB614FF000037B614FF0D4
:1035E0000003FB603B6943F001033B617B681B699F
:1035F0007A68126951683A696FEA02020A405A60B1
:1036000078684FF00001FCF735FE4FF000037B6255
:1036100019E07A687B6A03F104034FEA8303D31845
:103620009B684FF0FF029A607A687B6A03F114038B
:103630004FEA8303D3185B684FF0FF029A607B6AFE
:1036400003F101037B627B685B781A467B6A9A42CE
:10365000DFD87B681B694FF0FF329A613B6A4FF0FD
:10366000010262F30F033B623B6A4FF0010262F317
:103670001F433B627B681B693A6ADA61FB6943F06E
:103680000803FB61FB6943F00103FB61FB6943F045
:103690000403FB61FB6943F00203FB617B681B6968
:1036A000FA695A61BB6943F00103BB61BB6943F02E
:1036B0000803BB61BB6943F00203BB61BB6943F014
:1036C0000403BB61BB6943F02003BB617B681B69DA
:1036D000BA691A617B681B691B687B617B696FF340
:1036E0000A137B617B681B697A691A607868FDF749
:1036F00063FA4FF00003FB60FB6843F48053FB6008
:103700007B68DB68FA685A61054B1B681B6978683F
:1037100098474FF00103184607F12807BD4680BDC2
:103720002C00002080B584B000AF78607868FCF78A
:1037300043FE7B68DB68DB68BB607868FCF714FEDF
:103740000346032B0ED17B684FF000029A707B6812
:103750004FF400729A80BB684FF0090262F38D2328
:10376000BB600DE07B684FF001029A707B684FF000
:1037700040029A80BB684FF0050262F38D23BB6064
:103780007B68DB68BA68DA604FF00003FB60FB68B7
:1037900043F40053FB607B68DB68FA685A614FF0C2
:1037A0000103184607F11007BD4680BD80B584B0FF
:1037B00000AF78604FF00003FB600A4B1B68DB69C9
:1037C00078689847FB6843F48013FB607B68DB688C
:1037D000FA685A614FF00103184607F11007BD4619
:1037E00080BD00BF2C00002080B584B000AF7860A1
:1037F0004FF00003FB600A4B1B681B6A7868984710
:10380000FB6843F40013FB607B68DB68FA685A616D
:103810004FF00103184607F11007BD4680BD00BFF9
:103820002C00002080B487B000AF78600B46FB709E
:103830007B681B691B697B617B681B695B6B3B61F8
:10384000FB783A6922FA03F34FEAC313DBB27A69D1
:1038500013437B61FB787A6803F104034FEA830327
:10386000D3189B689A687B691340FB60FB68184615
:1038700007F11C07BD4680BC704700BF80B485B00F
:1038800000AF78604FF00003FB734FF00003BB60A4
:103890000D4B1A687B681340BB600B4B5A697B6801
:1038A0001340002B06D0BB68002B03D04FF0010360
:1038B000FB7302E04FF00003FB73FB7B184607F13C
:1038C0001407BD4680BC7047003C014080B483B003
:1038D00000AF7860034B7A685A6107F10C07BD4668
:1038E00080BC7047003C014080B584B000AF786078
:1038F000F9703A80BB70FB785BB2002B0EDAFB7874
:1039000003F07F0213464FEA83039B184FEAC30379
:1039100003F58C737A68D318FB600DE0FB7803F035
:103920007F0213464FEA83039B184FEAC30303F554
:103930005C737A68D318FB60FB7803F07F03DAB21C
:10394000FB681A70FB784FEAD313DBB21A46FB68A8
:103950005A703A88FB689A60FB68BA78DA70FB683C
:103960005B78002B04D0FB681B781A46FB68DA8072
:10397000BB78022B03D1FB684FF000021A71786804
:10398000F968FCF759FD4FF00003184607F11007DE
:10399000BD4680BD80B586B000AFF8607A600A464B
:1039A000FA723B81FB7A03F07F0213464FEA8303EE
:1039B0009B184FEAC30303F55C73FA68D3187B6165
:1039C0007B697A68DA603A897B695A617B694FF072
:1039D00000029A617B694FF000025A70FB7A03F093
:1039E0007F03DAB27B691A70FB68DB78012B02D1A6
:1039F0007A687B691A617B691B78002B04D1F868AF
:103A00007969FCF7FDFE03E0F8687969FCF790FD41
:103A10004FF00003184607F11807BD4680BD00BFF0
:103A200080B586B000AFF8607A603B600B46FB72F1
:103A3000FB7A03F07F0213464FEA83039B184FEA99
:103A4000C30303F58C73FA68D3187B617B694FF06D
:103A500001025A70FB7A03F07F03DAB27B691A70B5
:103A60007B697A68DA607A687B691A617B694FF0F2
:103A700000029A617B693A685A617B691B78002B66
:103A800004D1F8687969FCF7BBFE03E0F86879694E
:103A9000FCF74EFD4FF00003184607F11807BD462E
:103AA00080BD00BF80B584B000AF78600B46FB706E
:103AB000FB785BB2002B0EDAFB7803F07F02134633
:103AC0004FEA83039B184FEAC30303F58C737A68AC
:103AD000D318FB600BE0FA7813464FEA83039B1878
:103AE0004FEAC30303F55C737A68D318FB60FB6885
:103AF0004FF001029A70FB7803F07F03DAB2FB68A3
:103B00001A70FB784FEAD313DBB21A46FB685A707F
:103B10007868F968FCF774FF4FF00003184607F166
:103B20001007BD4680BD00BF80B584B000AF78608F
:103B30000B46FB70FB785BB2002B0EDAFB7803F0D0
:103B40007F0213464FEA83039B184FEAC30303F532
:103B50008C737A68D318FB600BE0FA7813464FEA4F
:103B600083039B184FEAC30303F55C737A68D31889
:103B7000FB60FB684FF000029A70FB7803F07F0354
:103B8000DAB2FB681A70FB784FEAD313DBB21A463D
:103B9000FB685A707868F968FCF77CFF4FF0000307
:103BA000184607F11007BD4680BD00BF80B485B040
:103BB00000AF78600B46FB704FF00003FB60FB78B2
:103BC00003F07F03DAB2FB6862F30A13FB607B68E1
:103BD0001B697A6812691168FA680A431A6007F16A
:103BE0001407BD4680BC704780B584B000AF7860D4
:103BF0004FF00003FB607B6803F00703002B05D048
:103C00007B6823F0070303F108037B60FDF798FD51
:103C1000134B1A687B68D21842F2FF339A4212D8CB
:103C20000F4B1A687B68D2180D4B1B689A420AD951
:103C30000B4B1A680B4BD318FB60094B1A687B6857
:103C4000D218074B1A60FDF789FDFB68002B01D1E4
:103C5000FDF70EFCFB68184607F11007BD4680BD56
:103C6000482500204801002080B483B000AF786070
:103C700007F10C07BD4680BC704700BF80B400AFA1
:103C8000034B1B68C3F510531846BD4680BC7047F4
:103C90004825002080B586B000AFF860B9601346B3
:103CA000FB804FF00003FB75FA88FB68C3F83821EE
:103CB000FA88FB68C3F83421FB684FF0020283F8EE
:103CC0001121FB88F8684FF00001BA68FFF7A8FEE1
:103CD000FB7D184607F11807BD4680BD80B586B04C
:103CE00000AFF860B9601346FB804FF00003FB752E
:103CF000FB88F8684FF00001BA68FFF791FEFB7D82
:103D0000184607F11807BD4680BD00BF80B586B0D4
:103D100000AFF860B9601346FB804FF00003FB75FD
:103D2000FB88F8684FF00001BA68FFF733FEFB7DAF
:103D3000184607F11807BD4680BD00BF80B584B0A6
:103D400000AF78604FF00003FB737B684FF0040214
:103D500083F8112178684FF000014FF000024FF016
:103D60000003FFF75DFE7868FCF726FFFB7B184633
:103D700007F11007BD4680BD80B584B000AF786004
:103D80004FF00003FB737B684FF0050283F81121AD
:103D900078684FF000014FF000024FF00003FFF78A
:103DA000F9FD7868FCF708FFFB7B184607F1100760
:103DB000BD4680BD80B485B000AF786039604FF0FB
:103DC0000003FB817B681B88FB817A68284B9A4241
:103DD00013D07A68274B9A420FD07B68B3F1804F9B
:103DE0000BD07A68244B9A4207D07A68234B9A42C8
:103DF00003D07A68224B9A4208D1FB8923F07003E2
:103E0000FB813B685A88FB891343FB817A681D4B11
:103E10009A420CD07A681C4B9A4208D0FB8923F452
:103E20004073FB813B681A89FB891343FB817B68E4
:103E3000FA891A803B685A687B68DA623B681A889C
:103E40007B681A857A680A4B9A4203D07A68094BD4
:103E50009A4204D13B689B7A1A467B681A867B6833
:103E60004FF001029A8207F11407BD4680BC7047EB
:103E70000000014000040140000400400008004030
:103E8000000C0040001000400014004080B483B0DB
:103E900000AF78607B684FF0FF325A607B684FF06C
:103EA00000021A807B684FF000021A817B684FF095
:103EB00000025A807B684FF000029A7207F10C07EB
:103EC000BD4680BC704700BF80B483B000AF78604F
:103ED0000B46FB70FB78002B08D07B681B889BB2DD
:103EE00043F080039AB27B681A8007E07B681B88E6
:103EF0009BB223F080039AB27B681A8007F10C070B
:103F0000BD4680BC704700BF80B483B000AF78600E
:103F10000B46FB70FB78002B08D07B681B889BB29C
:103F200043F001039AB27B681A8007E07B681B8824
:103F30009BB223F001039AB27B681A8007F10C0749
:103F4000BD4680BC704700BF80B485B000AF7860CC
:103F500039604FF000037B814FF00003FB814FF08D
:103F60000003BB817B681B8C9BB223F001039AB2D8
:103F70007B681A847B681B8CFB817B689B88BB8178
:103F80007B681B8B7B817B8923F070037B817B8922
:103F900023F003037B813B681A887B8913437B8171
:103FA000FB8923F00203FB813B689A89FB89134359
:103FB000FB813B685A88FB891343FB817A681E4B5F
:103FC0009A4203D07A681D4B9A4223D1FB8923F091
:103FD0000803FB813B68DA89FB891343FB81FB897A
:103FE00023F00403FB813B689A88FB891343FB8120
:103FF000BB8923F48073BB81BB8923F40073BB812D
:104000003B681A8ABB891343BB813B685A8ABB89C8
:104010001343BB817B68BA899A807B687A891A834B
:104020003B689A687B685A637B68FA891A8407F14F
:104030001407BD4680BC70470000014000040140E9
:1040400080B485B000AF786039604FF000037B81A9
:104050004FF00003FB814FF00003BB817B681B8C9A
:104060009BB223F010039AB27B681A847B681B8C86
:10407000FB817B689B88BB817B681B8B7B817B89F9
:1040800023F4E0437B817B8923F440737B813B688D
:104090001B884FEA03239AB27B8913437B81FB89F8
:1040A00023F02003FB813B689B894FEA03139AB2FC
:1040B000FB891343FB813B685B884FEA03139AB289
:1040C000FB891343FB817A68244B9A4203D07A68B8
:1040D000234B9A422FD1FB8923F08003FB813B685D
:1040E000DB894FEA03139AB2FB891343FB81FB89F7
:1040F00023F04003FB813B689B884FEA03139AB28D
:10410000FB891343FB81BB8923F48063BB81BB899B
:1041100023F40063BB813B681B8A4FEA83039AB296
:10412000BB891343BB813B685B8A4FEA83039AB226
:10413000BB891343BB817B68BA899A807B687A8983
:104140001A833B689A687B689A637B68FA891A8449
:1041500007F11407BD4680BC704700BF0000014056
:104160000004014080B483B000AF78607B684FF0FA
:1041700000021A807B684FF000025A807B684FF083
:1041800000029A807B684FF000029A607B684FF0D3
:1041900000029A817B684FF00002DA817B684FF061
:1041A00000021A827B684FF000025A8207F10C0766
:1041B000BD4680BC704700BF80B485B000AF78605A
:1041C0000B467B804FF00003FB817B681B8BFB81E0
:1041D000FB8923F00803FB81FA897B881343FB8169
:1041E0007B68FA891A8307F11407BD4680BC7047C3
:1041F00080B485B000AF78600B467B804FF0000341
:10420000FB817B681B8BFB81FB8923F40063FB81B3
:104210007B884FEA03239AB2FB891343FB817B68B7
:10422000FA891A8307F11407BD4680BC704700BFA6
:1042300080B483B000AF78600B467B807B886FEAE8
:1042400003039AB27B681A8207F10C07BD4680BC53
:10425000704700BF80B400AFBFF34F8F054A054BD6
:10426000DB6803F4E061044B0B43D360BFF34F8F73
:10427000FEE700BF00ED00E00400FA0580B500AFE6
:104280004FF48030FFF7FAFA0346002B05D0FFF712
:10429000E1FF4FF48030FFF719FB80BD032A70B4B3
:1042A00022D941EA00039B0713D00578013A0C7824
:1042B0000023A54206D01BE010F8015F11F8014F62
:1042C000A54215D1934203F10103F5D1002070BC42
:1042D00070470C460346043104301E682568AE4220
:1042E00008D1043A032AF4D8002ADED11046EEE7BA
:1042F000281BECE721461846002AD6D1F6E700BF76
:10430000032AC9B270B408D82AB10346121803F8B8
:10431000011B9342FBD170BC70478307024409D054
:10432000441C04F00305234604F8011C0134002D4D
:10433000F7D100E00346D51A01EB01243F2D04EB31
:1043400004442CDD1C604033D51A43F83C4C3F2D0F
:1043500043F8384C43F8344C43F8304C43F82C4C79
:1043600043F8284C43F8244C43F8204C43F81C4CA9
:1043700043F8184C43F8144C43F8104C43F80C4CD9
:1043800043F8084C43F8044CDCDC08E01C601033B4
:10439000D51A43F80C4C43F8084C43F8044C0F2D45
:1043A000F4DC032D08DD1D1D561B45F8044C032EBF
:1043B0002B4605F10405F7DC9A42ACD901330132F2
:1043C00003F8011C01339342FAD1A4E741EA000348
:1043D00013F0030F034670B425D0AAB10C78013A4C
:1043E00003F8014B4CB11C4672B111F8015F013A60
:1043F00004F8015B2346002DF6D12AB19A1800215A
:1044000003F8011B9342FBD170BC70470E4651F874
:10441000044BA4F1013525EA040515F0803F05D1D0
:10442000043A43F8044B032AF0D8D6E73146D4E7E0
:1044300049444C4500000000A5A5A5A5A5A5A5A536
:0C444000A5A5A5A5A5A5A5A5A5A5A5A5B4
:10444C00ED100008C11100087D1000088113000850
:10445C00D512000855130008291300081114000880
:10446C0035140008000000000000000000000020CF
:08447C00FFFFFFFFAAAAAAAA94
:0400000508000000EF
:00000001FF
