:020000040800F2
:1000000090460020692B0008CD2B0008CD2B00085E
:10001000CD2B0008CD2B0008CD2B000800000000E0
:10002000000000000000000000000000F56F000864
:10003000CD2B000800000000CD70000809710008F9
:10004000CD2B000891910008CD2B0008CD2B000886
:10005000CD2B0008CD2B0008CD2B0008CD2B0008A0
:10006000CD2B0008CD2B0008CD2B0008CD2B000890
:10007000CD2B0008CD2B0008CD2B0008CD2B000880
:10008000CD2B0008CD2B0008CD2B0008CD2B000870
:10009000CD2B0008CD2B0008CD2B0008CD2B000860
:1000A000CD2B0008CD2B0008CD2B0008CD2B000850
:1000B000CD2B0008CD2B0008C1520008CD2B000825
:1000C000CD2B0008CD2B0008CD2B0008CD2B000830
:1000D000CD2B0008CD2B0008CD2B0008CD2B000820
:1000E000CD2B0008CD2B000859610008CD2B00084E
:1000F000CD2B0008CD2B0008CD2B0008CD2B000800
:10010000CD2B0008CD2B0008CD2B0008CD2B0008EF
:10011000CD2B0008CD2B0008CD2B0008CD2B0008DF
:10012000CD2B0008CD2B0008CD2B0008CD2B0008CF
:10013000CD2B0008CD2B0008CD2B0008CD2B0008BF
:10014000CD2B0008CD2B0008CD2B00088D610008B9
:10015000CD2B0008CD2B0008CD2B0008CD2B00089F
:10016000CD2B0008CD2B0008CD2B0008CD2B00088F
:10017000CD2B0008CD2B0008CD2B0008CD2B00087F
:10018000CD2B0008CD2B000880B485B000AF78607F
:100190004FF00003FB607B68DB684FF0FF325A6072
:1001A0007B68DB684FF0FF325A61FB6843F0004325
:1001B000FB60FB6843F40063FB607B68DB68FA6804
:1001C0009A6107F11407BD4680BC704780B586B0C0
:1001D00000AF78604FF00003FB744FF000037B61C9
:1001E0004FF00003FB604FF0030005F079FF7B68E0
:1001F000DB681B69FB607B6903F101037B617A6942
:100200001A4B9A4202D94FF0000329E0FB68C3F36E
:10021000C073DBB2002BE6D04FF000037B61FB68BC
:1002200043F00103FB607B68DB68FA681A617B6856
:10023000DB681B69FB607B6903F101037B617A6901
:100240000A4B9A4206D8FB68C3F30003DBB2012BCA
:10025000EDD000E000BF4FF0030005F041FFFB7C54
:10026000184607F11807BD4680BD00BF400D0300CA
:1002700080B489B000AFF860B960FA71BB804FF00C
:100280000003FB76FB68DB78002B2CD14FF00003DA
:100290007B614FF00003FB61BB8803F10303002B7C
:1002A00001DA03F103034FEAA3037B61FB79FA68E8
:1002B00003F132034FEA8303D3189B683B614FF08D
:1002C0000003FB610BE0BB681A683B691A60FB69BD
:1002D00003F10103FB61BB6803F10403BB60FA692E
:1002E0007B699A42EFD3FB7E184607F12407BD468F
:1002F00080BC704780B489B000AFF860B960134625
:10030000FB804FF00003FB61FB8803F10303002B2C
:1003100001DA03F103034FEAA303BB61FB68D3F8DF
:10032000D0307B614FF00003FB610BE07B691A6802
:10033000BB681A60FB6903F10103FB61BB6803F151
:100340000403BB60FA69BB699A42EFD3BB681846E5
:1003500007F12407BD4680BC704700BF80B487B05A
:1003600000AF78600B46FB704FF000033B614FF02D
:100370000003FB737B684FF00002DA707B684FF07C
:1003800001029A707B684FF040029A80FB78012B43
:1003900017D14FF0A0433B617B684FF00102DA7246
:1003A0007B684FF008021A707B684FF004025A70A5
:1003B0007B684FF4A072DA807B684FF002021A72F9
:1003C00014E0FB78002B11D14F4B3B617B684FF061
:1003D0000002DA727B684FF00C021A707B684FF0F3
:1003E00006025A707B684FF4A062DA803A697B6833
:1003F000DA603B6903F500631A467B681A614FF0C7
:1004000000037B6123E07B694FEA43123B69D31809
:1004100003F510631A4679687B6903F104034FEA18
:100420008303CB189A607B694FEA43123B69D31868
:1004300003F530631A4679687B6903F114034FEAC8
:100440008303CB185A607B6903F101037B617B68EE
:100450005B781A467B699A42D5D83B6903F580637D
:100460001A467B685A613B6903F588631A467B68C4
:10047000C3F8CC204FF000037B6113E07B694FEAA7
:1004800043123B69D31803F5A0631A4679687B6968
:1004900003F122034FEA8303CB189A607B6903F1CF
:1004A00001037B617B681B781A467B699A42E5D819
:1004B0004FF000037B6113E07B694FEA03323B6935
:1004C000D31803F580531A4679687B6903F1320328
:1004D0004FEA8303CB189A607B6903F101037B61C8
:1004E0007B681B781A467B699A42E5D83B6903F51D
:1004F00060631A467B68C3F80C21FB7B184607F142
:100500001C07BD4680BC70470000044080B588B021
:1005100000AF78604FF00003FB774FF00003BB6142
:100520004FF000037B614FF00003FB607B681B7A98
:10053000012B51D17B68DB689B6B7B617B696FF31F
:1005400010437B617B685B7A002B03D07B6943F4AB
:1005500080137B617B68DB687A699A634FF00003E4
:10056000BB617B68DB68DB68BB61BB696FF38613CB
:10057000BB61BB696FF39653BB61BB6943F010036A
:10058000BB61BB696FF3C303BB61BB696FF3C71387
:10059000BB61BB696FF35143BB61BB696FF3D3436D
:1005A000BB617B68DB68BA69DA607868FFF70EFECA
:1005B0007B68DB78012B40F08980FB684FF00502F7
:1005C00062F34403FB60FB6843F02003FB607B683D
:1005D000DB68FA689A6079E07B68DB68DB68BB619E
:1005E000BB6943F04003BB617B68DB68BA69DA60D2
:1005F0007868FFF7EBFD4FF000037B617B6943F404
:1006000080337B617B681B7A032B03D17B6943F4C6
:1006100000337B617B6943F480237B617B6943F416
:1006200000237B617B6943F400137B617B685B7A09
:10063000002B03D07B6943F480137B617B68DB680C
:100640007A699A634FF0140005F076FD7B68DB68E9
:10065000DB68BB617B681B7A032B03D1BB6943F466
:100660008033BB617B68DB68BA69DA607B681B7AC0
:10067000032B2BD17B68DB681B6B3B613B694FF025
:10068000010262F39B633B613B696FF3D7533B61AC
:100690003B6943F080533B613B694FF02D0262F3AD
:1006A00016433B617B68DB683A691A634FF0C80008
:1006B00005F042FD3B6943F400033B617B68DB6866
:1006C0003A691A634FF0C80005F036FD7B68DB78A5
:1006D000012B11D17B68DB689B68FB60FB684FF0E6
:1006E000050262F34403FB60FB6843F02003FB60F8
:1006F0007B68DB68FA689A60FB7F184607F1200781
:10070000BD4680BD80B485B000AF78604FF0000377
:10071000FB734FF00003BB60BB6843F00103BB6099
:100720007B68DB687A68D2689168BA680A439A6025
:10073000FB7B184607F11407BD4680BC704700BF1D
:1007400080B485B000AF78604FF00003FB734FF0CA
:100750000003BB60BB6843F00103BB607B68DB68E0
:100760007A68D2689168BA686FEA02020A409A60B1
:10077000FB7B184607F11407BD4680BC704700BFDD
:1007800080B586B000AF786039604FF00003FB742D
:100790004FF000037B614FF00003FB60FB6843F008
:1007A0002003FB603B68DBB203F01F03DAB2FB6897
:1007B00062F38A13FB607B68DB68FA681A617B6806
:1007C000DB681B69FB607B6903F101037B617A696C
:1007D0000A4B9A4206D8FB68C3F34013DBB2012BE5
:1007E000EDD000E000BF4FF0030005F079FCFB7C8A
:1007F000184607F11807BD4680BD00BF400D030035
:1008000080B586B000AF78604FF00003FB744FF006
:1008100000037B614FF00003FB60FB6843F01003B3
:10082000FB607B68DB68FA681A617B68DB681B69C0
:10083000FB607B6903F101037B617A690A4B9A4291
:1008400006D8FB68C3F30013DBB2012BEDD000E048
:1008500000BF4FF0030005F043FCFB7C184607F196
:100860001807BD4680BD00BF400D030080B584B0B1
:1008700000AF78600B46FB704FF00003FB737B68A2
:10088000DB68DB68BB60BB686FF35D73BB60BB6834
:100890006FF39E73BB60FB78012B04D1BB6843F000
:1008A0000053BB6006E0FB78002B03D1BB6843F02C
:1008B0008043BB607B68DB68BA68DA604FF0320067
:1008C00005F03AFCFB7B184607F11007BD4680BDDA
:1008D00080B483B000AF78607B68DB685B6903F04D
:1008E0000103184607F10C07BD4680BC704700BFE6
:1008F00080B582B000AF78607868FFF7E9FF034603
:10090000012B0CBF00230123DBB2184607F10807B7
:10091000BD4680BD80B485B000AF78604FF0000365
:10092000FB607B68DB685B69FB607B68DB689B69FD
:10093000FA681340FB60FB68184607F11407BD46D0
:1009400080BC704780B485B000AF78600B46FB7008
:100950007B681B691B68FB60FB7803F00303DAB25A
:10096000FB6862F30103FB607B681B69FA681A602D
:1009700007F11407BD4680BC704700BF80B58CB03E
:1009800000AF78604FF0000387F82B304FF0000382
:100990007B624FF000033B624FF00003FB614FF0BE
:1009A0000003BB614FF000037B617B68D3F80C311F
:1009B0004FF000021A607B681B691B683B623B6A50
:1009C0006FF3CC233B627B681B693A6A1A607B68D1
:1009D000DB7A012B47D178684FF00301FFF7B2FFB4
:1009E0007B68DB684FF080025A62FB694FF020029F
:1009F00062F31F43FB61FB694FF0800262F30F0358
:100A0000FB617B68DB68FA699A62BA8BFB8BD3184F
:100A10009BB23B83BB694FF0800262F31F43BB6113
:100A20007B68DB68BA69C3F804213A8B7B8BD318E7
:100A30009BB23B83BB694FF0200262F31F43BB6153
:100A40007B68DB68BA69C3F808213A8B7B8BD318C3
:100A50009BB23B83BB696FF31F43BB617B68DB6861
:100A6000BA69C3F80C2178684FF01001FFF788FECF
:100A70007868FFF7C5FE7B681B694FF000021A61BA
:100A80007B681B694FF000025A617B681B694FF05D
:100A9000FF329A617B681B694FF00002DA614FF008
:100AA0000003FB6242E07A68FB6A03F104034FEA49
:100AB0008303D3189B681B687B627B6AC3F3C07394
:100AC000DBB2002B0BD04FF000037B627B6A43F05C
:100AD00080437B627B6A43F000637B6202E04FF0FD
:100AE00000037B627A68FB6A03F104034FEA830325
:100AF000D3189B687A6A1A607A68FB6A03F1040368
:100B00004FEA8303D3189B684FF000021A617A689A
:100B1000FB6A03F104034FEA8303D3189B684FF089
:100B2000FF029A60FB6A03F10103FB627B685B785A
:100B30001A46FB6A9A42B6D84FF00003FB6242E0C5
:100B40007A68FB6A03F114034FEA8303D3185B68E6
:100B50001B68FB60FB68C3F3C073DBB2002B0BD0D8
:100B60004FF00003FB60FB6843F08043FB60FB68D1
:100B700043F00063FB6002E04FF00003FB607A6823
:100B8000FB6A03F114034FEA8303D3185B68FA6826
:100B90001A607A68FB6A03F114034FEA8303D318DF
:100BA0005B684FF000021A617A68FB6A03F1140374
:100BB0004FEA8303D3185B684FF0FF029A60FB6A29
:100BC00003F10103FB627B685B781A46FB6A9A4279
:100BD000B6D84FF000037B617B6943F480737B617F
:100BE0007B681B697A68126911697A696FEA020287
:100BF00011407A690A431A617B68DB78012B1ED1A8
:100C00004FF000033B613B6943F001033B613B69EB
:100C100043F002033B613B694FF0400262F38A03F9
:100C20003B613B6943F480333B613B694FF04002D9
:100C300062F359433B617B681B693A691A637868C0
:100C400000F008F897F82B30184607F13007BD463A
:100C500080BD00BF80B584B000AF78604FF0000366
:100C6000FB734FF00003BB607B68DB684FF0000252
:100C70009A617B68DB684FF0FF325A617868FFF752
:100C800083FA7B68DB78002B03D1BB6843F0100349
:100C9000BB60BB6843F40063BB60BB6843F4805334
:100CA000BB60BB6843F40053BB60BB6843F4802364
:100CB000BB60BB6843F40023BB60BB6843F0080320
:100CC000BB60BB6843F48013BB60BB6843F4001394
:100CD000BB607B68DB687A68D2689169BA686FEA42
:100CE00002021140BA680A439A61FB7B184607F179
:100CF0001007BD4680BD00BF80B485B000AF7860EE
:100D00004FF00003FB737B681B699B68BB60BB688B
:100D1000C3F34103DBB2022B0BD0032B05D0012B15
:100D200003D04FF00303FB7307E04FF00203FB73A4
:100D300003E04FF00103FB7300BFFB7B184607F194
:100D40001407BD4680BC704780B487B000AF7860A0
:100D50004FF00003FB754FF00003BB607B681B691D
:100D60009B683B617B689B691B68FB603B69C3F3C5
:100D70004103DBB2022B04D0FB686FF30A03FB6074
:100D800006E0FB684FF0030262F30A03FB6000BF5A
:100D90007B689B69FA681A60BB6843F48073BB6028
:100DA0007B681B697A6812695168BA686FEA020247
:100DB0001140BA680A435A60FB7D184607F11C07C8
:100DC000BD4680BC704700BF80B487B000AF78607C
:100DD00039604FF00003FB744FF00003FB604FF0ED
:100DE0000003BB603B685B78012B12D13B681B782A
:100DF0007A6803F104034FEA8303D3189B687B618D
:100E00003B681B784FF0010202FA03F39BB23B816F
:100E100014E03B681B787A6803F114034FEA8303FC
:100E2000D3185B687B613B681B784FF0010202FAC4
:100E300003F39AB2BB6862F31F43BB607B691B6814
:100E4000FB60FB68C3F3C033DBB2002B29D13B68E6
:100E50009B689BB24FEA43534FEA53539AB2FB68E5
:100E600062F30A03FB603B68DB7803F00303DAB24A
:100E7000FB6862F39343FB603B68DB88DBB203F003
:100E80000F03DAB2FB6862F39953FB60FB6843F02F
:100E90008053FB60FB6843F40043FB60FA687B69A6
:100EA0001A607B681B697A681269D169BA680A435B
:100EB000DA61FB7C184607F11C07BD4680BC704711
:100EC00080B487B000AF786039604FF00003FB74E6
:100ED0004FF00003FB604FF00003BB603B685B78A2
:100EE000012B12D13B681B787A6803F104034FEAA7
:100EF0008303D3189B687B613B681B784FF001022A
:100F000002FA03F39BB23B8114E03B681B787A68DA
:100F100003F114034FEA8303D3185B687B613B68DA
:100F20001B784FF0010202FA03F39AB2BB6862F336
:100F30001F43BB60FB686FF3CF33FB60FA687B69CC
:100F40001A607B681B697A681269D169BA686FEAAE
:100F500002020A40DA61FB7C184607F11C07BD4615
:100F600080BC704780B588B000AF786039604FF0C2
:100F70000003FB774FF00003BB614FF000037B6180
:100F80004FF000033B613B685B78012B40F0BD8074
:100F90003B681B787A6803F104034FEA8303D31894
:100FA0009B681B687B613B681B787A6803F10403CC
:100FB0004FEA8303D3189B681B693B613B685B69FD
:100FC000002B0AD13B696FF312033B613B694FF081
:100FD000010262F3DC433B6128E03B685B6923F07C
:100FE0007F4222F478023B6962F312033B613B6863
:100FF0005A693B689B68D31803F1FF323B689B68D2
:10100000B2FBF3F39BB24FEA83534FEA93539AB286
:101010003B6962F3DC433B613B68DB78012B05D124
:101020003B694FF0010262F35E733B613B681B78E2
:101030007A6803F104034FEA8303D3189B683A6983
:101040001A617B68DB78012B0CD13B681B787A68CE
:1010500003F104034FEA8303D3189B683A681269CB
:101060005A6116E03B68DB78012B12D03B685B6964
:10107000002B0ED03B681B784FF0010202FA03F3FD
:10108000BB617B681B697A681269516BBA690A4354
:101090005A633B68DB78012B14D17B681B699B6822
:1010A000FB60FB68C3F30D239BB203F00103002B2D
:1010B00004D17B6943F000537B6103E07B6943F01B
:1010C00080537B617B6943F080637B617B6943F084
:1010D00000437B613B681B787A6803F104034FEAA5
:1010E0008303D3189B687A691A603B68DB78012B0D
:1010F00040F09A803B68D9683B681A783B685B6926
:101100009BB27868FFF7B4F88EE03B681B787A688A
:1011100003F114034FEA8303D3185B681B687B61F8
:101120003B681B787A6803F114034FEA8303D318F2
:101130005B681B693B613B685B69002B10D13B68B6
:101140009B6823F07F4222F478023B6962F312032A
:101150003B613B694FF0010262F3DC433B6124E0F9
:101160003B685A693B689B68D31803F1FF323B68C0
:101170009B68B2FBF3F39BB24FEA83534FEA93535E
:101180009AB23B6962F3DC433B613B69C3F3C943F9
:101190009BB23A68926802FB03F323F07F4222F489
:1011A00078023B6962F312033B613B681B787A6803
:1011B00003F114034FEA8303D3185B683A691A6199
:1011C0007B68DB78012B0BD13B681B787A6803F1D5
:1011D00014034FEA8303D3185B683A6812695A61B3
:1011E0003B68DB78012B0CD13B685B79002B04D08A
:1011F0007B6943F000537B6103E07B6943F08053DC
:101200007B617B6943F080637B617B6943F00043D2
:101210007B613B681B787A6803F114034FEA830310
:10122000D3185B687A691A60FB7F184607F12007BC
:10123000BD4680BD80B489B000AF786039604FF0A2
:101240000003FB774FF00003BB614FF000033B61ED
:101250004FF00003BB603B685B78012B75D17B6866
:101260009B697B617B691B683B617B691B69BB6018
:101270003B685B69002B0AD13B7A6FF306033B7234
:10128000BB7A4FF0010262F3C403BB7224E03B68F7
:101290005A693B689B689A420ED93B689A683B68DA
:1012A0005A613B689B68DBB203F07F03DAB23B7A9A
:1012B00062F306033B7209E03B685B69DBB203F053
:1012C0007F03DAB23B7A62F306033B72BB7A4FF0DC
:1012D000010262F3C403BB72BA687B691A617B685E
:1012E000DB78012B0BD13B681B787A6803F1040390
:1012F0004FEA8303D3189B683A6812695A613B69C5
:1013000043F080633B613B6943F000433B613A69D2
:101310007B691A607B68DB78002B40F083803B6838
:101320005B69002B7ED03B681B784FF0010202FA0C
:1013300003F3BA691343BB617B681B697A6812695E
:10134000516BBA690A435A636CE03B681B787A6850
:1013500003F114034FEA8303D3185B681B683B61F6
:101360003B681B787A6803F114034FEA8303D318B0
:101370005B681B69BB603B685B69002B10D13B68F5
:101380009B68DBB203F07F03DAB23B7A62F30603B9
:101390003B72BB7A4FF0010262F3C403BB7213E0ED
:1013A0003B689A683B685A613B689B68DBB203F014
:1013B0007F03DAB23B7A62F306033B72BB7A4FF0EB
:1013C000010262F3C403BB723B681B787A6803F1C5
:1013D00014034FEA8303D3185B68BA681A617B6809
:1013E000DB78012B0BD13B681B787A6803F114037F
:1013F0004FEA8303D3185B683A6812695A613B6904
:1014000043F080633B613B6943F000433B613B68D1
:101410001B787A6803F114034FEA8303D3185B68DF
:101420003A691A60FB7F184607F12407BD4680BC65
:10143000704700BF80B487B000AF786039604FF06C
:101440000003FB754FF00003FB603B685B78012BEA
:101450001ED13B681B787A6803F104034FEA8303CB
:10146000D3189B683B613B691B68FB60FB68C3F357
:10147000C073DBB2002B03D0FB6843F08043FB60FA
:10148000FB6843F40013FB60FA683B691A6013E0E1
:101490003B681B787A6803F114034FEA8303D3187F
:1014A0005B683B613B691B68FB60FB6843F40013AE
:1014B000FB60FA683B691A60FB7D184607F11C0760
:1014C000BD4680BC704700BF80B487B000AF786075
:1014D00039604FF00003FB744FF00003FB603B6882
:1014E0005B78012B0AD13B681B787A6803F104030F
:1014F0004FEA8303D3189B687B6109E03B681B7844
:101500007A6803F114034FEA8303D3185B687B61A5
:101510007B691B68FB60FB686FF35553FB603B689E
:10152000DB78032B03D03B68DB78022B03D1FB680D
:1015300043F08053FB60FA687B691A60FB7C1846B5
:1015400007F11C07BD4680BC704700BF80B485B062
:1015500000AF78607B681B699B69FB607B681B69D7
:10156000DB69FA681340FB60FB684FEA13431846D7
:1015700007F11407BD4680BC704700BF80B485B03A
:1015800000AF78600B46FB70FB787A6803F11403B8
:101590004FEA8303D3185B689B68FB607B681B6919
:1015A0005B69FA681340FB60FB68184607F1140793
:1015B000BD4680BC704700BF80B485B000AF786086
:1015C0007B681B699B69FB607B681B69DB69FA6848
:1015D0001340FB60FB684FEA03434FEA134318468E
:1015E00007F11407BD4680BC704700BF80B487B0C8
:1015F00000AF78604FF000033B61FB7C43F0C00319
:10160000FB74BB7C4FF0010262F3C403BB743B7CF0
:101610004FF0180262F306033B747B685B6D3A6916
:101620001A617B68DB78012B17D14FF00003FB6058
:101630007B685B6D7A6802F5B9625A617B685B6DA5
:101640001B68FB60FB6843F00043FB604FF08023A6
:10165000FB607B685B6DFA681A6007F11C07BD468A
:1016600080BC704780B485B000AF78607B689B7A9F
:10167000002B1BD07B681B699B68FB60FB68C3F376
:101680000003DBB2012B11D17B6803F586731B6865
:10169000BB60BB686FF34103BB60BB686FF30003C3
:1016A000BB607B68D3F80C31BA681A6007F1140785
:1016B000BD4680BC704700BF80B400AFBD4680BC53
:1016C000704700BF80B400AFBD4680BC704700BF0C
:1016D00080B487B000AF786013460A467A803B80BA
:1016E0004FF00003FB754FF00003FB813A4B4FF0C6
:1016F00013021A704FF00003FB8113E0FB894FEADD
:101700008302364BD318FA8935494FF0980000FB15
:1017100002F28A1802F1880212681A60FB8903F14A
:101720000103FB81FB89062BE8D92E4B2C4AD2F80A
:1017300044241A602C4B2A4AD2F848241A60284BB9
:10174000B3F85024254B9A84284B1B787A889A4208
:1017500037D37A883B88D218244B1B7819461E4B06
:101760001B78CB189A422CDC7A88214B1B78D31A31
:101770003B6122E0194B3A6933F812309BB24FEAD1
:1017800013239BB2DAB27B681A707B6803F1010302
:101790007B60124B3A6933F812309BB2DAB27B6845
:1017A0001A707B6803F101037B603B6903F101035D
:1017B0003B613B8803F1FF333B803B88002BD9D151
:1017C00002E04FF00103FB75FB7D184607F11C0793
:1017D000BD4680BC704700BF06000020C00100204D
:1017E000682E0020DC010020E00100200400002021
:1017F0000800002080B592B000AFF86079813A818E
:10180000FB714FF0000387F84730FB68BB634FF074
:101810000003FB87A74B1B787A899A42C0F0A88403
:101820007A893B89D218A34B1B781946A24B1B78A7
:10183000CB189A4200F39C847A89A04B1B78D31A68
:101840003B649D4B4FF020021A70FB79002B04D0B3
:10185000012B00F0878400F08ABC4FF00003FB8767
:1018600010E0974B1A68FB8F4FEA8303D318F98F68
:10187000944A01F58B7152F821201A60FB8F03F115
:101880000103FB87FB8F062BEBD98D4B1B6803F104
:101890001C038C4AD2F874241A60894B1B6803F12C
:1018A0002003884AD2F878241A60854B1B6803F11C
:1018B0002403844AD2F87C241A60814B1B6803F10C
:1018C0002803804AD2F880241A607D4B1B6803F1FC
:1018D0002C037C4AD2F884241A60794B1B6803F1EC
:1018E0003003784AD2F888241A60754B1B6803F1DC
:1018F0003403744AD2F88C241A60714B1B6803F1CC
:101900003803704AD2F890241A606D4B1B6803F1BB
:101910003C036C4AB2F894241A80694B1B6803F1AB
:101920003E03684AB2F896241A8026E0644B1A688F
:101930003B6C4FEA4303D3181B884FEA13239BB237
:10194000DAB2FB681A70FB6803F10103FB605C4BC1
:101950001A683B6C4FEA4303D3181B88DAB2FB6862
:101960001A70FB6803F10103FB603B6C03F1010398
:101970003B643B8903F1FF333B813B89002BD5D18D
:10198000F5E33B6C002B68DB3B6C0D2B65DC4E4BB1
:101990007B6307F1340303F10103FA6812781A70CC
:1019A000FB6803F10103FB6007F13403FA68127866
:1019B0001A70FB6803F10103FB6007F1340303F1C4
:1019C0000303FA6812781A70FB6803F10103FB60E5
:1019D00007F1340303F10203FA6812781A70FB6806
:1019E00003F10103FB607B6B1846374908F0BAFA34
:1019F0000346002B28D07B6B1846344908F0A8FA20
:101A00000346002B20D03B6C4FEA6302796B2D4BD1
:101A100002F58B7243F822102A4BD3F898243B6CC2
:101A20004FEA63034FEA8303D2183B6C4FEA630328
:101A300003F58B734FEA8301224BCB1810461946EE
:101A40004FF0040201F0D6F83B6C03F102033B6453
:101A50003B89A3F102033B8184E33B6CA3F10E03BA
:101A6000112B00F2778301A252F823F0D11A00085B
:101A7000552100087B1B000855210008251C000883
:101A800055210008CF1C000855210008A11D0008A1
:101A9000552100084B1E000855210008F51E0008BE
:101AA000552100089F1F0008552100087D200008CF
:101AB000EB2000080500002007000020090000209E
:101AC00000000020682E00200000000000004843B5
:101AD000AE4B3B6307F1300303F10103FA68127860
:101AE0001A70FB6803F10103FB6007F13003FA6829
:101AF00012781A70FB6803F10103FB6007F13003F1
:101B000003F10303FA6812781A70FB6803F101030A
:101B1000FB6007F1300303F10203FA6812781A70D0
:101B2000FB6803F10103FB603B6C03F102033B64C0
:101B30003B89A3F102033B813B6B1846934908F0B4
:101B400011FA0346002B17D03B6B1846904908F05A
:101B5000FFF90346002B0FD03A6B874BC3F8742470
:101B6000854BD3F8983403F11C03184683494FF092
:101B7000040201F03FF8F5E2F4E2844BFB6207F166
:101B80002C0303F10103FA6812781A70FB6803F161
:101B90000103FB6007F12C03FA6812781A70FB68E6
:101BA00003F10103FB6007F12C0303F10303FA685F
:101BB00012781A70FB6803F10103FB6007F12C0334
:101BC00003F10203FA6812781A70FB6803F101034B
:101BD000FB603B6C03F102033B643B89A3F102030E
:101BE0003B81FB6A1846694908F0BCF90346002BA3
:101BF00017D0FB6A1846664908F0AAF90346002B7D
:101C00000FD0FA6A5C4BC3F878245B4BD3F8983456
:101C100003F1200318465A494FF0040200F0EAFF8E
:101C2000A0E29FE2594BBB6207F1280303F10103D5
:101C3000FA6812781A70FB6803F10103FB6007F180
:101C40002803FA6812781A70FB6803F10103FB603D
:101C500007F1280303F10303FA6812781A70FB688E
:101C600003F10103FB6007F1280303F10203FA68A3
:101C700012781A70FB6803F10103FB603B6C03F1FF
:101C800002033B643B89A3F102033B81BB6A184614
:101C90003E4908F067F90346002B17D0BB6A184687
:101CA0003C4908F055F90346002B0FD0BA6A324B75
:101CB000C3F87C24304BD3F8983403F1240318463E
:101CC00030494FF0040200F095FF4BE24AE22F4BFF
:101CD0007B6207F1240303F10103FA6812781A709A
:101CE000FB6803F10103FB6007F12403FA68127833
:101CF0001A70FB6803F10103FB6007F1240303F191
:101D00000303FA6812781A70FB6803F10103FB60A1
:101D100007F1240303F10203FA6812781A70FB68D2
:101D200003F10103FB603B6C03F102033B643B895D
:101D3000A3F102033B817B6A1846174908F012F9A8
:101D40000346002B17D07B6A1846144908F000F9A7
:101D50000346002B0FD07A6A074BC3F88024064B4A
:101D6000D3F8983403F12803184607494FF00402CA
:101D700000F040FFF6E1F5E1682E0020DC320020A3
:101D8000E0320020E4320020E832002000000000B1
:101D90000000484300401C460000C8C20000C84282
:101DA000AE4B3B6207F1200303F10103FA6812789E
:101DB0001A70FB6803F10103FB6007F12003FA6866
:101DC00012781A70FB6803F10103FB6007F120032E
:101DD00003F10303FA6812781A70FB6803F1010338
:101DE000FB6007F1200303F10203FA6812781A700E
:101DF000FB6803F10103FB603B6C03F102033B64EE
:101E00003B89A3F102033B813B6A1846944908F0E1
:101E1000A9F80346002B17D03B6A1846914908F0F1
:101E200097F80346002B0FD03A6A874BC3F88424F7
:101E3000854BD3F8983403F12C03184683494FF0AF
:101E4000040200F0D7FE8DE18CE1844BFB6107F1C9
:101E50001C0303F10103FA6812781A70FB6803F19E
:101E60000103FB6007F11C03FA6812781A70FB6823
:101E700003F10103FB6007F11C0303F10303FA689C
:101E800012781A70FB6803F10103FB6007F11C0371
:101E900003F10203FA6812781A70FB6803F1010378
:101EA000FB603B6C03F102033B643B89A3F102033B
:101EB0003B81FB691846694908F054F80346002B3A
:101EC00017D0FB691846684908F042F80346002B12
:101ED0000FD0FA695C4BC3F888245B4BD3F8983475
:101EE00003F1300318465A494FF0040200F082FE15
:101EF00038E137E1594BBB6107F1180303F10103E6
:101F0000FA6812781A70FB6803F10103FB6007F1AD
:101F10001803FA6812781A70FB6803F10103FB607A
:101F200007F1180303F10303FA6812781A70FB68CB
:101F300003F10103FB6007F1180303F10203FA68E0
:101F400012781A70FB6803F10103FB603B6C03F12C
:101F500002033B643B89A3F102033B81BB69184642
:101F6000424907F0FFFF0346002B17D0BB69184614
:101F70003F4907F0EDFF0346002B0FD0BA69324B03
:101F8000C3F88C24304BD3F8983403F1340318464B
:101F900030494FF0040200F02DFEE3E0E2E02F4B69
:101FA0007B6107F1140303F10103FA6812781A70D8
:101FB000FB6803F10103FB6007F11403FA68127870
:101FC0001A70FB6803F10103FB6007F1140303F1CE
:101FD0000303FA6812781A70FB6803F10103FB60CF
:101FE00007F1140303F10203FA6812781A70FB6810
:101FF00003F10103FB603B6C03F102033B643B898B
:10200000A3F102033B817B6918461A4907F0AAFF36
:102010000346002B17D07B691846174907F098FF35
:102020000346002B0FD07A69074BC3F89024064B68
:10203000D3F8983403F13803184607494FF00402E7
:1020400000F0D8FD8EE08DE0682E0020EC320020FC
:10205000F0320020F4320020F832002000000000AE
:1020600000401CC600401C460000204100002042E9
:102070000000C842000020C1000080BF4FF00003F4
:102080007B8207F1120303F10103FA6812781A70D8
:10209000FB6803F10103FB6007F11203FA68127891
:1020A0001A70FB6803F10103FB603B6C03F1010351
:1020B0003B643B8903F1FF333B817B8A092B4ED97B
:1020C0007A8A42F210739A4249D87A8A2E4BA3F840
:1020D00094242D4BD3F8983403F13C0318462B4934
:1020E0004FF0020200F086FD39E04FF000033B8222
:1020F00007F1100303F10103FA6812781A70FB6804
:1021000003F10103FB6007F11003FA6812781A70FB
:10211000FB6803F10103FB603B6C03F101033B64CB
:102120003B8903F1FF333B813B8A042B19D93B8A5E
:102130001E2B16D83A8A144BA3F89624124BD3F8C8
:10214000983403F13E03184611494FF0020200F0A3
:1021500051FD06E03B8903F1FF333B8102E000BF04
:1021600000E000BF3B89002B7FF40BAC00BF03E015
:102170004FF0010387F8473097F84730184607F1CA
:102180004807BD4680BD00BF682E0020FC320020FD
:10219000FE32002080B485B000AFF86079813A81CA
:1021A000FB714FF00103184607F11407BD4680BCD0
:1021B000704700BF80B483B000AF786013460A4612
:1021C0007A803B804FF00103184607F10C07BD46AB
:1021D00080BC704780B584B000AF3B600346FB71A4
:1021E0000B46BB7113467B714FF00003FB73BB7949
:1021F000002B05D0BB79002B02D0BB79F72B03D97C
:102200004FF00203FB7340E0234BBA791A70FB795D
:10221000002B24D1214B224A1A60224B224A1A60F9
:10222000224B234A1A60234B234A1A60234B4FF058
:1022300000021A60224B234A1A60234B234A1A6079
:10224000234B244A1A60144B19787A793B7E08464E
:1022500011463A6803F00EFA0346FB7302E04FF0B2
:102260000203FB73FB7B002B0FD100F025FA034622
:10227000002B03D14FF00303FB7306E0164BFA79F2
:102280001A70164B4FF001021A70FB7B184607F1CB
:102290001007BD4680BD00BFC0020020C80200205C
:1022A000F9560008CC02002025570008C40200207F
:1022B000C9570008D002002045570008D40200206A
:1022C00060280020A95800085828002065590008F7
:1022D0005C280020F1590008C10200200C000020F9
:1022E00080B582B000AF4FF00003FB710A4B1B7842
:1022F000012B07D1094B1B689847074B4FF0000291
:102300001A7002E04FF00603FB71FB79184607F1E3
:102310000807BD4680BD00BF0C000020C802002099
:1023200080B582B000AF4FF00003FB70574B1B78B5
:10233000002B02D04FF00603A2E007F1020318467B
:1023400000F0E0F90346012B40F09880BB78032BA6
:1023500000F2948001A252F823F000BF7D2400080F
:102360006D230008A12300087D240008484B1B684A
:1023700048484949494A98470346FB70FB78002B77
:1023800079D1444B1A78464B1B789A4203D0414B83
:102390001B78002B6FD14FF0020000F09BF96AE030
:1023A0003D4B1B681A783F4B1A703F4B4FF00102B0
:1023B0001A704FF000037B6021E03C4B7A6813F801
:1023C0003230002B1FD0394B7A6813F83220354B4E
:1023D0001B789A420FD1354A7B684FEAC303D31862
:1023E0005B682D4A126810462C49984703461A46E6
:1023F0002D4B1A7008E07B6803F101037B607B685A
:102400000F2BDADD00E000BF224B1B78002B34D00D
:10241000254B1B78002B22D0204B4FF000021A8056
:102420001D4B19681D4B1B881A468A181D490978CF
:1024300061F07F01C9B2117003F101039AB2174B29
:102440001A80154B1968154B1B881A468A181649AD
:102450000978117003F101039AB2104B1A80144BE2
:102460001B680F4A10780C4A11680C4A128898476A
:102470000346FB7001E000BF00E000BF4FF0000327
:10248000184607F10807BD4680BD00BF0C000020BC
:10249000D0020020D8020020DC020020E002002050
:1024A000C0020020E2020020E30200201000002011
:1024B000C402002080B586B004AF4FF00003009343
:1024C0004FF000004FF00A014FF000024FF461435B
:1024D000FFF780FE0346FB714FF0010300934FF0BE
:1024E000000301934FF0000302934FF000030393A6
:1024F000054806494FF480724FF0000301F07EFC5E
:1025000007F10807BD4680BD1125000894A2000808
:1025100080B582B000AF7860FFF7E2FE084B4FF065
:1025200000021A71FFF7FCFE4FF00A0001F03AFDBD
:10253000034B1B6803F10102014B1A60F2E700BF75
:102540000433002080B586B000AF786039604FF06A
:102550000003BB753B681B88052B40F081807B68BE
:1025600003F101031B784FEA0323BB827B6803F16D
:1025700002031B781A46BB8A1343BB82BB8A03F152
:102580000103BB827B6803F103031B784FEA03233B
:102590007B827B6803F104031B781A467B8A134312
:1025A0007B827B8A002B57D07A8A40F2CF739A4283
:1025B00052D87B68FB603B684FF000021A80FB68D2
:1025C0004FF002021A70FB6803F10103FB603B68E5
:1025D0001B8803F101039AB23B681A807B8A03F0DF
:1025E0000703002B08D07B8A4FEAD3039BB2DBB2F0
:1025F00003F10103FB7504E07B8A4FEAD3039BB22E
:10260000FB75FB68FA7D1A70FB6803F10103FB6040
:102610003B681B8803F101039AB23B681A80BA8AAF
:102620007B8AF86811461A46FFF7C4FD0346FB7221
:10263000FB7A002B06D0FB7A184600F071FA0346AD
:10264000BB7510E03B681A88FB7D9BB2D3189AB229
:102650003B681A8000BF06E04FF00303BB7502E041
:102660004FF00303BB75BB7D184607F11807BD4645
:1026700080BD00BF80B400AFBD4680BC704700BFC6
:1026800080B483B000AF0346FB7107F10C07BD4671
:1026900080BC704780B400AFBD4680BC704700BFAF
:1026A00080B400AFBD4680BC704700BF80B400AFAF
:1026B000BD4680BC704700BF80B400AF044B4FF0F4
:1026C00000021A704FF001031846BD4680BC7047E7
:1026D000E502002080B483B000AF0346FB71074BD6
:1026E0004FF001021A70064BFA791A704FF001038D
:1026F000184607F10C07BD4680BC7047E502002074
:10270000E402002080B485B000AF78604FF0000391
:10271000FB730B4B1B78002B0AD00A4B1A787B6893
:102720001A70074B4FF000021A704FF00103FB7351
:10273000FB7B184607F11407BD4680BC704700BFFD
:10274000E5020020E402002080B586B004AF4FF01F
:1027500002004FF0010100F075FF4FF004004FF050
:10276000010100F06FFF4FF480633B604FF0000306
:102770007B714FF001033B714FF00003BB714FF0D1
:102780000003FB713B461148194602F0B5FB0F48A8
:102790004FF480614FF0000202F08CFC4FF0010317
:1027A00000930B4B01934FF0000302934FF0000393
:1027B0000393084808494FF040024FF0000301F02E
:1027C0001DFB07F10807BD4680BD00BF00040240A5
:1027D0006C280020DD2700089CA2000880B582B08C
:1027E00000AF7860704B1B78012B40F0D5806E4BAA
:1027F0005B78072B00F2CC8001A252F823F000BFD7
:10280000212800084F2800087D280008AB28000870
:10281000D92800080729000835290008632900087D
:1028200062484FF480614FF0010202F043FC4FF424
:10283000FA7001F0B7FB5D484FF480614FF0000281
:1028400002F038FC4FF4FA7001F0ACFBA4E05748FA
:102850004FF480614FF0010202F02CFC4FF0640055
:1028600001F0A0FB51484FF480614FF0000202F0EC
:1028700021FC4FF0C80001F095FB8DE04B484FF470
:1028800080614FF0010202F015FC4FF0640001F08E
:1028900089FB46484FF480614FF0000202F00AFCC9
:1028A0004FF0C80001F07EFB76E040484FF48061B5
:1028B0004FF0010202F0FEFB4FF0640001F072FBEA
:1028C0003A484FF480614FF0000202F0F3FB4FF002
:1028D000C80001F067FB5FE034484FF480614FF0BF
:1028E000010202F0E7FB4FF0640001F05BFB2F48B0
:1028F0004FF480614FF0000202F0DCFB4FF0C800A3
:1029000001F050FB48E029484FF480614FF001028C
:1029100002F0D0FB4FF0640001F044FB23484FF479
:1029200080614FF0000202F0C5FB4FF0C80001F0DB
:1029300039FB31E01D484FF480614FF0010202F095
:10294000B9FB4FF0640001F02DFB18484FF4806193
:102950004FF0000202F0AEFB4FF0C80001F022FB86
:102960001AE012484FF480614FF0010202F0A2FB1E
:102970004FF0640001F016FB0C484FF480614FF0FB
:10298000000202F097FB4FF0C80001F00BFB03E0E0
:102990004FF4FA7001F006FB054B9B6803F101024E
:1029A000034B9A601EE700BF70280020000402401D
:1029B0000433002080B582B000AF02460B46FA71A6
:1029C000BB71BB7903F00103002B11D0194B1B78AD
:1029D000002B08D1184B1B68184601F08FFB154BD4
:1029E0004FF001021A70154B4FF000021A7317E0F6
:1029F000104B1B78012B08D10F4B1B68184601F0B8
:102A0000FDFA0C4B4FF000021A700C4B4FF0010214
:102A10001A730B484FF480614FF0000202F04AFB3A
:102A2000FB7903F00703DAB2024B5A7007F108078B
:102A3000BD4680BD702800206C2800200433002093
:102A40000004024080B582B000AF786039607B68D6
:102A500003F101020A4B1B8810460A491A4607F087
:102A6000C7FA074B1B8803F101039AB23B681A802F
:102A70004FF00003184607F10807BD4680BD00BFB0
:102A800008030020E802002080B483B000AF0346B2
:102A9000FB71044BFA791A6007F10C07BD4680BC44
:102AA000704700BF20000E4280B485B000AF786050
:102AB0004FF00003FB60094B1B68FB60FB6823F0D1
:102AC000E003FB60FA687B681343FB60034BFA6822
:102AD0001A6007F11407BD4680BC704700700040C3
:102AE00080B483B000AF0346FB71044BFA791A60DF
:102AF00007F10C07BD4680BC704700BF10000E42B6
:102B000080B483B000AF0346FB71044BFA791A60BE
:102B100007F10C07BD4680BC704700BFA4000E4201
:102B200080B485B000AF0346FB71FB79012B07D061
:102B3000072B09D0002B0BD14FF00003FB730BE0E8
:102B40004FF00203FB7307E04FF00603FB7303E053
:102B50004FF00403FB7300BFFB7B184607F114071B
:102B6000BD4680BC704700BF80B582B000AF124B3D
:102B70007B60124B3B600BE07B681A683B681A6015
:102B80003B6803F104033B607B6803F104037B6053
:102B90003A680B4B9A42EFD30A480B494FF00002B8
:102BA0008842B8BF40F8042BFFF6FAAF00F0CAFC29
:102BB00007F10807BD4680BD78A500080000002089
:102BC000C0010020C0010020903E002080B400AF72
:102BD000FEE700BF80B500AF4FF480204FF0010149
:102BE00000F030FD4FF080504FF0010100F06AFD21
:102BF00080BD00BF80B586B000AFF860B9601346F5
:102C0000FB714FF00003FB75184B3B614FF0010067
:102C1000FFF73AFF4FF00100FFF772FF4FF000039C
:102C2000FB750BE0FB7DFA68D318FA7DB9688A184A
:102C300012781A70FB7D03F10103FB75FA7DFB79B5
:102C40009A42EFD30A4BD3F8983418464FF040011C
:102C500000F098FD0346DAB23B691A704FF00000AD
:102C6000FFF712FF07F11807BD4680BD4040024044
:102C7000682E002080B483B000AF0346FB80044B75
:102C8000FA881A6007F10C07BD4680BC704700BF88
:102C90000030004080B483B000AF0346FB71044BAA
:102CA000FA795A6007F10C07BD4680BC704700BF37
:102CB0000030004080B483B000AF0346FB80044B7B
:102CC000FA889A6007F10C07BD4680BC704700BFC8
:102CD0000030004080B400AF034B4AF6AA221A60CD
:102CE000BD4680BC704700BF0030004080B400AFDC
:102CF000034B4CF6CC421A60BD4680BC704700BF07
:102D00000030004080B584B000AF786039604FF08B
:102D10000003FB733B681B88052B2AD17B6803F1FA
:102D200001031B784FEA0323BB817B6803F1020395
:102D30001B781A46BB891343BB81BB8903F101038E
:102D4000BB817B6803F10302BB89104619464FF033
:102D500001024FF00103FEF74DFD0346FB72FB7AC3
:102D6000002B09D0FB7A1846FFF7DAFE0346FB7307
:102D700002E04FF00303FB73FB7B184607F11007DB
:102D8000BD4680BD80B584B000AF786039604FF03B
:102D90000003FB733B681B88052B54D97B6803F148
:102DA00001031B784FEA0323BB817B6803F1020315
:102DB0001B781A46BB891343BB81BB8903F101030E
:102DC000BB817B6803F103031B784FEA03237B81FC
:102DD0007B6803F104031B781A467B8913437B81CC
:102DE0007B685B797B727B89002B28D07B89782B71
:102DF00025D87B89DBB24FEA4303DBB27A7A9A4269
:102E00001DD17B6803F10601BA897B89084611460A
:102E10001A464FF00103FEF7EDFC03463B723B7A86
:102E2000002B06D03B7A1846FFF77AFE0346FB7369
:102E30000CE03B684FF005021A8000BF06E04FF03F
:102E40000303FB7302E04FF00303FB73FB7B1846A5
:102E500007F11007BD4680BD80B586B000AF786031
:102E600039604FF00003FB753B681B88052B70D160
:102E70007B6803F101031B784FEA0323BB827B6865
:102E800003F102031B781A46BB8A1343BB82BB8A39
:102E900003F10103BB827B6803F103031B784FEA54
:102EA00003237B827B6803F104031B787B827B8A8C
:102EB000002B4AD07B8A7D2B47D87B68FB603B6820
:102EC0004FF000021A80FB684FF003021A70FB6893
:102ED00003F10103FB603B681B8803F101039AB215
:102EE0003B681A807B8ADBB24FEA4303DAB2FB68A5
:102EF0001A70FB6803F10103FB603B681B8803F158
:102F000001039AB23B681A80BA8A7B8AF868114634
:102F10001A464FF00003FEF76DFC0346FB72FB7A86
:102F2000002B06D0FB7A1846FFF7FAFD0346FB7527
:102F300012E03B681A887B8A4FEA43039BB2D3189E
:102F40009AB23B681A8000BF06E04FF00303FB759E
:102F500002E04FF00303FB75FB7D184607F11807ED
:102F6000BD4680BD80B586B000AF786039604FF057
:102F70000003FB753B681B88092B40F2B6807B6819
:102F800003F101031B784FEA0323BB827B6803F143
:102F900002031B781A46BB8A1343BB82BB8A03F128
:102FA0000103BB827B6803F103031B784FEA032311
:102FB0007B827B6803F104031B781A467B8A1343E8
:102FC0007B827B6803F105031B784FEA03233B8276
:102FD0007B6803F106031B781A463B8A13433B8246
:102FE0003B8A03F101033B827B6803F107031B78F3
:102FF0004FEA0323FB817B6803F108031B781A4621
:10300000FB891343FB817B685B7A7B737B8A002B94
:1030100068D07B8A7D2B65D8FB89002B62D0FB8929
:10302000792B5FD8FB894FEA43027B7B9A4259D1C7
:103030007B6803F10A013A8AFB89084611461A4661
:103040004FF00103FEF7D6FB0346BB75BB7D002B9B
:103050003ED17B68BB603B684FF000021A80BB68C2
:103060004FF017021A70BB6803F10103BB603B68A5
:103070001B8803F101039AB23B681A807B8ADBB29A
:103080004FEA4303DAB2BB681A70BB6803F101036D
:10309000BB603B681B8803F101039AB23B681A804E
:1030A000BA8A7B8AB86811461A464FF00003FEF7C9
:1030B000A1FB0346BB75BB7D002B09D13B681A8879
:1030C0007B8A4FEA43039BB2D3189AB23B681A80BB
:1030D000BB7D002B09D0BB7D1846FFF721FD0346C1
:1030E000FB7502E04FF00303FB75FB7D184607F10B
:1030F0001807BD4680BD00BF80B584B000AFF86042
:103100007A603B600B46FB72F86802F065FFF86876
:1031100000F01EF8FB683A68C3F8E025FB68BA695E
:10312000C3F8E425FB687A68C3F8E825FB7AF868F9
:10313000194605F089FBFB68D3F8E4351B6898470E
:10314000F86802F0AFFF07F11007BD4680BD00BF71
:1031500080B483B000AF78604FF00003184607F1E9
:103160000C07BD4680BC704780B584B000AF786066
:1031700007F108037868194603F016FC3B7A03F060
:103180001F03012B0AD0022B0FD0002B14D107F103
:1031900008037868194603F001F816E007F1080300
:1031A0007868194603F04CF80FE007F108037868D7
:1031B000194603F07BF808E03B7A23F07F03DBB28B
:1031C0007868194605F0F4FC00BF4FF0000318467C
:1031D00007F11007BD4680BD80B584B000AF7860B0
:1031E0000B46FB70FB78002B45D17B6803F55C73C5
:1031F000FB607B6893F81131032B4FD1FB68DA69D0
:10320000FB689B689A4221D9FB68DA69FB689B6876
:10321000D21AFB68DA617B68DB78012B06D1FB6888
:10322000DA68FB689B68D218FB68DA60FB68DA68CA
:10323000FB689968FB68DB69994238BF0B469BB213
:10324000786811461A4605F00BFE27E07B68D3F834
:10325000E0351B69002B0AD07B6893F81231032BF1
:1032600005D17B68D3F8E0351B69786898477868A2
:1032700005F00EFE12E07B68D3F8E0359B69002B69
:103280000CD07B6893F81231032B07D17B68D3F8FD
:10329000E0359B69FA787868114698474FF000034B
:1032A000184607F11007BD4680BD00BF80B584B049
:1032B00000AF78600B46FB70FB78002B63D17B6816
:1032C00003F58C73FB607B6893F81131022B6ED190
:1032D000FB68DA69FB689B689A421CD9FB68DA696B
:1032E000FB689B68D21AFB68DA617B68DB78012B8C
:1032F00006D1FB68DA68FB689B68D218FB68DA6065
:10330000FB68DA68FB68DB699BB2786811461A468D
:1033100005F06AFD4BE0FB681B6AFA689268B3FB34
:10332000F2F102FB01F29B1A002B17D1FB681A6A1B
:10333000FB689B689A4211D3FB681A6AFB685B6A58
:103340009A420BD278684FF000014FF0000205F06E
:103350004BFDFB684FF000025A6229E07B68D3F80E
:10336000E035DB68002B0AD07B6893F81231032B21
:1033700005D17B68D3F8E035DB68786898477868D2
:1033800005F0A4FD13E07B68D3F8E0355B69002B02
:103390000ED07B6893F81231032B09D17B68D3F8E8
:1033A000E0355B69FA7878681146984700E000BF1D
:1033B0004FF00003184607F11007BD4680BD00BF5F
:1033C00080B582B000AF786078684FF000014FF0B0
:1033D00040024FF0000305F0CDFA78684FF080010D
:1033E0004FF040024FF0000305F0C4FA7B684FF045
:1033F000010283F812217B68D3F8E4355B687A68B0
:103400009278104698474FF00003184607F10807D6
:10341000BD4680BD80B582B000AF78607B68D3F8D0
:10342000E4351B6998477B684FF0030283F812214B
:103430004FF00003184607F10807BD4680BD00BFE6
:1034400080B582B000AF78607B684FF0040283F8EB
:1034500012217B68D3F8E435DB6898474FF000030E
:10346000184607F10807BD4680BD00BF80B582B091
:1034700000AF78607B68D3F8E035DB69002B05D0BE
:103480007B68D3F8E035DB69786898474FF0000334
:10349000184607F10807BD4680BD00BF80B582B061
:1034A00000AF78600B46FB707B68D3F8E0351B6893
:1034B000FA787868114698477B68D3F8E4359B68BA
:1034C00098474FF00003184607F10807BD4680BD36
:1034D00080B582B000AF78600B46FB707B68D3F894
:1034E000E0355B68FA787868114698474FF000033A
:1034F000184607F10807BD4680BD00BF80B582B001
:1035000000AF78607B68D3F8E0351B6A786898472D
:103510004FF00003184607F10807BD4680BD00BF05
:1035200080B582B000AF78607B68D3F8E0355B6A25
:10353000786898474FF00003184607F10807BD4622
:1035400080BD00BF80B582B002AF02F07DFA05F009
:10355000DFFDFFF73FFB02F025FBFFF7F5F801F079
:1035600097FB084B009308484FF00101074A084BAE
:10357000FFF7C2FDFEF79EFF00F0B8FB00F012FE61
:10358000FEE700BF9000002074280020E00000202B
:103590009401002080B400AFFEE700BF80B483B088
:1035A00000AF78603960FEE780B582B000AF05F00B
:1035B000EBFB03467B607B6807F10807BD4680BDD7
:1035C00080B485B000AF78600B467B804FF0FF037E
:1035D000FB734FF0FF03BB7315E07B681A78BB7B6E
:1035E0005340DBB2BB607B6803F101037B60134A8D
:1035F000BB68D3181A78FB7B5340BB73104ABB6877
:10360000D3181B78FB737B88002B0CBF002301238E
:10361000DBB27A8802F1FF327A80002BDDD1FB7BAE
:103620004FEA03239AB2BB7B9BB213439BB29BB27C
:10363000184607F11407BD4680BC7047A4A20008D5
:10364000A4A3000880B483B000AF78600B46FB7081
:10365000FB78002B06D00A4B094A116B7A680A43A3
:103660001A6307E0064B064A116B7A686FEA02029A
:103670000A401A6307F10C07BD4680BC704700BFC3
:103680000038024080B483B000AF78600B46FB7016
:10369000FB78002B06D00A4B094A516B7A680A4323
:1036A0005A6307E0064B064A516B7A686FEA0202DA
:1036B0000A405A6307F10C07BD4680BC704700BF43
:1036C0000038024080B483B000AF78600B46FB70D6
:1036D000FB78002B06D00A4B094A116C7A680A4322
:1036E0001A6407E0064B064A116C7A686FEA020218
:1036F0000A401A6407F10C07BD4680BC704700BF42
:103700000038024080B483B000AF78600B46FB7095
:10371000FB78002B06D00A4B094A516C7A680A43A1
:103720005A6407E0064B064A516C7A686FEA020257
:103730000A405A6407F10C07BD4680BC704700BFC1
:103740000038024080B483B000AF78600B46FB7055
:10375000FB78002B06D00A4B094A516A7A680A4363
:103760005A6207E0064B064A516A7A686FEA02021B
:103770000A405A6207F10C07BD4680BC704700BF83
:103780000038024080B487B000AF78600B46FB7011
:103790004FF00003FB757B683B61FB78FB7328E00F
:1037A0003B691A78FB7D5340FB753B6903F10103CC
:1037B0003B61FB7D03F00103002B02D04FF080033F
:1037C00001E04FF00003FA7D4FEA5202D2B2D1B2CB
:1037D0001A460B461343DBB2FB75FB7D5BB2002B35
:1037E00003DAFB7D83F03C03FB75FB7B03F1FF33C6
:1037F000FB73FB7B002BD3D1FB7D184607F11C0725
:10380000BD4680BC704700BF80B500AF4FF48070EC
:103810004FF00101FFF796FF4FF480704FF0000169
:10382000FFF790FF80BD00BF80B485B000AF786027
:1038300039604FF00003FB604FF00003FB727B68C0
:103840005B68FB60FB6823F0407323F48073FB60CC
:103850003B681B794FEA03223B681B681343FA68F5
:103860001343FB607B68FA685A607B689B68FB6067
:10387000FA68194B1340FB603B681A693B68DB68C8
:103880001A433B689B681A433B685B794FEA4303E2
:103890001343FA681343FB607B68FA689A607B689D
:1038A000DB6AFB60FB6823F47003FB603B681B7DF5
:1038B00003F1FF33DAB2FB7A1343FB72FB7A4FEA70
:1038C0000353FA681343FB607B68FA68DA6207F116
:1038D0001407BD4680BC7047FDF7FFC080B483B0BD
:1038E00000AF78607B684FF000021A607B684FF091
:1038F00000021A717B684FF000025A717B684FF02A
:1039000000029A607B684FF00002DA607B684FF03B
:1039100000021A617B684FF001021A7507F10C076B
:10392000BD4680BC704700BF80B485B000AF7860F2
:103930004FF00003FB600E4B5B68FB60FA680D4BB9
:103940001340FB607B681A687B685B681A437B687E
:103950009B681A437B68DB681343FA681343FB6078
:10396000034BFA685A6007F11407BD4680BC7047E4
:1039700000230140E030FCFF80B483B000AF7860EA
:103980007B684FF000021A607B684FF000025A60BB
:103990007B684FF000029A607B684FF00002DA60AB
:1039A00007F10C07BD4680BC704700BF80B483B0F0
:1039B00000AF78600B46FB70FB78002B06D07B686D
:1039C0009B6843F001027B689A6005E07B689B6816
:1039D00023F001027B689A6007F10C07BD4680BCAA
:1039E000704700BF80B485B000AF7860F970BA70DE
:1039F0007B704FF00003FB604FF00003BB60FB786F
:103A0000092B27D97B68DB68FB60FA7813464FEAFD
:103A100043039B18A3F11E034FF0070202FA03F3BE
:103A2000BB60BB686FEA0303FA681340FB607978F8
:103A3000FA7813464FEA43039B18A3F11E0301FAD9
:103A400003F3BB60FA68BB681343FB607B68FA68EA
:103A5000DA6022E07B681B69FB60FA7813464FEA64
:103A600043039B184FF0070202FA03F3BB60BB68E5
:103A70006FEA0303FA681340FB607978FA7813461B
:103A80004FEA43039B1801FA03F3BB60FA68BB6873
:103A90001343FB607B68FA681A61BB78062B27D852
:103AA0007B685B6BFB60BB7803F1FF3213464FEA28
:103AB00083039B184FF01F0202FA03F3BB60BB683D
:103AC0006FEA0303FA681340FB60F978BB7803F1EF
:103AD000FF3213464FEA83039B1801FA03F3BB60DE
:103AE000FA68BB681343FB607B68FA685A6351E06D
:103AF000BB780C2B27D87B681B6BFB60BA7813460E
:103B00004FEA83039B18A3F123034FF01F0202FA2D
:103B100003F3BB60BB686FEA0303FA681340FB6002
:103B2000F978BA7813464FEA83039B18A3F123036D
:103B300001FA03F3BB60FA68BB681343FB607B6860
:103B4000FA681A6326E07B68DB6AFB60BA78134682
:103B50004FEA83039B18A3F141034FF01F0202FABF
:103B600003F3BB60BB686FEA0303FA681340FB60B2
:103B7000F978BA7813464FEA83039B18A3F14103FF
:103B800001FA03F3BB60FA68BB681343FB607B6810
:103B9000FA68DA6207F11407BD4680BC704700BFBF
:103BA00080B485B000AF78600B46FB704FF0000327
:103BB000FB737B681A68FB781340002B03D04FF02F
:103BC0000103FB7302E04FF00003FB73FB7B18461D
:103BD00007F11407BD4680BC704700BF80B586B0B2
:103BE00000AF786039604FF00003FB753B681B88BD
:103BF000052B71D17B6803F101031B784FEA032386
:103C0000BB827B6803F102031B781A46BB8A13430D
:103C1000BB82BB8A03F10103BB827B6803F1030310
:103C20001B784FEA03237B827B6803F104031B7834
:103C30001A467B8A13437B827B8A002B48D07B8A7F
:103C40007C2B45D87B68FB603B684FF000021A80F4
:103C5000FB684FF004021A70FB6803F10103FB607C
:103C60003B681B8803F101039AB23B681A807B8A88
:103C7000DBB24FEA4303DAB2FB681A70FB6803F168
:103C80000103FB603B681B8803F101039AB23B68A8
:103C90001A80BA8A7B8AF86811461A46FDF718FD21
:103CA0000346FB72FB7A002B06D0FB7A1846FEF720
:103CB00037FF0346FB7512E03B681A887B8A4FEAA0
:103CC00043039BB2D3189AB23B681A8000BF06E048
:103CD0004FF00303FB7502E04FF00303FB75FB7D20
:103CE000184607F11807BD4680BD00BF80B586B0F5
:103CF00004AF4FF00003FB710BE0FB791A4A4FEA67
:103D0000C303D3184FF001021A71FB7903F10103C9
:103D1000FB71FB79092BF0D945F25550FEF7AAFF4C
:103D20004FF00600FEF7B6FF40F27120FEF7C2FF2B
:103D3000FEF7D0FFFEF7DAFF4FF0010300934FF0DC
:103D4000000301934FF0000302934FF0000303932D
:103D5000064807494FF080024FF0000300F04EF88C
:103D600007F10807BD4680BD04330020753D0008FB
:103D7000A4A4000880B584B000AF78604FF00003C1
:103D8000FB734FF00003BB734FF00003FB7314E0B1
:103D9000FA7B194B53F83230002B0AD1FB7B164AC1
:103DA0004FEAC303D3181B79002B02D14FF0010354
:103DB000BB73FB7B03F10103FB73FB7B092BE7D98F
:103DC000BB7B012B12D0FEF785FF4FF00003FB7386
:103DD00009E0FA7B084B4FF0000143F83210FB7BFF
:103DE00003F10103FB73FB7B092BF2D94FF4FA605B
:103DF00000F0D8F8C2E700BF0433002080B58AB0D5
:103E000002AFF860B9603B601346FB80FB68002B93
:103E100004D14FF0500080F31188FEE7BB6A042BF9
:103E200004D94FF0500080F31188FEE7FB88184654
:103E3000396B00F0E9FDB861BB69002B00F08C80A4
:103E4000BB691A6BFB8803F1FF334FEA8303D31876
:103E50007B617B6923F007037B617B6903F00703C8
:103E6000002B04D04FF0500080F31188FEE7FB8850
:103E70000093B869B968BA6A7B6B00F0CFFC7869C7
:103E8000F9683A6803F086F80246BB691A60BB69B4
:103E90001B6803F00703002B04D04FF0500080F3A1
:103EA0001188FEE7FB6A002B02D0FB6ABA691A6030
:103EB00003F0E4F8344B1B6803F10102324B1A6043
:103EC000324B1B68002B09D1304BBA691A602E4B5C
:103ED0001B68012B0FD100F0DDFC0CE02C4B1B68A4
:103EE000002B08D1294B1B68DA6ABB6A9A4202D8B8
:103EF000264BBA691A60BB69DA6A264B1B689A427C
:103F000003D9BB69DA6A234B1A60234B1B6803F1A0
:103F10000102214B1A60BB69DA6A204B1B689A4286
:103F200003D9BB69DA6A1D4B1A60BB69DA6A1346AA
:103F30004FEA83039B184FEA8303194A9A18BB6917
:103F400003F104031046194601F008FB4FF001038A
:103F5000FB6103F0A5F802E04FF0FF33FB61FB6962
:103F6000012B0BD10A4B1B68002B07D0074B1B689A
:103F7000DA6ABB6A9A4201D203F074F8FB69184608
:103F800007F12007BD4680BDE40300200C0300209C
:103F9000F4030020EC03002008040020F0030020BC
:103FA0001003002080B584B000AF78604FF00003AC
:103FB000FB607B68002B13D000F032F90D4B1A68C0
:103FC0007B68D318BB600C4B1B6803F104031846D5
:103FD00001F026FBB86800F0DFFC00F02FF9F86074
:103FE000FB68002B01D103F03DF807F11007BD4637
:103FF00080BD00BFE80300200C03002080B584B022
:1040000000AF786003F03AF8214B1B687A689A4257
:1040100002D14FF000037B607B68002B02D11C4B68
:104020001B6800E07B68FB60FB6803F10403184633
:1040300001F0F6FAFB689B6A002B05D0FB6803F1E0
:104040001803184601F0ECFAFB6803F10403114869
:10405000194601F083FA03F023F87B68002B13D193
:104060000D4B1B68002B02D002F0FCFF0CE0094B4B
:104070001A680A4B1B689A4204D1054B4FF00002A4
:104080001A6001E000F012FA07F11007BD4680BD8A
:104090000C030020D0030020F4030020E4030020E0
:1040A00080B485B000AF78604FF00003FB607B68A0
:1040B000BB607B68002B04D14FF0500080F3118867
:1040C000FEE7BB685A690B4B9A420BD1BB689A6AF0
:1040D000094B9A4206D0BB689B6A002B02D14FF075
:1040E0000103FB60FB68184607F11407BD4680BC5E
:1040F000704700BFD0030020A403002080B584B027
:1041000000AF78607B68002B04D14FF0500080F343
:104110001188FEE77B68FB60FB68002B38D01E4BE4
:104120001B68FA689A4233D002F0A8FFF868FFF7DC
:10413000B7FF0346012B29D1FB6803F1040318469E
:1041400001F06EFAFB68DA6A144B1B689A4203D9D5
:10415000FB68DA6A114B1A60FB68DA6A13464FEAA9
:1041600083039B184FEA83030D4A9A18FB6803F1F7
:1041700004031046194601F0F1F9FB68DA6A064BB0
:104180001B68DB6A9A4201D302F06CFF02F088FFE1
:1041900007F11007BD4680BD0C030020F00300208E
:1041A0001003002080B586B004AF4FF000030093E9
:1041B0004FF0000301934FF0000302934FF0000310
:1041C0000393134813494FF046024FF00003FFF7E3
:1041D00015FE78607B68012B0DD14FF0500080F305
:1041E00011880D4B4FF001021A600C4B4FF000028A
:1041F0001A6002F019FF7B68002B04D14FF05000C9
:1042000080F31188FEE707F10807BD4680BD00BFB7
:10421000F9470008ACA40008F4030020E8030020DC
:1042200080B400AF044B1B6803F10102024B1A601B
:10423000BD4680BC704700BFF803002090B583B036
:1042400000AF4FF000037B603C4B1B68002B04D198
:104250004FF0500080F31188FEE702F00FFF374B5C
:104260001B6803F1FF32354B1A60344B1B68002B7F
:104270005CD1334B1B68002B58D04FF000033B60E0
:104280002CE0304BDB68DC6804F11803184601F0C1
:10429000C7F904F10403184601F0C2F9E26A2A4B97
:1042A0001B689A4202D9E26A274B1A60E26A1346F7
:1042B0004FEA83039B184FEA8303244A9A1804F1B8
:1042C00004031046194601F049F9E26A204B1B68C5
:1042D000DB6A9A4202D34FF001033B60194B1B6823
:1042E000002BCED11B4B1B68002B0FD007E000F03A
:1042F00035F8184B1B6803F1FF32164B1A60154B4B
:104300001B68002BF3D14FF001033B603B68012B8E
:1043100003D0114B1B68012B08D14FF001037B60C8
:104320000D4B4FF000021A6002F09CFE02F0B8FE46
:104330007B68184607F10C07BD4690BDF8030020C6
:10434000E4030020A4030020F00300201003002059
:104350000C030020FC0300200004002080B584B082
:1043600000AF494B1B68002B40F08480474B1B6813
:1043700003F10102454B1A60444B1B68002B2CD102
:10438000434B1B681B68002B04D04FF0500080F398
:104390001188FEE73E4B1B68FB603E4B1A683C4BA6
:1043A0001A603C4BFA681A603B4B1B6803F1010230
:1043B000394B1A60364B1B681B68002B04D1374BF6
:1043C0004FF0FF321A6008E0314B1B68DB68DB6896
:1043D000BB60BB685A68314B1A602C4B1A682F4B74
:1043E0001B689A424CD32A4B1B681B68002B04D1D4
:1043F0002A4B4FF0FF321A6042E0254B1B68DB6806
:10440000DB68BB60BB685B687B60204B1A687B68BD
:104410009A4203D2214B7A681A6031E0BB6803F1FB
:104420000403184601F0FCF8BB689B6A002B05D01A
:10443000BB6803F11803184601F0F2F8BB68DA6AAA
:10444000174B1B689A4203D9BB68DA6A144B1A608F
:10445000BB68DA6A13464FEA83039B184FEA83036B
:10446000104A9A18BB6803F104031046194601F07C
:1044700075F8B8E70C4B1B6803F101020A4B1A6090
:1044800007F11007BD4680BDF8030020E8030020B7
:104490009C030020A003002004040020DC00002076
:1044A000F003002010030020FC03002080B582B040
:1044B00000AF3A4B1B68002B04D0394B4FF0010280
:1044C0001A6067E0374B1B681A68364B1B681B6B1A
:1044D0009A4209D8334B1A68324B1B6803F13403F4
:1044E00010461946FFF75AF82E4B1B681B6B1846EF
:1044F0002D494FF0140205F049FD0346002B1AD058
:10450000284B1A68274B1B6803F1340310461946E1
:10451000FFF744F80FE0254B1B68002B04D14FF048
:10452000500080F31188FEE7204B1B6803F1FF3237
:104530001E4B1A6000E000BF1C4B1A681C49134652
:104540004FEA83039B184FEA8303CB181B68002BA9
:10455000E1D0164B1A6813464FEA83039B184FEAC3
:104560008303134A9B187B607B685B685A687B688F
:104570005A607B685A687B6803F108039A4204D149
:104580007B685B685A687B685A607B685B68DA683E
:10459000044B1A6007F10807BD4680BDF8030020F0
:1045A000000400200C030020B4A40008F003002045
:1045B0001003002080B584B000AF786039607B685C
:1045C000002B04D14FF0500080F31188FEE7144B0C
:1045D0001B6803F118037868194600F0E7FF104BD9
:1045E0001B6803F10403184601F01AF83B68B3F1A5
:1045F000FF3F08D10A4B1B6803F104030948194621
:1046000000F0ACFF07E0084B1A683B68D318FB606A
:10461000F86800F0C1F907F11007BD4680BD00BF82
:104620000C030020D0030020E803002080B584B0F4
:1046300000AF78607B68DB68DB68BB60BB68002B21
:1046400004D14FF0500080F31188FEE7BB6803F1FE
:104650001803184600F0E4FF204B1B68002B21D103
:10466000BB6803F10403184600F0DAFFBB68DA6A9E
:104670001B4B1B689A4203D9BB68DA6A184B1A6055
:10468000BB68DA6A13464FEA83039B184FEA830339
:10469000144A9A18BB6803F104031046194600F047
:1046A0005DFF06E0BB6803F118030F48194600F0F0
:1046B00055FFBB68DA6A0D4B1B68DB6A9A4203D36D
:1046C0004FF00103FB6002E04FF00003FB60FB686A
:1046D000184607F11007BD4680BD00BFF803002053
:1046E000F003002010030020A40300200C0300208E
:1046F00080B483B000AF78607B68002B04D14FF0AA
:10470000500080F31188FEE7064B1A687B681A6038
:10471000054B1A687B685A6007F10C07BD4680BCE0
:10472000704700BF04040020E803002080B584B077
:1047300000AF786039607B68002B04D14FF05000E7
:1047400080F31188FEE73B68002B04D14FF0500046
:1047500080F31188FEE702F091FC3B681B68B3F11F
:10476000FF3F03D14FF00003FB602CE07B681A6829
:10477000194B1B689A4209D07B685A68174B1B6813
:104780009A4203D84FF00103FB601CE0134B1A68F8
:104790007B685B68D21A3B681B689A4210D23B6800
:1047A0001A687B6859680D4B1B68CB1AD2183B6896
:1047B0001A607868FFF79CFF4FF00003FB6002E08F
:1047C0004FF00103FB6002F06BFCFB68184607F139
:1047D0001007BD4680BD00BF04040020E803002090
:1047E00080B400AF034B4FF001021A60BD4680BC9D
:1047F000704700BF0004002080B582B000AF786031
:1048000000F08CF8044B1B68012B01D902F02AFC44
:10481000FEF7CAFEF4E700BF1003002080B584B0A5
:1048200000AFF860B9607A603B60FB6803F1340365
:104830001846B9684FF00A0205F0FAFCFB684FF021
:10484000000283F83D207B68042B02D94FF004035B
:104850007B60FB687A68DA62FB687A681A64FB68D6
:1048600003F10403184600F06BFEFB6803F1180324
:10487000184600F065FEFB68FA681A617B68C3F1B0
:104880000502FB689A61FB68FA685A6207F1100733
:10489000BD4680BD80B582B000AF4FF000037B60A5
:1048A0000FE07A6813464FEA83039B184FEA8303AD
:1048B000124A9B18184600F023FE7B6803F101039F
:1048C0007B607B68042BECD90D4800F019FE0D4885
:1048D00000F016FE0C4800F013FE0C4800F010FE2D
:1048E0000B4800F00DFE0B4B054A1A600A4B054AB7
:1048F0001A6007F10807BD4680BD00BF1003002005
:104900007403002088030020A4030020B8030020C3
:10491000D00300209C030020A003002080B582B0BB
:1049200000AF1A4B1B68002B2BD0FFF779FC184BFC
:104930001B68002B14BF00230123DBB27B60FFF751
:104940007DFC7B68002B1CD102F098FB104BDB68D0
:10495000DB683B603B6803F10403184600F060FE2F
:104960000C4B1B6803F1FF320A4B1A60074B1B68A4
:1049700003F1FF32054B1A6002F092FB386800F039
:104980007BF807F10807BD4680BD00BFCC030020BF
:10499000B8030020E403002080B582B000AF786047
:1049A000144B1B687A685A60134B1B687A689A42EA
:1049B0000AD2124B1A680F4B1B6803F1040310460E
:1049C000194600F0F3FD11E00D4B1A68094B1B6806
:1049D00003F104031046194600F0E8FD094B1B687B
:1049E0007A689A4202D2074B7A681A6007F1080780
:1049F000BD4680BD0C030020E8030020A00300207A
:104A00009C030020DC00002080B584B000AF03468A
:104A10003960FB804FF0440004F06CF9F860FB68EB
:104A2000002B23D03B68002B07D1FB884FEA830380
:104A3000184604F05FF9034600E03B68FA68136328
:104A4000FB681B6B002B06D1F86804F093F94FF05C
:104A50000003FB600AE0FB681A6BFB884FEA8303E4
:104A600010464FF0A5011A4605F07CFBFB6818467E
:104A700007F11007BD4680BD80B582B000AF7860F9
:104A80007B681B6B184604F075F9786804F072F9BE
:104A900007F10807BD4680BD80B584B000AF7860DF
:104AA0007B68FB607B68002B30D0FB68DA6AFB68B0
:104AB0001B6C9A422AD0FB6803F10403184600F0ED
:104AC000AFFDFB681A6CFB68DA62FB68DB6AC3F156
:104AD0000502FB689A61FB68DA6A0E4B1B689A4212
:104AE00003D9FB68DA6A0B4B1A60FB68DA6A134673
:104AF0004FEA83039B184FEA8303074A9A18FB681F
:104B000003F104031046194600F028FD07F11007D1
:104B1000BD4680BDF00300201003002080B483B0A8
:104B200000AF03463960FB713B684FF012021A80F8
:104B3000034B184607F10C07BD4680BC704700BF09
:104B4000FC00002080B483B000AF03463960FB71E5
:104B50003B684FF004021A80034B184607F10C071C
:104B6000BD4680BC704700BF1C01002080B582B0EC
:104B700000AF03463960FB71FB79002B05D1084873
:104B800008493A6801F082FF04E0074805493A689D
:104B900001F07CFF034B184607F10807BD4680BDB6
:104BA000C8A40008D0350020ECA4000880B582B06D
:104BB00000AF03463960FB71054806493A6801F0C9
:104BC00065FF044B184607F10807BD4680BD00BFCE
:104BD00010A50008D035002080B582B000AF034694
:104BE0003960FB71FB79002B05D1084808493A6808
:104BF00001F04CFF04E0074805493A6801F046FF20
:104C0000034B184607F10807BD4680BD24A50008E0
:104C1000D035002034A5000880B582B000AF03462F
:104C20003960FB71FB79002B05D1084808493A68C7
:104C300001F02CFF04E0054805493A6801F026FF21
:104C4000034B184607F10807BD4680BD44A5000880
:104C5000D035002080B582B000AF03463960FB71CB
:104C6000FB79002B05D1084808493A6801F00EFF8E
:104C700004E0054805493A6801F008FF034B18466F
:104C800007F10807BD4680BD50A50008D0350020BB
:104C900080B586B004AF4FF002004FF00101FEF77F
:104CA000D1FC4FF0C0033B604FF000037B714FF02D
:104CB00000033B714FF00103FB713B460D48194661
:104CC00000F01AF94FF0010300934FF00003019335
:104CD0004FF0000302934FF0000303930648074987
:104CE0004FF040024FF00003FFF788F807F1080784
:104CF000BD4680BD00040240014D000860A50008CB
:104D000080B584B000AF7860774B4FF0000283F835
:104D10003C2076484FF0800100F0AEF90346002BAE
:104D200053D14FF00A00FFF73DF970484FF0800172
:104D300000F0A2F90346002B47D14FF00003FB73AC
:104D40004FF000004FF00001FDF734FE4FF000037C
:104D5000FB731BE0FB7B664A4FF0980101FB03F3FA
:104D6000D31803F190031B78012B0BD1FB7B604A16
:104D70004FF0980101FB03F3D31803F190034FF0B8
:104D800002021A70FB7B03F10103FB73FB7B062B12
:104D9000E0D9574B93F85234052B0FD801A252F8A3
:104DA00023F000BFC94D0008C94D0008C94D0008D7
:104DB000C94D0008C94D0008C94D00084C4B4FF0C3
:104DC000010283F8522400E000BF48484FF0400140
:104DD00000F052F90346002B3FD14FF00A00FFF7D5
:104DE000E1F842484FF0400100F046F90346002B3D
:104DF00070D1404B1B889BB203F101039AB23D4B2B
:104E00001A803C4B1B889BB2322B63D9384B93F8EA
:104E10005234052B1BD801A252F823F0D94E0008BA
:104E2000354E0008414E0008D94E0008D94E000802
:104E3000D94E00082E4B4FF0030283F852244CE069
:104E40002B4B4FF0030283F8522400BF45E0284B60
:104E50004FF0010283F852243CE0264B1B889BB2A2
:104E6000002B32D0234B1B889BB2322B2DD8204BEA
:104E700093F85234052B21D801A252F823F000BF39
:104E8000C94E0008994E0008A54E0008B14E000812
:104E9000C94E0008C94E0008154B4FF0020283F8B6
:104EA000522412E0124B4FF0010283F852240CE01E
:104EB0000F4B4FF0010283F8522406E00C4B4FF0E9
:104EC000010283F8522400E000BF0A4B4FF00002B9
:104ED0001A8002E000BF00E000BF034B9B6B03F1B0
:104EE0000102014B9A6314E70433002000040240DE
:104EF000682E00200C04002080B487B000AF7860DA
:104F000039604FF000037B614FF000033B614FF0CD
:104F10000003FB604FF000037B6186E07B694FF08C
:104F2000010202FA03F33B613B681A683B691340D4
:104F3000FB60FA683B699A4273D17B681A687B69A7
:104F40004FEA43034FF0030101FA03F36FEA03034F
:104F50001A407B681A607B681A683B681B7919469F
:104F60007B694FEA430301FA03F31A437B681A6033
:104F70003B681B79012B03D03B681B79022B34D192
:104F80007B689A687B694FEA43034FF0030101FA9B
:104F900003F36FEA03031A407B689A607B689A68A0
:104FA0003B685B7919467B694FEA430301FA03F3D7
:104FB0001A437B689A607B685A687B699BB24FF0A2
:104FC000010101FA03F36FEA03031A407B685A6098
:104FD0007B685A683B689B7919467B699BB201FAEA
:104FE00003F39BB21A437B685A607B68DA687B697B
:104FF0009BB24FEA43034FF0030101FA03F36FEA58
:1050000003031A407B68DA607B68DA683B68DB7907
:1050100019467B694FEA430301FA03F31A437B689D
:10502000DA607B6903F101037B617B690F2B7FF6FB
:1050300075AF07F11C07BD4680BC704780B483B0D4
:1050400000AF78607B684FF6FF721A607B684FF0A4
:1050500000021A717B684FF000025A717B684FF0B2
:1050600000029A717B684FF00002DA7107F10C07B9
:10507000BD4680BC704700BF80B485B000AF78608B
:105080000B467B804FF00003FB737B681A697B88BB
:105090001340002B03D04FF00103FB7302E04FF0ED
:1050A0000003FB73FB7B184607F11407BD4680BC69
:1050B000704700BF80B483B000AF786013460A46E3
:1050C0007A807B707B78002B03D07B687A881A8388
:1050D00002E07B687A885A8307F10C07BD4680BCE2
:1050E000704700BF80B485B000AF786013460A46B1
:1050F0007A807B704FF00003FB604FF00003BB60D1
:105100007A787B8803F007034FEA830302FA03F3FC
:10511000FB607B884FEAD3039BB21A467B884FEA39
:10512000D3039BB219467B6801F1080153F82110A3
:105130007B8803F007034FEA83034FF00F0000FA68
:1051400003F36FEA030319407B6802F1080243F896
:1051500022107B884FEAD3039BB21A467B6802F188
:10516000080253F82220FB681343BB607B884FEA98
:10517000D3039BB21A467B6802F10802B96843F870
:10518000221007F11407BD4680BC704780B588B077
:1051900000AF0346FB804FF00003FB834FF0040099
:1051A0004FF00101FEF78EFA264B1A68264BA3FB3F
:1051B00002134FEA93339BB203F1FF33FB83FB8867
:1051C0007B61FB8B3B824FF000033B834FF000037E
:1051D0007B8207F110031D48194603F095FE1B481A
:1051E0004FF0010103F00AFF4FF4407003F0B0FAF2
:1051F0004FF01E033B734FF00E037B734FF0010320
:10520000BB734FF00103FB7307F10C03184603F067
:10521000B1FA0E484FF0010103F054FF0B484FF074
:1052200001014FF0000203F029FF08484FF0000190
:1052300003F004FF4FF00103184607F12007BD46B5
:1052400080BD00BF340100205917B7D100080040CD
:1052500080B500AF0B484FF0010103F033FF094860
:105260004FF001014FF0010203F008FF05484FF035
:10527000000103F0B5FE03484FF0010103F0DEFE2C
:1052800080BD00BF0008004080B500AF0B484FF064
:10529000000103F0D3FE09484FF0000103F0A0FE27
:1052A00006484FF001014FF0000203F0E7FE03480B
:1052B0004FF0010103F006FF80BD00BF0008004071
:1052C00080B500AF04484FF0010103F0FBFE034B33
:1052D0001B68984780BD00BF000800405C28002084
:1052E00080B400AF4FF000031846BD4680BC704745
:1052F00080B400AF4FF000031846BD4680BC704735
:1053000080B485B000AFF860B9607A60FB68232B89
:105310004AD801A252F823F0A9530008A953000863
:10532000A9530008A9530008A9530008A95300086D
:10533000A9530008A9530008A9530008A95300085D
:10534000A9530008A9530008A9530008A95300084D
:10535000A9530008A9530008A9530008A95300083D
:10536000A9530008A9530008A9530008A95300082D
:10537000A9530008A9530008A9530008A95300081D
:10538000A9530008A9530008A9530008A95300080D
:10539000A9530008A9530008A9530008A9530008FD
:1053A000A9530008A953000800BF4FF00003184696
:1053B00007F11407BD4680BC704700BF80B485B0BC
:1053C00000AF786039604FF00003FB601AE0134BC8
:1053D0001B687968FA688A181178114AD1540F4B02
:1053E0001B6803F101020D4B1A60FB6803F1010316
:1053F000FB600A4B1B68B3F5006F03D1074B4FF0FE
:1054000000021A60FA683B689A42E0D34FF000034A
:10541000184607F11407BD4680BC704734040020CD
:105420009036002080B485B000AF786039604FF0CE
:105430000003FB6022E0174B1B687968FA688A1842
:105440001178154AD154134B1B6803F10102114B1B
:105450001A60104B1B68802B03D10E4B4FF00002DB
:105460001A600C4B1A680D4B1B689A4202D14FF020
:10547000020309E0FB6803F10103FB60FA683B6883
:105480009A42D8D34FF00003184607F11407BD46DF
:1054900080BC7047D833002054330020D433002020
:1054A00080B483B000AF7860124B1A68124B1B684F
:1054B0009A4202D14FF0000315E00F4B1B680F4AD0
:1054C000D25C7B681A700C4B1B6803F101020A4B1B
:1054D0001A60094B1B68802B03D1074B4FF0000269
:1054E0001A604FF00103184607F10C07BD4680BC57
:1054F000704700BFD8330020D4330020543300203D
:1055000080B483B000AF78607B6803F108027B68E9
:105510005A607B684FF0FF329A607B6803F10802A3
:105520007B68DA607B6803F108027B681A617B683C
:105530004FF000021A6007F10C07BD4680BC7047AF
:1055400080B483B000AF78607B684FF000021A61CE
:1055500007F10C07BD4680BC704700BF80B485B022
:1055600000AF786039607B685B68FB60FB685A68F5
:105570003B685A607B685A683B689A60FB685B6866
:105580003A689A60FB683A685A607B683A685A6081
:105590003B687A681A617B681B6803F101027B68CB
:1055A0001A6007F11407BD4680BC704780B485B00F
:1055B00000AF786039603B681B68BB60BB68B3F1C3
:1055C000FF3F03D17B681B69FB600DE07B6803F143
:1055D0000803FB6002E0FB685B68FB60FB685B68DC
:1055E0001A68BB689A42F6D9FB685A683B685A60E9
:1055F0003B685B683A689A603B68FA689A60FB6847
:105600003A685A603B687A681A617B681B6803F1E4
:1056100001027B681A6007F11407BD4680BC704721
:1056200080B485B000AF78607B685B687A68926808
:105630009A607B689B687A6852685A607B681B69CD
:10564000FB60FB685A687B689A4203D17B689A6862
:10565000FB685A607B684FF000021A61FB681B68A8
:1056600003F1FF32FB681A6007F11407BD4680BCE6
:10567000704700BF80B584B000AF3A600246FA714F
:105680000A46BA717B714FF00003FB73FCF714F804
:10569000BA797B79104639684FF0080202F048FB6E
:1056A0000346012B03D04FF00303FB7319E03B6863
:1056B000B3F5964F03D94FF06403BB6006E03B6837
:1056C0004FEA43030B4AB2FBF3F3BB60BB689BB2E8
:1056D0001846FFF75BFD0346012B02D04FF0030392
:1056E000FB73FBF7EFFFFB7B184607F11007BD4686
:1056F00080BD00BFA07F170080B500AFFBF7DCFFC7
:10570000074B4FF000021A704FF001004FF00001FC
:1057100002F0FAFAFFF79CFDFBF7D4FF80BD00BF53
:105720001104002080B500AFFBF7C6FF4FF000006A
:105730004FF0000102F0E8FAFFF7A6FDFBF7C2FF09
:1057400080BD00BF80B586B000AFF860B9607A60F8
:105750004FF00003BB754FF00003FB75FBF7ACFF88
:10576000164B1B889BB2032B1DD9144B1B889BB275
:1057700013481946FDF724FF0346002B13D1104BA5
:105780001B78DAB2FB681A700C4B1B889BB2A3F132
:1057900003039AB27B681A80BB680A4A1A604FF00A
:1057A0000103BB7502E04FF00503FB75FBF78AFFB1
:1057B000FB7D184607F11807BD4680BD1A0400207E
:1057C000DC330020DD33002080B584B000AF3960C9
:1057D00013460246FA71BB804FF00003FB73FBF7E0
:1057E0006BFF2C4B1B78DBB2012B47D13B6803F1DD
:1057F000FF32294B1A60294B4FF001021A80264BC9
:105800001B68FA791A70254B1B889AB2BB88D3188B
:105810009AB2224B1A80204B1A68204B1B889BB2ED
:1058200010461946FDF7CCFE0346BB811B4B1B8877
:105830009BB21A46B989C8B21949885403F10103C9
:105840009AB2164B1A80154B1B889BB21A46B9891F
:105850004FEA112189B2C8B21149885403F10103FA
:105860009AB20E4B1A800F4B4FF001021A704FF094
:1058700000004FF0010102F047FA02E04FF005038B
:10588000FB73FBF71FFFFB7B184607F11007BD46B4
:1058900080BD00BF11040020140400201804002063
:1058A000DC3300201004002080B582B000AF4FF040
:1058B0000003FB7107F10603184602F061FA264B5C
:1058C0001B78DBB2032B41D801A252F823F000BFB2
:1058D000E1580008ED5800081B590008E758000877
:1058E000FFF7B6FC32E0FFF7B3FC2FE01B4B4FF0A5
:1058F00000021A80194B1B889BB21A46B8791849C6
:10590000885403F101039AB2144B1A80124B4FF0E2
:1059100002021A70FFF79CFC18E0104B1B889BB228
:10592000FF2B0CD80D4B1B889BB21A46B8790C493B
:10593000885403F101039AB2084B1A8003E0064B26
:105940004FF003021A70FFF783FC00BFFB79184683
:1059500007F10807BD4680BD110400201A0400208D
:10596000DC33002080B582B000AF4FF00003FB7144
:105970001C4B1B78DBB2002B02D0012B07D02AE096
:105980004FF001004FF0000102F0BEF923E0164B8A
:105990001B889BB2002B0DD0144B1A68124B1B882E
:1059A0009BB210461946FFF709FD0F4B4FF000025E
:1059B0001A800FE04FF00300FCF78CFE0346FB71EA
:1059C0004FF001004FF0000102F09EF9054B4FF03F
:1059D00000021A7000BFFB79184607F10807BD46A0
:1059E00080BD00BF10040020180400201404002013
:1059F00080B582B000AF4FF00003FB71114B1B78F4
:105A0000DBB2022B0AD0032B0FD0002B0ED14FF0AC
:105A10000000FCF75FFE0346FB7107E04FF001005A
:105A2000FCF758FE0346FB7100E000BFFFF72CFCBB
:105A3000044B4FF001021A70FB79184607F1080772
:105A4000BD4680BD1104002080B500AF124B124A44
:105A5000126842F001021A600F4B4FF000029A6088
:105A60000D4A0D4B1B6823F0847323F480331360BD
:105A7000094B0A4A5A60084B074A126822F48022EE
:105A80001A60054B4FF00002DA6000F00BF8044B8F
:105A90004FF000629A6080BD003802401030002450
:105AA00000ED00E080B483B000AF4FF000037B60F6
:105AB0004FF000033B60374B364A126842F48032A5
:105AC0001A60344B1B6803F400333B607B6803F1BE
:105AD00001037B603B68002B03D17B68B3F5A06FAB
