:020000040800F2
:1000000080400020292700088D2700088D27000840
:100010008D2700088D2700088D27000800000000AC
:10002000000000000000000000000000E56E000875
:100030008D27000800000000BD6F0008F96F000860
:100040008D2700083D9200088D2700088D270008A5
:100050008D2700088D2700088D2700088D270008B0
:100060008D2700088D2700088D2700088D270008A0
:100070008D2700088D2700088D2700088D27000890
:100080008D2700088D2700088D2700088D27000880
:100090008D2700088D2700088D2700088D27000870
:1000A0008D2700088D2700088D2700088D27000860
:1000B0008D2700088D2700088D2700088D27000850
:1000C0008D2700088D2700088D2700088D27000840
:1000D0008D2700088D2700088D2700088D27000830
:1000E0008D2700088D270008355D00088D27000842
:1000F0008D2700088D2700088D2700088D27000810
:100100008D2700088D2700088D2700088D270008FF
:100110008D2700088D2700088D270008F94F00085B
:100120008D2700088D2700088D2700088D270008DF
:100130008D2700088D2700088D2700088D270008CF
:100140008D2700088D2700088D270008695D0008AD
:100150008D2700088D2700088D2700088D270008AF
:100160008D2700088D2700088D2700088D2700089F
:100170008D2700088D2700088D2700088D2700088F
:100180008D2700088D27000880B485B000AF786007
:100190004FF00003FB607B68DB684FF0FF325A6072
:1001A0007B68DB684FF0FF325A61FB6843F0004325
:1001B000FB60FB6843F40063FB607B68DB68FA6804
:1001C0009A6107F11407BD4680BC704780B586B0C0
:1001D00000AF78604FF00003FB744FF000037B61C9
:1001E0004FF00003FB604FF0030005F067FD7B68F4
:1001F000DB681B69FB607B6903F101037B617A6942
:100200001A4B9A4202D94FF0000329E0FB68C3F36E
:10021000C073DBB2002BE6D04FF000037B61FB68BC
:1002200043F00103FB607B68DB68FA681A617B6856
:10023000DB681B69FB607B6903F101037B617A6901
:100240000A4B9A4206D8FB68C3F30003DBB2012BCA
:10025000EDD000E000BF4FF0030005F02FFDFB7C68
:10026000184607F11807BD4680BD00BF400D0300CA
:1002700080B489B000AFF860B960FA71BB804FF00C
:100280000003FB76FB68DB78002B2CD14FF00003DA
:100290007B614FF00003FB61BB8803F10303002B7C
:1002A00001DA03F103034FEAA3037B61FB79FA68E8
:1002B00003F132034FEA8303D3189B683B614FF08D
:1002C0000003FB610BE0BB681A683B691A60FB69BD
:1002D00003F10103FB61BB6803F10403BB60FA692E
:1002E0007B699A42EFD3FB7E184607F12407BD468F
:1002F00080BC704780B489B000AFF860B960134625
:10030000FB804FF00003FB61FB8803F10303002B2C
:1003100001DA03F103034FEAA303BB61FB68D3F8DF
:10032000D0307B614FF00003FB610BE07B691A6802
:10033000BB681A60FB6903F10103FB61BB6803F151
:100340000403BB60FA69BB699A42EFD3BB681846E5
:1003500007F12407BD4680BC704700BF80B487B05A
:1003600000AF78600B46FB704FF000033B614FF02D
:100370000003FB737B684FF00002DA707B684FF07C
:1003800001029A707B684FF040029A80FB78012B43
:1003900017D14FF0A0433B617B684FF00102DA7246
:1003A0007B684FF008021A707B684FF004025A70A5
:1003B0007B684FF4A072DA807B684FF002021A72F9
:1003C00014E0FB78002B11D14F4B3B617B684FF061
:1003D0000002DA727B684FF00C021A707B684FF0F3
:1003E00006025A707B684FF4A062DA803A697B6833
:1003F000DA603B6903F500631A467B681A614FF0C7
:1004000000037B6123E07B694FEA43123B69D31809
:1004100003F510631A4679687B6903F104034FEA18
:100420008303CB189A607B694FEA43123B69D31868
:1004300003F530631A4679687B6903F114034FEAC8
:100440008303CB185A607B6903F101037B617B68EE
:100450005B781A467B699A42D5D83B6903F580637D
:100460001A467B685A613B6903F588631A467B68C4
:10047000C3F8CC204FF000037B6113E07B694FEAA7
:1004800043123B69D31803F5A0631A4679687B6968
:1004900003F122034FEA8303CB189A607B6903F1CF
:1004A00001037B617B681B781A467B699A42E5D819
:1004B0004FF000037B6113E07B694FEA03323B6935
:1004C000D31803F580531A4679687B6903F1320328
:1004D0004FEA8303CB189A607B6903F101037B61C8
:1004E0007B681B781A467B699A42E5D83B6903F51D
:1004F00060631A467B68C3F80C21FB7B184607F142
:100500001C07BD4680BC70470000044080B588B021
:1005100000AF78604FF00003FB774FF00003BB6142
:100520004FF000037B614FF00003FB607B681B7A98
:10053000012B51D17B68DB689B6B7B617B696FF31F
:1005400010437B617B685B7A002B03D07B6943F4AB
:1005500080137B617B68DB687A699A634FF00003E4
:10056000BB617B68DB68DB68BB61BB696FF38613CB
:10057000BB61BB696FF39653BB61BB6943F010036A
:10058000BB61BB696FF3C303BB61BB696FF3C71387
:10059000BB61BB696FF35143BB61BB696FF3D3436D
:1005A000BB617B68DB68BA69DA607868FFF70EFECA
:1005B0007B68DB78012B40F08980FB684FF00502F7
:1005C00062F34403FB60FB6843F02003FB607B683D
:1005D000DB68FA689A6079E07B68DB68DB68BB619E
:1005E000BB6943F04003BB617B68DB68BA69DA60D2
:1005F0007868FFF7EBFD4FF000037B617B6943F404
:1006000080337B617B681B7A032B03D17B6943F4C6
:1006100000337B617B6943F480237B617B6943F416
:1006200000237B617B6943F400137B617B685B7A09
:10063000002B03D07B6943F480137B617B68DB680C
:100640007A699A634FF0140005F064FB7B68DB68FD
:10065000DB68BB617B681B7A032B03D1BB6943F466
:100660008033BB617B68DB68BA69DA607B681B7AC0
:10067000032B2BD17B68DB681B6B3B613B694FF025
:10068000010262F39B633B613B696FF3D7533B61AC
:100690003B6943F080533B613B694FF02D0262F3AD
:1006A00016433B617B68DB683A691A634FF0C80008
:1006B00005F030FB3B6943F400033B617B68DB687A
:1006C0003A691A634FF0C80005F024FB7B68DB78B9
:1006D000012B11D17B68DB689B68FB60FB684FF0E6
:1006E000050262F34403FB60FB6843F02003FB60F8
:1006F0007B68DB68FA689A60FB7F184607F1200781
:10070000BD4680BD80B485B000AF78604FF0000377
:10071000FB734FF00003BB60BB6843F00103BB6099
:100720007B68DB687A68D2689168BA680A439A6025
:10073000FB7B184607F11407BD4680BC704700BF1D
:1007400080B485B000AF78604FF00003FB734FF0CA
:100750000003BB60BB6843F00103BB607B68DB68E0
:100760007A68D2689168BA686FEA02020A409A60B1
:10077000FB7B184607F11407BD4680BC704700BFDD
:1007800080B586B000AF786039604FF00003FB742D
:100790004FF000037B614FF00003FB60FB6843F008
:1007A0002003FB603B68DBB203F01F03DAB2FB6897
:1007B00062F38A13FB607B68DB68FA681A617B6806
:1007C000DB681B69FB607B6903F101037B617A696C
:1007D0000A4B9A4206D8FB68C3F34013DBB2012BE5
:1007E000EDD000E000BF4FF0030005F067FAFB7C9E
:1007F000184607F11807BD4680BD00BF400D030035
:1008000080B586B000AF78604FF00003FB744FF006
:1008100000037B614FF00003FB60FB6843F01003B3
:10082000FB607B68DB68FA681A617B68DB681B69C0
:10083000FB607B6903F101037B617A690A4B9A4291
:1008400006D8FB68C3F30013DBB2012BEDD000E048
:1008500000BF4FF0030005F031FAFB7C184607F1AA
:100860001807BD4680BD00BF400D030080B584B0B1
:1008700000AF78600B46FB704FF00003FB737B68A2
:10088000DB68DB68BB60BB686FF35D73BB60BB6834
:100890006FF39E73BB60FB78012B04D1BB6843F000
:1008A0000053BB6006E0FB78002B03D1BB6843F02C
:1008B0008043BB607B68DB68BA68DA604FF0320067
:1008C00005F028FAFB7B184607F11007BD4680BDEE
:1008D00080B483B000AF78607B68DB685B6903F04D
:1008E0000103184607F10C07BD4680BC704700BFE6
:1008F00080B582B000AF78607868FFF7E9FF034603
:10090000012B0CBF00230123DBB2184607F10807B7
:10091000BD4680BD80B485B000AF78604FF0000365
:10092000FB607B68DB685B69FB607B68DB689B69FD
:10093000FA681340FB60FB68184607F11407BD46D0
:1009400080BC704780B485B000AF78600B46FB7008
:100950007B681B691B68FB60FB7803F00303DAB25A
:10096000FB6862F30103FB607B681B69FA681A602D
:1009700007F11407BD4680BC704700BF80B58CB03E
:1009800000AF78604FF0000387F82B304FF0000382
:100990007B624FF000033B624FF00003FB614FF0BE
:1009A0000003BB614FF000037B617B68D3F80C311F
:1009B0004FF000021A607B681B691B683B623B6A50
:1009C0006FF3CC233B627B681B693A6A1A607B68D1
:1009D000DB7A012B47D178684FF00301FFF7B2FFB4
:1009E0007B68DB684FF080025A62FB694FF020029F
:1009F00062F31F43FB61FB694FF0800262F30F0358
:100A0000FB617B68DB68FA699A62BA8BFB8BD3184F
:100A10009BB23B83BB694FF0800262F31F43BB6113
:100A20007B68DB68BA69C3F804213A8B7B8BD318E7
:100A30009BB23B83BB694FF0200262F31F43BB6153
:100A40007B68DB68BA69C3F808213A8B7B8BD318C3
:100A50009BB23B83BB696FF31F43BB617B68DB6861
:100A6000BA69C3F80C2178684FF01001FFF788FECF
:100A70007868FFF7C5FE7B681B694FF000021A61BA
:100A80007B681B694FF000025A617B681B694FF05D
:100A9000FF329A617B681B694FF00002DA614FF008
:100AA0000003FB6242E07A68FB6A03F104034FEA49
:100AB0008303D3189B681B687B627B6AC3F3C07394
:100AC000DBB2002B0BD04FF000037B627B6A43F05C
:100AD00080437B627B6A43F000637B6202E04FF0FD
:100AE00000037B627A68FB6A03F104034FEA830325
:100AF000D3189B687A6A1A607A68FB6A03F1040368
:100B00004FEA8303D3189B684FF000021A617A689A
:100B1000FB6A03F104034FEA8303D3189B684FF089
:100B2000FF029A60FB6A03F10103FB627B685B785A
:100B30001A46FB6A9A42B6D84FF00003FB6242E0C5
:100B40007A68FB6A03F114034FEA8303D3185B68E6
:100B50001B68FB60FB68C3F3C073DBB2002B0BD0D8
:100B60004FF00003FB60FB6843F08043FB60FB68D1
:100B700043F00063FB6002E04FF00003FB607A6823
:100B8000FB6A03F114034FEA8303D3185B68FA6826
:100B90001A607A68FB6A03F114034FEA8303D318DF
:100BA0005B684FF000021A617A68FB6A03F1140374
:100BB0004FEA8303D3185B684FF0FF029A60FB6A29
:100BC00003F10103FB627B685B781A46FB6A9A4279
:100BD000B6D84FF000037B617B6943F480737B617F
:100BE0007B681B697A68126911697A696FEA020287
:100BF00011407A690A431A617B68DB78012B1ED1A8
:100C00004FF000033B613B6943F001033B613B69EB
:100C100043F002033B613B694FF0400262F38A03F9
:100C20003B613B6943F480333B613B694FF04002D9
:100C300062F359433B617B681B693A691A637868C0
:100C400000F008F897F82B30184607F13007BD463A
:100C500080BD00BF80B584B000AF78604FF0000366
:100C6000FB734FF00003BB607B68DB684FF0000252
:100C70009A617B68DB684FF0FF325A617868FFF752
:100C800083FA7B68DB78002B03D1BB6843F0100349
:100C9000BB60BB6843F40063BB60BB6843F4805334
:100CA000BB60BB6843F40053BB60BB6843F4802364
:100CB000BB60BB6843F40023BB60BB6843F0080320
:100CC000BB60BB6843F48013BB60BB6843F4001394
:100CD000BB607B68DB687A68D2689169BA686FEA42
:100CE00002021140BA680A439A61FB7B184607F179
:100CF0001007BD4680BD00BF80B485B000AF7860EE
:100D00004FF00003FB737B681B699B68BB60BB688B
:100D1000C3F34103DBB2022B0BD0032B05D0012B15
:100D200003D04FF00303FB7307E04FF00203FB73A4
:100D300003E04FF00103FB7300BFFB7B184607F194
:100D40001407BD4680BC704780B487B000AF7860A0
:100D50004FF00003FB754FF00003BB607B681B691D
:100D60009B683B617B689B691B68FB603B69C3F3C5
:100D70004103DBB2022B04D0FB686FF30A03FB6074
:100D800006E0FB684FF0030262F30A03FB6000BF5A
:100D90007B689B69FA681A60BB6843F48073BB6028
:100DA0007B681B697A6812695168BA686FEA020247
:100DB0001140BA680A435A60FB7D184607F11C07C8
:100DC000BD4680BC704700BF80B487B000AF78607C
:100DD00039604FF00003FB744FF00003FB604FF0ED
:100DE0000003BB603B685B78012B12D13B681B782A
:100DF0007A6803F104034FEA8303D3189B687B618D
:100E00003B681B784FF0010202FA03F39BB23B816F
:100E100014E03B681B787A6803F114034FEA8303FC
:100E2000D3185B687B613B681B784FF0010202FAC4
:100E300003F39AB2BB6862F31F43BB607B691B6814
:100E4000FB60FB68C3F3C033DBB2002B29D13B68E6
:100E50009B689BB24FEA43534FEA53539AB2FB68E5
:100E600062F30A03FB603B68DB7803F00303DAB24A
:100E7000FB6862F39343FB603B68DB88DBB203F003
:100E80000F03DAB2FB6862F39953FB60FB6843F02F
:100E90008053FB60FB6843F40043FB60FA687B69A6
:100EA0001A607B681B697A681269D169BA680A435B
:100EB000DA61FB7C184607F11C07BD4680BC704711
:100EC00080B487B000AF786039604FF00003FB74E6
:100ED0004FF00003FB604FF00003BB603B685B78A2
:100EE000012B12D13B681B787A6803F104034FEAA7
:100EF0008303D3189B687B613B681B784FF001022A
:100F000002FA03F39BB23B8114E03B681B787A68DA
:100F100003F114034FEA8303D3185B687B613B68DA
:100F20001B784FF0010202FA03F39AB2BB6862F336
:100F30001F43BB60FB686FF3CF33FB60FA687B69CC
:100F40001A607B681B697A681269D169BA686FEAAE
:100F500002020A40DA61FB7C184607F11C07BD4615
:100F600080BC704780B588B000AF786039604FF0C2
:100F70000003FB774FF00003BB614FF000037B6180
:100F80004FF000033B613B685B78012B40F0BD8074
:100F90003B681B787A6803F104034FEA8303D31894
:100FA0009B681B687B613B681B787A6803F10403CC
:100FB0004FEA8303D3189B681B693B613B685B69FD
:100FC000002B0AD13B696FF312033B613B694FF081
:100FD000010262F3DC433B6128E03B685B6923F07C
:100FE0007F4222F478023B6962F312033B613B6863
:100FF0005A693B689B68D31803F1FF323B689B68D2
:10100000B2FBF3F39BB24FEA83534FEA93539AB286
:101010003B6962F3DC433B613B68DB78012B05D124
:101020003B694FF0010262F35E733B613B681B78E2
:101030007A6803F104034FEA8303D3189B683A6983
:101040001A617B68DB78012B0CD13B681B787A68CE
:1010500003F104034FEA8303D3189B683A681269CB
:101060005A6116E03B68DB78012B12D03B685B6964
:10107000002B0ED03B681B784FF0010202FA03F3FD
:10108000BB617B681B697A681269516BBA690A4354
:101090005A633B68DB78012B14D17B681B699B6822
:1010A000FB60FB68C3F30D239BB203F00103002B2D
:1010B00004D17B6943F000537B6103E07B6943F01B
:1010C00080537B617B6943F080637B617B6943F084
:1010D00000437B613B681B787A6803F104034FEAA5
:1010E0008303D3189B687A691A603B68DB78012B0D
:1010F00040F09A803B68D9683B681A783B685B6926
:101100009BB27868FFF7B4F88EE03B681B787A688A
:1011100003F114034FEA8303D3185B681B687B61F8
:101120003B681B787A6803F114034FEA8303D318F2
:101130005B681B693B613B685B69002B10D13B68B6
:101140009B6823F07F4222F478023B6962F312032A
:101150003B613B694FF0010262F3DC433B6124E0F9
:101160003B685A693B689B68D31803F1FF323B68C0
:101170009B68B2FBF3F39BB24FEA83534FEA93535E
:101180009AB23B6962F3DC433B613B69C3F3C943F9
:101190009BB23A68926802FB03F323F07F4222F489
:1011A00078023B6962F312033B613B681B787A6803
:1011B00003F114034FEA8303D3185B683A691A6199
:1011C0007B68DB78012B0BD13B681B787A6803F1D5
:1011D00014034FEA8303D3185B683A6812695A61B3
:1011E0003B68DB78012B0CD13B685B79002B04D08A
:1011F0007B6943F000537B6103E07B6943F08053DC
:101200007B617B6943F080637B617B6943F00043D2
:101210007B613B681B787A6803F114034FEA830310
:10122000D3185B687A691A60FB7F184607F12007BC
:10123000BD4680BD80B489B000AF786039604FF0A2
:101240000003FB774FF00003BB614FF000033B61ED
:101250004FF00003BB603B685B78012B75D17B6866
:101260009B697B617B691B683B617B691B69BB6018
:101270003B685B69002B0AD13B7A6FF306033B7234
:10128000BB7A4FF0010262F3C403BB7224E03B68F7
:101290005A693B689B689A420ED93B689A683B68DA
:1012A0005A613B689B68DBB203F07F03DAB23B7A9A
:1012B00062F306033B7209E03B685B69DBB203F053
:1012C0007F03DAB23B7A62F306033B72BB7A4FF0DC
:1012D000010262F3C403BB72BA687B691A617B685E
:1012E000DB78012B0BD13B681B787A6803F1040390
:1012F0004FEA8303D3189B683A6812695A613B69C5
:1013000043F080633B613B6943F000433B613A69D2
:101310007B691A607B68DB78002B40F083803B6838
:101320005B69002B7ED03B681B784FF0010202FA0C
:1013300003F3BA691343BB617B681B697A6812695E
:10134000516BBA690A435A636CE03B681B787A6850
:1013500003F114034FEA8303D3185B681B683B61F6
:101360003B681B787A6803F114034FEA8303D318B0
:101370005B681B69BB603B685B69002B10D13B68F5
:101380009B68DBB203F07F03DAB23B7A62F30603B9
:101390003B72BB7A4FF0010262F3C403BB7213E0ED
:1013A0003B689A683B685A613B689B68DBB203F014
:1013B0007F03DAB23B7A62F306033B72BB7A4FF0EB
:1013C000010262F3C403BB723B681B787A6803F1C5
:1013D00014034FEA8303D3185B68BA681A617B6809
:1013E000DB78012B0BD13B681B787A6803F114037F
:1013F0004FEA8303D3185B683A6812695A613B6904
:1014000043F080633B613B6943F000433B613B68D1
:101410001B787A6803F114034FEA8303D3185B68DF
:101420003A691A60FB7F184607F12407BD4680BC65
:10143000704700BF80B487B000AF786039604FF06C
:101440000003FB754FF00003FB603B685B78012BEA
:101450001ED13B681B787A6803F104034FEA8303CB
:10146000D3189B683B613B691B68FB60FB68C3F357
:10147000C073DBB2002B03D0FB6843F08043FB60FA
:10148000FB6843F40013FB60FA683B691A6013E0E1
:101490003B681B787A6803F114034FEA8303D3187F
:1014A0005B683B613B691B68FB60FB6843F40013AE
:1014B000FB60FA683B691A60FB7D184607F11C0760
:1014C000BD4680BC704700BF80B487B000AF786075
:1014D00039604FF00003FB744FF00003FB603B6882
:1014E0005B78012B0AD13B681B787A6803F104030F
:1014F0004FEA8303D3189B687B6109E03B681B7844
:101500007A6803F114034FEA8303D3185B687B61A5
:101510007B691B68FB60FB686FF35553FB603B689E
:10152000DB78032B03D03B68DB78022B03D1FB680D
:1015300043F08053FB60FA687B691A60FB7C1846B5
:1015400007F11C07BD4680BC704700BF80B485B062
:1015500000AF78607B681B699B69FB607B681B69D7
:10156000DB69FA681340FB60FB684FEA13431846D7
:1015700007F11407BD4680BC704700BF80B485B03A
:1015800000AF78600B46FB70FB787A6803F11403B8
:101590004FEA8303D3185B689B68FB607B681B6919
:1015A0005B69FA681340FB60FB68184607F1140793
:1015B000BD4680BC704700BF80B485B000AF786086
:1015C0007B681B699B69FB607B681B69DB69FA6848
:1015D0001340FB60FB684FEA03434FEA134318468E
:1015E00007F11407BD4680BC704700BF80B487B0C8
:1015F00000AF78604FF000033B61FB7C43F0C00319
:10160000FB74BB7C4FF0010262F3C403BB743B7CF0
:101610004FF0180262F306033B747B685B6D3A6916
:101620001A617B68DB78012B17D14FF00003FB6058
:101630007B685B6D7A6802F5B9625A617B685B6DA5
:101640001B68FB60FB6843F00043FB604FF08023A6
:10165000FB607B685B6DFA681A6007F11C07BD468A
:1016600080BC704780B485B000AF78607B689B7A9F
:10167000002B1BD07B681B699B68FB60FB68C3F376
:101680000003DBB2012B11D17B6803F586731B6865
:10169000BB60BB686FF34103BB60BB686FF30003C3
:1016A000BB607B68D3F80C31BA681A6007F1140785
:1016B000BD4680BC704700BF80B400AFBD4680BC53
:1016C000704700BF80B400AFBD4680BC704700BF0C
:1016D00080B586B000AF786013460A467A803B80BA
:1016E0004FF00003FB754FF00003FB81334B1B6889
:1016F00018464FF000014FF0FF324FF0000305F0A5
:10170000C1F92F4B9A882F4B1A802D4B5A882D4B9D
:101710005A802B4B1A882B4B9A80284B1B681846F3
:101720004FF000014FF000024FF0000305F000F908
:10173000254B1B787A889A4237D37A883B88D2180F
:10174000214B1B781946214B1B78CB189A422CDC75
:101750007A881F4B1B78D31A3B6122E0194B3A69F8
:1017600033F812309BB24FEA13239BB2DAB27B6894
:101770001A707B6803F101037B60124B3A6933F8FE
:1017800012309BB2DAB27B681A707B6803F10103F6
:101790007B603B6903F101033B613B8803F1FF334D
:1017A0003B803B88002BD9D102E04FF00103FB7551
:1017B000FB7D184607F11807BD4680BDBC2F0020F1
:1017C000942F0020C8010020040000200600002003
:1017D0000700002080B485B000AFF86079813A81BD
:1017E000FB714FF00103184607F11407BD4680BC9A
:1017F000704700BF80B485B000AFF86079813A814E
:10180000FB714FF00103184607F11407BD4680BC79
:10181000704700BF80B483B000AF786013460A46BB
:101820007A803B804FF00103184607F10C07BD4654
:1018300080BC704780B584B000AF3B600346FB714D
:101840000B46BB7113467B714FF00003FB73BB79F2
:10185000002B05D0BB79002B02D0BB79F72B03D925
:101860004FF00203FB7340E0234BBA791A70FB7907
:10187000002B24D1214B224A1A60224B224A1A60A3
:10188000224B234A1A60234B234A1A60234B4FF002
:1018900000021A60224B234A1A60234B234A1A6023
:1018A000234B244A1A60144B19787A793B7E0846F8
:1018B00011463A6803F07AFD0346FB7302E04FF0ED
:1018C0000203FB73FB7B002B0FD100F025FA0346CC
:1018D000002B03D14FF00303FB7306E0164BFA799C
:1018E0001A70164B4FF001021A70FB7B184607F175
:1018F0001007BD4680BD00BF0C020020140200206E
:1019000031540008180200205D5400081002002025
:10191000015500081C0200207D5400082002002010
:10192000A8270020E1550008A02700209D560008A8
:10193000A4270020295700080D0200200C000020D9
:1019400080B582B000AF4FF00003FB710A4B1B78EB
:10195000012B07D1094B1B689847074B4FF000023A
:101960001A7002E04FF00603FB71FB79184607F18D
:101970000807BD4680BD00BF0C00002014020020F7
:1019800080B582B000AF4FF00003FB70574B1B785F
:10199000002B02D04FF00603A2E007F10203184625
:1019A00000F0E0F90346012B40F09880BB78032B50
:1019B00000F2948001A252F823F000BFDD1A000863
:1019C000CD190008011A0008DD1A0008484B1B68F1
:1019D00048484949494A98470346FB70FB78002B21
:1019E00079D1444B1A78464B1B789A4203D0414B2D
:1019F0001B78002B6FD14FF0020000F09BF96AE0DA
:101A00003D4B1B681A783F4B1A703F4B4FF0010259
:101A10001A704FF000037B6021E03C4B7A6813F8AA
:101A20003230002B1FD0394B7A6813F83220354BF7
:101A30001B789A420FD1354A7B684FEAC303D3180B
:101A40005B682D4A126810462C49984703461A468F
:101A50002D4B1A7008E07B6803F101037B607B6803
:101A60000F2BDADD00E000BF224B1B78002B34D0B7
:101A7000254B1B78002B22D0204B4FF000021A8000
:101A80001D4B19681D4B1B881A468A181D49097879
:101A900061F07F01C9B2117003F101039AB2174BD3
:101AA0001A80154B1968154B1B881A468A18164957
:101AB0000978117003F101039AB2104B1A80144B8C
:101AC0001B680F4A10780C4A11680C4A1288984714
:101AD0000346FB7001E000BF00E000BF4FF00003D1
:101AE000184607F10807BD4680BD00BF0C00002066
:101AF0001C02002024020020280200202C020020CA
:101B00000C0200202E0200202F02002010000020D6
:101B10001002002080B586B004AF4FF000030093A0
:101B20004FF000004FF00A014FF000024FF4614304
:101B3000FFF780FE0346FB714FF0010300934FF067
:101B4000000301934FF0000302934FF0000303934F
:101B5000054806494FF480724FF0000301F0A2FFE0
:101B600007F10807BD4680BD711B00086495000899
:101B700080B582B000AF7860FFF7E2FE084B4FF00F
:101B800000021A71FFF7FCFE4FF0640002F05EF8ED
:101B9000034B1B6803F10102014B1A60F2E700BF1F
:101BA000B42D002080B586B000AF786039604FF06A
:101BB0000003BB753B681B88052B40F081807B6868
:101BC00003F101031B784FEA0323BB827B6803F117
:101BD00002031B781A46BB8A1343BB82BB8A03F1FC
:101BE0000103BB827B6803F103031B784FEA0323E5
:101BF0007B827B6803F104031B781A467B8A1343BC
:101C00007B827B8A002B57D07A8A40F2CF739A422C
:101C100052D87B68FB603B684FF000021A80FB687B
:101C20004FF002021A70FB6803F10103FB603B688E
:101C30001B8803F101039AB23B681A807B8A03F088
:101C40000703002B08D07B8A4FEAD3039BB2DBB299
:101C500003F10103FB7504E07B8A4FEAD3039BB2D7
:101C6000FB75FB68FA7D1A70FB6803F10103FB60EA
:101C70003B681B8803F101039AB23B681A80BA8A59
:101C80007B8AF86811461A46FFF7C4FD0346FB72CB
:101C9000FB7A002B06D0FB7A184600F021FD0346A4
:101CA000BB7510E03B681A88FB7D9BB2D3189AB2D3
:101CB0003B681A8000BF06E04FF00303BB7502E0EB
:101CC0004FF00303BB75BB7D184607F11807BD46EF
:101CD00080BD00BF80B400AFBD4680BC704700BF70
:101CE00080B483B000AF0346FB7107F10C07BD461B
:101CF00080BC704780B400AFBD4680BC704700BF59
:101D000080B400AFBD4680BC704700BF80B400AF58
:101D1000BD4680BC704700BF80B400AF044B4FF09D
:101D200000021A704FF001031846BD4680BC704790
:101D30003102002080B483B000AF0346FB71074B33
:101D40004FF001021A70064BFA791A704FF0010336
:101D5000184607F10C07BD4680BC704731020020D1
:101D60003002002080B485B000AF78604FF00003EF
:101D7000FB730B4B1B78002B0AD00A4B1A787B683D
:101D80001A70074B4FF000021A704FF00103FB73FB
:101D9000FB7B184607F11407BD4680BC704700BFA7
:101DA000310200203002002080B586B004AF4FF031
:101DB00004004FF0010101F08BF94FF080033B600C
:101DC0004FF000037B714FF001033B714FF00003B4
:101DD000BB714FF00003FB713B461148194602F0FE
:101DE00027FF0F484FF080014FF0000202F0FEFF86
:101DF0004FF0010300930B4B01934FF0000302934C
:101E00004FF000030393084808494FF040024FF099
:101E1000000301F047FE07F10807BD4680BD00BF83
:101E200000080240B4270020311E00086C9500080D
:101E300080B582B000AF78604B4B1B78012B16D079
:101E4000022B3DD0002B7AD148484FF080014FF053
:101E5000010202F0CBFF40F2DC5001F0F7FE4348F4
:101E60004FF080014FF0000202F0C0FF67E03F48F2
:101E70004FF080014FF0010202F0B8FF4FF47A708A
:101E800001F0E4FE39484FF080014FF0000202F00B
:101E9000ADFF4FF47A7001F0D9FE34484FF0800165
:101EA0004FF0010202F0A2FF4FF47A7001F0CEFE73
:101EB0002E484FF080014FF0000202F097FF3EE005
:101EC0002A484FF080014FF0010202F08FFF4FF4DB
:101ED0007A7001F0BBFE25484FF080014FF0000200
:101EE00002F084FF4FF47A7001F0B0FE1F484FF00B
:101EF00080014FF0010202F079FF4FF47A7001F097
:101F0000A5FE1A484FF080014FF0000202F06EFF6C
:101F10004FF47A7001F09AFE14484FF080014FF0B0
:101F2000010202F063FF4FF47A7001F08FFE0F4858
:101F30004FF080014FF0000202F058FF00BF0C4B41
:101F40009B6803F101020A4B9A60094B4FF00102B2
:101F50001A73054B4FF003021A70064B1B681846A4
:101F600001F0A0FE68E700BFAC00002000080240BE
:101F7000B42D0020B427002080B582B000AF034606
:101F8000FB71094B1B68184601F00CFF074B4FF023
:101F900000021A73FB7903F00703DAB2044B1A70DC
:101FA00007F10807BD4680BDB4270020B42D0020EE
:101FB000AC00002080B582B000AF786039607B68EB
:101FC00003F101020A4B1B8810460A491A4607F022
:101FD00077F9074B1B8803F101039AB23B681A801B
:101FE0004FF00003184607F10807BD4680BD00BF4B
:101FF000540200203402002080B58EB004AF4FF0B0
:1020000002004FF0010101F063F84FF001004FF0C2
:10201000010101F05DF84FF0F0033B624FF0020365
:1020200087F824304FF0000387F825304FF0000385
:1020300087F8263007F120036A48194602F0F8FDB8
:1020400068484FF004014FF0020202F0E7FE6548D5
:102050004FF005014FF0020202F0E0FE61484FF040
:1020600006014FF0020202F0D9FE5E484FF0070170
:102070004FF0020202F0D2FE4FF002004FF00101D9
:1020800001F066F84FF004004FF0010101F060F834
:1020900007F11403184606F0A7FE4FF40073BB8344
:1020A0004FF48073BB614FF03C03BB8207F1140314
:1020B0004D48194606F02CFE07F114034B4819460B
:1020C00006F026FE3B46184607F008F84FF00103DD
:1020D0007B804FF060033B804FF00003BB603B46CA
:1020E0004148194606F0ECFE3B463F48194606F0CB
:1020F00063FF3B463D48194606F0E2FE3B463B483F
:10210000194606F059FF39484FF0080107F010F85A
:1021100036484FF0080107F027F834484FF0010126
:1021200006F08EFE30484FF0010106F0A9FE2F4860
:102130004FF0010106F0A4FE2B4B4FF000025A6352
:10214000294B4FF000029A63284B4FF000025A636C
:10215000264B4FF000029A63254B4FF000021A7194
:10216000234B4FF064021A80214B4FF00002DA71CA
:102170001F4B4FF0C8025A801D4B4FF000025A719E
:102180001B4B4FF000029A714FF0C0033B624FF0BF
:10219000000387F824304FF0010387F827304FF011
:1021A000000387F8253007F120031248194602F092
:1021B0003FFD4FF0010300934FF0000301934FF0F8
:1021C000000302934FF0000303930B480B494FF0B9
:1021D00040024FF0000301F065FC07F12807BD46FF
:1021E00080BD00BF00040240000400400008004021
:1021F000B827002000000240012200087495000862
:1022000080B582B000AF78605A4B1B6818464FF01B
:1022100000014FF0FF324FF0000304F033FC564B47
:102220009B79002B04D1554B1A88534B1A8007E039
:10223000514B9B79012B03D1504B5A884E4B1A803E
:102240004C4B1B6818464FF000014FF000024FF056
:10225000000304F06DFB484B1A88494BA3FB0213A3
:102260004FEAD3039AB2444B1A80434B1B88092B85
:1022700003D8414B4FF00A021A803F4B1B88B3F53D
:102280007A7F03D93C4B4FF47A721A803A4B5A88C2
:10229000394B1B889A4210D9374B1B79002B0CD035
:1022A000354B5B88A3F132039AB2334B5A80324BE1
:1022B0005B88184601F0CAFC04E02F4B1B881846C7
:1022C00001F0C4FC2F484FF0400102F071FD0346BD
:1022D000002B0CD1284B5B79022B21D0264B4FF0E1
:1022E00002025A714FF00100FFF746FE18E0254840
:1022F0004FF0800102F05CFD0346002B0CD11E4B19
:102300005B79012B0CD01C4B4FF001025A714FF03E
:102310000100FFF731FE03E0174B4FF000025A7146
:10232000154B1B79012B04D0022B0ED0002B18D09B
:102330001EE0114B5B79012B04D10F4B4FF00002D3
:102340001A7116E000F0F8F813E00B4B5B79022BE2
:1023500004D1094B4FF000021A710AE000F0FAF8BC
:1023600007E000F005F9044B4FF0C8025A8000E086
:1023700000BF49E7BC2F0020B8270020942F002081
:10238000CDCCCCCC0000024080B483B000AF03467B
:10239000FB71044BFA791A7107F10C07BD4680BC3A
:1023A000704700BFB827002080B483B000AF034659
:1023B000FB71044BFA799A7107F10C07BD4680BC9A
:1023C000704700BFB827002080B400AF574BDB79BF
:1023D00003F00703DAB2554BDA71544BDB79072B64
:1023E00000F29C8001A252F823F000BF0D240008E7
:1023F0002F240008512400087324000895240008A5
:10240000B7240008D9240008FB240008484B4FF0EB
:102410007F025A63464B4FF000029A63454B4FF0E0
:1024200000025A63434B4FF000029A637BE0404B3B
:102430004FF07F025A633E4B4FF07F029A633D4B51
:102440004FF000025A633B4B4FF000029A636AE080
:10245000374B4FF000025A63354B4FF07F029A63BF
:10246000344B4FF000025A63324B4FF000029A6334
:1024700059E02F4B4FF000025A632D4B4FF07F0273
:102480009A632C4B4FF07F025A632A4B4FF00002A5
:102490009A6348E0264B4FF000025A63244B4FF0FA
:1024A00000029A63234B4FF07F025A63214B4FF097
:1024B00000029A6337E01E4B4FF000025A631C4B38
:1024C0004FF000029A631B4B4FF07F025A63194B87
:1024D0004FF07F029A6326E0154B4FF000025A63DB
:1024E000134B4FF000029A63124B4FF000025A63F5
:1024F000104B4FF07F029A6315E00D4B4FF07F02B7
:102500005A630B4B4FF000029A630A4B4FF00002E4
:102510005A63084B4FF07F029A6304E0034B4FF07D
:102520000002DA7100BFBD4680BC7047B8270020AA
:10253000000400400008004080B500AF044BDB7988
:1025400003F10103DAB2024BDA71FFF73DFF80BD00
:10255000B827002080B500AF044BDB7903F1FF33CF
:10256000DAB2024BDA71FFF72FFF80BDB8270020E7
:1025700080B400AF574BDB7903F00703DAB2554B59
:10258000DA71544BDB79072B00F29C8001A252F8E0
:1025900023F000BFB5250008D7250008F92500085D
:1025A0001B2600083D2600085F260008812600083B
:1025B000A3260008484B4FF05F025A63464B4FF08A
:1025C00000029A63454B4FF000025A63434B4FF0B1
:1025D00000029A637BE0404B4FF05F025A633E4B30
:1025E0004FF05F029A633D4B4FF000025A633B4B42
:1025F0004FF000029A636AE0374B4FF000025A63D3
:10260000354B4FF05F029A63344B4FF000025A6330
:10261000324B4FF000029A6359E02F4B4FF000020B
:102620005A632D4B4FF05F029A632C4B4FF05F02C1
:102630005A632A4B4FF000029A6348E0264B4FF052
:1026400000025A63244B4FF000029A63234B4FF071
:102650005F025A63214B4FF000029A6337E01E4B32
:102660004FF000025A631C4B4FF000029A631B4B61
:102670004FF05F025A63194B4FF05F029A6326E0F6
:10268000154B4FF000025A63134B4FF000029A6350
:10269000124B4FF000025A63104B4FF05F029A63E7
:1026A00015E00D4B4FF05F025A630B4B4FF00002E9
:1026B0009A630A4B4FF000025A63084B4FF05F02D7
:1026C0009A6304E0034B4FF00002DA7100BFBD468D
:1026D00080BC7047B827002000040040000800407C
:1026E00080B485B000AF0346FB71FB79012B07D0A6
:1026F000072B09D0002B0BD14FF00003FB730BE02D
:102700004FF00203FB7307E04FF00603FB7303E097
:102710004FF00403FB7300BFFB7B184607F114075F
:10272000BD4680BC704700BF80B582B000AF124B81
:102730007B60124B3B600BE07B681A683B681A6059
:102740003B6803F104033B607B6803F104037B6097
:102750003A680B4B9A42EFD30A480B494FF00002FC
:102760008842B8BF40F8042BFFF6FAAF00F032FC05
:1027700007F10807BD4680BD6898000800000020EA
:10278000C4010020C80100208038002080B400AFC0
:10279000FEE700BF80B584B000AF786039604FF0CD
:1027A0000003FB733B681B88052B2AD17B6803F170
:1027B00001031B784FEA0323BB817B6803F102030B
:1027C0001B781A46BB891343BB81BB8903F1010304
:1027D000BB817B6803F10302BB89104619464FF0A9
:1027E00001024FF00103FEF7F5FF0346FB72FB7A8F
:1027F000002B09D0FB7A1846FFF772FF0346FB73E4
:1028000002E04FF00303FB73FB7B184607F1100750
:10281000BD4680BD80B584B000AF786039604FF0B0
:102820000003FB733B681B88052B54D97B6803F1BD
:1028300001031B784FEA0323BB817B6803F102038A
:102840001B781A46BB891343BB81BB8903F1010383
:10285000BB817B6803F103031B784FEA03237B8171
:102860007B6803F104031B781A467B8913437B8141
:102870007B685B797B727B89002B28D07B89782BE6
:1028800025D87B89DBB24FEA4303DBB27A7A9A42DE
:102890001DD17B6803F10601BA897B890846114680
:1028A0001A464FF00103FEF795FF03463B723B7A51
:1028B000002B06D03B7A1846FFF712FF0346FB7346
:1028C0000CE03B684FF005021A8000BF06E04FF0B5
:1028D0000303FB7302E04FF00303FB73FB7B18461B
:1028E00007F11007BD4680BD80B586B000AF7860A7
:1028F00039604FF00003FB753B681B88052B70D1D6
:102900007B6803F101031B784FEA0323BB827B68DA
:1029100003F102031B781A46BB8A1343BB82BB8AAE
:1029200003F10103BB827B6803F103031B784FEAC9
:1029300003237B827B6803F104031B787B827B8A01
:10294000002B4AD07B8A7D2B47D87B68FB603B6895
:102950004FF000021A80FB684FF003021A70FB6808
:1029600003F10103FB603B681B8803F101039AB28A
:102970003B681A807B8ADBB24FEA4303DAB2FB681A
:102980001A70FB6803F10103FB603B681B8803F1CD
:1029900001039AB23B681A80BA8A7B8AF8681146AA
:1029A0001A464FF00003FEF715FF0346FB72FB7A51
:1029B000002B06D0FB7A1846FFF792FE0346FB7504
:1029C00012E03B681A887B8A4FEA43039BB2D31814
:1029D0009AB23B681A8000BF06E04FF00303FB7514
:1029E00002E04FF00303FB75FB7D184607F1180763
:1029F000BD4680BD80B586B000AF786039604FF0CD
:102A00000003FB753B681B88092B40F2B6807B688E
:102A100003F101031B784FEA0323BB827B6803F1B8
:102A200002031B781A46BB8A1343BB82BB8A03F19D
:102A30000103BB827B6803F103031B784FEA032386
:102A40007B827B6803F104031B781A467B8A13435D
:102A50007B827B6803F105031B784FEA03233B82EB
:102A60007B6803F106031B781A463B8A13433B82BB
:102A70003B8A03F101033B827B6803F107031B7868
:102A80004FEA0323FB817B6803F108031B781A4696
:102A9000FB891343FB817B685B7A7B737B8A002B0A
:102AA00068D07B8A7D2B65D8FB89002B62D0FB899F
:102AB000792B5FD8FB894FEA43027B7B9A4259D13D
:102AC0007B6803F10A013A8AFB89084611461A46D7
:102AD0004FF00103FEF77EFE0346BB75BB7D002B66
:102AE0003ED17B68BB603B684FF000021A80BB6838
:102AF0004FF017021A70BB6803F10103BB603B681B
:102B00001B8803F101039AB23B681A807B8ADBB20F
:102B10004FEA4303DAB2BB681A70BB6803F10103E2
:102B2000BB603B681B8803F101039AB23B681A80C3
:102B3000BA8A7B8AB86811461A464FF00003FEF73E
:102B400049FE0346BB75BB7D002B09D13B681A8843
:102B50007B8A4FEA43039BB2D3189AB23B681A8030
:102B6000BB7D002B09D0BB7D1846FFF7B9FD03469E
:102B7000FB7502E04FF00303FB75FB7D184607F180
:102B80001807BD4680BD00BF80B584B000AFF860B7
:102B90007A603B600B46FB72F86803F00BF8F8684C
:102BA00000F01EF8FB683A68C3F8E025FB68BA69D4
:102BB000C3F8E425FB687A68C3F8E825FB7AF8686F
:102BC000194605F045FDFB68D3F8E4351B689847C6
:102BD000F86803F055F807F11007BD4680BD00BF47
:102BE00080B483B000AF78604FF00003184607F15F
:102BF0000C07BD4680BC704780B584B000AF7860DC
:102C000007F108037868194603F0BCFC3B7A03F02F
:102C10001F03012B0AD0022B0FD0002B14D107F178
:102C200008037868194603F0A7F816E007F10803CF
:102C30007868194603F0F2F80FE007F108037868A6
:102C4000194603F021F908E03B7A23F07F03DBB259
:102C50007868194605F0B0FE00BF4FF00003184633
:102C600007F11007BD4680BD80B584B000AF786025
:102C70000B46FB70FB78002B45D17B6803F55C733A
:102C8000FB607B6893F81131032B4FD1FB68DA6945
:102C9000FB689B689A4221D9FB68DA69FB689B68EC
:102CA000D21AFB68DA617B68DB78012B06D1FB68FE
:102CB000DA68FB689B68D218FB68DA60FB68DA6840
:102CC000FB689968FB68DB69994238BF0B469BB289
:102CD000786811461A4605F0C7FF27E07B68D3F8ED
:102CE000E0351B69002B0AD07B6893F81231032B67
:102CF00005D17B68D3F8E0351B6978689847786818
:102D000005F0CAFF12E07B68D3F8E0359B69002B21
:102D10000CD07B6893F81231032B07D17B68D3F872
:102D2000E0359B69FA787868114698474FF00003C0
:102D3000184607F11007BD4680BD00BF80B584B0BE
:102D400000AF78600B46FB70FB78002B63D17B688B
:102D500003F58C73FB607B6893F81131022B6ED105
:102D6000FB68DA69FB689B689A421CD9FB68DA69E0
:102D7000FB689B68D21AFB68DA617B68DB78012B01
:102D800006D1FB68DA68FB689B68D218FB68DA60DA
:102D9000FB68DA68FB68DB699BB2786811461A4603
:102DA00005F026FF4BE0FB681B6AFA689268B3FBEC
:102DB000F2F102FB01F29B1A002B17D1FB681A6A91
:102DC000FB689B689A4211D3FB681A6AFB685B6ACE
:102DD0009A420BD278684FF000014FF0000205F0E4
:102DE00007FFFB684FF000025A6229E07B68D3F8C6
:102DF000E035DB68002B0AD07B6893F81231032B97
:102E000005D17B68D3F8E035DB6878689847786847
:102E100005F060FF13E07B68D3F8E0355B69002BB9
:102E20000ED07B6893F81231032B09D17B68D3F85D
:102E3000E0355B69FA7878681146984700E000BF92
:102E40004FF00003184607F11007BD4680BD00BFD4
:102E500080B582B000AF786078684FF000014FF025
:102E600040024FF0000305F089FC78684FF08001C4
:102E70004FF040024FF0000305F080FC7B684FF0FC
:102E8000010283F812217B68D3F8E4355B687A6825
:102E90009278104698474FF00003184607F108074C
:102EA000BD4680BD80B582B000AF78607B68D3F846
:102EB000E4351B6998477B684FF0030283F81221C1
:102EC0004FF00003184607F10807BD4680BD00BF5C
:102ED00080B582B000AF78607B684FF0040283F861
:102EE00012217B68D3F8E435DB6898474FF0000384
:102EF000184607F10807BD4680BD00BF80B582B007
:102F000000AF78607B68D3F8E035DB69002B05D033
:102F10007B68D3F8E035DB69786898474FF00003A9
:102F2000184607F10807BD4680BD00BF80B582B0D6
:102F300000AF78600B46FB707B68D3F8E0351B6808
:102F4000FA787868114698477B68D3F8E4359B682F
:102F500098474FF00003184607F10807BD4680BDAB
:102F600080B582B000AF78600B46FB707B68D3F809
:102F7000E0355B68FA787868114698474FF00003AF
:102F8000184607F10807BD4680BD00BF80B582B076
:102F900000AF78607B68D3F8E0351B6A78689847A3
:102FA0004FF00003184607F10807BD4680BD00BF7B
:102FB00080B582B000AF78607B68D3F8E0355B6A9B
:102FC000786898474FF00003184607F10807BD4698
:102FD00080BD00BF80B582B002AF02F0D1FBFFF729
:102FE0000BF802F06BFCFEF7DFFE01F015FD084B5D
:102FF000009308484FF00101074A084BFFF7C4FD52
:10300000FEF788FD00F004F900F020FFFEE700BFA6
:1030100090000020C0270020E4000020980100203C
:1030200080B400AFFEE700BF80B483B000AF78602B
:103030003960FEE780B582B000AF05F0A9FD034618
:103040007B607B6807F10807BD4680BD80B485B012
:1030500000AF78600B467B804FF0FF03FB734FF0AF
:10306000FF03BB7315E07B681A78BB7B5340DBB270
:10307000BB607B6803F101037B60134ABB68D31814
:103080001A78FB7B5340BB73104ABB68D3181B787C
:10309000FB737B88002B0CBF00230123DBB27A88F3
:1030A00002F1FF327A80002BDDD1FB7B4FEA032354
:1030B0009AB2BB7B9BB213439BB29BB2184607F1FB
:1030C0001407BD4680BC70478495000884960008AC
:1030D00080B483B000AF78600B46FB70FB78002BA8
:1030E00006D00A4B094A116B7A680A431A6307E053
:1030F000064B064A116B7A686FEA02020A401A63AD
:1031000007F10C07BD4680BC704700BF0038024085
:1031100080B483B000AF78600B46FB70FB78002B67
:1031200006D00A4B094A516B7A680A435A6307E092
:10313000064B064A516B7A686FEA02020A405A63EC
:1031400007F10C07BD4680BC704700BF0038024045
:1031500080B483B000AF78600B46FB70FB78002B27
:1031600006D00A4B094A116C7A680A431A6407E0D0
:10317000064B064A116C7A686FEA02020A401A642A
:1031800007F10C07BD4680BC704700BF0038024005
:1031900080B483B000AF78600B46FB70FB78002BE7
:1031A00006D00A4B094A516C7A680A435A6407E010
:1031B000064B064A516C7A686FEA02020A405A646A
:1031C00007F10C07BD4680BC704700BF00380240C5
:1031D00080B483B000AF78600B46FB70FB78002BA7
:1031E00006D00A4B094A516A7A680A435A6207E0D4
:1031F000064B064A516A7A686FEA02020A405A622E
:1032000007F10C07BD4680BC704700BF0038024084
:1032100080B586B004AF4FF004004FF00101FFF716
:1032200057FF4FF040033B604FF000037B714FF0BE
:1032300001033B714FF00003BB714FF00003FB71C2
:103240003B461548194601F0F3FC13484FF0400186
:103250004FF0000201F0CAFD104B4FF000021A704F
:103260000E4B4FF003025A704FF0010300934FF0E2
:10327000000301934FF0000302934FF00003039308
:10328000074808494FF080024FF0000300F00AFCA5
:1032900007F10807BD4680BD00080240B02D0020A0
:1032A000A93200088497000880B584B000AF786028
:1032B000B74B4FF000021A77B64B1B68184603F065
:1032C000BFFC0346002B00F0B980B24B1A6807F12F
:1032D0000F03104619464FF000024FF0000303F0B1
:1032E000D1FBFB7B012B50D0022B7AD0002B40F07E
:1032F000A480A94B4FF003021A70A84B1B79012B35
:1033000004D0022B07D0002B0AD03DE04FF0000084
:10331000FFF73AF838E04FF00000FFF735F833E0F8
:103320009D4B5B78032B2AD801A252F823F000BFF3
:10333000413300084B330008553300085F33000861
:103340004FF00200FFF720F819E04FF00100FFF7FF
:103350001BF814E04FF00200FFF716F80FE08E4B59
:103360004FF000025A704FF00200FFF70DF88C4842
:103370004FF040014FF0010201F038FD00BF4FF067
:103380000100FFF711F800BF58E0834B4FF0010236
:103390001A70824B1B79012B04D0022B07D0002B13
:1033A0000AD01DE04FF00000FEF7EEFF18E04FF0EE
:1033B0000000FEF7E9FF13E04FF00200FEF7E4FF24
:1033C0004FF00000FEF7F0FF734B4FF003025A700E
:1033D00073484FF040014FF0000201F007FD00BFBD
:1033E0002CE06D4B4FF002021A706C4B1B79012BD5
:1033F00004D0022B07D0002B0AD01DE04FF00000B4
:10340000FEF7C2FF18E04FF00000FEF7BDFF13E02B
:103410004FF00100FEF7B8FF4FF00000FEF7C4FFC9
:103420005D4B4FF003025A705D484FF040014FF082
:10343000000201F0DBFC00BF00E000BF564B1B7830
:10344000032B00F2A38001A252F823F08D3500086F
:103450008D3500088D3500085D3400084E4B5B78D3
:10346000032B00F2A38001A252F823F07D34000860
:1034700097340008FF3400087D350008474B5B791E
:10348000022B7DD1444B4FF001025A704FF00100E6
:10349000FEF77AFF74E0434B1B6818464FF00001BB
:1034A0004FF0FF324FF0000303F0ECFA3E4BDB88A5
:1034B0009BB21AB23C4B9B889BB21BB2D21A40F211
:1034C000FF739A4203DD4FF00200FEF755FD354BC6
:1034D0001B6818464FF000014FF000024FF0000348
:1034E00003F026FA2D4B5B79012B4BD12A4B4FF081
:1034F00002025A704FF00200FEF746FF42E0294BED
:103500001B6818464FF000014FF0FF324FF00003E8
:1035100003F0B8FA244B9B889BB21AB2224BDB888B
:103520009BB21BB2D21A40F2FF739A4203DD4FF0F6
:103530000200FEF721FD1B4B1B6818464FF00001EF
:103540004FF000024FF0000303F0F2F9134B5B79E8
:10355000022B19D14FF00000FEF716FF0E4B4FF073
:1035600003025A700C4B4FF000021A700C484FF0D7
:1035700040014FF0000201F039FC05E000BF04E01B
:1035800000BF02E000BF00E000BF0FE000BF0EE0A0
:10359000B42D0020082E0020B02D0020B8270020D8
:1035A00000080240BC2F0020942F002000BF034BD6
:1035B0009B6903F10102014B9A617DE6B42D002065
:1035C00080B500AF4FF480704FF00101FFF700FEAF
:1035D0004FF480704FF00001FFF7FAFD80BD00BF8F
:1035E00080B485B000AF786039604FF00003FB60B5
:1035F0004FF00003FB727B685B68FB60FB6823F0A5
:10360000407323F48073FB603B681B794FEA03220D
:103610003B681B681343FA681343FB607B68FA68D6
:103620005A607B689B68FB60FA68194B1340FB602B
:103630003B681A693B68DB681A433B689B681A431E
:103640003B685B794FEA43031343FA681343FB601B
:103650007B68FA689A607B68DB6AFB60FB6823F42E
:103660007003FB603B681B7D03F1FF33DAB2FB7A2A
:103670001343FB72FB7A4FEA0353FA681343FB6070
:103680007B68FA68DA6207F11407BD4680BC7047B0
:10369000FDF7FFC080B483B000AF78607B684FF067
:1036A00000021A607B684FF000021A717B684FF0CD
:1036B00000025A717B684FF000029A607B684FF0FD
:1036C0000002DA607B684FF000021A617B684FF0FD
:1036D00001021A7507F10C07BD4680BC704700BF98
:1036E00080B485B000AF78604FF00003FB600E4BF4
:1036F0005B68FB60FA680D4B1340FB607B681A68DF
:103700007B685B681A437B689B681A437B68DB684D
:103710001343FA681343FB60034BFA685A6007F1DE
:103720001407BD4680BC704700230140E030FCFF19
:1037300080B483B000AF78607B684FF000021A60FD
:103740007B684FF000025A607B684FF000029A607D
:103750007B684FF00002DA6007F10C07BD4680BCC1
:10376000704700BF80B483B000AF78600B46FB7039
:10377000FB78002B06D07B689B6843F001027B68D6
:103780009A6005E07B689B6823F001027B689A6081
:1037900007F10C07BD4680BC704700BF80B485B000
:1037A00000AF7860F970BA707B704FF00003FB6077
:1037B0004FF00003BB60FB78092B27D97B68DB68DF
:1037C000FB60FA7813464FEA43039B18A3F11E03EC
:1037D0004FF0070202FA03F3BB60BB686FEA030312
:1037E000FA681340FB607978FA7813464FEA43038E
:1037F0009B18A3F11E0301FA03F3BB60FA68BB68D0
:103800001343FB607B68FA68DA6022E07B681B691F
:10381000FB60FA7813464FEA43039B184FF0070208
:1038200002FA03F3BB60BB686FEA0303FA68134054
:10383000FB607978FA7813464FEA43039B1801FA44
:1038400003F3BB60FA68BB681343FB607B68FA68EC
:103850001A61BB78062B27D87B685B6BFB60BB7853
:1038600003F1FF3213464FEA83039B184FF01F0208
:1038700002FA03F3BB60BB686FEA0303FA68134004
:10388000FB60F978BB7803F1FF3213464FEA8303FC
:103890009B1801FA03F3BB60FA68BB681343FB6033
:1038A0007B68FA685A6351E0BB780C2B27D87B6899
:1038B0001B6BFB60BA7813464FEA83039B18A3F196
:1038C00023034FF01F0202FA03F3BB60BB686FEAE9
:1038D0000303FA681340FB60F978BA7813464FEA9D
:1038E00083039B18A3F1230301FA03F3BB60FA6877
:1038F000BB681343FB607B68FA681A6326E07B6849
:10390000DB6AFB60BA7813464FEA83039B18A3F186
:1039100041034FF01F0202FA03F3BB60BB686FEA7A
:103920000303FA681340FB60F978BA7813464FEA4C
:1039300083039B18A3F1410301FA03F3BB60FA6808
:10394000BB681343FB607B68FA68DA6207F114070F
:10395000BD4680BC704700BF80B485B000AF7860C2
:103960000B46FB704FF00003FB737B681A68FB7813
:103970001340002B03D04FF00103FB7302E04FF024
:103980000003FB73FB7B184607F11407BD4680BCA0
:10399000704700BF80B586B000AF786039604FF0E7
:1039A0000003FB753B681B88052B71D17B6803F115
:1039B00001031B784FEA0323BB827B6803F10203F8
:1039C0001B781A46BB8A1343BB82BB8A03F10103EF
:1039D000BB827B6803F103031B784FEA03237B82DE
:1039E0007B6803F104031B781A467B8A13437B82AE
:1039F0007B8A002B48D07B8A7C2B45D87B68FB6078
:103A00003B684FF000021A80FB684FF004021A7006
:103A1000FB6803F10103FB603B681B8803F10103B2
:103A20009AB23B681A807B8ADBB24FEA4303DAB270
:103A3000FB681A70FB6803F10103FB603B681B889D
:103A400003F101039AB23B681A80BA8A7B8AF8684C
:103A500011461A46FDF73CFE0346FB72FB7A002B2B
:103A600006D0FB7A1846FEF73BFE0346FB7512E0D4
:103A70003B681A887B8A4FEA43039BB2D3189AB2F9
:103A80003B681A8000BF06E04FF00303FB7502E0BD
:103A90004FF00303FB75FB7D184607F11807BD4681
:103AA00080BD00BF80B58AB002AFF860B9603B60EE
:103AB0001346FB80FB68002B04D14FF0500080F3CD
:103AC0001188FEE7BB6A042B04D94FF0500080F345
:103AD0001188FEE7FB881846396B00F0E9FDB861F4
:103AE000BB69002B00F08C80BB691A6BFB8803F16B
:103AF000FF334FEA8303D3187B617B6923F007030D
:103B00007B617B6903F00703002B04D04FF050006A
:103B100080F31188FEE7FB880093B869B968BA6A38
:103B20007B6B00F0CFFC7869F9683A6803F0AAF97A
:103B30000246BB691A60BB691B6803F00703002BD0
:103B400004D04FF0500080F31188FEE7FB6A002B91
:103B500002D0FB6ABA691A6003F008FA344B1B689A
:103B600003F10102324B1A60324B1B68002B09D162
:103B7000304BBA691A602E4B1B68012B0FD100F035
:103B8000DDFC0CE02C4B1B68002B08D1294B1B687B
:103B9000DA6ABB6A9A4202D8264BBA691A60BB69D4
:103BA000DA6A264B1B689A4203D9BB69DA6A234B4F
:103BB0001A60234B1B6803F10102214B1A60BB6999
:103BC000DA6A204B1B689A4203D9BB69DA6A1D4B3B
:103BD0001A60BB69DA6A13464FEA83039B184FEAFF
:103BE0008303194A9A18BB6903F104031046194666
:103BF00001F050FB4FF00103FB6103F0C9F902E053
:103C00004FF0FF33FB61FB69012B0BD10A4B1B68A3
:103C1000002B07D0074B1B68DA6ABB6A9A4201D2B5
:103C200003F098F9FB69184607F12007BD4680BDEF
:103C300030030020580200204003002038030020F9
:103C4000540300203C0300205C02002080B584B0B7
:103C500000AF78604FF00003FB607B68002B13D04F
:103C600000F032F90D4B1A687B68D318BB600C4B1F
:103C70001B6803F10403184601F06EFBB86800F0FE
:103C8000DFFC00F02FF9F860FB68002B01D103F096
:103C900061F907F11007BD4680BD00BF3403002065
:103CA0005802002080B584B000AF786003F05EF960
:103CB000214B1B687A689A4202D14FF000037B6067
:103CC0007B68002B02D11C4B1B6800E07B68FB600B
:103CD000FB6803F10403184601F03EFBFB689B6A96
:103CE000002B05D0FB6803F11803184601F034FBE4
:103CF000FB6803F104031148194601F0CBFA03F005
:103D000047F97B68002B13D10D4B1B68002B02D0A9
:103D100003F020F90CE0094B1A680A4B1B689A4221
:103D200004D1054B4FF000021A6001E000F012FAD6
:103D300007F11007BD4680BD580200201C0300207B
:103D4000400300203003002080B485B000AF7860CD
:103D50004FF00003FB607B68BB607B68002B04D1E5
:103D60004FF0500080F31188FEE7BB685A690B4B97
:103D70009A420BD1BB689A6A094B9A4206D0BB683B
:103D80009B6A002B02D14FF00103FB60FB681846D1
:103D900007F11407BD4680BC704700BF1C0300201C
:103DA000F002002080B584B000AF78607B68002B03
:103DB00004D14FF0500080F31188FEE77B68FB6070
:103DC000FB68002B38D01E4B1B68FA689A4233D030
:103DD00003F0CCF8F868FFF7B7FF0346012B29D1B1
:103DE000FB6803F10403184601F0B6FAFB68DA6ACF
:103DF000144B1B689A4203D9FB68DA6A114B1A60AC
:103E0000FB68DA6A13464FEA83039B184FEA830381
:103E10000D4A9A18FB6803F104031046194601F095
:103E200039FAFB68DA6A064B1B68DB6A9A4201D3EF
:103E300003F090F803F0ACF807F11007BD4680BD21
:103E4000580200203C0300205C02002080B586B0B0
:103E500004AF4FF0000300934FF0000301934FF0C5
:103E6000000302934FF000030393134813494FF0EC
:103E700046024FF00003FFF715FE78607B68012BC8
:103E80000DD14FF0500080F311880D4B4FF001021F
:103E90001A600C4B4FF000021A6003F03DF87B688B
:103EA000002B04D14FF0500080F31188FEE707F19A
:103EB0000807BD4680BD00BFA14400089C970008CC
:103EC000400300203403002080B400AF044B1B6883
:103ED00003F10102024B1A60BD4680BC704700BF6F
:103EE0004403002090B583B000AF4FF000037B6027
:103EF0003C4B1B68002B04D14FF0500080F311881D
:103F0000FEE703F033F8374B1B6803F1FF32354B04
:103F10001A60344B1B68002B5CD1334B1B68002BA1
:103F200058D04FF000033B602CE0304BDB68DC687E
:103F300004F11803184601F00FFA04F104031846BF
:103F400001F00AFAE26A2A4B1B689A4202D9E26A35
:103F5000274B1A60E26A13464FEA83039B184FEA25
:103F60008303244A9A1804F104031046194601F009
:103F700091F9E26A204B1B68DB6A9A4202D34FF048
:103F800001033B60194B1B68002BCED11B4B1B68F8
:103F9000002B0FD007E000F035F8184B1B6803F139
:103FA000FF32164B1A60154B1B68002BF3D14FF0F4
:103FB00001033B603B68012B03D0114B1B68012BB5
:103FC00008D14FF001037B600D4B4FF000021A60E7
:103FD00002F0C0FF02F0DCFF7B68184607F10C0717
:103FE000BD4690BD4403002030030020F0020020B5
:103FF0003C0300205C0200205802002048030020FF
:104000004C03002080B584B000AF494B1B68002BE7
:1040100040F08480474B1B6803F10102454B1A6056
:10402000444B1B68002B2CD1434B1B681B68002B97
:1040300004D04FF0500080F31188FEE73E4B1B6820
:10404000FB603E4B1A683C4B1A603C4BFA681A60A6
:104050003B4B1B6803F10102394B1A60364B1B685E
:104060001B68002B04D1374B4FF0FF321A6008E079
:10407000314B1B68DB68DB68BB60BB685A68314B3F
:104080001A602C4B1A682F4B1B689A424CD32A4B50
:104090001B681B68002B04D12A4B4FF0FF321A60BB
:1040A00042E0254B1B68DB68DB68BB60BB685B6874
:1040B0007B60204B1A687B689A4203D2214B7A6856
:1040C0001A6031E0BB6803F10403184601F044F9BB
:1040D000BB689B6A002B05D0BB6803F11803184628
:1040E00001F03AF9BB68DA6A174B1B689A4203D9A8
:1040F000BB68DA6A144B1A60BB68DA6A13464FEA87
:1041000083039B184FEA8303104A9A18BB6803F194
:1041100004031046194601F0BDF8B8E70C4B1B68C4
:1041200003F101020A4B1A6007F11007BD4680BD7A
:104130004403002034030020E8020020EC020020A9
:1041400050030020E00000203C0300205C0200201F
:104150004803002080B582B000AF3A4B1B68002BAB
:1041600004D0394B4FF001021A6067E0374B1B68EF
:104170001A68364B1B681B6B9A4209D8334B1A6876
:10418000324B1B6803F1340310461946FEF74CFF0F
:104190002E4B1B681B6B18462D494FF0140205F07F
:1041A0005DF80346002B1AD0284B1A68274B1B6872
:1041B00003F1340310461946FEF736FF0FE0254B96
:1041C0001B68002B04D14FF0500080F31188FEE7EC
:1041D000204B1B6803F1FF321E4B1A6000E000BF4A
:1041E0001C4B1A681C4913464FEA83039B184FEA7D
:1041F0008303CB181B68002BE1D0164B1A681346BB
:104200004FEA83039B184FEA8303134A9B187B6092
:104210007B685B685A687B685A607B685A687B6811
:1042200003F108039A4204D17B685B685A687B6893
:104230005A607B685B68DA68044B1A6007F108070C
:10424000BD4680BD440300204C03002058020020DE
:10425000A49700083C0300205C02002080B584B0D5
:1042600000AF786039607B68002B04D14FF05000BC
:1042700080F31188FEE7144B1B6803F1180378687C
:10428000194601F02FF8104B1B6803F10403184680
:1042900001F062F83B68B3F1FF3F08D10A4B1B689D
:1042A00003F104030948194600F0F4FF07E0084B46
:1042B0001A683B68D318FB60F86800F0C1F907F191
:1042C0001007BD4680BD00BF580200201C0300201F
:1042D0003403002080B584B000AF78607B68DB6871
:1042E000DB68BB60BB68002B04D14FF0500080F34B
:1042F0001188FEE7BB6803F11803184601F02CF89B
:10430000204B1B68002B21D1BB6803F10403184626
:1043100001F022F8BB68DA6A1B4B1B689A4203D98A
:10432000BB68DA6A184B1A60BB68DA6A13464FEA50
:1043300083039B184FEA8303144A9A18BB6803F15E
:1043400004031046194600F0A5FF06E0BB6803F120
:1043500018030F48194600F09DFFBB68DA6A0D4B41
:104360001B68DB6A9A4203D34FF00103FB6002E053
:104370004FF00003FB60FB68184607F11007BD46CD
:1043800080BD00BF440300203C0300205C020020ED
:10439000F00200205802002080B483B000AF7860A3
:1043A0007B68002B04D14FF0500080F31188FEE7AA
:1043B000064B1A687B681A60054B1A687B685A605E
:1043C00007F10C07BD4680BC704700BF50030020BA
:1043D0003403002080B584B000AF786039607B681A
:1043E000002B04D14FF0500080F31188FEE73B68AA
:1043F000002B04D14FF0500080F31188FEE702F04B
:10440000B5FD3B681B68B3F1FF3F03D14FF00003DC
:10441000FB602CE07B681A68194B1B689A4209D034
:104420007B685A68174B1B689A4203D84FF0010308
:10443000FB601CE0134B1A687B685B68D21A3B6810
:104440001B689A4210D23B681A687B6859680D4B0A
:104450001B68CB1AD2183B681A607868FFF79CFF7C
:104460004FF00003FB6002E04FF00103FB6002F03D
:104470008FFDFB68184607F11007BD4680BD00BFE1
:10448000500300203403002080B400AF034B4FF0F2
:1044900001021A60BD4680BC704700BF4C0300207B
:1044A00080B582B000AF786000F08CF8044B1B68D8
:1044B000012B01D902F04EFDFEF7BCFDF4E700BF71
:1044C0005C02002080B584B000AFF860B9607A600B
:1044D0003B60FB6803F134031846B9684FF00A02E9
:1044E00005F00EF8FB684FF0000283F83D207B6872
:1044F000042B02D94FF004037B60FB687A68DA6210
:10450000FB687A681A64FB6803F10403184600F03C
:10451000B3FEFB6803F11803184600F0ADFEFB681C
:10452000FA681A617B68C3F10502FB689A61FB684F
:10453000FA685A6207F11007BD4680BD80B582B0A7
:1045400000AF4FF000037B600FE07A6813464FEA3C
:1045500083039B184FEA8303124A9B18184600F006
:104560006BFE7B6803F101037B607B68042BECD955
:104570000D4800F061FE0D4800F05EFE0C4800F0B2
:104580005BFE0C4800F058FE0B4800F055FE0B4B4C
:10459000054A1A600A4B054A1A6007F10807BD462A
:1045A00080BD00BF5C020020C0020020D4020020B9
:1045B000F0020020040300201C030020E802002079
:1045C000EC02002080B582B000AF1A4B1B68002BB4
:1045D0002BD0FFF779FC184B1B68002B14BF00236E
:1045E0000123DBB27B60FFF77DFC7B68002B1CD1D5
:1045F00002F0BCFC104BDB68DB683B603B6803F1FE
:104600000403184600F0A8FE0C4B1B6803F1FF32B0
:104610000A4B1A60074B1B6803F1FF32054B1A6007
:1046200002F0B6FC386800F07BF807F10807BD46D9
:1046300080BD00BF180300200403002030030020C9
:1046400080B582B000AF7860144B1B687A685A60FE
:10465000134B1B687A689A420AD2124B1A680F4BA6
:104660001B6803F104031046194600F03BFE11E0FD
:104670000D4B1A68094B1B6803F1040310461946D9
:1046800000F030FE094B1B687A689A4202D2074B51
:104690007A681A6007F10807BD4680BD58020020FD
:1046A00034030020EC020020E8020020E00000209B
:1046B00080B584B000AF03463960FB804FF0440002
:1046C00004F01CFAF860FB68002B23D03B68002B39
:1046D00007D1FB884FEA8303184604F00FFA03461C
:1046E00000E03B68FA681363FB681B6B002B06D184
:1046F000F86804F043FA4FF00003FB600AE0FB683F
:104700001A6BFB884FEA830310464FF0A5011A4647
:1047100004F090FEFB68184607F11007BD4680BD07
:1047200080B582B000AF78607B681B6B184604F0E0
:1047300025FA786804F022FA07F10807BD4680BD23
:1047400080B483B000AF054B1B687B607B68184664
:1047500007F10C07BD4680BC704700BF580200201F
:1047600080B584B000AF78607B68FB607B68002B0D
:1047700004D14FF0500080F31188FEE7FB68DA6A3D
:10478000244B1B68DB6A9A4240D2224B1B68DB6ACF
:10479000C3F10502FB689A61FB685969FB68DA6A34
:1047A00013464FEA83039B184FEA83031A4A9B1868
:1047B000994226D1FB6803F10403184600F0CCFDB2
:1047C000144B1B68DA6AFB68DA62FB68DA6A134B1F
:1047D0001B689A4203D9FB68DA6A104B1A60FB68BF
:1047E000DA6A13464FEA83039B184FEA83030A4AA7
:1047F0009A18FB6803F104031046194600F04AFDBD
:1048000004E0044B1B68DA6AFB68DA6207F1100700
:10481000BD4680BD580200205C0200203C03002001
:1048200080B584B000AF78607B68FB607B68002B4C
:1048300030D0FB68DA6AFB681B6C9A422AD0FB68AE
:1048400003F10403184600F087FDFB681A6CFB684F
:10485000DA62FB68DB6AC3F10502FB689A61FB68F8
:10486000DA6A0E4B1B689A4203D9FB68DA6A0B4B73
:104870001A60FB68DA6A13464FEA83039B184FEA13
:104880008303074A9A18FB6803F10403104619468C
:1048900000F000FD07F11007BD4680BD3C0300207D
:1048A0005C02002080B483B000AF03463960FB7126
:1048B0003B684FF012021A80034B184607F10C07B1
:1048C000BD4680BC704700BF0001002080B483B0AB
:1048D00000AF03463960FB713B684FF004021A8059
:1048E000034B184607F10C07BD4680BC704700BF5C
:1048F0002001002080B582B000AF03463960FB7113
:10490000FB79002B05D1084808493A6801F0ACFE54
:1049100004E0074805493A6801F0A6FE034B184633
:1049200007F10807BD4680BDB8970008C02F0020DA
:10493000DC97000880B582B000AF03463960FB7198
:10494000054806493A6801F08FFE044B184607F106
:104950000807BD4680BD00BF00980008C02F00209A
:1049600080B582B000AF03463960FB71FB79002B44
:1049700005D1084808493A6801F076FE04E0074886
:1049800005493A6801F070FE034B184607F1080725
:10499000BD4680BD14980008C02F00202498000850
:1049A00080B582B000AF03463960FB71FB79002B04
:1049B00005D1084808493A6801F056FE04E0054868
:1049C00005493A6801F050FE034B184607F1080705
:1049D000BD4680BD34980008C02F002080B582B04D
:1049E00000AF03463960FB71FB79002B05D1084805
:1049F00008493A6801F038FE04E0054805493A687C
:104A000001F032FE034B184607F10807BD4680BD92
:104A100040980008C02F002080B586B004AF4FF04A
:104A200002004FF00101FEF753FB4FF460433B607F
:104A30004FF000037B714FF000033B714FF0010317
:104A4000FB713B461948194600F0F2F8184B4FF03D
:104A500001021A70164B4FF001025A70144B4FF0BE
:104A600001029A704FF004004FF001014FF0000274
:104A700001F0C4FE02460F4B1A604FF00103009391
:104A80004FF0000301934FF0000302934FF0000337
:104A90000393094809494FF040024FF00003FFF724
:104AA00001F807F10807BD4680BD00BF00040240C1
:104AB000042E0020082E0020C14A0008509800084B
:104AC00080B584B000AF7860554B4FF0000283F89A
:104AD0003C2054484FF4005100F06AF90346002B83
:104AE00027D1514B1B78012B27D14FF06400FFF7E2
:104AF000ADF84C484FF4005100F05AF90346002B32
:104B00001BD14FF00003FB73474B4FF000021A70AC
:104B1000464B1A6807F10F03104619464FF0FF3253
:104B20004FF0000301F004FF4FF00000FDF724FAFE
:104B300003E03D4B4FF001021A703A484FF48041B8
:104B400000F036F90346002B27D1374B5B78012B59
:104B500027D14FF06400FFF779F832484FF48041D5
:104B600000F026F90346002B1BD14FF00103FB7325
:104B70002D4B4FF000025A702C4B1A6807F10F03AF
:104B8000104619464FF0FF324FF0000301F0D0FEFF
:104B90004FF00000FDF7F0F903E0234B4FF0010266
:104BA0005A7020484FF4004100F002F90346002BF0
:104BB00027D11D4B9B78012B27D14FF06400FFF7C5
:104BC00045F818484FF4004100F0F2F80346002B76
:104BD0001BD14FF00203FB73134B4FF000029A708E
:104BE000124B1A6807F10F03104619464FF0FF32B7
:104BF0004FF0000301F09CFE4FF00000FDF7BCF900
:104C000003E0094B4FF001029A704FF4FA70FFF77E
:104C10001DF8034B9B6B03F10102014B9A6358E7AC
:104C2000B42D002000040240042E0020082E002095
:104C300080B487B000AF786039604FF000037B61CB
:104C40004FF000033B614FF00003FB604FF00003A7
:104C50007B6186E07B694FF0010202FA03F33B615E
:104C60003B681A683B691340FB60FA683B699A42EB
:104C700073D17B681A687B694FEA43034FF00301E5
:104C800001FA03F36FEA03031A407B681A607B683A
:104C90001A683B681B7919467B694FEA430301FA9E
:104CA00003F31A437B681A603B681B79012B03D01E
:104CB0003B681B79022B34D17B689A687B694FEA89
:104CC00043034FF0030101FA03F36FEA03031A40B1
:104CD0007B689A607B689A683B685B7919467B6958
:104CE0004FEA430301FA03F31A437B689A607B6837
:104CF0005A687B699BB24FF0010101FA03F36FEA36
:104D000003031A407B685A607B685A683B689B794A
:104D100019467B699BB201FA03F39BB21A437B6885
:104D20005A607B68DA687B699BB24FEA43034FF0B5
:104D3000030101FA03F36FEA03031A407B68DA60A8
:104D40007B68DA683B68DB7919467B694FEA430385
:104D500001FA03F31A437B68DA607B6903F101030C
:104D60007B617B690F2B7FF675AF07F11C07BD4692
:104D700080BC704780B483B000AF78607B684FF62A
:104D8000FF721A607B684FF000021A717B684FF067
:104D900000025A717B684FF000029A717B684FF0F5
:104DA0000002DA7107F10C07BD4680BC704700BFF6
:104DB00080B485B000AF78600B467B804FF0000375
:104DC000FB737B681A697B881340002B03D04FF07C
:104DD0000103FB7302E04FF00003FB73FB7B1846FB
:104DE00007F11407BD4680BC704700BF80B483B094
:104DF00000AF786013460A467A807B707B78002B80
:104E000003D07B687A881A8302E07B687A885A83A9
:104E100007F10C07BD4680BC704700BF80B485B069
:104E200000AF786013460A467A807B704FF000032B
:104E3000FB604FF00003BB607A787B8803F00703C8
:104E40004FEA830302FA03F3FB607B884FEAD30344
:104E50009BB21A467B884FEAD3039BB219467B6804
:104E600001F1080153F821107B8803F007034FEA92
:104E700083034FF00F0000FA03F36FEA03031940B6
:104E80007B6802F1080243F822107B884FEAD303C3
:104E90009BB21A467B6802F1080253F82220FB6895
:104EA0001343BB607B884FEAD3039BB21A467B68EF
:104EB00002F10802B96843F8221007F11407BD4651
:104EC00080BC704780B588B000AF0346FB804FF0D0
:104ED0000003FB834FF020004FF00101FEF738F98B
:104EE000264B1A68264BA3FB02134FEA93339BB25F
:104EF00003F1FF33FB83FB887B61FB8B3B824FF02D
:104F000000033B834FF000037B8207F110031D4831
:104F1000194603F0FDFE1B484FF0010103F090FF1E
:104F20004FF4407003F018FB4FF037033B734FF022
:104F30000E037B734FF00103BB734FF00103FB7350
:104F400007F10C03184603F019FB0E484FF001015E
:104F500004F04EF90B484FF001014FF0000204F04D
:104F600023F908484FF0000103F08AFF4FF00103D6
:104F7000184607F12007BD4680BD00BF380100205C
:104F80005917B7D10014004080B500AF0B484FF05F
:104F9000010104F02DF909484FF001014FF0010221
:104FA00004F002F905484FF0000103F03BFF03480D
:104FB0004FF0010103F064FF80BD00BF001400400A
:104FC00080B500AF0B484FF0000103F059FF0948CE
:104FD0004FF0000103F026FF06484FF001014FF0AB
:104FE000000204F0E1F803484FF0010104F000F979
:104FF00080BD00BF0014004080B500AF04484FF0F2
:10500000010104F0F5F8034B1B68984780BD00BF11
:1050100000140040A427002080B400AF4FF000032C
:105020001846BD4680BC704780B400AF4FF0000307
:105030001846BD4680BC704780B485B000AFF860AC
:10504000B9607A60FB68232B4AD801A252F823F09A
:10505000E1500008E1500008E1500008E15000086C
:10506000E1500008E1500008E1500008E15000085C
:10507000E1500008E1500008E1500008E15000084C
:10508000E1500008E1500008E1500008E15000083C
:10509000E1500008E1500008E1500008E15000082C
:1050A000E1500008E1500008E1500008E15000081C
:1050B000E1500008E1500008E1500008E15000080C
:1050C000E1500008E1500008E1500008E1500008FC
:1050D000E1500008E1500008E1500008E1500008EC
:1050E00000BF4FF00003184607F11407BD4680BC0F
:1050F000704700BF80B485B000AF786039604FF072
:105100000003FB601AE0134B1B687968FA688A1881
:105110001178114AD1540F4B1B6803F101020D4B5A
:105120001A60FB6803F10103FB600A4B1B68B3F5CF
:10513000006F03D1074B4FF000021A60FA683B681A
:105140009A42E0D34FF00003184607F11407BD461A
:1051500080BC70477C0300208030002080B485B084
:1051600000AF786039604FF00003FB6022E0174B1E
:105170001B687968FA688A181178154AD154134B5C
:105180001B6803F10102114B1A60104B1B68802B46
:1051900003D10E4B4FF000021A600C4B1A680D4BF6
:1051A0001B689A4202D14FF0020309E0FB6803F149
:1051B0000103FB60FA683B689A42D8D34FF00003C2
:1051C000184607F11407BD4680BC7047902E00209A
:1051D0000C2E00208C2E002080B483B000AF7860AD
:1051E000124B1A68124B1B689A4202D14FF000030F
:1051F00015E00F4B1B680F4AD25C7B681A700C4B92
:105200001B6803F101020A4B1A60094B1B68802BD3
:1052100003D1074B4FF000021A604FF0010318460C
:1052200007F10C07BD4680BC704700BF902E0020E0
:105230008C2E00200C2E002080B483B000AF78604C
:105240007B6803F108027B685A607B684FF0FF328D
:105250009A607B6803F108027B68DA607B6803F17F
:1052600008027B681A617B684FF000021A6007F140
:105270000C07BD4680BC704780B483B000AF786037
:105280007B684FF000021A6107F10C07BD4680BC35
:10529000704700BF80B485B000AF786039607B682C
:1052A0005B68FB60FB685A683B685A607B685A68B9
:1052B0003B689A60FB685B683A689A60FB683A688A
:1052C0005A607B683A685A603B687A681A617B6802
:1052D0001B6803F101027B681A6007F11407BD46E1
:1052E00080BC704780B485B000AF786039603B689F
:1052F0001B68BB60BB68B3F1FF3F03D17B681B69D0
:10530000FB600DE07B6803F10803FB6002E0FB68D3
:105310005B68FB60FB685B681A68BB689A42F6D9F9
:10532000FB685A683B685A603B685B683A689A60F9
:105330003B68FA689A60FB683A685A603B687A682A
:105340001A617B681B6803F101027B681A6007F130
:105350001407BD4680BC704780B485B000AF78604C
:105360007B685B687A6892689A607B689B687A68F9
:1053700052685A607B681B69FB60FB685A687B68EF
:105380009A4203D17B689A68FB685A607B684FF049
:1053900000021A61FB681B6803F1FF32FB681A60A8
:1053A00007F11407BD4680BC704700BF80B584B0CC
:1053B00000AF3A600246FA710A46BA717B714FF04B
:1053C0000003FB73FCF778F9BA797B7910463968EA
:1053D0004FF0080202F024FC0346012B03D04FF0EB
:1053E0000303FB7319E03B68B3F5964F03D94FF005
:1053F0006403BB6006E03B684FEA43030B4AB2FB21
:10540000F3F3BB60BB689BB21846FFF75BFD034636
:10541000012B02D04FF00303FB73FCF753F9FB7B26
:10542000184607F11007BD4680BD00BFA07F1700DA
:1054300080B500AFFCF740F9074B4FF000021A703F
:105440004FF001004FF0000102F0D6FBFFF79CFD8A
:10545000FCF738F980BD00BF5903002080B500AFCC
:10546000FCF72AF94FF000004FF0000102F0C4FBF6
:10547000FFF7A6FDFCF726F980BD00BF80B586B01A
:1054800000AFF860B9607A604FF00003BB754FF071
:105490000003FB75FCF710F9164B1B889BB2032B1E
:1054A0001DD9144B1B889BB213481946FDF7CEFD3E
:1054B0000346002B13D1104B1B78DAB2FB681A702D
:1054C0000C4B1B889BB2A3F103039AB27B681A8032
:1054D000BB680A4A1A604FF00103BB7502E04FF047
:1054E0000503FB75FCF7EEF8FB7D184607F118077E
:1054F000BD4680BD62030020942E0020952E002022
:1055000080B584B000AF396013460246FA71BB80A3
:105510004FF00003FB73FCF7CFF82C4B1B78DBB28A
:10552000012B47D13B6803F1FF32294B1A60294B0D
:105530004FF001021A80264B1B68FA791A70254B2E
:105540001B889AB2BB88D3189AB2224B1A80204B80
:105550001A68204B1B889BB210461946FDF776FD52
:105560000346BB811B4B1B889BB21A46B989C8B244
:105570001949885403F101039AB2164B1A80154B4E
:105580001B889BB21A46B9894FEA112189B2C8B269
:105590001149885403F101039AB20E4B1A800F4B44
:1055A0004FF001021A704FF000004FF0010102F0BD
:1055B00023FB02E04FF00503FB73FCF783F8FB7B52
:1055C000184607F11007BD4680BD00BF59030020F3
:1055D0005C03002060030020942E0020580300206C
:1055E00080B582B000AF4FF00003FB7107F10603F6
:1055F000184602F03DFB264B1B78DBB2032B41D84B
:1056000001A252F823F000BF1956000825560008E1
:10561000535600081F560008FFF7B6FC32E0FFF7AC
:10562000B3FC2FE01B4B4FF000021A80194B1B8874
:105630009BB21A46B8791849885403F101039AB20B
:10564000144B1A80124B4FF002021A70FFF79CFCA9
:1056500018E0104B1B889BB2FF2B0CD80D4B1B88FE
:105660009BB21A46B8790C49885403F101039AB2E7
:10567000084B1A8003E0064B4FF003021A70FFF745
:1056800083FC00BFFB79184607F10807BD4680BDC3
:105690005903002062030020942E002080B582B0C0
:1056A00000AF4FF00003FB711C4B1B78DBB2002BEB
:1056B00002D0012B07D02AE04FF001004FF000018B
:1056C00002F09AFA23E0164B1B889BB2002B0DD0F8
:1056D000144B1A68124B1B889BB210461946FFF7F1
:1056E00009FD0F4B4FF000021A800FE04FF003004E
:1056F000FCF720FB0346FB714FF001004FF0000167
:1057000002F07AFA054B4FF000021A7000BFFB79E5
:10571000184607F10807BD4680BD00BF58030020AA
:10572000600300205C03002080B582B000AF4FF022
:105730000003FB71114B1B78DBB2022B0AD0032B49
:105740000FD0002B0ED14FF00000FCF7F3FA034608
:10575000FB7107E04FF00100FCF7ECFA0346FB7128
:1057600000E000BFFFF72CFC044B4FF001021A7061
:10577000FB79184607F10807BD4680BD5903002094
:1057800080B500AF124B124A126842F001021A6053
:105790000F4B4FF000029A600D4A0D4B1B6823F02F
:1057A000847323F480331360094B0A4A5A60084B10
:1057B000074A126822F480221A60054B4FF000025B
:1057C000DA6000F00BF8044B4FF000629A6080BD85
:1057D000003802401030002400ED00E080B483B0B7
:1057E00000AF4FF000037B604FF000033B60304B95
:1057F0002F4A126842F480321A602D4B1B6803F462
:1058000000333B607B6803F101037B603B68002B46
:1058100003D17B68B3F5A06FEFD1254B1B6803F470
:105820000033002B03D04FF001033B6002E04FF048
:1058300000033B603B68012B34D11D4B1C4A92682E
:105840009A601B4B1A4A92689A60194B184A9268E0
:1058500042F480529A60164B164A5A60144B144A0E
:10586000126842F080721A6000BF114B1B6803F08F
:105870000073002BF9D0104B40F201721A600C4BF0
:105880000B4A926822F003029A60094B084A926818
:1058900042F002029A6000BF054B9B6803F00C03C4
:1058A000082BF9D107F10C07BD4680BC704700BF3B
:1058B0000038024004304308003C024080B590B0FC
:1058C00004AF07F118031846FDF7E4FE07F10803DB
:1058D0001846FDF72DFF4FF001004FF00101FDF7D5
:1058E000F7FB4FF004004FF00101FDF7F1FB3B46E1
:1058F0001846FFF73FFA4FF003033B714FF00103E7
:105900003B603B4637481946FFF792F93B4618463D
:10591000FFF730FA4FF003033B714FF00A033B608F
:105920003B4631481946FFF783F94FF480704FF03A
:105930000101FDF72DFCFDF743FE4FF00003BB60B6
:105940004FF44033FB604FF000033B614FF4706352
:105950007B6107F108031846FDF7C2FE4FF0000314
:105960003B774FF000037B774FF000037B624FF0F3
:105970000003BB624FF0010387F82C3007F11803D6
:105980001A481946FDF72CFE18484FF000014FF059
:1059900001024FF00703FDF701FF14484FF001012A
:1059A000FDF7E0FE4FF0010000F06EFF0246104BE5
:1059B0001A604FF0010300934FF0000301934FF082
:1059C000000302934FF0000303930A480A494FF083
:1059D00080024FF00003FEF765F807F13007BD467F
:1059E00080BD00BF000002400008024000200140CE
:1059F000BC2F0020FD5900085C98000880B586B0D7
:105A000000AF78604FF00003FB75664B4FF000026B
:105A100083F834204FF000033B614FF00003FB7527
:105A200022E061484FF000014FF001024FF0070300
:105A3000FDF7B4FE5C4B5C4A926842F080429A608B
:105A400001E001F087FA58484FF00201FDF784FFAA
:105A50000346002BF5D0544BDB6C3A69D3183B61FD
:105A6000FB7D03F10103FB75FB7D1F2BD9D94FF0A3
:105A70000003BB604FF00003FB7522E04A484FF083
:105A80000B014FF001024FF00703FDF787FE464B75
:105A9000454A926842F080429A6001E001F05AFA69
:105AA00041484FF00201FDF757FF0346002BF5D0A8
:105AB0003D4BDB6CBA68D318BB60FB7D03F101037F
:105AC000FB75FB7D1F2BD9D94FF00003FB604FF016
:105AD0000003FB7522E034484FF00D014FF0010246
