:020000040800F2
:10000000C8330020A11300080514000805140008D7
:10001000051400080514000805140008000000007D
:10002000000000000000000000000000F146000891
:100030000514000800000000C94700080548000832
:1000400005140008055E00080514000805140008E2
:10005000051400080514000805140008051400081C
:10006000051400080514000805140008051400080C
:1000700005140008051400080514000805140008FC
:1000800005140008051400080514000805140008EC
:1000900005140008051400080514000805140008DC
:1000A00005140008051400080514000805140008CC
:1000B0000514000805140008113000080514000894
:1000C00005140008051400080514000805140008AC
:1000D000051400080514000805140008051400089C
:1000E000051400080514000815360008051400085A
:1000F000051400080514000805140008051400087C
:10010000051400080514000805140008051400086B
:10011000051400080514000805140008051400085B
:10012000051400080514000805140008051400084B
:10013000051400080514000805140008051400083B
:1001400005140008051400080514000849360008C5
:10015000051400080514000805140008051400081B
:10016000051400080514000805140008051400080B
:1001700005140008051400080514000805140008FB
:10018000051400080514000880B489B000AFF860B9
:10019000B960FA71BB804FF00003FB76FB68DB7837
:1001A000002B2CD14FF000037B614FF00003FB616B
:1001B000BB8803F10303002B01DA03F103034FEAC9
:1001C000A3037B61FB79FA6803F132034FEA8303EF
:1001D000D3189B683B614FF00003FB610BE0BB68E9
:1001E0001A683B691A60FB6903F10103FB61BB6894
:1001F00003F10403BB60FA697B699A42EFD3FB7E8B
:10020000184607F12407BD4680BC704780B489B00A
:1002100000AFF860B9601346FB804FF00003FB614C
:10022000FB8803F10303002B01DA03F103034FEA18
:10023000A303BB61FB68D3F8D0307B614FF00003B0
:10024000FB610BE07B691A68BB681A60FB6903F10C
:100250000103FB61BB6803F10403BB60FA69BB697E
:100260009A42EFD3BB68184607F12407BD4680BC0D
:10027000704700BF80B586B000AF786039604FF03E
:100280000003FB744FF000037B614FF00003FB6041
:10029000FB6843F02003FB603B68DBB203F01F0305
:1002A000DAB2FB6862F38A13FB607B68DB68FA688A
:1002B0001A617B68DB681B69FB607B6903F10103E2
:1002C0007B617A690A4B9A4206D8FB68C3F34013F4
:1002D000DBB2012BEDD000E000BF4FF0030003F0D4
:1002E0006DF9FB7C184607F11807BD4680BD00BFBD
:1002F000400D030080B483B000AF78607B68DB689A
:100300005B6903F00103184607F10C07BD4680BC8A
:10031000704700BF80B582B000AF78607868FFF7A3
:10032000E9FF0346012B0CBF00230123DBB2184673
:1003300007F10807BD4680BD80B485B000AF786086
:100340004FF00003FB607B68DB685B69FB607B68E8
:10035000DB689B69FA681340FB60FB68184607F18D
:100360001407BD4680BC704780B485B000AF78608C
:100370004FF00003FB737B681B699B68BB60BB6825
:10038000C3F34103DBB2022B0BD0032B05D0012BAF
:1003900003D04FF00303FB7307E04FF00203FB733E
:1003A00003E04FF00103FB7300BFFB7B184607F12E
:1003B0001407BD4680BC704780B487B000AF78603A
:1003C0004FF00003FB754FF00003BB607B681B69B7
:1003D0009B683B617B689B691B68FB603B69C3F35F
:1003E0004103DBB2022B04D0FB686FF30A03FB600E
:1003F00006E0FB684FF0030262F30A03FB6000BFF4
:100400007B689B69FA681A60BB6843F48073BB60C1
:100410007B681B697A6812695168BA686FEA0202E0
:100420001140BA680A435A60FB7D184607F11C0761
:10043000BD4680BC704700BF80B487B000AF786015
:1004400039604FF00003FB744FF00003FB604FF086
:100450000003BB603B685B78012B12D13B681B78C3
:100460007A6803F104034FEA8303D3189B687B6126
:100470003B681B784FF0010202FA03F39BB23B8109
:1004800014E03B681B787A6803F114034FEA830396
:10049000D3185B687B613B681B784FF0010202FA5E
:1004A00003F39AB2BB6862F31F43BB607B691B68AE
:1004B000FB60FB68C3F3C033DBB2002B29D13B6880
:1004C0009B689BB24FEA43534FEA53539AB2FB687F
:1004D00062F30A03FB603B68DB7803F00303DAB2E4
:1004E000FB6862F39343FB603B68DB88DBB203F09D
:1004F0000F03DAB2FB6862F39953FB60FB6843F0C9
:100500008053FB60FB6843F40043FB60FA687B693F
:100510001A607B681B697A681269D169BA680A43F4
:10052000DA61FB7C184607F11C07BD4680BC7047AA
:1005300080B588B000AF786039604FF00003FB777A
:100540004FF00003BB614FF000037B614FF00003ED
:100550003B613B685B78012B40F0BD803B681B78BA
:100560007A6803F104034FEA8303D3189B681B687E
:100570007B613B681B787A6803F104034FEA8303CD
:10058000D3189B681B693B613B685B69002B0AD1F0
:100590003B696FF312033B613B694FF0010262F369
:1005A000DC433B6128E03B685B6923F07F4222F437
:1005B00078023B6962F312033B613B685A693B680E
:1005C0009B68D31803F1FF323B689B68B2FBF3F3DF
:1005D0009BB24FEA83534FEA93539AB23B6962F35B
:1005E000DC433B613B68DB78012B05D13B694FF075
:1005F000010262F35E733B613B681B787A6803F12A
:1006000004034FEA8303D3189B683A691A617B6835
:10061000DB78012B0CD13B681B787A6803F104036B
:100620004FEA8303D3189B683A6812695A6116E04F
:100630003B68DB78012B12D03B685B69002B0ED046
:100640003B681B784FF0010202FA03F3BB617B6841
:100650001B697A681269516BBA690A435A633B682D
:10066000DB78012B14D17B681B699B68FB60FB68FE
:10067000C3F30D239BB203F00103002B04D17B696C
:1006800043F000537B6103E07B6943F080537B615F
:100690007B6943F080637B617B6943F000437B614E
:1006A0003B681B787A6803F104034FEA8303D3188D
:1006B0009B687A691A603B68DB78012B40F09A806E
:1006C0003B68D9683B681A783B685B699BB278687D
:1006D000FFF75AFD8EE03B681B787A6803F114033C
:1006E0004FEA8303D3185B681B687B613B681B7808
:1006F0007A6803F114034FEA8303D3185B681B691C
:100700003B613B685B69002B10D13B689B6823F021
:100710007F4222F478023B6962F312033B613B693A
:100720004FF0010262F3DC433B6124E03B685A690D
:100730003B689B68D31803F1FF323B689B68B2FBB0
:10074000F3F39BB24FEA83534FEA93539AB23B6958
:1007500062F3DC433B613B69C3F3C9439BB23A6834
:10076000926802FB03F323F07F4222F478023B6994
:1007700062F312033B613B681B787A6803F1140350
:100780004FEA8303D3185B683A691A617B68DB78A8
:10079000012B0BD13B681B787A6803F114034FEAF5
:1007A0008303D3185B683A6812695A613B68DB7847
:1007B000012B0CD13B685B79002B04D07B6943F0A3
:1007C00000537B6103E07B6943F080537B617B696D
:1007D00043F080637B617B6943F000437B613B684E
:1007E0001B787A6803F114034FEA8303D3185B681C
:1007F0007A691A60FB7F184607F12007BD4680BD65
:1008000080B489B000AF786039604FF00003FB77A7
:100810004FF00003BB614FF000033B614FF000035A
:10082000BB603B685B78012B75D17B689B697B6102
:100830007B691B683B617B691B69BB603B685B69CB
:10084000002B0AD13B7A6FF306033B72BB7A4FF061
:10085000010262F3C403BB7224E03B685A693B683F
:100860009B689A420ED93B689A683B685A613B681C
:100870009B68DBB203F07F03DAB23B7A62F30603D4
:100880003B7209E03B685B69DBB203F07F03DAB2DD
:100890003B7A62F306033B72BB7A4FF0010262F3CC
:1008A000C403BB72BA687B691A617B68DB78012B71
:1008B0000BD13B681B787A6803F104034FEA83038A
:1008C000D3189B683A6812695A613B6943F08063A8
:1008D0003B613B6943F000433B613A697B691A60C5
:1008E0007B68DB78002B40F083803B685B69002BE2
:1008F0007ED03B681B784FF0010202FA03F3BA691D
:100900001343BB617B681B697A681269516BBA69D2
:100910000A435A636CE03B681B787A6803F114035E
:100920004FEA8303D3185B681B683B613B681B7805
:100930007A6803F114034FEA8303D3185B681B69D9
:10094000BB603B685B69002B10D13B689B68DBB2E6
:1009500003F07F03DAB23B7A62F306033B72BB7AA1
:100960004FF0010262F3C403BB7213E03B689A6864
:100970003B685A613B689B68DBB203F07F03DAB2E5
:100980003B7A62F306033B72BB7A4FF0010262F3DB
:10099000C403BB723B681B787A6803F114034FEA07
:1009A0008303D3185B68BA681A617B68DB78012B14
:1009B0000BD13B681B787A6803F114034FEA830379
:1009C000D3185B683A6812695A613B6943F08063E7
:1009D0003B613B6943F000433B613B681B787A68AD
:1009E00003F114034FEA8303D3185B683A691A6072
:1009F000FB7F184607F12407BD4680BC704700BF47
:100A000080B487B000AF786039604FF00003FB75A9
:100A10004FF00003FB603B685B78012B1ED13B6805
:100A20001B787A6803F104034FEA8303D3189B68A9
:100A30003B613B691B68FB60FB68C3F3C073DBB2BF
:100A4000002B03D0FB6843F08043FB60FB6843F45A
:100A50000013FB60FA683B691A6013E03B681B787F
:100A60007A6803F114034FEA8303D3185B683B6190
:100A70003B691B68FB60FB6843F40013FB60FA688A
:100A80003B691A60FB7D184607F11C07BD4680BC18
:100A9000704700BF80B487B000AF786039604FF016
:100AA0000003FB744FF00003FB603B685B78012B95
:100AB0000AD13B681B787A6803F104034FEA830389
:100AC000D3189B687B6109E03B681B787A6803F167
:100AD00014034FEA8303D3185B687B617B691B684F
:100AE000FB60FB686FF35553FB603B68DB78032BBF
:100AF00003D03B68DB78022B03D1FB6843F08053C3
:100B0000FB60FA687B691A60FB7C184607F11C07DA
:100B1000BD4680BC704700BF80B485B000AF786030
:100B20007B681B699B69FB607B681B69DB69FA68F2
:100B30001340FB60FB684FEA1343184607F11407A4
:100B4000BD4680BC704700BF80B485B000AF786000
:100B50000B46FB70FB787A6803F114034FEA8303BA
:100B6000D3185B689B68FB607B681B695B69FA68EC
:100B70001340FB60FB68184607F11407BD4680BCB4
:100B8000704700BF80B485B000AF78607B681B6998
:100B90009B69FB607B681B69DB69FA681340FB603B
:100BA000FB684FEA03434FEA1343184607F1140763
:100BB000BD4680BC704700BF80B487B000AF78608E
:100BC0004FF000033B61FB7C43F0C003FB74BB7C34
:100BD0004FF0010262F3C403BB743B7C4FF0180278
:100BE00062F306033B747B685B6D3A691A617B684C
:100BF000DB78012B17D14FF00003FB607B685B6D46
:100C00007A6802F5B9625A617B685B6D1B68FB60AC
:100C1000FB6843F00043FB604FF08023FB607B6880
:100C20005B6DFA681A6007F11C07BD4680BC70470F
:100C300080B485B000AF78607B689B7A002B1BD0B6
:100C40007B681B699B68FB60FB68C3F30003DBB236
:100C5000012B11D17B6803F586731B68BB60BB68F1
:100C60006FF34103BB60BB686FF30003BB607B683D
:100C7000D3F80C31BA681A6007F11407BD4680BC7E
:100C8000704700BF80B582B000AF4FF004004FF056
:100C9000010100F0D1FD4FF080033B604FF00003F5
:100CA0007B714FF001033B714FF00003BB714FF0BC
:100CB0000003FB713B460748194602F05FF8054800
:100CC0004FF080014FF0000202F036F907F10807FB
:100CD000BD4680BD0008024080B58EB004AF4FF025
:100CE00002004FF0010100F0A7FD4FF001004FF0AE
:100CF000010100F0A1FD4FF0F0033B624FF0020351
:100D000087F824304FF0000387F825304FF00003B8
:100D100087F8263007F120036A48194602F02EF8BA
:100D200068484FF004014FF0020202F01DF96548D7
:100D30004FF005014FF0020202F016F961484FF042
:100D400006014FF0020202F00FF95E484FF0070172
:100D50004FF0020202F008F94FF002004FF00101DB
:100D600000F08AFD4FF004004FF0010100F084FD17
:100D700007F11403184604F04DFE4FF40073BB83D3
:100D80004FF48073BB614FF03C03BB8207F1140347
:100D90004D48194604F0D2FD07F114034B4819469B
:100DA00004F0CCFD3B46184604F0A0FF4FF00103D1
:100DB0007B804FF060033B804FF00003BB603B46FD
:100DC0004148194604F084FE3B463F48194604F06A
:100DD000FBFE3B463D48194604F07AFE3B463B4845
:100DE000194604F0F1FE39484FF0080104F0A8FF5D
:100DF00036484FF0080104F0BFFF34484FF00101BE
:100E000004F026FE30484FF0010104F041FE2F4867
:100E10004FF0010104F03CFE2B4B4FF000025A63EF
:100E2000294B4FF000029A63284B4FF000025A639F
:100E3000264B4FF000029A63254B4FF000021A71C7
:100E4000234B4FF064021A80214B4FF00002DA71FD
:100E50001F4B4FF0C8025A801D4B4FF000025A71D1
:100E60001B4B4FF000029A714FF0C0033B624FF0F2
:100E7000000387F824304FF0010387F827304FF044
:100E8000000387F8253007F120031248194601F0C6
:100E900075FF4FF0010300934FF0000301934FF0F3
:100EA000000302934FF0000303930B480B494FF0EC
:100EB00040024FF0000301F035F807F12807BD4666
:100EC00080BD00BF00040240000400400008004054
:100ED0006425002000000240E10E00082C6100089B
:100EE00080B582B000AF7860524B1B6818464FF057
:100EF00000014FF0FF324FF0000303F0C9F94E4BF1
:100F00009B79002B04D14D4B1A884B4B1A8007E07C
:100F1000494B9B79012B03D1484B5A88464B1A8089
:100F2000444B1B6818464FF000014FF000024FF091
:100F3000000303F003F9404B1A88414BA3FB021353
:100F40004FEAD3039AB23C4B1A803B4B1B88092BC8
:100F500003D8394B4FF00A021A80374B1B88B3F580
:100F60007A7F03D9344B4FF47A721A80324B5A8805
:100F7000314B1B889A4210D92F4B1B79002B0CD078
:100F80002D4B5B88A3F132039AB22B4B5A802A4B2C
:100F90005B88184601F09AF804E0274B1B88184636
:100FA00001F094F827484FF0400101F0A7FF0346F5
:100FB000002B04D1204B4FF002025A7110E021485F
:100FC0004FF0800101F09AFF0346002B04D11A4B29
:100FD0004FF001025A7103E0174B4FF000025A71B3
:100FE000154B1B79012B04D0022B0ED0002B18D0EF
:100FF0001EE0114B5B79012B04D10F4B4FF0000227
:101000001A7116E000F0F8F813E00B4B5B79022B35
:1010100004D1094B4FF000021A710AE000F0FAF80F
:1010200007E000F005F9044B4FF0C8025A8000E0D9
:1010300000BF59E7C02B002064250020B82B0020FA
:10104000CDCCCCCC0000024080B483B000AF0346CE
:10105000FB71044BFA791A7107F10C07BD4680BC8D
:10106000704700BF6425002080B483B000AF034602
:10107000FB71044BFA799A7107F10C07BD4680BCED
:10108000704700BF6425002080B400AF574BDB7968
:1010900003F00703DAB2554BDA71544BDB79072BB7
:1010A00000F29C8001A252F823F000BFCD1000088E
:1010B000EF10000811110008331100085511000845
:1010C0007711000899110008BB110008484B4FF038
:1010D0006F025A63464B4FF000029A63454B4FF044
:1010E00000025A63434B4FF000029A637BE0404B8F
:1010F0004FF06F025A633E4B4FF06F029A633D4BC5
:101100004FF000025A633B4B4FF000029A636AE0D3
:10111000374B4FF000025A63354B4FF06F029A6322
:10112000344B4FF000025A63324B4FF000029A6387
:1011300059E02F4B4FF000025A632D4B4FF06F02D6
:101140009A632C4B4FF06F025A632A4B4FF0000208
:101150009A6348E0264B4FF000025A63244B4FF04D
:1011600000029A63234B4FF06F025A63214B4FF0FA
:1011700000029A6337E01E4B4FF000025A631C4B8B
:101180004FF000029A631B4B4FF06F025A63194BEA
:101190004FF06F029A6326E0154B4FF000025A633E
:1011A000134B4FF000029A63124B4FF000025A6348
:1011B000104B4FF06F029A6315E00D4B4FF06F022A
:1011C0005A630B4B4FF000029A630A4B4FF0000238
:1011D0005A63084B4FF06F029A6304E0034B4FF0E1
:1011E0000002DA7100BFBD4680BC70476425002054
:1011F000000400400008004080B500AF044BDB79DC
:1012000003F10103DAB2024BDA71FFF73DFF80BD53
:101210006425002080B500AF044BDB7903F1FF3378
:10122000DAB2024BDA71FFF72FFF80BD6425002090
:1012300080B400AF574BDB7903F00703DAB2554BAC
:10124000DA71544BDB79072B00F29C8001A252F833
:1012500023F000BF7512000897120008B9120008A9
:10126000DB120008FD1200081F13000841130008DC
:1012700063130008484B4FF05F025A63464B4FF030
:1012800000029A63454B4FF000025A63434B4FF004
:1012900000029A637BE0404B4FF05F025A633E4B83
:1012A0004FF05F029A633D4B4FF000025A633B4B95
:1012B0004FF000029A636AE0374B4FF000025A6326
:1012C000354B4FF05F029A63344B4FF000025A6384
:1012D000324B4FF000029A6359E02F4B4FF000025F
:1012E0005A632D4B4FF05F029A632C4B4FF05F0215
:1012F0005A632A4B4FF000029A6348E0264B4FF0A6
:1013000000025A63244B4FF000029A63234B4FF0C4
:101310005F025A63214B4FF000029A6337E01E4B85
:101320004FF000025A631C4B4FF000029A631B4BB4
:101330004FF05F025A63194B4FF05F029A6326E049
:10134000154B4FF000025A63134B4FF000029A63A3
:10135000124B4FF000025A63104B4FF05F029A633A
:1013600015E00D4B4FF05F025A630B4B4FF000023C
:101370009A630A4B4FF000025A63084B4FF05F022A
:101380009A6304E0034B4FF00002DA7100BFBD46E0
:1013900080BC704764250020000400400008004025
:1013A00080B582B000AF124B7B60124B3B600BE00C
:1013B0007B681A683B681A603B6803F104033B6072
:1013C0007B6803F104037B603A680B4B9A42EFD3CE
:1013D0000A480B494FF000028842B8BF40F8042B7E
:1013E000FFF6FAAF00F000FA07F10807BD4680BD2E
:1013F0008061000800000020380000203800002034
:10140000C42B002080B400AFFEE700BF80B584B0DD
:1014100000AF786007F108037868194602F022FDF2
:101420003B7A03F01F03012B0AD0022B0FD0002BB5
:1014300014D107F108037868194602F00DF916E097
:1014400007F108037868194602F058F90FE007F130
:1014500008037868194602F087F908E03B7A23F020
:101460007F03DBB27868194604F0E0F800BF4FF064
:101470000003184607F11007BD4680BD80B584B053
:1014800000AF78600B46FB70FB78002B45D17B6882
:1014900003F55C73FB607B6893F81131032B4FD12C
:1014A000FB68DA69FB689B689A4221D9FB68DA69B4
:1014B000FB689B68D21AFB68DA617B68DB78012BDA
:1014C00006D1FB68DA68FB689B68D218FB68DA60B3
:1014D000FB68DA68FB689968FB68DB69994238BF8A
:1014E0000B469BB2786811461A4604F0D3F927E000
:1014F0007B68D3F8E0351B69002B0AD07B6893F832
:101500001231032B05D17B68D3F8E0351B6978686D
:101510009847786804F0D6F912E07B68D3F8E03594
:101520009B69002B0CD07B6893F81231032B07D1F9
:101530007B68D3F8E0359B69FA787868114698475C
:101540004FF00003184607F11007BD4680BD00BFED
:1015500080B584B000AF78600B46FB70FB78002B41
:1015600063D17B6803F58C73FB607B6893F8113162
:10157000022B6ED1FB68DA69FB689B689A421CD922
:10158000FB68DA69FB689B68D21AFB68DA617B68E2
:10159000DB78012B06D1FB68DA68FB689B68D21800
:1015A000FB68DA60FB68DA68FB68DB699BB2786825
:1015B00011461A4604F056F94BE0FB681B6AFA68BC
:1015C0009268B3FBF2F102FB01F29B1A002B17D1D8
:1015D000FB681A6AFB689B689A4211D3FB681A6A17
:1015E000FB685B6A9A420BD278684FF000014FF0BB
:1015F000000204F037F9FB684FF000025A6229E05C
:101600007B68D3F8E035DB68002B0AD07B6893F861
:101610001231032B05D17B68D3F8E035DB6878689D
:101620009847786804F06CF913E07B68D3F8E035EC
:101630005B69002B0ED07B6893F81231032B09D124
:101640007B68D3F8E0355B69FA787868114698478B
:1016500000E000BF4FF00003184607F11007BD4639
:1016600080BD00BF80B582B000AF786078684FF071
:1016700000014FF040024FF0000303F0F9FE7868DC
:101680004FF080014FF040024FF0000303F0F0FEF6
:101690007B684FF0010283F812217B68D3F8E435B0
:1016A0005B687A689278104698474FF000031846B6
:1016B00007F10807BD4680BD80B582B000AF7860F5
:1016C0007B68D3F8E4351B6998477B684FF00302C9
:1016D00083F812214FF00003184607F10807BD46B2
:1016E00080BD00BF80B582B000AF78607B684FF0EE
:1016F000040283F812217B68D3F8E435DB6898474D
:101700004FF00003184607F10807BD4680BD00BF33
:1017100080B582B000AF78607B68D3F8E035DB69D4
:10172000002B05D07B68D3F8E035DB6978689847F3
:101730004FF00003184607F10807BD4680BD00BF03
:1017400080B582B000AF78600B46FB707B68D3F841
:10175000E0351B68FA787868114698477B68D3F8BB
:10176000E4359B6898474FF00003184607F10807D7
:10177000BD4680BD80B582B000AF78600B46FB707F
:101780007B68D3F8E0355B68FA787868114698474B
:101790004FF00003184607F10807BD4680BD00BFA3
:1017A00080B582B000AF78607B68D3F8E0351B6A03
:1017B000786898474FF00003184607F10807BD46C0
:1017C00080BD00BF80B582B000AF78607B68D3F881
:1017D000E0355B6A786898474FF00003184607F1D8
:1017E0000807BD4680BD00BF80B500AF01F0DAFC40
:1017F000FFF772FA01F074FDFFF744FA01F0BEF949
:1018000000F09AF800F08EFCFEE700BF80B400AF55
:10181000FEE700BF80B483B000AF78603960FEE7B8
:1018200080B582B000AF03F0EDFF03467B607B68BC
:1018300007F10807BD4680BD80B483B000AF786073
:101840000B46FB70FB78002B06D00A4B094A116B44
:101850007A680A431A6307E0064B064A116B7A68F6
:101860006FEA02020A401A6307F10C07BD4680BC0A
:10187000704700BF0038024080B483B000AF78608A
:101880000B46FB70FB78002B06D00A4B094A116C03
:101890007A680A431A6407E0064B064A116C7A68B4
:1018A0006FEA02020A401A6407F10C07BD4680BCC9
:1018B000704700BF0038024080B483B000AF78604A
:1018C0000B46FB70FB78002B06D00A4B094A516C83
:1018D0007A680A435A6407E0064B064A516C7A68F4
:1018E0006FEA02020A405A6407F10C07BD4680BC49
:1018F000704700BF0038024080B483B000AF78600A
:101900000B46FB70FB78002B06D00A4B094A516A44
:101910007A680A435A6207E0064B064A516A7A68B7
:101920006FEA02020A405A6207F10C07BD4680BC0A
:10193000704700BF0038024080B584B004AF0D4B43
:101940004FF000021A704FF0010300934FF00003B4
:1019500001934FF0000302934FF0000303930648F6
:1019600006494FF080024FF0000300F0DBFABD465D
:1019700080BD00BF5C2B0020811900083C6100087D
:1019800080B584B000AF78606D4B4FF000021A77DD
:101990006C4B1B68184602F059FD0346002B76D0AD
:1019A000684B1A6807F10F03104619464FF0000202
:1019B0004FF0000302F06CFCFB7B012B24D0022BC8
:1019C00043D0002B62D1604B4FF003021A705F4B83
:1019D0001B79012B04D0022B07D0002B0AD012E078
:1019E0004FF00000FFF730FB0DE04FF00000FFF775
:1019F0002BFB08E0544B4FF000025A704FF00100EF
:101A0000FFF732FB00BF42E04F4B4FF001021A706C
:101A10004E4B1B79012B04D0022B07D0002B0AD090
:101A200012E04FF00000FFF70FFB0DE04FF0000059
:101A3000FFF70AFB08E04FF00200FFF705FB4FF04D
:101A40000000FFF711FB00BF21E03F4B4FF0020207
:101A50001A703E4B1B79012B04D0022B07D0002BB0
:101A60000AD012E04FF00000FFF7EEFA0DE04FF061
:101A70000000FFF7E9FA08E04FF00100FFF7E4FA91
:101A80004FF00000FFF7F0FA00BF00E000BF2E4B60
:101A90001B78032B4AD801A252F823F02D1B000813
:101AA0002D1B00082D1B0008AD1A0008264B5B7883
:101AB000032B3DD801A252F823F000BFCD1A000835
:101AC000E91A0008051B0008291B00081F4B5B7959
:101AD000022B04D04FF00200FFF7B6FA25E01A4BB4
:101AE0004FF001025A7020E0184B5B79012B04D0B3
:101AF0004FF00100FFF7A8FA17E0134B4FF0020276
:101B00005A7012E0114B5B79022B04D04FF00200A7
:101B1000FFF79AFA09E04FF00000FFF795FA0A4B39
:101B20004FF003025A7000E000BF01E000BF00E088
:101B300000BF034B9B6903F10102014B9A6127E748
:101B4000602B0020B42B00205C2B0020642500209B
:101B500080B500AF4FF480704FF00101FFF7CCFE6D
:101B60004FF480704FF00001FFF7C6FE80BD00BF4C
:101B700080B485B000AF786039604FF00003FB603F
:101B80004FF00003FB727B685B68FB60FB6823F02F
:101B9000407323F48073FB603B681B794FEA032298
:101BA0003B681B681343FA681343FB607B68FA6861
:101BB0005A607B689B68FB60FA68194B1340FB60B6
:101BC0003B681A693B68DB681A433B689B681A43A9
:101BD0003B685B794FEA43031343FA681343FB60A6
:101BE0007B68FA689A607B68DB6AFB60FB6823F4B9
:101BF0007003FB603B681B7D03F1FF33DAB2FB7AB5
:101C00001343FB72FB7A4FEA0353FA681343FB60FA
:101C10007B68FA68DA6207F11407BD4680BC70473A
:101C2000FDF7FFC080B483B000AF78607B684FF0F1
:101C300000021A607B684FF000021A717B684FF057
:101C400000025A717B684FF000029A607B684FF087
:101C50000002DA607B684FF000021A617B684FF087
:101C600001021A7507F10C07BD4680BC704700BF22
:101C700080B485B000AF78604FF00003FB600E4B7E
:101C80005B68FB60FA680D4B1340FB607B681A6869
:101C90007B685B681A437B689B681A437B68DB68D8
:101CA0001343FA681343FB60034BFA685A6007F169
:101CB0001407BD4680BC704700230140E030FCFFA4
:101CC00080B483B000AF78607B684FF000021A6088
:101CD0007B684FF000025A607B684FF000029A6008
:101CE0007B684FF00002DA6007F10C07BD4680BC4C
:101CF000704700BF80B483B000AF78600B46FB70C4
:101D0000FB78002B06D07B689B6843F001027B6860
:101D10009A6005E07B689B6823F001027B689A600B
:101D200007F10C07BD4680BC704700BF80B485B08A
:101D300000AF7860F970BA707B704FF00003FB6001
:101D40004FF00003BB60FB78092B27D97B68DB6869
:101D5000FB60FA7813464FEA43039B18A3F11E0376
:101D60004FF0070202FA03F3BB60BB686FEA03039C
:101D7000FA681340FB607978FA7813464FEA430318
:101D80009B18A3F11E0301FA03F3BB60FA68BB685A
:101D90001343FB607B68FA68DA6022E07B681B69AA
:101DA000FB60FA7813464FEA43039B184FF0070293
:101DB00002FA03F3BB60BB686FEA0303FA681340DF
:101DC000FB607978FA7813464FEA43039B1801FACF
:101DD00003F3BB60FA68BB681343FB607B68FA6877
:101DE0001A61BB78062B27D87B685B6BFB60BB78DE
:101DF00003F1FF3213464FEA83039B184FF01F0293
:101E000002FA03F3BB60BB686FEA0303FA6813408E
:101E1000FB60F978BB7803F1FF3213464FEA830386
:101E20009B1801FA03F3BB60FA68BB681343FB60BD
:101E30007B68FA685A6351E0BB780C2B27D87B6823
:101E40001B6BFB60BA7813464FEA83039B18A3F120
:101E500023034FF01F0202FA03F3BB60BB686FEA73
:101E60000303FA681340FB60F978BA7813464FEA27
:101E700083039B18A3F1230301FA03F3BB60FA6801
:101E8000BB681343FB607B68FA681A6326E07B68D3
:101E9000DB6AFB60BA7813464FEA83039B18A3F111
:101EA00041034FF01F0202FA03F3BB60BB686FEA05
:101EB0000303FA681340FB60F978BA7813464FEAD7
:101EC00083039B18A3F1410301FA03F3BB60FA6893
:101ED000BB681343FB607B68FA68DA6207F114079A
:101EE000BD4680BC704700BF80B485B000AF78604D
:101EF0000B46FB704FF00003FB737B681A68FB789E
:101F00001340002B03D04FF00103FB7302E04FF0AE
:101F10000003FB73FB7B184607F11407BD4680BC2A
:101F2000704700BF80B58AB002AFF860B9603B600F
:101F30001346FB80FB68002B04D14FF0500080F368
:101F40001188FEE7BB6A042B04D94FF0500080F3E0
:101F50001188FEE7FB881846396B00F015FDB86163
:101F6000BB69002B00F08C80BB691A6BFB8803F106
:101F7000FF334FEA8303D3187B617B6923F00703A8
:101F80007B617B6903F00703002B04D04FF0500006
:101F900080F31188FEE7FB880093B869B968BA6AD4
:101FA0007B6B00F0FBFB7869F9683A6802F070FB24
:101FB0000246BB691A60BB691B6803F00703002B6C
:101FC00004D04FF0500080F31188FEE7FB6A002B2D
:101FD00002D0FB6ABA691A6002F0CEFB344B1B6870
:101FE00003F10102324B1A60324B1B68002B09D1FE
:101FF000304BBA691A602E4B1B68012B0FD100F0D1
:1020000009FC0CE02C4B1B68002B08D1294B1B68EA
:10201000DA6ABB6A9A4202D8264BBA691A60BB696F
:10202000DA6A264B1B689A4203D9BB69DA6A234BEA
:102030001A60234B1B6803F10102214B1A60BB6934
:10204000DA6A204B1B689A4203D9BB69DA6A1D4BD6
:102050001A60BB69DA6A13464FEA83039B184FEA9A
:102060008303194A9A18BB6903F104031046194601
:1020700001F00CF84FF00103FB6102F08FFB02E06E
:102080004FF0FF33FB61FB69012B0BD10A4B1B683F
:10209000002B07D0074B1B68DA6ABB6A9A4201D251
:1020A00002F05EFBFB69184607F12007BD4680BDC4
:1020B000100100203800002020010020180100201D
:1020C000340100201C0100203C00002080B584B0B9
:1020D00000AF78604FF00003FB607B68002B13D0EB
:1020E00000F05EF80D4B1A687B68D318BB600C4B90
:1020F0001B6803F10403184601F02AF8B86800F0E1
:102100000BFC00F05BF8F860FB68002B01D102F0DB
:1021100027FB07F11007BD4680BD00BF140100205A
:102120003800002080B586B004AF4FF00003009364
:102130004FF0000301934FF0000302934FF00003B0
:102140000393134813494FF046024FF00003FFF783
:10215000E9FE78607B68012B0DD14FF0500080F3D1
:1021600011880D4B4FF001021A600C4B4FF000022A
:102170001A6002F0D7FA7B68002B04D14FF05000B0
:1021800080F31188FEE707F10807BD4680BD00BF58
:102190007927000854610008200100201401002064
:1021A00080B400AF044B1B6803F10102024B1A60BC
:1021B000BD4680BC704700BF2401002090B583B0AD
:1021C00000AF4FF000037B603C4B1B68002B04D139
:1021D0004FF0500080F31188FEE702F0CDFA374B44
:1021E0001B6803F1FF32354B1A60344B1B68002B20
:1021F0005CD1334B1B68002B58D04FF000033B6081
:102200002CE0304BDB68DC6804F11803184600F062
:102210009FFF04F10403184600F09AFFE26A2A4B7C
:102220001B689A4202D9E26A274B1A60E26A134697
:102230004FEA83039B184FEA8303244A9A1804F158
:1022400004031046194600F021FFE26A204B1B6888
:10225000DB6A9A4202D34FF001033B60194B1B68C3
:10226000002BCED11B4B1B68002B0FD007E000F0DA
:1022700035F8184B1B6803F1FF32164B1A60154BEB
:102280001B68002BF3D14FF001033B603B68012B2F
:1022900003D0114B1B68012B08D14FF001037B6069
:1022A0000D4B4FF000021A6002F05AFA02F076FA73
:1022B0007B68184607F10C07BD4690BD240100203D
:1022C00010010020D00000201C0100203C00002054
:1022D00038000020280100202C01002080B584B0A7
:1022E00000AF494B1B68002B40F08480474B1B68B4
:1022F00003F10102454B1A60444B1B68002B2CD1A3
:10230000434B1B681B68002B04D04FF0500080F338
:102310001188FEE73E4B1B68FB603E4B1A683C4B46
:102320001A603C4BFA681A603B4B1B6803F10102D0
:10233000394B1A60364B1B681B68002B04D1374B96
:102340004FF0FF321A6008E0314B1B68DB68DB6836
:10235000BB60BB685A68314B1A602C4B1A682F4B14
:102360001B689A424CD32A4B1B681B68002B04D174
:102370002A4B4FF0FF321A6042E0254B1B68DB68A6
:10238000DB68BB60BB685B687B60204B1A687B685E
:102390009A4203D2214B7A681A6031E0BB6803F19C
:1023A0000403184600F0D4FEBB689B6A002B05D0DE
:1023B000BB6803F11803184600F0CAFEBB68DA6A6E
:1023C000174B1B689A4203D9BB68DA6A144B1A6030
:1023D000BB68DA6A13464FEA83039B184FEA83030C
:1023E000104A9A18BB6803F104031046194600F01E
:1023F0004DFEB8E70C4B1B6803F101020A4B1A6053
:1024000007F11007BD4680BD240100201401002003
:10241000C8000020CC000020300100203000002047
:102420001C0100203C0000202801002080B582B063
:1024300000AF3A4B1B68002B04D0394B4FF0010220
:102440001A6067E0374B1B681A68364B1B681B6BBA
:102450009A4209D8334B1A68324B1B6803F1340394
:1024600010461946FFF7D6F92E4B1B681B6B184612
:102470002D494FF0140203F0D5FC0346002B1AD06F
:10248000284B1A68274B1B6803F134031046194682
:10249000FFF7C0F90FE0254B1B68002B04D14FF06C
:1024A000500080F31188FEE7204B1B6803F1FF32D8
:1024B0001E4B1A6000E000BF1C4B1A681C491346F3
:1024C0004FEA83039B184FEA8303CB181B68002B4A
:1024D000E1D0164B1A6813464FEA83039B184FEA64
:1024E0008303134A9B187B607B685B685A687B6830
:1024F0005A607B685A687B6803F108039A4204D1EA
:102500007B685B685A687B685A607B685B68DA68DE
:10251000044B1A6007F10807BD4680BD2401002066
:102520002C010020380000205C6100081C01002004
:102530003C00002080B584B000AF786039607B68D3
:10254000002B04D14FF0500080F31188FEE7144BAC
:102550001B6803F118037868194600F0BFFD104BA3
:102560001B6803F10403184600F0F2FD3B68B3F169
:10257000FF3F08D10A4B1B6803F1040309481946C1
:1025800000F084FD07E0084B1A683B68D318FB6035
:10259000F86800F0C1F907F11007BD4680BD00BF23
:1025A00038000020FC0000201401002080B584B019
:1025B00000AF78607B68DB68DB68BB60BB68002BC2
:1025C00004D14FF0500080F31188FEE7BB6803F19F
:1025D0001803184600F0BCFD204B1B68002B21D1CE
:1025E000BB6803F10403184600F0B2FDBB68DA6A69
:1025F0001B4B1B689A4203D9BB68DA6A184B1A60F6
:10260000BB68DA6A13464FEA83039B184FEA8303D9
:10261000144A9A18BB6803F104031046194600F0E7
:1026200035FD06E0BB6803F118030F48194600F0BA
:102630002DFDBB68DA6A0D4B1B68DB6A9A4203D337
:102640004FF00103FB6002E04FF00003FB60FB680A
:10265000184607F11007BD4680BD00BF24010020C9
:102660001C0100203C000020D00000203800002089
:1026700080B483B000AF78607B68002B04D14FF04A
:10268000500080F31188FEE7064B1A687B681A60D9
:10269000054B1A687B685A6007F10C07BD4680BC81
:1026A000704700BF300100201401002080B584B0C5
:1026B00000AF786039607B68002B04D14FF0500088
:1026C00080F31188FEE73B68002B04D14FF05000E7
:1026D00080F31188FEE702F04FF83B681B68B3F106
:1026E000FF3F03D14FF00003FB602CE07B681A68CA
:1026F000194B1B689A4209D07B685A68174B1B68B4
:102700009A4203D84FF00103FB601CE0134B1A6898
:102710007B685B68D21A3B681B689A4210D23B68A0
:102720001A687B6859680D4B1B68CB1AD2183B6836
:102730001A607868FFF79CFF4FF00003FB6002E02F
:102740004FF00103FB6002F029F8FB68184607F11F
:102750001007BD4680BD00BF3001002014010020DD
:1027600080B400AF034B4FF001021A60BD4680BC3D
:10277000704700BF2C01002080B582B000AF7860A8
:1027800000F08CF8044B1B68012B01D901F0E8FF25
:10279000FFF746F8F4E700BF3C00002080B584B0A6
:1027A00000AFF860B9607A603B60FB6803F1340306
:1027B0001846B9684FF00A0203F086FCFB684FF038
:1027C000000283F83D207B68042B02D94FF00403FC
:1027D0007B60FB687A68DA62FB687A681A64FB6877
:1027E00003F10403184600F043FCFB6803F11803EF
:1027F000184600F03DFCFB68FA681A617B68C3F17B
:102800000502FB689A61FB68FA685A6207F11007D3
:10281000BD4680BD80B582B000AF4FF000037B6045
:102820000FE07A6813464FEA83039B184FEA83034D
:10283000124A9B18184600F0FBFB7B6803F101036A
:102840007B607B68042BECD90D4800F0F1FB0D4850
:1028500000F0EEFB0C4800F0EBFB0C4800F0E8FB4E
:102860000B4800F0E5FB0B4B054A1A600A4B054A82
:102870001A6007F10807BD4680BD00BF3C0000207C
:10288000A0000020B4000020D0000020E4000020C0
:10289000FC000020C8000020CC00002080B582B0E1
:1028A00000AF1A4B1B68002B2BD0FFF779FC184B9D
:1028B0001B68002B14BF00230123DBB27B60FFF7F2
:1028C0007DFC7B68002B1CD101F056FF104BDB68B0
:1028D000DB683B603B6803F10403184600F038FCFA
:1028E0000C4B1B6803F1FF320A4B1A60074B1B6845
:1028F00003F1FF32054B1A6001F050FF386800F019
:102900007BF807F10807BD4680BD00BFF800002036
:10291000E40000201001002080B582B000AF786094
:10292000144B1B687A685A60134B1B687A689A428A
:102930000AD2124B1A680F4B1B6803F104031046AE
:10294000194600F0CBFB11E00D4B1A68094B1B68D0
:1029500003F104031046194600F0C0FB094B1B6845
:102960007A689A4202D2074B7A681A6007F1080720
:10297000BD4680BD3800002014010020CC0000209E
:10298000C80000203000002080B584B000AF0346AE
:102990003960FB804FF0440002F0EAFEF860FB680B
:1029A000002B23D03B68002B07D1FB884FEA830321
:1029B000184602F0DDFE034600E03B68FA68136348
:1029C000FB681B6B002B06D1F86802F011FF4FF07B
:1029D0000003FB600AE0FB681A6BFB884FEA830385
:1029E00010464FF0A5011A4603F008FBFB68184695
:1029F00007F11007BD4680BD80B582B000AF78609A
:102A00007B681B6B184602F0F3FE786802F0F0FE5C
:102A100007F10807BD4680BD80B483B000AF054B09
:102A20001B687B607B68184607F10C07BD4680BCBD
:102A3000704700BF3800002080B584B000AF7860D8
:102A40007B68FB607B68002B04D14FF0500080F363
:102A50001188FEE7FB68DA6A244B1B68DB6A9A423E
:102A600040D2224B1B68DB6AC3F10502FB689A6106
:102A7000FB685969FB68DA6A13464FEA83039B18BF
:102A80004FEA83031A4A9B18994226D1FB6803F147
:102A90000403184600F05CFB144B1B68DA6AFB6801
:102AA000DA62FB68DA6A134B1B689A4203D9FB6847
:102AB000DA6A104B1A60FB68DA6A13464FEA83033E
:102AC0009B184FEA83030A4A9A18FB6803F1040330
:102AD0001046194600F0DAFA04E0044B1B68DA6A83
:102AE000FB68DA6207F11007BD4680BD38000020A0
:102AF0003C0000201C01002080B584B000AF78604D
:102B00007B68FB607B68002B30D0FB68DA6AFB686F
:102B10001B6C9A422AD0FB6803F10403184600F0AC
:102B200017FBFB681A6CFB68DA62FB68DB6AC3F1AF
:102B30000502FB689A61FB68DA6A0E4B1B689A42D1
:102B400003D9FB68DA6A0B4B1A60FB68DA6A134632
:102B50004FEA83039B184FEA8303074A9A18FB68DE
:102B600003F104031046194600F090FA07F110072C
:102B7000BD4680BD1C0100203C00002080B586B011
:102B800004AF4FF002004FF00101FEF755FE4FF485
:102B900060433B604FF000037B714FF000033B71DB
:102BA0004FF00103FB713B461948194600F0E6F867
:102BB000184B4FF001021A70164B4FF001025A7079
:102BC000144B4FF001029A704FF004004FF00101D6
:102BD0004FF0000201F018FA02460F4B1A604FF056
:102BE000010300934FF0000301934FF000030293A1
:102BF0004FF000030393094809494FF040024FF09A
:102C00000003FFF78FF907F10807BD4680BD00BF3D
:102C100000040240B02B0020B42B0020252C00081B
:102C20007061000880B584B000AF78604F4B4FF002
:102C3000000283F83C204E484FF4005100F05EF94A
:102C40000346002B23D14B4B1B78012B23D14FF094
:102C50006400FFF73BFA46484FF4005100F04EF98C
:102C60000346002B17D14FF00003FB73414B4FF08D
:102C700000021A70404B1A6807F10F0310461946FC
:102C80004FF0FF324FF0000301F058FA03E0394BE8
:102C90004FF001021A7036484FF4804100F02EF9CF
:102CA0000346002B23D1334B5B78012B23D14FF00C
:102CB0006400FFF70BFA2E484FF4804100F01EF934
:102CC0000346002B17D14FF00103FB73294B4FF044
:102CD00000025A70284B1A6807F10F031046194674
:102CE0004FF0FF324FF0000301F028FA03E0214BD0
:102CF0004FF001025A701E484FF4004100F0FEF8F8
:102D00000346002B23D11B4B9B78012B23D14FF083
:102D10006400FFF7DBF916484FF4004100F0EEF8CD
:102D20000346002B17D14FF00203FB73114B4FF0FA
:102D300000029A70104B1A6807F10F0310461946EB
:102D40004FF0FF324FF0000301F0F8F903E0094BB8
:102D50004FF001029A704FF4FA70FFF7B7F9034B86
:102D60009B6B03F10102014B9A6364E7602B002027
:102D700000040240B02B0020B42B002080B487B0A8
:102D800000AF786039604FF000037B614FF00003C3
:102D90003B614FF00003FB604FF000037B6186E076
:102DA0007B694FF0010202FA03F33B613B681A684A
:102DB0003B691340FB60FA683B699A4273D17B68B8
:102DC0001A687B694FEA43034FF0030101FA03F3EA
:102DD0006FEA03031A407B681A607B681A683B68D5
:102DE0001B7919467B694FEA430301FA03F31A433F
:102DF0007B681A603B681B79012B03D03B681B7909
:102E0000022B34D17B689A687B694FEA43034FF009
:102E1000030101FA03F36FEA03031A407B689A6027
:102E20007B689A683B685B7919467B694FEA430384
:102E300001FA03F31A437B689A607B685A687B69DE
:102E40009BB24FF0010101FA03F36FEA03031A404A
:102E50007B685A607B685A683B689B7919467B6936
:102E60009BB201FA03F39BB21A437B685A607B68FA
:102E7000DA687B699BB24FEA43034FF0030101FA22
:102E800003F36FEA03031A407B68DA607B68DA6851
:102E90003B68DB7919467B694FEA430301FA03F388
:102EA0001A437B68DA607B6903F101037B617B690C
:102EB0000F2B7FF675AF07F11C07BD4680BC70472E
:102EC00080B483B000AF78607B684FF6FF721A6001
:102ED0007B684FF000021A717B684FF000025A7154
:102EE0007B684FF000029A717B684FF00002DA7144
:102EF00007F10C07BD4680BC704700BF80B485B0A9
:102F000000AF78600B467B804FF00003FB737B685B
:102F10001A697B881340002B03D04FF00103FB7329
:102F200002E04FF00003FB73FB7B184607F1140728
:102F3000BD4680BC704700BF80B483B000AF7860EE
:102F400013460A467A807B707B78002B03D07B681F
:102F50007A881A8302E07B687A885A8307F10C0723
:102F6000BD4680BC704700BF80B485B000AF7860BC
:102F700013460A467A807B704FF00003FB604FF0E7
:102F80000003BB607A787B8803F007034FEA830372
:102F900002FA03F3FB607B884FEAD3039BB21A4625
:102FA0007B884FEAD3039BB219467B6801F1080185
:102FB00053F821107B8803F007034FEA83034FF097
:102FC0000F0000FA03F36FEA030319407B6802F174
:102FD000080243F822107B884FEAD3039BB21A46BB
:102FE0007B6802F1080253F82220FB681343BB60A0
:102FF0007B884FEAD3039BB21A467B6802F1080232
:10300000B96843F8221007F11407BD4680BC704729
:1030100080B500AF04484FF0010102F0CDFE034B34
:103020001B68984780BD00BF000800405425002061
:1030300080B483B000AF78607B6803F108027B68DE
:103040005A607B684FF0FF329A607B6803F1080298
:103050007B68DA607B6803F108027B681A617B6831
:103060004FF000021A6007F10C07BD4680BC7047A4
:1030700080B483B000AF78607B684FF000021A61C3
:1030800007F10C07BD4680BC704700BF80B485B017
:1030900000AF786039607B685B68FB60FB685A68EA
:1030A0003B685A607B685A683B689A60FB685B685B
:1030B0003A689A60FB683A685A607B683A685A6076
:1030C0003B687A681A617B681B6803F101027B68C0
:1030D0001A6007F11407BD4680BC704780B485B004
:1030E00000AF786039603B681B68BB60BB68B3F1B8
:1030F000FF3F03D17B681B69FB600DE07B6803F138
:103100000803FB6002E0FB685B68FB60FB685B68D0
:103110001A68BB689A42F6D9FB685A683B685A60DD
:103120003B685B683A689A603B68FA689A60FB683B
:103130003A685A603B687A681A617B681B6803F1D9
:1031400001027B681A6007F11407BD4680BC704716
:1031500080B485B000AF78607B685B687A689268FD
:103160009A607B689B687A6852685A607B681B69C2
:10317000FB60FB685A687B689A4203D17B689A6857
:10318000FB685A607B684FF000021A61FB681B689D
:1031900003F1FF32FB681A6007F11407BD4680BCDB
:1031A000704700BF80B500AF124B124A126842F060
:1031B00001021A600F4B4FF000029A600D4A0D4B4E
:1031C0001B6823F0847323F480331360094B0A4A8D
:1031D0005A60084B074A126822F480221A60054B95
:1031E0004FF00002DA6000F00BF8044B4FF0006281
:1031F0009A6080BD003802401030002400ED00E0ED
:1032000080B483B000AF4FF000037B604FF0000349
:103210003B60304B2F4A126842F480321A602D4BCB
:103220001B6803F400333B607B6803F101037B60A0
:103230003B68002B03D17B68B3F5A06FEFD1254B22
:103240001B6803F40033002B03D04FF001033B60F5
:1032500002E04FF000033B603B68012B34D11D4B73
:103260001C4A92689A601B4B1A4A92689A60194BE2
:10327000184A926842F480529A60164B164A5A6075
:10328000144B144A126842F080721A6000BF114B4E
:103290001B6803F00073002BF9D0104B40F2017251
:1032A0001A600C4B0B4A926822F003029A60094B99
:1032B000084A926842F002029A6000BF054B9B6880
:1032C00003F00C03082BF9D107F10C07BD4680BCB5
:1032D000704700BF0038024004304308003C024001
:1032E00080B590B004AF07F118031846FEF79AFCBA
:1032F00007F108031846FEF7E3FC4FF001004FF01A
:103300000101FEF799FA4FF004004FF00101FEF7BA
:1033100093FA3B461846FFF7D3FD4FF003033B718A
:103320004FF001033B603B4637481946FFF726FD47
:103330003B461846FFF7C4FD4FF003033B714FF0C7
:103340000A033B603B4631481946FFF717FD4FF42F
:1033500080704FF00101FEF7AFFAFEF7F9FB4FF076
:103360000003BB604FF44033FB604FF000033B6150
:103370004FF000037B6107F108031846FEF778FC65
:103380004FF000033B774FF000037B774FF00003D3
:103390007B624FF00003BB624FF0010387F82C30D3
:1033A00007F118031A481946FEF7E2FB18484FF0D8
:1033B00000014FF001024FF00703FEF7B7FC14487D
:1033C0004FF00101FEF796FC4FF0010000F062FEA5
:1033D0000246104B1A604FF0010300934FF00003B8
:1033E00001934FF0000302934FF0000303930A4848
:1033F0000A494FF080024FF00003FEF793FD07F1FA
:103400003007BD4680BD00BF0000024000080240FA
:1034100000200140C02B0020213400087C610008FE
:1034200080B586B000AF78604FF00003FB755F4B4E
:103430004FF0000283F834204FF000033B614FF05F
:103440000003FB7522E05A484FF000014FF00102E3
:103450004FF00703FEF76AFC554B554A926842F05D
:1034600080429A6001E001F07BF951484FF002017F
:10347000FEF73AFD0346002BF5D04D4BDB6C3A6965
:10348000D3183B61FB7D03F10103FB75FB7D0F2B23
:10349000D9D94FF00003BB604FF00003FB7522E069
:1034A00043484FF00B014FF001024FF00703FEF7C6
:1034B0003DFC3F4B3E4A926842F080429A6001E0F8
:1034C00001F04EF93A484FF00201FEF70DFD0346B8
:1034D000002BF5D0364BDB6CBA68D318BB60FB7D94
:1034E00003F10103FB75FB7D0F2BD9D94FF00003CE
:1034F000FB604FF00003FB7522E02D484FF00D01FB
:103500004FF001024FF00703FEF710FC284B284A4A
:10351000926842F080429A6001E001F021F924486B
:103520004FF00201FEF7E0FC0346002BF5D0204BE4
:10353000DB6CFA68D318FB60FB7D03F10103FB75BC
:10354000FB7D0F2BD9D91B4B1B6818464FF0000190
:103550004FF0FF324FF0000300F09AFE3B694FEA54
:1035600013139AB2144B9A80BB684FEA13139AB2A2
:10357000114B5A80FB684FEA13139AB20E4B1A8014
:103580000C4B1B6818464FF000014FF000024FF043
:10359000000300F0D3FD4FF06400FEF797FD034BEE
:1035A0001B6B03F10102014B1A6345E7602B0020FE
:1035B00000200140C02B0020B82B002080B485B033
:1035C00000AF78604FF00003FB607A6813464FEA63
:1035D00003139B1A4FEAC3031A460D4BA3FB0213B6
:1035E000D21A4FEA52029B184FEA9303BB6000E0E5
:1035F00000BFFB6803F10103FB60FA68BB689A42F5
:10360000F6D900BF07F11407BD4680BC704700BF64
:103610002549922480B500AF094B9B7A002B0AD034
:10362000084B084A126822F006021A60FFF7BAFD3A
:103630000348FDF7FDFA4FF4802001F00BFF80BD39
:103640006C25002010ED00E080B500AF014801F0CE
:1036500005F980BD6C25002080B584B000AF78608E
:1036600039604FF00003FB733B685B78092B3AD855
:1036700001A252F823F000BFC9360008DD36000869
:10368000E7360008D3360008E7360008AB360008F6
:10369000A1360008E7360008BF360008B536000836
:1036A0007868396800F044F922E07868396800F0F9
:1036B00023FA1DE07868396800F05EFA18E078684F
:1036C000396800F0D5FA13E07868396800F002FB39
:1036D0000EE07868396800F029FB09E078683968FD
:1036E00000F094FB04E07868396800F005FC00BF46
:1036F000FB7B184607F11007BD4680BD80B584B03E
:1037000000AF786039604FF00003FB737B6893F87B
:103710001231032B1BD13B689B88DBB2012B11D8E4
:103720007B68D3F8E0359B687868396898473B68D0
:10373000DB88002B10D1FB7B002B0DD1786802F0C9
:10374000C1F809E07868396800F0D6FB04E07868D1
:10375000396800F0D1FB00E000BFFB7B184607F1A1
:103760001007BD4680BD00BF80B584B000AF786053
:1037700039604FF00003FB733B689B88BB733B6869
:103780005B78012B39D0032B02D0002B6CD0C6E024
:103790007B6893F81231022B02D0032B0CD025E06A
:1037A000BB7B002B27D0BB7B802B24D0BB7B7868D6
:1037B000194601F03BFF1EE03B685B88002B0AD1F5
:1037C000BB7B002B07D0BB7B802B04D0BB7B7868F6
:1037D000194601F02BFF7B68D3F8E0359B687868C9
:1037E00039689847786802F06DF805E078683968BC
:1037F00000F082FB00E000BF92E07B6893F812319A
:10380000022B02D0032B0CD025E0BB7B002B27D052
:10381000BB7B802B24D0BB7B7868194601F006FF68
:103820001EE03B685B88002B1CD1BB7B002B0ED0BD
:10383000BB7B802B0BD0BB7B7868194601F038FF2F
:103840007B68D3F8E0359B68786839689847786872
:1038500002F038F806E07868396800F04DFB02E0C5
:1038600000BF00E000BF5BE07B6893F81231022BE1
:1038700002D0032B0CD04BE0BB7B002B4DD0BB7B8D
:10388000802B4AD0BB7B7868194601F0CFFE44E01C
:10389000BB7B5BB2002B19DABB7B03F07F0279683C
:1038A00013464FEA83039B184FEAC303CB1803F573
:1038B0008C739B78002B04D01C4B4FF001021A60D4
:1038C0001FE01A4B4FF000021A601AE0BB7B5BB29C
:1038D000002B16DBBA7B796813464FEA83039B18EB
:1038E0004FEAC303CB1803F55C739B78002B04D01D
:1038F0000E4B4FF001021A6003E00C4B4FF0000238
:103900001A60786809494FF0020201F087FF05E06C
:103910007868396800F0F0FA00E000BF00E000BF0E
:10392000FB7B184607F11007BD4680BD380100201B
:1039300080B584B000AF786039603B685B884FEA3F
:1039400013239BB203F1FF33062B00F2B58001A2D3
:1039500052F823F071390008A5390008D33900085E
:10396000B93A0008B93A0008A53A0008AF3A000889
:103970007B68D3F8E8351B687A68917807F10A020A
:10398000084611469847F8603B68DB88402B05D015
:103990007B6893F81231012B40F093804FF00803BD
:1039A0007B818EE07B68D3F8E0359B6A7A689178FA
:1039B00007F10A02084611469847F860FB6803F1D0
:1039C00001034FF002021A707B68FA68C3F8EC2515
:1039D00078E03B685B88DBB2052B5DD801A252F82A
:1039E00023F000BFFD390008173A0008313A0008FB
:1039F0004B3A0008653A00087F3A00087B68D3F824
:103A0000E8355B687A68917807F10A020846114642
:103A10009847F86045E07B68D3F8E8359B687A689A
:103A2000917807F10A02084611469847F86038E095
:103A30007B68D3F8E835DB687A68917807F10A0289
:103A4000084611469847F8602BE07B68D3F8E835C4
:103A50001B697A68917807F10A020846114698476F
:103A6000F8601EE07B68D3F8E8355B697A68917886
:103A700007F10A02084611469847F86011E07B6892
:103A8000D3F8E8359B697A68917807F10A0208460D
:103A900011469847F86004E07868396800F02CFA1D
:103AA00025E00FE07868396800F026FA1FE07868B2
:103AB000396800F021FA1AE07868396800F01CFAD9
:103AC00015E000BF7B89002B11D03B68DB88002B01
:103AD0000DD03B68DA887B899A4238BF13469BB287
:103AE0007B817B897868F9681A4601F097FE07F1B7
:103AF0001007BD4680BD00BF80B584B000AF7860C0
:103B000039603B689B88002B2ED13B68DB88002BFB
:103B10002AD13B685B88DBB203F07F03FB737B68D1
:103B200093F81231032B04D17868396800F0E4F976
:103B30001EE07B68FA7B83F81321FB7B78681946CB
:103B400001F0F8FD786801F0BDFEFB7B002B05D08D
:103B50007B684FF0020283F8122109E07B684FF086
:103B6000010283F8122103E07868396800F0C4F993
:103B700007F11007BD4680BD80B582B000AF786008
:103B800039603B685B88DAB2384B1A70374B1B7868
:103B9000012B04D97868396800F0AEF961E07B68E0
:103BA00093F81231022B02D0032B1CD054E02F4B80
:103BB0001B78002B13D02D4B1A787B6883F81021CB
:103BC0007B684FF0030283F81221284B1B7878683A
:103BD0001946FDF7B5FD786801F074FE41E078689C
:103BE00001F070FE3DE0214B1B78002B13D17B6868
:103BF0004FF0020283F812211C4B1A787B6883F87D
:103C000010211A4B1B7878681946FDF7B3FD7868C8
:103C100001F058FE25E07B6893F81021134B1B78C8
:103C20009A4215D07B6893F8103178681946FDF7F1
:103C3000A1FD0E4B1A787B6883F810210B4B1B7883
:103C400078681946FDF77CFD786801F03BFE08E0D6
:103C5000786801F037FE04E07868396800F04CF9C4
:103C600000BF07F10807BD4680BD00BF440100202A
:103C700080B582B000AF786039603B68DB88012B8B
:103C800004D07868396800F037F91DE07B6893F854
:103C90001231022B02D0032B07D010E078680C49B8
:103CA0004FF0010201F0BAFD0EE07B6803F5887366
:103CB000786819464FF0010201F0B0FD04E0786821
:103CC000396800F019F900BF07F10807BD4680BD4B
:103CD0003C01002080B582B000AF786039607B681D
:103CE00093F81231A3F10203012B14D87B68D3F8A7
:103CF0001431002B04D00C4B4FF003021A6003E088
:103D0000094B4FF001021A60786807494FF0010231
:103D100001F084FD04E07868396800F0EDF800BF38
:103D200007F10807BD4680BD4001002080B584B082
:103D300000AF786039604FF00003FB733B685B882D
:103D4000012B0FD17B684FF00102C3F814217B686F
:103D5000D3F8E0359B68786839689847786801F04F
:103D6000B1FD4FE03B685B88022B4BD13B689B88E1
:103D7000DBB2002B46D17B681B695B68BB603B688C
:103D80009B884FEA13239BB2FB73FB7B03F1FF334A
:103D9000042B30D801A252F823F000BFB13D000837
:103DA000BF3D0008CD3D0008DB3D0008E93D0008AF
:103DB000BB684FF0010262F30613BB601BE0BB68F7
:103DC0004FF0020262F30613BB6014E0BB684FF0D1
:103DD000030262F30613BB600DE0BB684FF0040200
:103DE00062F30613BB6006E0BB684FF0050262F3A6
:103DF0000613BB6000BF7B681B69BA685A607868AD
:103E000001F060FD07F11007BD4680BD80B582B0AE
:103E100000AF786039607B6893F81231A3F1020338
:103E2000012B13D83B685B88012B15D17B684FF0C1
:103E30000002C3F814217B68D3F8E0359B687868EA
:103E400039689847786801F03DFD05E07868396881
:103E500000F052F800BF00E000BF07F10807BD46C0
:103E600080BD00BF80B483B000AF786039607B68EC
:103E700093F8C8253B681A707B6893F8C9253B689E
:103E80005A707B6893F8CA351A467B6893F8CB352D
:103E90004FEA03239BB2D3189AB23B685A807B68DF
:103EA00093F8CC351A467B6893F8CD354FEA032357
:103EB0009BB2D3189AB23B689A807B6893F8CE3550
:103EC0001A467B6893F8CF354FEA03239BB2D31889
:103ED0009AB23B68DA803B68DB881A467B68C3F895
:103EE0003C217B684FF0010283F8112107F10C0798
:103EF000BD4680BC704700BF80B582B000AF78601F
:103F000039603B681B78DBB25BB2002B05DA78685E
:103F10004FF0800101F08AFB0EE03B68DB88002B4C
:103F200005D178684FF0800101F080FB04E07868EB
:103F30004FF0000101F07AFB7868FCF73DFE07F1D5
:103F40000807BD4680BD00BF80B582B000AF786075
:103F500039607B68002B04D14FF0500080F311884A
:103F6000FEE700F009FC7B681A687B68DB6B796808
:103F7000096C01FB03F3D2187B685A607B684FF031
:103F800000029A637B681A687B689A607B681A688B
:103F90007B68DB6B03F1FF337968096C01FB03F38A
:103FA000D2187B68DA607B684FF0FF325A647B6816
:103FB0004FF0FF329A643B68002B0FD17B681B697E
:103FC000002B17D07B6803F110031846FEF7EEFABA
:103FD0000346012B0ED100F0C3FB0BE07B6803F11D
:103FE00010031846FFF724F87B6803F124031846F2
:103FF000FFF71EF800F0D2FB4FF00103184607F15F
:104000000807BD4680BD00BF80B588B000AFF8602E
:10401000B9601346FB714FF00003FB61FB68002B96
:1040200029D04FF04C0001F0A3FBB861BB69002B15
:1040300021D0FB68BA6802FB03F303F101037B6143
:10404000786901F095FB0246BB691A60BB691B6881
:10405000002B0DD0BB69FA68DA63BB69BA681A64D1
:10406000B8694FF00101FFF76FFFBB69FB6102E028
:10407000B86901F0BDFBFB69002B04D14FF0500083
:1040800080F31188FEE7FB69184607F12007BD465B
:1040900080BD00BF80B584B000AF0346FB714FF018
:1040A0004C0001F065FBF860FB68002B38D0FB6822
:1040B0004FF000025A60FB684FF000021A60FB6884
:1040C0004FF000029A60FB684FF00002DA60FB6874
:1040D0004FF000029A63FB684FF00102DA63FB685D
:1040E0004FF000021A64FB684FF0FF325A64FB681D
:1040F0004FF0FF329A64FB6803F110031846FEF795
:1041000097FFFB6803F124031846FEF791FFF86858
:104110004FF000014FF000024FF0000300F00EF8E6
:10412000FB68002B04D14FF0500080F31188FEE7AC
:10413000FB68184607F11007BD4680BD80B588B002
:1041400000AFF860B9607A603B604FF00003FB613C
:10415000FB68002B04D14FF0500080F31188FEE77C
:10416000BB68002B03D1FB681B6C002B02D14FF006
:10417000010301E04FF00003002B05D14FF0500088
:1041800080F31188FEE700BF00F0F6FAFB689A6B37
:10419000FB68DB6B9A4218D2F868B9683A6800F09D
:1041A0006FF9FB685B6A002B0AD0FB6803F12403FC
:1041B0001846FEF7FBF90346012B01D100F0D0FAB7
:1041C00000F0ECFA4FF001035DE07B68002B04D1B6
:1041D00000F0E4FA4FF0000355E0FB69002B07D133
:1041E00007F114031846FEF743FA4FF00103FB6191
:1041F00000F0D4FAFDF7D4FF00F0BEFAFB685B6C68
:10420000B3F1FF3F03D1FB684FF000025A64FB6833
:104210009B6CB3F1FF3F03D1FB684FF000029A643F
:1042200000F0BCFA07F1140207F104031046194626
:10423000FEF73CFA0346002B1ED1F86800F010FA96
:104240000346002B12D0FB6803F110027B68104676
:104250001946FEF76FF9F86800F09CF9FDF7AEFF1C
:104260000346002B8FD100F07BFA8CE7F86800F052
:1042700091F9FDF7A3FF86E7F86800F08BF9FDF7E9
:104280009DFF4FF00003184607F12007BD4680BD93
:1042900080B588B000AFF860B9607A603B604FF0DD
:1042A0000003FB61FB68002B04D14FF0500080F34A
:1042B0001188FEE7BB68002B03D1FB681B6C002B49
:1042C00002D14FF0010301E04FF00003002B05D1B4
:1042D0004FF0500080F31188FEE700BF00F04CFA69
:1042E000FB689B6B002B3FD0FB68DB68BB61F86809
:1042F000B96800F027F93B68002B1ED1FB689B6B67
:1043000003F1FF32FB689A63FB681B68002B04D142
:10431000FEF782FB0246FB685A60FB681B69002BB4
:104320001DD0FB6803F110031846FEF73FF9034662
:10433000012B14D100F014FA11E0FB68BA69DA60BD
:10434000FB685B6A002B0AD0FB6803F12403184664
:10435000FEF72CF90346002B01D000F001FA00F023
:104360001DFA4FF001036BE07B68002B04D100F0D5
:1043700015FA4FF0000363E0FB69002B07D107F14A
:1043800010031846FEF774F94FF00103FB6100F0CB
:1043900005FAFDF705FF00F0EFF9FB685B6CB3F180
:1043A000FF3F03D1FB684FF000025A64FB689B6C2F
:1043B000B3F1FF3F03D1FB684FF000029A6400F0B5
:1043C000EDF907F1100207F1040310461946FEF754
:1043D0006DF90346002B2CD1F86800F02BF9034649
:1043E000002B20D0FB681B68002B08D100F0C4F91B
:1043F000FB685B681846FEF71FFB00F0CFF9FB680F
:1044000003F124027B6810461946FEF793F8F8681A
:1044100000F0C0F8FDF7D2FE0346002B7FF45DAF3D
:1044200000F09EF959E7F86800F0B4F8FDF7C6FE11
:1044300053E7F86800F0AEF8FDF7C0FE4FF0000358
:10444000184607F12007BD4680BD00BF80B584B087
:1044500000AF78607B68002B04D14FF0500080F3F0
:104460001188FEE700F088F97B689B6BFB6000F029
:1044700095F9FB68184607F11007BD4680BD00BFDF
:1044800080B584B000AFF860B9607A60FB681B6CDF
:10449000002B0DD1FB681B68002B48D1FB685B68C3
:1044A0001846FEF729FBFB684FF000025A603EE019
:1044B0007B68002B1AD1FB689A68FB681B6C10465E
:1044C000B9681A4601F0E0FCFB689A68FB681B6C4F
:1044D000D218FB689A60FB689A68FB685B689A422E
:1044E00025D3FB681A68FB689A6020E0FB68DA68ED
:1044F000FB681B6C1046B9681A4601F0C5FCFB68E6
:10450000DA68FB681B6CC3F10003D218FB68DA6041
:10451000FB68DA68FB681B689A4208D2FB685A6835
:10452000FB681B6CC3F10003D218FB68DA60FB6800
:104530009B6B03F10102FB689A6307F11007BD460C
:1045400080BD00BF80B582B000AF786039607B6805
:104550001B68002B19D07B68DA687B681B6CD2184B
:104560007B68DA607B68DA687B685B689A4203D3B1
:104570007B681A687B68DA607B68DA687B681B6C2A
:10458000386811461A4601F07FFC07F10807BD465E
:1045900080BD00BF80B582B000AF786000F0ECF85D
:1045A00014E07B685B6A002B15D07B6803F1240361
:1045B0001846FDF7FBFF0346002B01D0FEF7D0F8AD
:1045C0007B689B6C03F1FF327B689A647B689B6C11
:1045D000002BE6DC00E000BF7B684FF0FF329A64FE
:1045E00000F0DCF800F0C8F814E07B681B69002BD1
:1045F00015D07B6803F110031846FDF7D7FF03467B
:10460000002B01D0FEF7ACF87B685B6C03F1FF3246
:104610007B685A647B685B6C002BE6DC00E000BFC3
:104620007B684FF0FF325A6400F0B8F807F10807D2
:10463000BD4680BD80B584B000AF786000F09CF8C6
:104640007B689B6B002B14BF00230123DBB2FB6054
:1046500000F0A4F8FB68184607F11007BD4680BDBE
:1046600080B584B000AF786000F086F87B689A6B04
:104670007B68DB6B9A4214BF00230123DBB2FB6033
:1046800000F08CF8FB68184607F11007BD4680BDA6
:1046900080B485B000AFF860B9607A60FB68A3F1C0
:1046A0000403FB60FB684FF080721A60FB68A3F1A3
:1046B0000403FB60BA68FB681A60FB68A3F104039B
:1046C000FB60FB684FF000021A60FB68A3F1140363
:1046D000FB607A68FB681A60FB68A3F12003FB604B
:1046E000FB68184607F11407BD4680BC704700BF41
:1046F000064B19680868B0E8F00F80F309884FF09E
:10470000000080F311884EF00D0E70473800002035
:1047100003480068006880F3088862B600DF00BFC5
:1047200008ED00E080B500AF0B4B0B4A126842F475
:1047300070021A60084B084A126842F070421A6010
:1047400000F07AF8054B4FF000021A60FFF7E0FF27
:104750004FF00003184680BD20ED00E0340000203B
:1047600080B400AF034B4FF080521A60BD4680BC4E
:10477000704700BF04ED00E080B400AF4FF0500080
:1047800080F31188044B1B6803F10102024B1A608D
:10479000BD4680BC704700BF3400002080B400AF2D
:1047A000084B1B6803F1FF32064B1A60054B1B6870
:1047B000002B03D14FF0000080F31188BD4680BC70
:1047C000704700BF34000020EFF309800C4B1A68DB
:1047D00020E9F00F10602DE908404FF0500080F301
:1047E0001188FDF723FE4FF0000080F31188BDE82B
:1047F000084019680868B0E8F00F80F3098870472E
:104800003800002080B582B000AF0A4B4FF08052D4
:104810001A604FF000037B604FF0500080F3118866
:10482000FDF75CFD4FF0000080F3118807F10807E9
:10483000BD4680BD04ED00E080B400AF054B41F201
:10484000BF221A60044B4FF007021A60BD4680BCBD
:10485000704700BF14E000E010E000E080B586B0D3
:1048600000AF78604FF000037B617868FBF752FD82
:104870000346002B00F09E807868FBF75DFD034641
:104880003B613B69002B02D14FF0000393E03B6991
:10489000C3F3C043DBB2002B06D0786800F03CFACB
:1048A00003467A6913437B613B69C3F38043DBB200
:1048B000002B06D0786800F019F903467A69134393
:1048C0007B613B69C3F34003DBB2002B0AD04FF09E
:1048D0000003FB60FB6843F00203FB607B68DB685E
:1048E000FA685A613B69C3F3C073DBB2002B06D090
:1048F000786800F065F803467A6913437B613B6989
:10490000C3F3C023DBB2002B06D0786800F09CF81C
:1049100003467A6913437B613B69C3F3C003DBB28F
:10492000002B06D0786800F0CBFA03467A6913436F
:104930007B613B69C3F30013DBB2002B06D07868C0
:1049400000F0DCFA03467A6913437B613B69C3F3E9
:104950000033DBB2002B06D0786800F0F1FB034691
:104960007A6913437B613B69C3F34033DBB2002BAD
:1049700006D0786800F09AFC03467A6913437B619D
:104980003B69C3F30053DBB2002B06D0786800F01C
:10499000D1FC03467A6913437B613B69C3F34053FF
:1049A000DBB2002B06D0786800F0E2FC03467A699F
:1049B00013437B617B69184607F11807BD4680BD2C
:1049C00080B586B000AF78607B689B7A002B11D0F1
:1049D0007B6803F586731B68FB60FB686FF341031C
:1049E000FB60FB686FF30003FB607B68D3F80C315E
:1049F000FA681A604FF000033B613B6943F0010322
:104A00003B617B681B697A68126951683A696FEA91
:104A100002020A405A600B4B1B689B6978689847F2
:104A20004FF000037B617B6943F000437B617B684F
:104A3000DB687A695A614FF00103184607F11807DD
:104A4000BD4680BD2C00002080B586B000AF7860E8
:104A5000244B1B685B69786898477B681B699B6877
:104A6000FB604FF000037B617B6943F400637B6173
:104A70007B68DB687A695A617B689B7A002B2AD055
:104A8000FB68C3F30003DBB2012B24D14FF000031A
:104A90003B613B6943F001033B617B68D3F80C3118
:104AA0007A68D2F80C2111683A690A431A603B69A6
:104AB00043F002033B617B68D3F80C317A68D2F88B
:104AC0000C2111683A690A431A60074B064A1269B9
:104AD00042F006021A614FF00103184607F1180769
:104AE000BD4680BD2C00002000ED00E080B586B002
:104AF00000AF78604FF000033B614FF00003BB60F4
:104B00007868FCF73FF87861F8E07B6903F001030F
:104B1000002B00F0EB803B69DBB27868194600F0AF
:104B200045FC0346BB60BB68C3F30003DBB2002B4C
:104B300037D03B694FF0010202FA03F3FB607B6858
:104B40001B697A681269516BFA686FEA02020A40BF
:104B50005A634FF00003BB60BB6843F00103BB60C6
:104B60007A683B6903F104034FEA8303D3189B6817
:104B7000BA689A60674B1B685B683A69D2B278681A
:104B8000114698477B68DB78012B0AD13B69002BE3
:104B900007D17B6893F81131042B02D17868FCF7B8
:104BA0000BF8BB68C3F38003DBB2002B10D04FF0CF
:104BB0000003BB60BB6843F00403BB607A683B69D9
:104BC00003F104034FEA8303D3189B68BA689A6021
:104BD000BB68C3F3C003DBB2002B10D04FF000035F
:104BE000BB60BB6843F00803BB607A683B6903F1B4
:104BF00004034FEA8303D3189B68BA689A60BB68C2
:104C0000C3F30013DBB2002B10D04FF00003BB60E6
:104C1000BB6843F01003BB607A683B6903F104038F
:104C20004FEA8303D3189B68BA689A60BB68C3F3E2
:104C30004013DBB2002B10D04FF00003BB60BB6809
:104C400043F02003BB607A683B6903F104034FEA39
:104C50008303D3189B68BA689A60BB68C3F3801358
:104C6000DBB2002B10D04FF00003BB60BB6843F0F9
:104C70004003BB607A683B6903F104034FEA830396
:104C8000D3189B68BA689A60BB68C3F34003DBB271
:104C9000002B10D04FF00003BB60BB6843F0020351
:104CA000BB607A683B6903F104034FEA8303D318BE
:104CB0009B68BA689A60BB68C3F3C013DBB2002B71
:104CC00014D07868396900F0A3F94FF00003BB6095
:104CD000BB6843F08003BB607A683B6903F104035F
:104CE0004FEA8303D3189B68BA689A603B6903F163
:104CF00001033B617B694FEA53037B617B69002BB6
:104D00007FF403AF4FF00103184607F11807BD46C3
:104D100080BD00BF2C00002080B586B000AF786059
:104D20004FF000033B614FF00003FB607868FBF736
:104D3000F3FE7861B7E07B6903F00103002B00F01C
:104D4000AA803B69DBB278681946FBF7FDFE034693
:104D5000FB60FB68C3F30003DBB2002B51D04FF0C4
:104D60000003FB60FB6843F00103FB607A683B696A
:104D700003F114034FEA8303D3185B68FA689A605F
:104D80007B68DB78012B25D17A683B6903F114033A
:104D90004FEA8303D3185B681B69BB6079683A6983
:104DA00013464FEA83039B184FEAC303CB1803F55E
:104DB0005E731A68BB68C3F31203D11A78683A6944
:104DC00013464FEA83039B184FEAC303C31803F546
:104DD00062731960394B1B681B683A69D2B27868F4
:104DE000114698477B68DB78012B0AD13B69002B81
:104DF00007D17B6893F81131052B02D17868FBF756
:104E0000DBFEFB68C3F34003DBB2002B10D04FF096
:104E10000003FB60FB6843F00203FB607A683B69B8
:104E200003F114034FEA8303D3185B68FA689A60AE
:104E3000FB68C3F38003DBB2002B10D04FF00003FC
:104E4000FB60FB6843F00403FB607A683B6903F195
:104E500014034FEA8303D3185B68FA689A60FB680F
:104E6000C3F3C003DBB2002B15D0144B1B689B6847
:104E7000786898474FF00003FB60FB6843F0080335
:104E8000FB607A683B6903F114034FEA8303D3188C
:104E90005B68FA689A603B6903F101033B617B69D7
:104EA0004FEA53037B617B69002B7FF444AF4FF0E3
:104EB0000103184607F11807BD4680BD2C000020ED
:104EC00080B584B000AF78600B4B1B68DB687868F6
:104ED00098474FF00003FB60FB6843F00803FB605A
:104EE0007B68DB68FA685A614FF00103184607F1E6
:104EF0001007BD4680BD00BF2C00002080B586B0E5
:104F000000AF78604FF000033B613B6943F0100352
:104F10003B617B68DB687A68D26891693A696FEABD
:104F200002020A409A617B68DB681B6AFB60FB68CF
:104F3000C3F30303DBB21A4613464FEA83039B18FD
:104F40004FEAC30303F55C737A68D3187B61FB688F
:104F5000C3F34343DBB203F1FF33052B45D801A272
:104F600052F823F0EB4F00087D4F0008EB4F00088C
:104F7000EB4F0008EB4F0008C54F0008FB68C3F378
:104F80000A139BB2002B32D07B69DA68FB68C3F34B
:104F90000A139BB2786811461A46FBF737F97B690A
:104FA000DA68FB68C3F30A139BB2D2187B69DA6034
:104FB0007B699A69FB68C3F30A139BB2D2187B69B9
:104FC0009A6114E07B6803F5B963786819464FF07D
:104FD0000802FBF71BF97B699A69FB68C3F30A13A4
:104FE0009BB2D2187B699A6102E000BF00E000BF6B
:104FF0007B68DB687A68D26891693A690A439A618A
:105000004FF00103184607F11807BD4680BD00BFE9
:1050100080B588B000AF786039604FF00003FB6165
:105020004FF00003FB603A6813464FEA83039B1876
:105030004FEAC30303F58C737A68D3187B617B69ED
:105040005A697B699B69D31AFB617B699A68FB6922
:105050009A4202D27B699B68FB61FB6903F10303FF
:105060004FEA9303BB617A683B6803F104034FEA9C
:105070008303D3189B689B69FB604AE07B695A698C
:105080007B699B69D31AFB617B699A68FB699A42C9
:1050900002D27B699B68FB61FB6903F103034FEA62
:1050A0009303BB617B69D9683B68DAB2FB699BB249
:1050B0007868FBF769F87B69DA68FB69D2187B6965
:1050C000DA607B699A69FB69D2187B699A617B69AE
:1050D0009A697B695B699A4211D37B691B784FF0AF
:1050E000010202FA03F33B617B681B697A6812696B
:1050F000516B3A696FEA02020A405A6318E07A6813
:105100003B6803F104034FEA8303D3189B689B6950
:10511000FB60BB891A46BB699A4209D97B699A69C7
:105120007B695B699A4203D27B695B69002BA5D1DD
:105130004FF00103184607F12007BD4680BD00BFB0
:1051400080B58AB000AF78604FF000033B614FF04C
:1051500000033B624FF00003FB614FF00003BB61B3
:105160004FF000037B614FF00003FB603B6943F0AD
:1051700001033B617B681B697A68126951683A696F
:105180006FEA02020A405A6078684FF00001FBF7AC
:1051900071F84FF000037B6219E07A687B6A03F1D3
:1051A00004034FEA8303D3189B684FF0FF029A6011
:1051B0007A687B6A03F114034FEA8303D3185B68B0
:1051C0004FF0FF029A607B6A03F101037B627B6808
:1051D0005B781A467B6A9A42DFD87B681B694FF07E
:1051E000FF329A613B6A4FF0010262F30F033B62A8
:1051F0003B6A4FF0010262F31F433B627B681B690D
:105200003A6ADA61FB6943F00803FB61FB6943F02A
:105210000103FB61FB6943F00403FB61FB6943F09D
:105220000203FB617B681B69FA695A61BB6943F041
:105230000103BB61BB6943F00803BB61BB6943F079
:105240000203BB61BB6943F00403BB61BB6943F06C
:105250002003BB617B681B69BA691A617B681B69A3
:105260001B687B617B696FF30A137B617B681B6939
:105270007A691A607868FBF79FFC4FF00003FB60C7
:10528000FB6843F48053FB607B68DB68FA685A6113
:10529000054B1B681B69786898474FF00103184657
:1052A00007F12807BD4680BD2C00002080B584B0E2
:1052B00000AF78607868FBF77FF87B68DB68DB68B5
:1052C000BB607868FBF750F80346032B0ED17B6870
:1052D0004FF000029A707B684FF400729A80BB68AE
:1052E0004FF0090262F38D23BB600DE07B684FF045
:1052F00001029A707B684FF040029A80BB684FF0C1
:10530000050262F38D23BB607B68DB68BA68DA60F4
:105310004FF00003FB60FB6843F40053FB607B68C5
:10532000DB68FA685A614FF00103184607F110076D
:10533000BD4680BD80B584B000AF78604FF00003FB
:10534000FB600A4B1B68DB6978689847FB6843F48D
:105350008013FB607B68DB68FA685A614FF00103D9
:10536000184607F11007BD4680BD00BF2C00002085
:1053700080B584B000AF78604FF00003FB600A4B4B
:105380001B681B6A78689847FB6843F40013FB604E
:105390007B68DB68FA685A614FF00103184607F131
:1053A0001007BD4680BD00BF2C00002080B487B030
:1053B00000AF78600B46FB707B681B691B697B61E3
:1053C0007B681B695B6B3B61FB783A6922FA03F3EC
:1053D0004FEAC313DBB27A6913437B61FB787A68C7
:1053E00003F104034FEA8303D3189B689A687B692F
:1053F0001340FB60FB68184607F11C07BD4680BCE4
:10540000704700BF80B485B000AF78604FF00003F4
:10541000FB734FF00003BB600D4B1A687B681340B1
:10542000BB600B4B5A697B681340002B06D0BB68EE
:10543000002B03D04FF00103FB7302E04FF0000399
:10544000FB73FB7B184607F11407BD4680BC704711
:10545000003C014080B483B000AF7860034B7A68B1
:105460005A6107F10C07BD4680BC7047003C014003
:1054700080B584B000AF7860F9703A80BB70FB787B
:105480005BB2002B0EDAFB7803F07F0213464FEA83
:1054900083039B184FEAC30303F58C737A68D31810
:1054A000FB600DE0FB7803F07F0213464FEA8303B5
:1054B0009B184FEAC30303F55C737A68D318FB604B
:1054C000FB7803F07F03DAB2FB681A70FB784FEACF
:1054D000D313DBB21A46FB685A703A88FB689A60AD
:1054E000FB68BA78DA70FB685B78002B04D0FB6845
:1054F0001B781A46FB68DA80BB78022B03D1FB6865
:105500004FF000021A717868F968FAF795FF4FF0CA
:105510000003184607F11007BD4680BD80B586B070
:1055200000AFF8607A600A46FA723B81FB7A03F0BA
:105530007F0213464FEA83039B184FEAC30303F528
:105540005C73FA68D3187B617B697A68DA603A89A0
:105550007B695A617B694FF000029A617B694FF069
:1055600000025A70FB7A03F07F03DAB27B691A708B
:10557000FB68DB78012B02D17A687B691A617B6951
:105580001B78002B04D1F8687969FBF739F903E03F
:10559000F8687969FAF7CCFF4FF00003184607F175
:1055A0001807BD4680BD00BF80B586B000AFF8606B
:1055B0007A603B600B46FB72FB7A03F07F02134676
:1055C0004FEA83039B184FEAC30303F58C73FA6811
:1055D000D3187B617B694FF001025A70FB7A03F0AC
:1055E0007F03DAB27B691A707B697A68DA607A685D
:1055F0007B691A617B694FF000029A617B693A68A6
:105600005A617B691B78002B04D1F8687969FBF734
:10561000F7F803E0F8687969FAF78AFF4FF00003BA
:10562000184607F11807BD4680BD00BF80B584B09D
:1056300000AF78600B46FB70FB785BB2002B0EDA94
:10564000FB7803F07F0213464FEA83039B184FEA6F
:10565000C30303F58C737A68D318FB600BE0FA7808
:1056600013464FEA83039B184FEAC30303F55C73A9
:105670007A68D318FB60FB684FF001029A70FB78E0
:1056800003F07F03DAB2FB681A70FB784FEAD3139A
:10569000DBB21A46FB685A707868F968FBF7B0F914
:1056A0004FF00003184607F11007BD4680BD00BF4C
:1056B00080B584B000AF78600B46FB70FB785BB2BE
:1056C000002B0EDAFB7803F07F0213464FEA8303C8
:1056D0009B184FEAC30303F58C737A68D318FB60F9
:1056E0000BE0FA7813464FEA83039B184FEAC30393
:1056F00003F55C737A68D318FB60FB684FF0000217
:105700009A70FB7803F07F03DAB2FB681A70FB78BB
:105710004FEAD313DBB21A46FB685A707868F9680F
:10572000FBF7B8F94FF00003184607F11007BD4624
:1057300080BD00BF80B485B000AF78600B46FB70C1
:105740004FF00003FB60FB7803F07F03DAB2FB68E5
:1057500062F30A13FB607B681B697A68126911683F
:10576000FA680A431A6007F11407BD4680BC704707
:1057700080B584B000AF78604FF00003FB607B68B9
:1057800003F00703002B05D07B6823F0070303F128
:1057900008037B60FCF704FD134B1A687B68D21882
:1057A00042F2FF339A4212D80F4B1A687B68D21824
:1057B0000D4B1B689A420AD90B4B1A680B4BD31836
:1057C000FB60094B1A687B68D218074B1A60FCF71C
:1057D000F5FCFB68002B01D1FCF718F8FB681846B4
:1057E00007F11007BD4680BD482500204801002074
:1057F00080B483B000AF786007F10C07BD4680BC71
:10580000704700BF80B400AF034B1B68C3F5105353
:105810001846BD4680BC70474825002080B586B03C
:1058200000AFF860B9601346FB804FF00003FB75D2
:10583000FA88FB68C3F83821FA88FB68C3F834217A
:10584000FB684FF0020283F81121FB88F8684FF0E3
:105850000001BA68FFF7A8FEFB7D184607F118079C
:10586000BD4680BD80B586B000AFF860B960134614
:10587000FB804FF00003FB75FB88F8684FF00001D8
:10588000BA68FFF791FEFB7D184607F11807BD4681
:1058900080BD00BF80B586B000AFF860B960134628
:1058A000FB804FF00003FB75FB88F8684FF00001A8
:1058B000BA68FFF733FEFB7D184607F11807BD46AF
:1058C00080BD00BF80B584B000AF78604FF00003AA
:1058D000FB737B684FF0040283F8112178684FF066
:1058E00000014FF000024FF00003FFF75DFE786803
:1058F000FBF762F9FB7B184607F11007BD4680BD38
:1059000080B584B000AF78604FF00003FB737B6814
:105910004FF0050283F8112178684FF000014FF035
:1059200000024FF00003FFF7F9FD7868FBF744F938
:10593000FB7B184607F11007BD4680BD80B485B0DB
:1059400000AF786039604FF00003FB817B681B88F3
:10595000FB817A68284B9A4213D07A68274B9A4287
:105960000FD07B68B3F1804F0BD07A68244B9A42FA
:1059700007D07A68234B9A4203D07A68224B9A4226
:1059800008D1FB8923F07003FB813B685A88FB89AF
:105990001343FB817A681D4B9A420CD07A681C4BEA
:1059A0009A4208D0FB8923F44073FB813B681A8933
:1059B000FB891343FB817B68FA891A803B685A682C
:1059C0007B68DA623B681A887B681A857A680A4BBA
:1059D0009A4203D07A68094B9A4204D13B689B7A79
:1059E0001A467B681A867B684FF001029A8207F19B
:1059F0001407BD4680BC7047000001400004014010
:105A00000004004000080040000C0040001000406E
:105A10000014004080B483B000AF78607B684FF022
:105A2000FF325A607B684FF000021A807B684FF0AB
:105A300000021A817B684FF000025A807B684FF0A9
:105A400000029A7207F10C07BD4680BC704700BF88
:105A500080B483B000AF78600B46FB70FB78002BFE
:105A600008D07B681B889BB243F080039AB27B68A6
:105A70001A8007E07B681B889BB223F080039AB2F0
:105A80007B681A8007F10C07BD4680BC704700BFD9
:105A900080B483B000AF78600B46FB70FB78002BBE
:105AA00008D07B681B889BB243F001039AB27B68E5
:105AB0001A8007E07B681B889BB223F001039AB22F
:105AC0007B681A8007F10C07BD4680BC704700BF99
:105AD00080B485B000AF786039604FF000037B81FF
